{
  "abi": [
    {
      "constant": false,
      "inputs": [
        {
          "name": "key",
          "type": "bytes32"
        },
        {
          "name": "purpose",
          "type": "uint256"
        }
      ],
      "name": "setKey",
      "outputs": [],
      "payable": false,
      "stateMutability": "nonpayable",
      "type": "function"
    },
    {
      "constant": false,
      "inputs": [
        {
          "name": "key",
          "type": "bytes32"
        },
        {
          "name": "purpose",
          "type": "bytes32"
        }
      ],
      "name": "setKey",
      "outputs": [],
      "payable": false,
      "stateMutability": "nonpayable",
      "type": "function"
    },
    {
      "constant": false,
      "inputs": [
        {
          "name": "keys",
          "type": "bytes32[]"
        },
        {
          "name": "purposes",
          "type": "bytes32[]"
        },
        {
          "name": "managementThreshold",
          "type": "uint256"
        },
        {
          "name": "actionThreshold",
          "type": "uint256"
        }
      ],
      "name": "initialize",
      "outputs": [],
      "payable": false,
      "stateMutability": "nonpayable",
      "type": "function"
    },
    {
      "constant": true,
      "inputs": [
        {
          "name": "key",
          "type": "bytes32"
        }
      ],
      "name": "getKey",
      "outputs": [
        {
          "name": "",
          "type": "bytes32"
        }
      ],
      "payable": false,
      "stateMutability": "view",
      "type": "function"
    },
    {
      "constant": false,
      "inputs": [
        {
          "name": "",
          "type": "address"
        },
        {
          "name": "",
          "type": "address"
        },
        {
          "name": "",
          "type": "uint256"
        },
        {
          "name": "",
          "type": "bytes"
        }
      ],
      "name": "onERC721Received",
      "outputs": [
        {
          "name": "",
          "type": "bytes4"
        }
      ],
      "payable": false,
      "stateMutability": "nonpayable",
      "type": "function"
    },
    {
      "constant": true,
      "inputs": [
        {
          "name": "data",
          "type": "bytes32"
        },
        {
          "name": "signature",
          "type": "bytes"
        }
      ],
      "name": "isValidSignature",
      "outputs": [
        {
          "name": "",
          "type": "bool"
        }
      ],
      "payable": false,
      "stateMutability": "view",
      "type": "function"
    },
    {
      "constant": false,
      "inputs": [
        {
          "name": "actionThreshold",
          "type": "uint256"
        }
      ],
      "name": "setActionThreshold",
      "outputs": [],
      "payable": false,
      "stateMutability": "nonpayable",
      "type": "function"
    },
    {
      "constant": false,
      "inputs": [
        {
          "name": "key",
          "type": "address"
        },
        {
          "name": "purpose",
          "type": "uint256"
        }
      ],
      "name": "setKey",
      "outputs": [],
      "payable": false,
      "stateMutability": "nonpayable",
      "type": "function"
    },
    {
      "constant": false,
      "inputs": [
        {
          "name": "key",
          "type": "address"
        },
        {
          "name": "purpose",
          "type": "bytes32"
        }
      ],
      "name": "setKey",
      "outputs": [],
      "payable": false,
      "stateMutability": "nonpayable",
      "type": "function"
    },
    {
      "constant": false,
      "inputs": [
        {
          "name": "operationType",
          "type": "uint256"
        },
        {
          "name": "to",
          "type": "address"
        },
        {
          "name": "value",
          "type": "uint256"
        },
        {
          "name": "data",
          "type": "bytes"
        }
      ],
      "name": "execute",
      "outputs": [],
      "payable": false,
      "stateMutability": "nonpayable",
      "type": "function"
    },
    {
      "constant": true,
      "inputs": [],
      "name": "masterId",
      "outputs": [
        {
          "name": "",
          "type": "bytes32"
        }
      ],
      "payable": false,
      "stateMutability": "pure",
      "type": "function"
    },
    {
      "constant": true,
      "inputs": [
        {
          "name": "key",
          "type": "bytes32"
        }
      ],
      "name": "getData",
      "outputs": [
        {
          "name": "",
          "type": "bytes"
        }
      ],
      "payable": false,
      "stateMutability": "view",
      "type": "function"
    },
    {
      "constant": true,
      "inputs": [
        {
          "name": "key",
          "type": "address"
        },
        {
          "name": "purpose",
          "type": "uint256"
        }
      ],
      "name": "keyHasPurpose",
      "outputs": [
        {
          "name": "",
          "type": "bool"
        }
      ],
      "payable": false,
      "stateMutability": "view",
      "type": "function"
    },
    {
      "constant": true,
      "inputs": [
        {
          "name": "key",
          "type": "bytes32"
        },
        {
          "name": "purpose",
          "type": "bytes32"
        }
      ],
      "name": "keyHasPurpose",
      "outputs": [
        {
          "name": "",
          "type": "bool"
        }
      ],
      "payable": false,
      "stateMutability": "view",
      "type": "function"
    },
    {
      "constant": true,
      "inputs": [
        {
          "name": "addr",
          "type": "address"
        }
      ],
      "name": "addrToKey",
      "outputs": [
        {
          "name": "",
          "type": "bytes32"
        }
      ],
      "payable": false,
      "stateMutability": "pure",
      "type": "function"
    },
    {
      "constant": false,
      "inputs": [
        {
          "name": "newMaster",
          "type": "address"
        },
        {
          "name": "initData",
          "type": "bytes"
        },
        {
          "name": "reset",
          "type": "bool"
        }
      ],
      "name": "updateMaster",
      "outputs": [],
      "payable": false,
      "stateMutability": "nonpayable",
      "type": "function"
    },
    {
      "constant": false,
      "inputs": [
        {
          "name": "operationType",
          "type": "uint256"
        },
        {
          "name": "to",
          "type": "address"
        },
        {
          "name": "value",
          "type": "uint256"
        },
        {
          "name": "data",
          "type": "bytes"
        },
        {
          "name": "nonce",
          "type": "uint256"
        },
        {
          "name": "sigs",
          "type": "bytes[]"
        }
      ],
      "name": "execute",
      "outputs": [],
      "payable": false,
      "stateMutability": "nonpayable",
      "type": "function"
    },
    {
      "constant": false,
      "inputs": [
        {
          "name": "key",
          "type": "bytes32"
        },
        {
          "name": "value",
          "type": "bytes"
        }
      ],
      "name": "setData",
      "outputs": [],
      "payable": false,
      "stateMutability": "nonpayable",
      "type": "function"
    },
    {
      "constant": true,
      "inputs": [],
      "name": "getActiveKeys",
      "outputs": [
        {
          "name": "",
          "type": "bytes32[]"
        }
      ],
      "payable": false,
      "stateMutability": "view",
      "type": "function"
    },
    {
      "constant": true,
      "inputs": [],
      "name": "owner",
      "outputs": [
        {
          "name": "",
          "type": "address"
        }
      ],
      "payable": false,
      "stateMutability": "view",
      "type": "function"
    },
    {
      "constant": true,
      "inputs": [],
      "name": "getManagementThreshold",
      "outputs": [
        {
          "name": "",
          "type": "uint256"
        }
      ],
      "payable": false,
      "stateMutability": "view",
      "type": "function"
    },
    {
      "constant": true,
      "inputs": [
        {
          "name": "key",
          "type": "address"
        }
      ],
      "name": "getKey",
      "outputs": [
        {
          "name": "",
          "type": "bytes32"
        }
      ],
      "payable": false,
      "stateMutability": "view",
      "type": "function"
    },
    {
      "constant": true,
      "inputs": [],
      "name": "getManagementKeyCount",
      "outputs": [
        {
          "name": "",
          "type": "uint256"
        }
      ],
      "payable": false,
      "stateMutability": "view",
      "type": "function"
    },
    {
      "constant": true,
      "inputs": [],
      "name": "nonce",
      "outputs": [
        {
          "name": "",
          "type": "uint256"
        }
      ],
      "payable": false,
      "stateMutability": "view",
      "type": "function"
    },
    {
      "constant": true,
      "inputs": [
        {
          "name": "key",
          "type": "bytes32"
        },
        {
          "name": "purpose",
          "type": "uint256"
        }
      ],
      "name": "keyHasPurpose",
      "outputs": [
        {
          "name": "",
          "type": "bool"
        }
      ],
      "payable": false,
      "stateMutability": "view",
      "type": "function"
    },
    {
      "constant": false,
      "inputs": [
        {
          "name": "managementThreshold",
          "type": "uint256"
        }
      ],
      "name": "setManagementThreshold",
      "outputs": [],
      "payable": false,
      "stateMutability": "nonpayable",
      "type": "function"
    },
    {
      "constant": true,
      "inputs": [],
      "name": "getActionThreshold",
      "outputs": [
        {
          "name": "",
          "type": "uint256"
        }
      ],
      "payable": false,
      "stateMutability": "view",
      "type": "function"
    },
    {
      "constant": true,
      "inputs": [],
      "name": "master",
      "outputs": [
        {
          "name": "",
          "type": "address"
        }
      ],
      "payable": false,
      "stateMutability": "view",
      "type": "function"
    },
    {
      "constant": true,
      "inputs": [
        {
          "name": "key",
          "type": "address"
        },
        {
          "name": "purpose",
          "type": "bytes32"
        }
      ],
      "name": "keyHasPurpose",
      "outputs": [
        {
          "name": "",
          "type": "bool"
        }
      ],
      "payable": false,
      "stateMutability": "view",
      "type": "function"
    },
    {
      "inputs": [],
      "payable": false,
      "stateMutability": "nonpayable",
      "type": "constructor"
    },
    {
      "payable": true,
      "stateMutability": "payable",
      "type": "fallback"
    },
    {
      "anonymous": false,
      "inputs": [
        {
          "indexed": true,
          "name": "key",
          "type": "bytes32"
        },
        {
          "indexed": true,
          "name": "previousPurpose",
          "type": "bytes32"
        },
        {
          "indexed": true,
          "name": "newPurpose",
          "type": "bytes32"
        }
      ],
      "name": "SetKey",
      "type": "event"
    },
    {
      "anonymous": false,
      "inputs": [
        {
          "indexed": false,
          "name": "previousThreshold",
          "type": "uint256"
        },
        {
          "indexed": false,
          "name": "newThreshold",
          "type": "uint256"
        }
      ],
      "name": "ManagementThresholdChange",
      "type": "event"
    },
    {
      "anonymous": false,
      "inputs": [
        {
          "indexed": false,
          "name": "previousThreshold",
          "type": "uint256"
        },
        {
          "indexed": false,
          "name": "newThreshold",
          "type": "uint256"
        }
      ],
      "name": "ActionThresholdChange",
      "type": "event"
    },
    {
      "anonymous": false,
      "inputs": [
        {
          "indexed": true,
          "name": "previousMaster",
          "type": "address"
        },
        {
          "indexed": true,
          "name": "newMaster",
          "type": "address"
        }
      ],
      "name": "MasterChange",
      "type": "event"
    },
    {
      "anonymous": false,
      "inputs": [
        {
          "indexed": true,
          "name": "key",
          "type": "bytes32"
        },
        {
          "indexed": false,
          "name": "value",
          "type": "bytes"
        }
      ],
      "name": "DataChanged",
      "type": "event"
    },
    {
      "anonymous": false,
      "inputs": [
        {
          "indexed": true,
          "name": "contractAddress",
          "type": "address"
        }
      ],
      "name": "ContractCreated",
      "type": "event"
    },
    {
      "anonymous": false,
      "inputs": [
        {
          "indexed": true,
          "name": "to",
          "type": "address"
        }
      ],
      "name": "CallSuccess",
      "type": "event"
    },
    {
      "anonymous": false,
      "inputs": [
        {
          "indexed": true,
          "name": "to",
          "type": "address"
        },
        {
          "indexed": false,
          "name": "returndata",
          "type": "bytes"
        }
      ],
      "name": "CallFailure",
      "type": "event"
    }
  ],
  "evm": {
    "bytecode": {
      "linkReferences": {},
      "object": "608060405234801561001057600080fd5b50612041806100206000396000f3fe6080604052600436106101c25760003560e01c806363f14c3c116100f757806393790f4411610095578063da84ddd111610064578063da84ddd114610499578063ea40df3a146104b9578063ee97f7f3146104ce578063f2725bbe14610336576101c2565b806393790f441461044f578063aa4361b91461046f578063affed0e014610484578063d202158d14610356576101c2565b80637f23690c116100d15780637f23690c146103d657806383d2deb1146103f65780638da5cb5b146104185780638efee3b51461043a576101c2565b806363f14c3c14610376578063646e55db146103965780637d0a9172146103b6576101c2565b80631c5e56a0116101645780635122bb7c1161013e5780635122bb7c146102f457806354f6127f146103095780635e6261fa1461033657806363ebc4dd14610356576101c2565b80631c5e56a0146102b457806335d8df48146102b457806344c028fe146102d4576101c2565b806312aaac70116101a057806312aaac7014610204578063150b7a021461023a5780631626ba7e1461026757806319a3974014610294576101c2565b806303f778de146101c457806307a00330146101c45780630eda0979146101e4575b005b3480156101d057600080fd5b506101c26101df3660046116c7565b6104e3565b3480156101f057600080fd5b506101c26101ff366004611607565b610535565b34801561021057600080fd5b5061022461021f36600461168b565b610613565b6040516102319190611d77565b60405180910390f35b34801561024657600080fd5b5061025a6102553660046114ef565b610625565b6040516102319190611dc3565b34801561027357600080fd5b506102876102823660046116e6565b610638565b6040516102319190611d69565b3480156102a057600080fd5b506101c26102af36600461168b565b610660565b3480156102c057600080fd5b506101c26102cf366004611568565b6106fb565b3480156102e057600080fd5b506101c26102ef36600461172e565b610748565b34801561030057600080fd5b50610224610795565b34801561031557600080fd5b5061032961032436600461168b565b6107ba565b6040516102319190611dd1565b34801561034257600080fd5b50610287610351366004611568565b61085b565b34801561036257600080fd5b506102876103713660046116c7565b61086f565b34801561038257600080fd5b506102246103913660046114c9565b61087b565b3480156103a257600080fd5b506101c26103b13660046115a2565b610887565b3480156103c257600080fd5b506101c26103d1366004611750565b61093a565b3480156103e257600080fd5b506101c26103f13660046116e6565b610ad2565b34801561040257600080fd5b5061040b610b69565b6040516102319190611d58565b34801561042457600080fd5b5061042d610bc1565b6040516102319190611d4a565b34801561044657600080fd5b50610224610bc5565b34801561045b57600080fd5b5061022461046a3660046114c9565b610bcb565b34801561047b57600080fd5b50610224610bf0565b34801561049057600080fd5b50610224610bf6565b3480156104a557600080fd5b506101c26104b436600461168b565b610bfc565b3480156104c557600080fd5b50610224610cbc565b3480156104da57600080fd5b5061042d610cc2565b6104eb610bc1565b6001600160a01b0316336001600160a01b03161461052757604051600160e51b62461bcd02815260040161051e90611df2565b60405180910390fd5b6105318282610cd1565b5050565b600054600160a01b900460ff161561056257604051600160e51b62461bcd02815260040161051e90611e32565b825184511461058657604051600160e51b62461bcd02815260040161051e90611e52565b60005b84518110156105ca576105c28582815181106105a157fe5b60200260200101518583815181106105b557fe5b6020026020010151610cd1565b600101610589565b508160065410156105f057604051600160e51b62461bcd02815260040161051e90611ea2565b600791909155600855505060008054600160a01b60ff021916600160a01b179055565b60009081526004602052604090205490565b600160e11b630a85bd0102949350505050565b6000610657610650610391858563ffffffff610e9216565b600461086f565b90505b92915050565b610668610bc1565b6001600160a01b0316336001600160a01b03161461069b57604051600160e51b62461bcd02815260040161051e90611df2565b806106bb57604051600160e51b62461bcd02815260040161051e90611e02565b7ffd0b44227dee5de3fa844ff17983688ade4471a8257d62ed2a48507168810d7a600854826040516106ee929190611ec2565b60405180910390a1600855565b610703610bc1565b6001600160a01b0316336001600160a01b03161461073657604051600160e51b62461bcd02815260040161051e90611df2565b6105316107428361087b565b82610cd1565b610750610bc1565b6001600160a01b0316336001600160a01b03161461078357604051600160e51b62461bcd02815260040161051e90611df2565b61078f84848484610f6e565b50505050565b7f1618fcec65bce0693e931d337fc12424ee920bf56c4a74bc8ddb1361328af2365b90565b60008181526003602090815260409182902080548351601f600260001961010060018616150201909316929092049182018490048402810184019094528084526060939283018282801561084f5780601f106108245761010080835404028352916020019161084f565b820191906000526020600020905b81548152906001019060200180831161083257829003601f168201915b50505050509050919050565b60006106576108698461087b565b836110cc565b600061065783836110cc565b6001600160a01b031690565b61088f610bc1565b6001600160a01b0316336001600160a01b0316146108c257604051600160e51b62461bcd02815260040161051e90611df2565b801561092b5760005b60055481101561090e5760046000600583815481106108e657fe5b90600052602060002001548152602001908152602001600020600090558060010190506108cb565b5061091b60056000611299565b6000600681905560078190556008555b61093583836110e2565b505050565b60018054810190819055821461096557604051600160e51b62461bcd02815260040161051e90611e82565b60006001600160a01b0386163014156109a6576007548251101561099e57604051600160e51b62461bcd02815260040161051e90611e92565b5060016109d0565b600854825110156109cc57604051600160e51b62461bcd02815260040161051e90611e92565b5060025b6000610a12308989898980519060200120896040516020016109f796959493929190611cad565b60405160208183030381529060405280519060200120611269565b90506000805b8451811015610aba576000610a49868381518110610a3257fe5b602002602001015185610e9290919063ffffffff16565b9050826001600160a01b0316816001600160a01b031611610a7f57604051600160e51b62461bcd02815260040161051e90611e42565b610a91610a8b8261087b565b8661086f565b610ab057604051600160e51b62461bcd02815260040161051e90611e12565b9150600101610a18565b50610ac789898989610f6e565b505050505050505050565b610ada610bc1565b6001600160a01b0316336001600160a01b031614610b0d57604051600160e51b62461bcd02815260040161051e90611df2565b60008281526003602090815260409091208251610b2c928401906112ba565b50817fece574603820d07bc9b91f2a932baadf4628aabcb8afba49776529c14a6104b282604051610b5d9190611dd1565b60405180910390a25050565b60606005805480602002602001604051908101604052809291908181526020018280548015610bb757602002820191906000526020600020905b815481526020019060010190808311610ba3575b5050505050905090565b3090565b60075490565b600060046000610bda8461087b565b8152602001908152602001600020549050919050565b60065490565b60015490565b610c04610bc1565b6001600160a01b0316336001600160a01b031614610c3757604051600160e51b62461bcd02815260040161051e90611df2565b80610c5757604051600160e51b62461bcd02815260040161051e90611e02565b806006541015610c7c57604051600160e51b62461bcd02815260040161051e90611e62565b7f9b1fc5ddbac8d6fac2661a57e7515dee9abf241f420629999d85f031919f4b4d60075482604051610caf929190611ec2565b60405180910390a1600755565b60085490565b6000546001600160a01b031690565b60008281526004602052604090205419600116158015610cf2575060018116155b15610d0257600680546000190190555b600082815260046020526040902054600116158015610d2357506001811916155b15610d32576006805460010190555b6007546006541015610d5957604051600160e51b62461bcd02815260040161051e90611e22565b600082815260046020526040902054610da257600580546001810182556000919091527f036b6384b5eca791c62761152d0c79bb0604c104a5fb6f4eb0703f3154bb3db0018290555b600082815260046020526040808220549051839285917f82f65b599219dc2719c1104b915b860b397dc476d20c4df48810a72bb8ad1e5b9190a46000828152600460205260409020819055806105315760005b600554811015610935578260058281548110610e0d57fe5b90600052602060002001541415610e8a57600580546000198101908110610e3057fe5b906000526020600020015460058281548110610e4857fe5b600091825260209091200155600580546000198101908110610e6657fe5b60009182526020822001556005805490610e84906000198301611338565b50610935565b600101610df5565b60008151604114610ea55750600061065a565b60208201516040830151606084015160001a7f7fffffffffffffffffffffffffffffff5d576e7357a4501ddfe92f46681b20a0821115610eeb576000935050505061065a565b8060ff16601b14158015610f0357508060ff16601c14155b15610f14576000935050505061065a565b60018682858560405160008152602001604052604051610f379493929190611d85565b6020604051602081039080840390855afa158015610f59573d6000803e3d6000fd5b5050604051601f190151979650505050505050565b836110605760006060846001600160a01b03168484604051610f909190611d17565b60006040518083038185875af1925050503d8060008114610fcd576040519150601f19603f3d011682016040523d82523d6000602084013e610fd2565b606091505b5090925090508115611017576040516001600160a01b038616907f7c940052472fd1d616012dc780a92c777783e8f45cdb6802d1d48891cd33a50890600090a2611059565b846001600160a01b03167f4b0b4377cb27b4634a3573214783294886bc4e04f64fa75d3f5469fb26393462826040516110509190611dd1565b60405180910390a25b505061078f565b60018414156110b15760008151602083016000f06040519091506001600160a01b038216907fcf78cf0d6f3d8371e1075c69c492ab4ec5d8cf23a1a239b6a51a1d00be7ca31290600090a25061078f565b604051600160e51b62461bcd02815260040161051e90611e72565b6000918252600460205260409091205419161590565b7f1618fcec65bce0693e931d337fc12424ee920bf56c4a74bc8ddb1361328af23660001b826001600160a01b0316635122bb7c6040518163ffffffff1660e01b815260040160206040518083038186803b15801561113f57600080fd5b505afa158015611153573d6000803e3d6000fd5b505050506040513d601f19601f8201168201806040525061117791908101906116a9565b1461119757604051600160e51b62461bcd02815260040161051e90611eb2565b600080546040516001600160a01b03808616939216917fb177a4a05a82a0d82537f71956f554ee3d2d0f32a76c0b056e0490778be10ab491a3600080546001600160a01b0319166001600160a01b038416908117600160a01b60ff0219168255604051611205908490611d17565b600060405180830381855af49150503d8060008114611240576040519150601f19603f3d011682016040523d82523d6000602084013e611245565b606091505b505090508061093557604051600160e51b62461bcd02815260040161051e90611de2565b60008160405160200161127c9190611d2a565b604051602081830303815290604052805190602001209050919050565b50805460008255906000526020600020908101906112b79190611358565b50565b828054600181600116156101000203166002900490600052602060002090601f016020900481019282601f106112fb57805160ff1916838001178555611328565b82800160010185558215611328579182015b8281111561132857825182559160200191906001019061130d565b50611334929150611358565b5090565b815481835581811115610935576000838152602090206109359181019083015b6107b791905b80821115611334576000815560010161135e565b803561065a81611fe1565b600082601f83011261138e57600080fd5b81356113a161139c82611f04565b611edd565b915081818352602084019350602081019050838560208402820111156113c657600080fd5b60005b838110156113f257816113dc8882611464565b84525060209283019291909101906001016113c9565b5050505092915050565b600082601f83011261140d57600080fd5b813561141b61139c82611f04565b81815260209384019390925082018360005b838110156113f25781358601611443888261147a565b845250602092830192919091019060010161142d565b803561065a81611ff5565b803561065a81611ffe565b805161065a81611ffe565b600082601f83011261148b57600080fd5b813561149961139c82611f25565b915080825260208301602083018583830111156114b557600080fd5b6114c0838284611f88565b50505092915050565b6000602082840312156114db57600080fd5b60006114e78484611372565b949350505050565b6000806000806080858703121561150557600080fd5b60006115118787611372565b945050602061152287828801611372565b935050604061153387828801611464565b925050606085013567ffffffffffffffff81111561155057600080fd5b61155c8782880161147a565b91505092959194509250565b6000806040838503121561157b57600080fd5b60006115878585611372565b925050602061159885828601611464565b9150509250929050565b6000806000606084860312156115b757600080fd5b60006115c38686611372565b935050602084013567ffffffffffffffff8111156115e057600080fd5b6115ec8682870161147a565b92505060406115fd86828701611459565b9150509250925092565b6000806000806080858703121561161d57600080fd5b843567ffffffffffffffff81111561163457600080fd5b6116408782880161137d565b945050602085013567ffffffffffffffff81111561165d57600080fd5b6116698782880161137d565b935050604061167a87828801611464565b925050606061155c87828801611464565b60006020828403121561169d57600080fd5b60006114e78484611464565b6000602082840312156116bb57600080fd5b60006114e7848461146f565b600080604083850312156116da57600080fd5b60006115878585611464565b600080604083850312156116f957600080fd5b60006117058585611464565b925050602083013567ffffffffffffffff81111561172257600080fd5b6115988582860161147a565b6000806000806080858703121561174457600080fd5b60006115118787611464565b60008060008060008060c0878903121561176957600080fd5b60006117758989611464565b965050602061178689828a01611372565b955050604061179789828a01611464565b945050606087013567ffffffffffffffff8111156117b457600080fd5b6117c089828a0161147a565b93505060806117d189828a01611464565b92505060a087013567ffffffffffffffff8111156117ee57600080fd5b6117fa89828a016113fc565b9150509295509295509295565b6000611813838361189d565b505060200190565b61182c61182782611f65565b611fc0565b82525050565b61182c81611f65565b600061184682611f53565b6118508185611f57565b935061185b83611f4d565b8060005b838110156118895781516118738882611807565b975061187e83611f4d565b92505060010161185f565b509495945050505050565b61182c81611f70565b61182c816107b7565b61182c6118b2826107b7565b6107b7565b61182c81611f75565b60006118cb82611f53565b6118d58185611f57565b93506118e5818560208601611f94565b6118ee81611fd1565b9093019392505050565b600061190382611f53565b61190d8185611f60565b935061191d818560208601611f94565b9290920192915050565b6000611934601483611f57565b7f6661696c65642d746f2d696e697469616c697a65000000000000000000000000815260200192915050565b600061196d601c83611f60565b7f19457468657265756d205369676e6564204d6573736167653a0a3332000000008152601c0192915050565b60006119a6600d83611f57565b7f6163636573732d64656e69656400000000000000000000000000000000000000815260200192915050565b60006119df601183611f57565b7f7468726573686f6c642d746f6f2d6c6f77000000000000000000000000000000815260200192915050565b6000611a18601183611f57565b7f696e76616c69642d7369676e6174757265000000000000000000000000000000815260200192915050565b6000611a51602583611f57565b7f63616e6e6f742d72656d6f76652d637269746963616c2d6d616e6167656d656e8152600160d81b64742d6b657902602082015260400192915050565b6000611a9b601383611f57565b7f616c72656164792d696e697469616c697a656400000000000000000000000000815260200192915050565b6000611ad4601b83611f57565b7f696e76616c69642d7369676e6174757265732d6f72646572696e670000000000815260200192915050565b6000611b0d602983611f57565b7f6b65792d616e642d707572706f73652d61727261792d6d7573742d686176652d8152600160b81b6873616d652d73697a6502602082015260400192915050565b6000611b5b601283611f57565b7f7468726573686f6c642d746f6f2d686967680000000000000000000000000000815260200192915050565b6000611b94601683611f57565b7f696e76616c69642d6f7065726174696f6e2d7479706500000000000000000000815260200192915050565b6000611bcd600d83611f57565b7f696e76616c69642d6e6f6e636500000000000000000000000000000000000000815260200192915050565b6000611c06600f83611f57565b7f6d697373696e672d7369676e6572730000000000000000000000000000000000815260200192915050565b6000611c3f601a83611f57565b7f6e6f742d656e6f7567682d6d616e6167656d656e742d6b657973000000000000815260200192915050565b6000611c78601383611f57565b7f696e76616c69642d6d61737465722d7575696400000000000000000000000000815260200192915050565b61182c81611f82565b6000611cb9828961181b565b601482019150611cc982886118a6565b602082019150611cd9828761181b565b601482019150611ce982866118a6565b602082019150611cf982856118a6565b602082019150611d0982846118a6565b506020019695505050505050565b6000611d2382846118f8565b9392505050565b6000611d3582611960565b9150611d4182846118a6565b50602001919050565b6020810161065a8284611832565b60208082528101610657818461183b565b6020810161065a8284611894565b6020810161065a828461189d565b60808101611d93828761189d565b611da06020830186611ca4565b611dad604083018561189d565b611dba606083018461189d565b95945050505050565b6020810161065a82846118b7565b6020808252810161065781846118c0565b6020808252810161065a81611927565b6020808252810161065a81611999565b6020808252810161065a816119d2565b6020808252810161065a81611a0b565b6020808252810161065a81611a44565b6020808252810161065a81611a8e565b6020808252810161065a81611ac7565b6020808252810161065a81611b00565b6020808252810161065a81611b4e565b6020808252810161065a81611b87565b6020808252810161065a81611bc0565b6020808252810161065a81611bf9565b6020808252810161065a81611c32565b6020808252810161065a81611c6b565b60408101611ed0828561189d565b611d23602083018461189d565b60405181810167ffffffffffffffff81118282101715611efc57600080fd5b604052919050565b600067ffffffffffffffff821115611f1b57600080fd5b5060209081020190565b600067ffffffffffffffff821115611f3c57600080fd5b506020601f91909101601f19160190565b60200190565b5190565b90815260200190565b919050565b600061065a8261087b565b151590565b6001600160e01b03191690565b60ff1690565b82818337506000910152565b60005b83811015611faf578181015183820152602001611f97565b8381111561078f5750506000910152565b600061065a82600061065a82611fdb565b601f01601f191690565b60601b90565b611fea81611f65565b81146112b757600080fd5b611fea81611f70565b611fea816107b756fea265627a7a723058201ae350049b28e4e6d387fcf4f34390df078a1e1d434e78eb4132d592b4f5cc236c6578706572696d656e74616cf50037",
      "opcodes": "PUSH1 0x80 PUSH1 0x40 MSTORE CALLVALUE DUP1 ISZERO PUSH2 0x10 JUMPI PUSH1 0x0 DUP1 REVERT JUMPDEST POP PUSH2 0x2041 DUP1 PUSH2 0x20 PUSH1 0x0 CODECOPY PUSH1 0x0 RETURN INVALID PUSH1 0x80 PUSH1 0x40 MSTORE PUSH1 0x4 CALLDATASIZE LT PUSH2 0x1C2 JUMPI PUSH1 0x0 CALLDATALOAD PUSH1 0xE0 SHR DUP1 PUSH4 0x63F14C3C GT PUSH2 0xF7 JUMPI DUP1 PUSH4 0x93790F44 GT PUSH2 0x95 JUMPI DUP1 PUSH4 0xDA84DDD1 GT PUSH2 0x64 JUMPI DUP1 PUSH4 0xDA84DDD1 EQ PUSH2 0x499 JUMPI DUP1 PUSH4 0xEA40DF3A EQ PUSH2 0x4B9 JUMPI DUP1 PUSH4 0xEE97F7F3 EQ PUSH2 0x4CE JUMPI DUP1 PUSH4 0xF2725BBE EQ PUSH2 0x336 JUMPI PUSH2 0x1C2 JUMP JUMPDEST DUP1 PUSH4 0x93790F44 EQ PUSH2 0x44F JUMPI DUP1 PUSH4 0xAA4361B9 EQ PUSH2 0x46F JUMPI DUP1 PUSH4 0xAFFED0E0 EQ PUSH2 0x484 JUMPI DUP1 PUSH4 0xD202158D EQ PUSH2 0x356 JUMPI PUSH2 0x1C2 JUMP JUMPDEST DUP1 PUSH4 0x7F23690C GT PUSH2 0xD1 JUMPI DUP1 PUSH4 0x7F23690C EQ PUSH2 0x3D6 JUMPI DUP1 PUSH4 0x83D2DEB1 EQ PUSH2 0x3F6 JUMPI DUP1 PUSH4 0x8DA5CB5B EQ PUSH2 0x418 JUMPI DUP1 PUSH4 0x8EFEE3B5 EQ PUSH2 0x43A JUMPI PUSH2 0x1C2 JUMP JUMPDEST DUP1 PUSH4 0x63F14C3C EQ PUSH2 0x376 JUMPI DUP1 PUSH4 0x646E55DB EQ PUSH2 0x396 JUMPI DUP1 PUSH4 0x7D0A9172 EQ PUSH2 0x3B6 JUMPI PUSH2 0x1C2 JUMP JUMPDEST DUP1 PUSH4 0x1C5E56A0 GT PUSH2 0x164 JUMPI DUP1 PUSH4 0x5122BB7C GT PUSH2 0x13E JUMPI DUP1 PUSH4 0x5122BB7C EQ PUSH2 0x2F4 JUMPI DUP1 PUSH4 0x54F6127F EQ PUSH2 0x309 JUMPI DUP1 PUSH4 0x5E6261FA EQ PUSH2 0x336 JUMPI DUP1 PUSH4 0x63EBC4DD EQ PUSH2 0x356 JUMPI PUSH2 0x1C2 JUMP JUMPDEST DUP1 PUSH4 0x1C5E56A0 EQ PUSH2 0x2B4 JUMPI DUP1 PUSH4 0x35D8DF48 EQ PUSH2 0x2B4 JUMPI DUP1 PUSH4 0x44C028FE EQ PUSH2 0x2D4 JUMPI PUSH2 0x1C2 JUMP JUMPDEST DUP1 PUSH4 0x12AAAC70 GT PUSH2 0x1A0 JUMPI DUP1 PUSH4 0x12AAAC70 EQ PUSH2 0x204 JUMPI DUP1 PUSH4 0x150B7A02 EQ PUSH2 0x23A JUMPI DUP1 PUSH4 0x1626BA7E EQ PUSH2 0x267 JUMPI DUP1 PUSH4 0x19A39740 EQ PUSH2 0x294 JUMPI PUSH2 0x1C2 JUMP JUMPDEST DUP1 PUSH4 0x3F778DE EQ PUSH2 0x1C4 JUMPI DUP1 PUSH4 0x7A00330 EQ PUSH2 0x1C4 JUMPI DUP1 PUSH4 0xEDA0979 EQ PUSH2 0x1E4 JUMPI JUMPDEST STOP JUMPDEST CALLVALUE DUP1 ISZERO PUSH2 0x1D0 JUMPI PUSH1 0x0 DUP1 REVERT JUMPDEST POP PUSH2 0x1C2 PUSH2 0x1DF CALLDATASIZE PUSH1 0x4 PUSH2 0x16C7 JUMP JUMPDEST PUSH2 0x4E3 JUMP JUMPDEST CALLVALUE DUP1 ISZERO PUSH2 0x1F0 JUMPI PUSH1 0x0 DUP1 REVERT JUMPDEST POP PUSH2 0x1C2 PUSH2 0x1FF CALLDATASIZE PUSH1 0x4 PUSH2 0x1607 JUMP JUMPDEST PUSH2 0x535 JUMP JUMPDEST CALLVALUE DUP1 ISZERO PUSH2 0x210 JUMPI PUSH1 0x0 DUP1 REVERT JUMPDEST POP PUSH2 0x224 PUSH2 0x21F CALLDATASIZE PUSH1 0x4 PUSH2 0x168B JUMP JUMPDEST PUSH2 0x613 JUMP JUMPDEST PUSH1 0x40 MLOAD PUSH2 0x231 SWAP2 SWAP1 PUSH2 0x1D77 JUMP JUMPDEST PUSH1 0x40 MLOAD DUP1 SWAP2 SUB SWAP1 RETURN JUMPDEST CALLVALUE DUP1 ISZERO PUSH2 0x246 JUMPI PUSH1 0x0 DUP1 REVERT JUMPDEST POP PUSH2 0x25A PUSH2 0x255 CALLDATASIZE PUSH1 0x4 PUSH2 0x14EF JUMP JUMPDEST PUSH2 0x625 JUMP JUMPDEST PUSH1 0x40 MLOAD PUSH2 0x231 SWAP2 SWAP1 PUSH2 0x1DC3 JUMP JUMPDEST CALLVALUE DUP1 ISZERO PUSH2 0x273 JUMPI PUSH1 0x0 DUP1 REVERT JUMPDEST POP PUSH2 0x287 PUSH2 0x282 CALLDATASIZE PUSH1 0x4 PUSH2 0x16E6 JUMP JUMPDEST PUSH2 0x638 JUMP JUMPDEST PUSH1 0x40 MLOAD PUSH2 0x231 SWAP2 SWAP1 PUSH2 0x1D69 JUMP JUMPDEST CALLVALUE DUP1 ISZERO PUSH2 0x2A0 JUMPI PUSH1 0x0 DUP1 REVERT JUMPDEST POP PUSH2 0x1C2 PUSH2 0x2AF CALLDATASIZE PUSH1 0x4 PUSH2 0x168B JUMP JUMPDEST PUSH2 0x660 JUMP JUMPDEST CALLVALUE DUP1 ISZERO PUSH2 0x2C0 JUMPI PUSH1 0x0 DUP1 REVERT JUMPDEST POP PUSH2 0x1C2 PUSH2 0x2CF CALLDATASIZE PUSH1 0x4 PUSH2 0x1568 JUMP JUMPDEST PUSH2 0x6FB JUMP JUMPDEST CALLVALUE DUP1 ISZERO PUSH2 0x2E0 JUMPI PUSH1 0x0 DUP1 REVERT JUMPDEST POP PUSH2 0x1C2 PUSH2 0x2EF CALLDATASIZE PUSH1 0x4 PUSH2 0x172E JUMP JUMPDEST PUSH2 0x748 JUMP JUMPDEST CALLVALUE DUP1 ISZERO PUSH2 0x300 JUMPI PUSH1 0x0 DUP1 REVERT JUMPDEST POP PUSH2 0x224 PUSH2 0x795 JUMP JUMPDEST CALLVALUE DUP1 ISZERO PUSH2 0x315 JUMPI PUSH1 0x0 DUP1 REVERT JUMPDEST POP PUSH2 0x329 PUSH2 0x324 CALLDATASIZE PUSH1 0x4 PUSH2 0x168B JUMP JUMPDEST PUSH2 0x7BA JUMP JUMPDEST PUSH1 0x40 MLOAD PUSH2 0x231 SWAP2 SWAP1 PUSH2 0x1DD1 JUMP JUMPDEST CALLVALUE DUP1 ISZERO PUSH2 0x342 JUMPI PUSH1 0x0 DUP1 REVERT JUMPDEST POP PUSH2 0x287 PUSH2 0x351 CALLDATASIZE PUSH1 0x4 PUSH2 0x1568 JUMP JUMPDEST PUSH2 0x85B JUMP JUMPDEST CALLVALUE DUP1 ISZERO PUSH2 0x362 JUMPI PUSH1 0x0 DUP1 REVERT JUMPDEST POP PUSH2 0x287 PUSH2 0x371 CALLDATASIZE PUSH1 0x4 PUSH2 0x16C7 JUMP JUMPDEST PUSH2 0x86F JUMP JUMPDEST CALLVALUE DUP1 ISZERO PUSH2 0x382 JUMPI PUSH1 0x0 DUP1 REVERT JUMPDEST POP PUSH2 0x224 PUSH2 0x391 CALLDATASIZE PUSH1 0x4 PUSH2 0x14C9 JUMP JUMPDEST PUSH2 0x87B JUMP JUMPDEST CALLVALUE DUP1 ISZERO PUSH2 0x3A2 JUMPI PUSH1 0x0 DUP1 REVERT JUMPDEST POP PUSH2 0x1C2 PUSH2 0x3B1 CALLDATASIZE PUSH1 0x4 PUSH2 0x15A2 JUMP JUMPDEST PUSH2 0x887 JUMP JUMPDEST CALLVALUE DUP1 ISZERO PUSH2 0x3C2 JUMPI PUSH1 0x0 DUP1 REVERT JUMPDEST POP PUSH2 0x1C2 PUSH2 0x3D1 CALLDATASIZE PUSH1 0x4 PUSH2 0x1750 JUMP JUMPDEST PUSH2 0x93A JUMP JUMPDEST CALLVALUE DUP1 ISZERO PUSH2 0x3E2 JUMPI PUSH1 0x0 DUP1 REVERT JUMPDEST POP PUSH2 0x1C2 PUSH2 0x3F1 CALLDATASIZE PUSH1 0x4 PUSH2 0x16E6 JUMP JUMPDEST PUSH2 0xAD2 JUMP JUMPDEST CALLVALUE DUP1 ISZERO PUSH2 0x402 JUMPI PUSH1 0x0 DUP1 REVERT JUMPDEST POP PUSH2 0x40B PUSH2 0xB69 JUMP JUMPDEST PUSH1 0x40 MLOAD PUSH2 0x231 SWAP2 SWAP1 PUSH2 0x1D58 JUMP JUMPDEST CALLVALUE DUP1 ISZERO PUSH2 0x424 JUMPI PUSH1 0x0 DUP1 REVERT JUMPDEST POP PUSH2 0x42D PUSH2 0xBC1 JUMP JUMPDEST PUSH1 0x40 MLOAD PUSH2 0x231 SWAP2 SWAP1 PUSH2 0x1D4A JUMP JUMPDEST CALLVALUE DUP1 ISZERO PUSH2 0x446 JUMPI PUSH1 0x0 DUP1 REVERT JUMPDEST POP PUSH2 0x224 PUSH2 0xBC5 JUMP JUMPDEST CALLVALUE DUP1 ISZERO PUSH2 0x45B JUMPI PUSH1 0x0 DUP1 REVERT JUMPDEST POP PUSH2 0x224 PUSH2 0x46A CALLDATASIZE PUSH1 0x4 PUSH2 0x14C9 JUMP JUMPDEST PUSH2 0xBCB JUMP JUMPDEST CALLVALUE DUP1 ISZERO PUSH2 0x47B JUMPI PUSH1 0x0 DUP1 REVERT JUMPDEST POP PUSH2 0x224 PUSH2 0xBF0 JUMP JUMPDEST CALLVALUE DUP1 ISZERO PUSH2 0x490 JUMPI PUSH1 0x0 DUP1 REVERT JUMPDEST POP PUSH2 0x224 PUSH2 0xBF6 JUMP JUMPDEST CALLVALUE DUP1 ISZERO PUSH2 0x4A5 JUMPI PUSH1 0x0 DUP1 REVERT JUMPDEST POP PUSH2 0x1C2 PUSH2 0x4B4 CALLDATASIZE PUSH1 0x4 PUSH2 0x168B JUMP JUMPDEST PUSH2 0xBFC JUMP JUMPDEST CALLVALUE DUP1 ISZERO PUSH2 0x4C5 JUMPI PUSH1 0x0 DUP1 REVERT JUMPDEST POP PUSH2 0x224 PUSH2 0xCBC JUMP JUMPDEST CALLVALUE DUP1 ISZERO PUSH2 0x4DA JUMPI PUSH1 0x0 DUP1 REVERT JUMPDEST POP PUSH2 0x42D PUSH2 0xCC2 JUMP JUMPDEST PUSH2 0x4EB PUSH2 0xBC1 JUMP JUMPDEST PUSH1 0x1 PUSH1 0x1 PUSH1 0xA0 SHL SUB AND CALLER PUSH1 0x1 PUSH1 0x1 PUSH1 0xA0 SHL SUB AND EQ PUSH2 0x527 JUMPI PUSH1 0x40 MLOAD PUSH1 0x1 PUSH1 0xE5 SHL PUSH3 0x461BCD MUL DUP2 MSTORE PUSH1 0x4 ADD PUSH2 0x51E SWAP1 PUSH2 0x1DF2 JUMP JUMPDEST PUSH1 0x40 MLOAD DUP1 SWAP2 SUB SWAP1 REVERT JUMPDEST PUSH2 0x531 DUP3 DUP3 PUSH2 0xCD1 JUMP JUMPDEST POP POP JUMP JUMPDEST PUSH1 0x0 SLOAD PUSH1 0x1 PUSH1 0xA0 SHL SWAP1 DIV PUSH1 0xFF AND ISZERO PUSH2 0x562 JUMPI PUSH1 0x40 MLOAD PUSH1 0x1 PUSH1 0xE5 SHL PUSH3 0x461BCD MUL DUP2 MSTORE PUSH1 0x4 ADD PUSH2 0x51E SWAP1 PUSH2 0x1E32 JUMP JUMPDEST DUP3 MLOAD DUP5 MLOAD EQ PUSH2 0x586 JUMPI PUSH1 0x40 MLOAD PUSH1 0x1 PUSH1 0xE5 SHL PUSH3 0x461BCD MUL DUP2 MSTORE PUSH1 0x4 ADD PUSH2 0x51E SWAP1 PUSH2 0x1E52 JUMP JUMPDEST PUSH1 0x0 JUMPDEST DUP5 MLOAD DUP2 LT ISZERO PUSH2 0x5CA JUMPI PUSH2 0x5C2 DUP6 DUP3 DUP2 MLOAD DUP2 LT PUSH2 0x5A1 JUMPI INVALID JUMPDEST PUSH1 0x20 MUL PUSH1 0x20 ADD ADD MLOAD DUP6 DUP4 DUP2 MLOAD DUP2 LT PUSH2 0x5B5 JUMPI INVALID JUMPDEST PUSH1 0x20 MUL PUSH1 0x20 ADD ADD MLOAD PUSH2 0xCD1 JUMP JUMPDEST PUSH1 0x1 ADD PUSH2 0x589 JUMP JUMPDEST POP DUP2 PUSH1 0x6 SLOAD LT ISZERO PUSH2 0x5F0 JUMPI PUSH1 0x40 MLOAD PUSH1 0x1 PUSH1 0xE5 SHL PUSH3 0x461BCD MUL DUP2 MSTORE PUSH1 0x4 ADD PUSH2 0x51E SWAP1 PUSH2 0x1EA2 JUMP JUMPDEST PUSH1 0x7 SWAP2 SWAP1 SWAP2 SSTORE PUSH1 0x8 SSTORE POP POP PUSH1 0x0 DUP1 SLOAD PUSH1 0x1 PUSH1 0xA0 SHL PUSH1 0xFF MUL NOT AND PUSH1 0x1 PUSH1 0xA0 SHL OR SWAP1 SSTORE JUMP JUMPDEST PUSH1 0x0 SWAP1 DUP2 MSTORE PUSH1 0x4 PUSH1 0x20 MSTORE PUSH1 0x40 SWAP1 KECCAK256 SLOAD SWAP1 JUMP JUMPDEST PUSH1 0x1 PUSH1 0xE1 SHL PUSH4 0xA85BD01 MUL SWAP5 SWAP4 POP POP POP POP JUMP JUMPDEST PUSH1 0x0 PUSH2 0x657 PUSH2 0x650 PUSH2 0x391 DUP6 DUP6 PUSH4 0xFFFFFFFF PUSH2 0xE92 AND JUMP JUMPDEST PUSH1 0x4 PUSH2 0x86F JUMP JUMPDEST SWAP1 POP JUMPDEST SWAP3 SWAP2 POP POP JUMP JUMPDEST PUSH2 0x668 PUSH2 0xBC1 JUMP JUMPDEST PUSH1 0x1 PUSH1 0x1 PUSH1 0xA0 SHL SUB AND CALLER PUSH1 0x1 PUSH1 0x1 PUSH1 0xA0 SHL SUB AND EQ PUSH2 0x69B JUMPI PUSH1 0x40 MLOAD PUSH1 0x1 PUSH1 0xE5 SHL PUSH3 0x461BCD MUL DUP2 MSTORE PUSH1 0x4 ADD PUSH2 0x51E SWAP1 PUSH2 0x1DF2 JUMP JUMPDEST DUP1 PUSH2 0x6BB JUMPI PUSH1 0x40 MLOAD PUSH1 0x1 PUSH1 0xE5 SHL PUSH3 0x461BCD MUL DUP2 MSTORE PUSH1 0x4 ADD PUSH2 0x51E SWAP1 PUSH2 0x1E02 JUMP JUMPDEST PUSH32 0xFD0B44227DEE5DE3FA844FF17983688ADE4471A8257D62ED2A48507168810D7A PUSH1 0x8 SLOAD DUP3 PUSH1 0x40 MLOAD PUSH2 0x6EE SWAP3 SWAP2 SWAP1 PUSH2 0x1EC2 JUMP JUMPDEST PUSH1 0x40 MLOAD DUP1 SWAP2 SUB SWAP1 LOG1 PUSH1 0x8 SSTORE JUMP JUMPDEST PUSH2 0x703 PUSH2 0xBC1 JUMP JUMPDEST PUSH1 0x1 PUSH1 0x1 PUSH1 0xA0 SHL SUB AND CALLER PUSH1 0x1 PUSH1 0x1 PUSH1 0xA0 SHL SUB AND EQ PUSH2 0x736 JUMPI PUSH1 0x40 MLOAD PUSH1 0x1 PUSH1 0xE5 SHL PUSH3 0x461BCD MUL DUP2 MSTORE PUSH1 0x4 ADD PUSH2 0x51E SWAP1 PUSH2 0x1DF2 JUMP JUMPDEST PUSH2 0x531 PUSH2 0x742 DUP4 PUSH2 0x87B JUMP JUMPDEST DUP3 PUSH2 0xCD1 JUMP JUMPDEST PUSH2 0x750 PUSH2 0xBC1 JUMP JUMPDEST PUSH1 0x1 PUSH1 0x1 PUSH1 0xA0 SHL SUB AND CALLER PUSH1 0x1 PUSH1 0x1 PUSH1 0xA0 SHL SUB AND EQ PUSH2 0x783 JUMPI PUSH1 0x40 MLOAD PUSH1 0x1 PUSH1 0xE5 SHL PUSH3 0x461BCD MUL DUP2 MSTORE PUSH1 0x4 ADD PUSH2 0x51E SWAP1 PUSH2 0x1DF2 JUMP JUMPDEST PUSH2 0x78F DUP5 DUP5 DUP5 DUP5 PUSH2 0xF6E JUMP JUMPDEST POP POP POP POP JUMP JUMPDEST PUSH32 0x1618FCEC65BCE0693E931D337FC12424EE920BF56C4A74BC8DDB1361328AF236 JUMPDEST SWAP1 JUMP JUMPDEST PUSH1 0x0 DUP2 DUP2 MSTORE PUSH1 0x3 PUSH1 0x20 SWAP1 DUP2 MSTORE PUSH1 0x40 SWAP2 DUP3 SWAP1 KECCAK256 DUP1 SLOAD DUP4 MLOAD PUSH1 0x1F PUSH1 0x2 PUSH1 0x0 NOT PUSH2 0x100 PUSH1 0x1 DUP7 AND ISZERO MUL ADD SWAP1 SWAP4 AND SWAP3 SWAP1 SWAP3 DIV SWAP2 DUP3 ADD DUP5 SWAP1 DIV DUP5 MUL DUP2 ADD DUP5 ADD SWAP1 SWAP5 MSTORE DUP1 DUP5 MSTORE PUSH1 0x60 SWAP4 SWAP3 DUP4 ADD DUP3 DUP3 DUP1 ISZERO PUSH2 0x84F JUMPI DUP1 PUSH1 0x1F LT PUSH2 0x824 JUMPI PUSH2 0x100 DUP1 DUP4 SLOAD DIV MUL DUP4 MSTORE SWAP2 PUSH1 0x20 ADD SWAP2 PUSH2 0x84F JUMP JUMPDEST DUP3 ADD SWAP2 SWAP1 PUSH1 0x0 MSTORE PUSH1 0x20 PUSH1 0x0 KECCAK256 SWAP1 JUMPDEST DUP2 SLOAD DUP2 MSTORE SWAP1 PUSH1 0x1 ADD SWAP1 PUSH1 0x20 ADD DUP1 DUP4 GT PUSH2 0x832 JUMPI DUP3 SWAP1 SUB PUSH1 0x1F AND DUP3 ADD SWAP2 JUMPDEST POP POP POP POP POP SWAP1 POP SWAP2 SWAP1 POP JUMP JUMPDEST PUSH1 0x0 PUSH2 0x657 PUSH2 0x869 DUP5 PUSH2 0x87B JUMP JUMPDEST DUP4 PUSH2 0x10CC JUMP JUMPDEST PUSH1 0x0 PUSH2 0x657 DUP4 DUP4 PUSH2 0x10CC JUMP JUMPDEST PUSH1 0x1 PUSH1 0x1 PUSH1 0xA0 SHL SUB AND SWAP1 JUMP JUMPDEST PUSH2 0x88F PUSH2 0xBC1 JUMP JUMPDEST PUSH1 0x1 PUSH1 0x1 PUSH1 0xA0 SHL SUB AND CALLER PUSH1 0x1 PUSH1 0x1 PUSH1 0xA0 SHL SUB AND EQ PUSH2 0x8C2 JUMPI PUSH1 0x40 MLOAD PUSH1 0x1 PUSH1 0xE5 SHL PUSH3 0x461BCD MUL DUP2 MSTORE PUSH1 0x4 ADD PUSH2 0x51E SWAP1 PUSH2 0x1DF2 JUMP JUMPDEST DUP1 ISZERO PUSH2 0x92B JUMPI PUSH1 0x0 JUMPDEST PUSH1 0x5 SLOAD DUP2 LT ISZERO PUSH2 0x90E JUMPI PUSH1 0x4 PUSH1 0x0 PUSH1 0x5 DUP4 DUP2 SLOAD DUP2 LT PUSH2 0x8E6 JUMPI INVALID JUMPDEST SWAP1 PUSH1 0x0 MSTORE PUSH1 0x20 PUSH1 0x0 KECCAK256 ADD SLOAD DUP2 MSTORE PUSH1 0x20 ADD SWAP1 DUP2 MSTORE PUSH1 0x20 ADD PUSH1 0x0 KECCAK256 PUSH1 0x0 SWAP1 SSTORE DUP1 PUSH1 0x1 ADD SWAP1 POP PUSH2 0x8CB JUMP JUMPDEST POP PUSH2 0x91B PUSH1 0x5 PUSH1 0x0 PUSH2 0x1299 JUMP JUMPDEST PUSH1 0x0 PUSH1 0x6 DUP2 SWAP1 SSTORE PUSH1 0x7 DUP2 SWAP1 SSTORE PUSH1 0x8 SSTORE JUMPDEST PUSH2 0x935 DUP4 DUP4 PUSH2 0x10E2 JUMP JUMPDEST POP POP POP JUMP JUMPDEST PUSH1 0x1 DUP1 SLOAD DUP2 ADD SWAP1 DUP2 SWAP1 SSTORE DUP3 EQ PUSH2 0x965 JUMPI PUSH1 0x40 MLOAD PUSH1 0x1 PUSH1 0xE5 SHL PUSH3 0x461BCD MUL DUP2 MSTORE PUSH1 0x4 ADD PUSH2 0x51E SWAP1 PUSH2 0x1E82 JUMP JUMPDEST PUSH1 0x0 PUSH1 0x1 PUSH1 0x1 PUSH1 0xA0 SHL SUB DUP7 AND ADDRESS EQ ISZERO PUSH2 0x9A6 JUMPI PUSH1 0x7 SLOAD DUP3 MLOAD LT ISZERO PUSH2 0x99E JUMPI PUSH1 0x40 MLOAD PUSH1 0x1 PUSH1 0xE5 SHL PUSH3 0x461BCD MUL DUP2 MSTORE PUSH1 0x4 ADD PUSH2 0x51E SWAP1 PUSH2 0x1E92 JUMP JUMPDEST POP PUSH1 0x1 PUSH2 0x9D0 JUMP JUMPDEST PUSH1 0x8 SLOAD DUP3 MLOAD LT ISZERO PUSH2 0x9CC JUMPI PUSH1 0x40 MLOAD PUSH1 0x1 PUSH1 0xE5 SHL PUSH3 0x461BCD MUL DUP2 MSTORE PUSH1 0x4 ADD PUSH2 0x51E SWAP1 PUSH2 0x1E92 JUMP JUMPDEST POP PUSH1 0x2 JUMPDEST PUSH1 0x0 PUSH2 0xA12 ADDRESS DUP10 DUP10 DUP10 DUP10 DUP1 MLOAD SWAP1 PUSH1 0x20 ADD KECCAK256 DUP10 PUSH1 0x40 MLOAD PUSH1 0x20 ADD PUSH2 0x9F7 SWAP7 SWAP6 SWAP5 SWAP4 SWAP3 SWAP2 SWAP1 PUSH2 0x1CAD JUMP JUMPDEST PUSH1 0x40 MLOAD PUSH1 0x20 DUP2 DUP4 SUB SUB DUP2 MSTORE SWAP1 PUSH1 0x40 MSTORE DUP1 MLOAD SWAP1 PUSH1 0x20 ADD KECCAK256 PUSH2 0x1269 JUMP JUMPDEST SWAP1 POP PUSH1 0x0 DUP1 JUMPDEST DUP5 MLOAD DUP2 LT ISZERO PUSH2 0xABA JUMPI PUSH1 0x0 PUSH2 0xA49 DUP7 DUP4 DUP2 MLOAD DUP2 LT PUSH2 0xA32 JUMPI INVALID JUMPDEST PUSH1 0x20 MUL PUSH1 0x20 ADD ADD MLOAD DUP6 PUSH2 0xE92 SWAP1 SWAP2 SWAP1 PUSH4 0xFFFFFFFF AND JUMP JUMPDEST SWAP1 POP DUP3 PUSH1 0x1 PUSH1 0x1 PUSH1 0xA0 SHL SUB AND DUP2 PUSH1 0x1 PUSH1 0x1 PUSH1 0xA0 SHL SUB AND GT PUSH2 0xA7F JUMPI PUSH1 0x40 MLOAD PUSH1 0x1 PUSH1 0xE5 SHL PUSH3 0x461BCD MUL DUP2 MSTORE PUSH1 0x4 ADD PUSH2 0x51E SWAP1 PUSH2 0x1E42 JUMP JUMPDEST PUSH2 0xA91 PUSH2 0xA8B DUP3 PUSH2 0x87B JUMP JUMPDEST DUP7 PUSH2 0x86F JUMP JUMPDEST PUSH2 0xAB0 JUMPI PUSH1 0x40 MLOAD PUSH1 0x1 PUSH1 0xE5 SHL PUSH3 0x461BCD MUL DUP2 MSTORE PUSH1 0x4 ADD PUSH2 0x51E SWAP1 PUSH2 0x1E12 JUMP JUMPDEST SWAP2 POP PUSH1 0x1 ADD PUSH2 0xA18 JUMP JUMPDEST POP PUSH2 0xAC7 DUP10 DUP10 DUP10 DUP10 PUSH2 0xF6E JUMP JUMPDEST POP POP POP POP POP POP POP POP POP JUMP JUMPDEST PUSH2 0xADA PUSH2 0xBC1 JUMP JUMPDEST PUSH1 0x1 PUSH1 0x1 PUSH1 0xA0 SHL SUB AND CALLER PUSH1 0x1 PUSH1 0x1 PUSH1 0xA0 SHL SUB AND EQ PUSH2 0xB0D JUMPI PUSH1 0x40 MLOAD PUSH1 0x1 PUSH1 0xE5 SHL PUSH3 0x461BCD MUL DUP2 MSTORE PUSH1 0x4 ADD PUSH2 0x51E SWAP1 PUSH2 0x1DF2 JUMP JUMPDEST PUSH1 0x0 DUP3 DUP2 MSTORE PUSH1 0x3 PUSH1 0x20 SWAP1 DUP2 MSTORE PUSH1 0x40 SWAP1 SWAP2 KECCAK256 DUP3 MLOAD PUSH2 0xB2C SWAP3 DUP5 ADD SWAP1 PUSH2 0x12BA JUMP JUMPDEST POP DUP2 PUSH32 0xECE574603820D07BC9B91F2A932BAADF4628AABCB8AFBA49776529C14A6104B2 DUP3 PUSH1 0x40 MLOAD PUSH2 0xB5D SWAP2 SWAP1 PUSH2 0x1DD1 JUMP JUMPDEST PUSH1 0x40 MLOAD DUP1 SWAP2 SUB SWAP1 LOG2 POP POP JUMP JUMPDEST PUSH1 0x60 PUSH1 0x5 DUP1 SLOAD DUP1 PUSH1 0x20 MUL PUSH1 0x20 ADD PUSH1 0x40 MLOAD SWAP1 DUP2 ADD PUSH1 0x40 MSTORE DUP1 SWAP3 SWAP2 SWAP1 DUP2 DUP2 MSTORE PUSH1 0x20 ADD DUP3 DUP1 SLOAD DUP1 ISZERO PUSH2 0xBB7 JUMPI PUSH1 0x20 MUL DUP3 ADD SWAP2 SWAP1 PUSH1 0x0 MSTORE PUSH1 0x20 PUSH1 0x0 KECCAK256 SWAP1 JUMPDEST DUP2 SLOAD DUP2 MSTORE PUSH1 0x20 ADD SWAP1 PUSH1 0x1 ADD SWAP1 DUP1 DUP4 GT PUSH2 0xBA3 JUMPI JUMPDEST POP POP POP POP POP SWAP1 POP SWAP1 JUMP JUMPDEST ADDRESS SWAP1 JUMP JUMPDEST PUSH1 0x7 SLOAD SWAP1 JUMP JUMPDEST PUSH1 0x0 PUSH1 0x4 PUSH1 0x0 PUSH2 0xBDA DUP5 PUSH2 0x87B JUMP JUMPDEST DUP2 MSTORE PUSH1 0x20 ADD SWAP1 DUP2 MSTORE PUSH1 0x20 ADD PUSH1 0x0 KECCAK256 SLOAD SWAP1 POP SWAP2 SWAP1 POP JUMP JUMPDEST PUSH1 0x6 SLOAD SWAP1 JUMP JUMPDEST PUSH1 0x1 SLOAD SWAP1 JUMP JUMPDEST PUSH2 0xC04 PUSH2 0xBC1 JUMP JUMPDEST PUSH1 0x1 PUSH1 0x1 PUSH1 0xA0 SHL SUB AND CALLER PUSH1 0x1 PUSH1 0x1 PUSH1 0xA0 SHL SUB AND EQ PUSH2 0xC37 JUMPI PUSH1 0x40 MLOAD PUSH1 0x1 PUSH1 0xE5 SHL PUSH3 0x461BCD MUL DUP2 MSTORE PUSH1 0x4 ADD PUSH2 0x51E SWAP1 PUSH2 0x1DF2 JUMP JUMPDEST DUP1 PUSH2 0xC57 JUMPI PUSH1 0x40 MLOAD PUSH1 0x1 PUSH1 0xE5 SHL PUSH3 0x461BCD MUL DUP2 MSTORE PUSH1 0x4 ADD PUSH2 0x51E SWAP1 PUSH2 0x1E02 JUMP JUMPDEST DUP1 PUSH1 0x6 SLOAD LT ISZERO PUSH2 0xC7C JUMPI PUSH1 0x40 MLOAD PUSH1 0x1 PUSH1 0xE5 SHL PUSH3 0x461BCD MUL DUP2 MSTORE PUSH1 0x4 ADD PUSH2 0x51E SWAP1 PUSH2 0x1E62 JUMP JUMPDEST PUSH32 0x9B1FC5DDBAC8D6FAC2661A57E7515DEE9ABF241F420629999D85F031919F4B4D PUSH1 0x7 SLOAD DUP3 PUSH1 0x40 MLOAD PUSH2 0xCAF SWAP3 SWAP2 SWAP1 PUSH2 0x1EC2 JUMP JUMPDEST PUSH1 0x40 MLOAD DUP1 SWAP2 SUB SWAP1 LOG1 PUSH1 0x7 SSTORE JUMP JUMPDEST PUSH1 0x8 SLOAD SWAP1 JUMP JUMPDEST PUSH1 0x0 SLOAD PUSH1 0x1 PUSH1 0x1 PUSH1 0xA0 SHL SUB AND SWAP1 JUMP JUMPDEST PUSH1 0x0 DUP3 DUP2 MSTORE PUSH1 0x4 PUSH1 0x20 MSTORE PUSH1 0x40 SWAP1 KECCAK256 SLOAD NOT PUSH1 0x1 AND ISZERO DUP1 ISZERO PUSH2 0xCF2 JUMPI POP PUSH1 0x1 DUP2 AND ISZERO JUMPDEST ISZERO PUSH2 0xD02 JUMPI PUSH1 0x6 DUP1 SLOAD PUSH1 0x0 NOT ADD SWAP1 SSTORE JUMPDEST PUSH1 0x0 DUP3 DUP2 MSTORE PUSH1 0x4 PUSH1 0x20 MSTORE PUSH1 0x40 SWAP1 KECCAK256 SLOAD PUSH1 0x1 AND ISZERO DUP1 ISZERO PUSH2 0xD23 JUMPI POP PUSH1 0x1 DUP2 NOT AND ISZERO JUMPDEST ISZERO PUSH2 0xD32 JUMPI PUSH1 0x6 DUP1 SLOAD PUSH1 0x1 ADD SWAP1 SSTORE JUMPDEST PUSH1 0x7 SLOAD PUSH1 0x6 SLOAD LT ISZERO PUSH2 0xD59 JUMPI PUSH1 0x40 MLOAD PUSH1 0x1 PUSH1 0xE5 SHL PUSH3 0x461BCD MUL DUP2 MSTORE PUSH1 0x4 ADD PUSH2 0x51E SWAP1 PUSH2 0x1E22 JUMP JUMPDEST PUSH1 0x0 DUP3 DUP2 MSTORE PUSH1 0x4 PUSH1 0x20 MSTORE PUSH1 0x40 SWAP1 KECCAK256 SLOAD PUSH2 0xDA2 JUMPI PUSH1 0x5 DUP1 SLOAD PUSH1 0x1 DUP2 ADD DUP3 SSTORE PUSH1 0x0 SWAP2 SWAP1 SWAP2 MSTORE PUSH32 0x36B6384B5ECA791C62761152D0C79BB0604C104A5FB6F4EB0703F3154BB3DB0 ADD DUP3 SWAP1 SSTORE JUMPDEST PUSH1 0x0 DUP3 DUP2 MSTORE PUSH1 0x4 PUSH1 0x20 MSTORE PUSH1 0x40 DUP1 DUP3 KECCAK256 SLOAD SWAP1 MLOAD DUP4 SWAP3 DUP6 SWAP2 PUSH32 0x82F65B599219DC2719C1104B915B860B397DC476D20C4DF48810A72BB8AD1E5B SWAP2 SWAP1 LOG4 PUSH1 0x0 DUP3 DUP2 MSTORE PUSH1 0x4 PUSH1 0x20 MSTORE PUSH1 0x40 SWAP1 KECCAK256 DUP2 SWAP1 SSTORE DUP1 PUSH2 0x531 JUMPI PUSH1 0x0 JUMPDEST PUSH1 0x5 SLOAD DUP2 LT ISZERO PUSH2 0x935 JUMPI DUP3 PUSH1 0x5 DUP3 DUP2 SLOAD DUP2 LT PUSH2 0xE0D JUMPI INVALID JUMPDEST SWAP1 PUSH1 0x0 MSTORE PUSH1 0x20 PUSH1 0x0 KECCAK256 ADD SLOAD EQ ISZERO PUSH2 0xE8A JUMPI PUSH1 0x5 DUP1 SLOAD PUSH1 0x0 NOT DUP2 ADD SWAP1 DUP2 LT PUSH2 0xE30 JUMPI INVALID JUMPDEST SWAP1 PUSH1 0x0 MSTORE PUSH1 0x20 PUSH1 0x0 KECCAK256 ADD SLOAD PUSH1 0x5 DUP3 DUP2 SLOAD DUP2 LT PUSH2 0xE48 JUMPI INVALID JUMPDEST PUSH1 0x0 SWAP2 DUP3 MSTORE PUSH1 0x20 SWAP1 SWAP2 KECCAK256 ADD SSTORE PUSH1 0x5 DUP1 SLOAD PUSH1 0x0 NOT DUP2 ADD SWAP1 DUP2 LT PUSH2 0xE66 JUMPI INVALID JUMPDEST PUSH1 0x0 SWAP2 DUP3 MSTORE PUSH1 0x20 DUP3 KECCAK256 ADD SSTORE PUSH1 0x5 DUP1 SLOAD SWAP1 PUSH2 0xE84 SWAP1 PUSH1 0x0 NOT DUP4 ADD PUSH2 0x1338 JUMP JUMPDEST POP PUSH2 0x935 JUMP JUMPDEST PUSH1 0x1 ADD PUSH2 0xDF5 JUMP JUMPDEST PUSH1 0x0 DUP2 MLOAD PUSH1 0x41 EQ PUSH2 0xEA5 JUMPI POP PUSH1 0x0 PUSH2 0x65A JUMP JUMPDEST PUSH1 0x20 DUP3 ADD MLOAD PUSH1 0x40 DUP4 ADD MLOAD PUSH1 0x60 DUP5 ADD MLOAD PUSH1 0x0 BYTE PUSH32 0x7FFFFFFFFFFFFFFFFFFFFFFFFFFFFFFF5D576E7357A4501DDFE92F46681B20A0 DUP3 GT ISZERO PUSH2 0xEEB JUMPI PUSH1 0x0 SWAP4 POP POP POP POP PUSH2 0x65A JUMP JUMPDEST DUP1 PUSH1 0xFF AND PUSH1 0x1B EQ ISZERO DUP1 ISZERO PUSH2 0xF03 JUMPI POP DUP1 PUSH1 0xFF AND PUSH1 0x1C EQ ISZERO JUMPDEST ISZERO PUSH2 0xF14 JUMPI PUSH1 0x0 SWAP4 POP POP POP POP PUSH2 0x65A JUMP JUMPDEST PUSH1 0x1 DUP7 DUP3 DUP6 DUP6 PUSH1 0x40 MLOAD PUSH1 0x0 DUP2 MSTORE PUSH1 0x20 ADD PUSH1 0x40 MSTORE PUSH1 0x40 MLOAD PUSH2 0xF37 SWAP5 SWAP4 SWAP3 SWAP2 SWAP1 PUSH2 0x1D85 JUMP JUMPDEST PUSH1 0x20 PUSH1 0x40 MLOAD PUSH1 0x20 DUP2 SUB SWAP1 DUP1 DUP5 SUB SWAP1 DUP6 GAS STATICCALL ISZERO DUP1 ISZERO PUSH2 0xF59 JUMPI RETURNDATASIZE PUSH1 0x0 DUP1 RETURNDATACOPY RETURNDATASIZE PUSH1 0x0 REVERT JUMPDEST POP POP PUSH1 0x40 MLOAD PUSH1 0x1F NOT ADD MLOAD SWAP8 SWAP7 POP POP POP POP POP POP POP JUMP JUMPDEST DUP4 PUSH2 0x1060 JUMPI PUSH1 0x0 PUSH1 0x60 DUP5 PUSH1 0x1 PUSH1 0x1 PUSH1 0xA0 SHL SUB AND DUP5 DUP5 PUSH1 0x40 MLOAD PUSH2 0xF90 SWAP2 SWAP1 PUSH2 0x1D17 JUMP JUMPDEST PUSH1 0x0 PUSH1 0x40 MLOAD DUP1 DUP4 SUB DUP2 DUP6 DUP8 GAS CALL SWAP3 POP POP POP RETURNDATASIZE DUP1 PUSH1 0x0 DUP2 EQ PUSH2 0xFCD JUMPI PUSH1 0x40 MLOAD SWAP2 POP PUSH1 0x1F NOT PUSH1 0x3F RETURNDATASIZE ADD AND DUP3 ADD PUSH1 0x40 MSTORE RETURNDATASIZE DUP3 MSTORE RETURNDATASIZE PUSH1 0x0 PUSH1 0x20 DUP5 ADD RETURNDATACOPY PUSH2 0xFD2 JUMP JUMPDEST PUSH1 0x60 SWAP2 POP JUMPDEST POP SWAP1 SWAP3 POP SWAP1 POP DUP2 ISZERO PUSH2 0x1017 JUMPI PUSH1 0x40 MLOAD PUSH1 0x1 PUSH1 0x1 PUSH1 0xA0 SHL SUB DUP7 AND SWAP1 PUSH32 0x7C940052472FD1D616012DC780A92C777783E8F45CDB6802D1D48891CD33A508 SWAP1 PUSH1 0x0 SWAP1 LOG2 PUSH2 0x1059 JUMP JUMPDEST DUP5 PUSH1 0x1 PUSH1 0x1 PUSH1 0xA0 SHL SUB AND PUSH32 0x4B0B4377CB27B4634A3573214783294886BC4E04F64FA75D3F5469FB26393462 DUP3 PUSH1 0x40 MLOAD PUSH2 0x1050 SWAP2 SWAP1 PUSH2 0x1DD1 JUMP JUMPDEST PUSH1 0x40 MLOAD DUP1 SWAP2 SUB SWAP1 LOG2 JUMPDEST POP POP PUSH2 0x78F JUMP JUMPDEST PUSH1 0x1 DUP5 EQ ISZERO PUSH2 0x10B1 JUMPI PUSH1 0x0 DUP2 MLOAD PUSH1 0x20 DUP4 ADD PUSH1 0x0 CREATE PUSH1 0x40 MLOAD SWAP1 SWAP2 POP PUSH1 0x1 PUSH1 0x1 PUSH1 0xA0 SHL SUB DUP3 AND SWAP1 PUSH32 0xCF78CF0D6F3D8371E1075C69C492AB4EC5D8CF23A1A239B6A51A1D00BE7CA312 SWAP1 PUSH1 0x0 SWAP1 LOG2 POP PUSH2 0x78F JUMP JUMPDEST PUSH1 0x40 MLOAD PUSH1 0x1 PUSH1 0xE5 SHL PUSH3 0x461BCD MUL DUP2 MSTORE PUSH1 0x4 ADD PUSH2 0x51E SWAP1 PUSH2 0x1E72 JUMP JUMPDEST PUSH1 0x0 SWAP2 DUP3 MSTORE PUSH1 0x4 PUSH1 0x20 MSTORE PUSH1 0x40 SWAP1 SWAP2 KECCAK256 SLOAD NOT AND ISZERO SWAP1 JUMP JUMPDEST PUSH32 0x1618FCEC65BCE0693E931D337FC12424EE920BF56C4A74BC8DDB1361328AF236 PUSH1 0x0 SHL DUP3 PUSH1 0x1 PUSH1 0x1 PUSH1 0xA0 SHL SUB AND PUSH4 0x5122BB7C PUSH1 0x40 MLOAD DUP2 PUSH4 0xFFFFFFFF AND PUSH1 0xE0 SHL DUP2 MSTORE PUSH1 0x4 ADD PUSH1 0x20 PUSH1 0x40 MLOAD DUP1 DUP4 SUB DUP2 DUP7 DUP1 EXTCODESIZE ISZERO DUP1 ISZERO PUSH2 0x113F JUMPI PUSH1 0x0 DUP1 REVERT JUMPDEST POP GAS STATICCALL ISZERO DUP1 ISZERO PUSH2 0x1153 JUMPI RETURNDATASIZE PUSH1 0x0 DUP1 RETURNDATACOPY RETURNDATASIZE PUSH1 0x0 REVERT JUMPDEST POP POP POP POP PUSH1 0x40 MLOAD RETURNDATASIZE PUSH1 0x1F NOT PUSH1 0x1F DUP3 ADD AND DUP3 ADD DUP1 PUSH1 0x40 MSTORE POP PUSH2 0x1177 SWAP2 SWAP1 DUP2 ADD SWAP1 PUSH2 0x16A9 JUMP JUMPDEST EQ PUSH2 0x1197 JUMPI PUSH1 0x40 MLOAD PUSH1 0x1 PUSH1 0xE5 SHL PUSH3 0x461BCD MUL DUP2 MSTORE PUSH1 0x4 ADD PUSH2 0x51E SWAP1 PUSH2 0x1EB2 JUMP JUMPDEST PUSH1 0x0 DUP1 SLOAD PUSH1 0x40 MLOAD PUSH1 0x1 PUSH1 0x1 PUSH1 0xA0 SHL SUB DUP1 DUP7 AND SWAP4 SWAP3 AND SWAP2 PUSH32 0xB177A4A05A82A0D82537F71956F554EE3D2D0F32A76C0B056E0490778BE10AB4 SWAP2 LOG3 PUSH1 0x0 DUP1 SLOAD PUSH1 0x1 PUSH1 0x1 PUSH1 0xA0 SHL SUB NOT AND PUSH1 0x1 PUSH1 0x1 PUSH1 0xA0 SHL SUB DUP5 AND SWAP1 DUP2 OR PUSH1 0x1 PUSH1 0xA0 SHL PUSH1 0xFF MUL NOT AND DUP3 SSTORE PUSH1 0x40 MLOAD PUSH2 0x1205 SWAP1 DUP5 SWAP1 PUSH2 0x1D17 JUMP JUMPDEST PUSH1 0x0 PUSH1 0x40 MLOAD DUP1 DUP4 SUB DUP2 DUP6 GAS DELEGATECALL SWAP2 POP POP RETURNDATASIZE DUP1 PUSH1 0x0 DUP2 EQ PUSH2 0x1240 JUMPI PUSH1 0x40 MLOAD SWAP2 POP PUSH1 0x1F NOT PUSH1 0x3F RETURNDATASIZE ADD AND DUP3 ADD PUSH1 0x40 MSTORE RETURNDATASIZE DUP3 MSTORE RETURNDATASIZE PUSH1 0x0 PUSH1 0x20 DUP5 ADD RETURNDATACOPY PUSH2 0x1245 JUMP JUMPDEST PUSH1 0x60 SWAP2 POP JUMPDEST POP POP SWAP1 POP DUP1 PUSH2 0x935 JUMPI PUSH1 0x40 MLOAD PUSH1 0x1 PUSH1 0xE5 SHL PUSH3 0x461BCD MUL DUP2 MSTORE PUSH1 0x4 ADD PUSH2 0x51E SWAP1 PUSH2 0x1DE2 JUMP JUMPDEST PUSH1 0x0 DUP2 PUSH1 0x40 MLOAD PUSH1 0x20 ADD PUSH2 0x127C SWAP2 SWAP1 PUSH2 0x1D2A JUMP JUMPDEST PUSH1 0x40 MLOAD PUSH1 0x20 DUP2 DUP4 SUB SUB DUP2 MSTORE SWAP1 PUSH1 0x40 MSTORE DUP1 MLOAD SWAP1 PUSH1 0x20 ADD KECCAK256 SWAP1 POP SWAP2 SWAP1 POP JUMP JUMPDEST POP DUP1 SLOAD PUSH1 0x0 DUP3 SSTORE SWAP1 PUSH1 0x0 MSTORE PUSH1 0x20 PUSH1 0x0 KECCAK256 SWAP1 DUP2 ADD SWAP1 PUSH2 0x12B7 SWAP2 SWAP1 PUSH2 0x1358 JUMP JUMPDEST POP JUMP JUMPDEST DUP3 DUP1 SLOAD PUSH1 0x1 DUP2 PUSH1 0x1 AND ISZERO PUSH2 0x100 MUL SUB AND PUSH1 0x2 SWAP1 DIV SWAP1 PUSH1 0x0 MSTORE PUSH1 0x20 PUSH1 0x0 KECCAK256 SWAP1 PUSH1 0x1F ADD PUSH1 0x20 SWAP1 DIV DUP2 ADD SWAP3 DUP3 PUSH1 0x1F LT PUSH2 0x12FB JUMPI DUP1 MLOAD PUSH1 0xFF NOT AND DUP4 DUP1 ADD OR DUP6 SSTORE PUSH2 0x1328 JUMP JUMPDEST DUP3 DUP1 ADD PUSH1 0x1 ADD DUP6 SSTORE DUP3 ISZERO PUSH2 0x1328 JUMPI SWAP2 DUP3 ADD JUMPDEST DUP3 DUP2 GT ISZERO PUSH2 0x1328 JUMPI DUP3 MLOAD DUP3 SSTORE SWAP2 PUSH1 0x20 ADD SWAP2 SWAP1 PUSH1 0x1 ADD SWAP1 PUSH2 0x130D JUMP JUMPDEST POP PUSH2 0x1334 SWAP3 SWAP2 POP PUSH2 0x1358 JUMP JUMPDEST POP SWAP1 JUMP JUMPDEST DUP2 SLOAD DUP2 DUP4 SSTORE DUP2 DUP2 GT ISZERO PUSH2 0x935 JUMPI PUSH1 0x0 DUP4 DUP2 MSTORE PUSH1 0x20 SWAP1 KECCAK256 PUSH2 0x935 SWAP2 DUP2 ADD SWAP1 DUP4 ADD JUMPDEST PUSH2 0x7B7 SWAP2 SWAP1 JUMPDEST DUP1 DUP3 GT ISZERO PUSH2 0x1334 JUMPI PUSH1 0x0 DUP2 SSTORE PUSH1 0x1 ADD PUSH2 0x135E JUMP JUMPDEST DUP1 CALLDATALOAD PUSH2 0x65A DUP2 PUSH2 0x1FE1 JUMP JUMPDEST PUSH1 0x0 DUP3 PUSH1 0x1F DUP4 ADD SLT PUSH2 0x138E JUMPI PUSH1 0x0 DUP1 REVERT JUMPDEST DUP2 CALLDATALOAD PUSH2 0x13A1 PUSH2 0x139C DUP3 PUSH2 0x1F04 JUMP JUMPDEST PUSH2 0x1EDD JUMP JUMPDEST SWAP2 POP DUP2 DUP2 DUP4 MSTORE PUSH1 0x20 DUP5 ADD SWAP4 POP PUSH1 0x20 DUP2 ADD SWAP1 POP DUP4 DUP6 PUSH1 0x20 DUP5 MUL DUP3 ADD GT ISZERO PUSH2 0x13C6 JUMPI PUSH1 0x0 DUP1 REVERT JUMPDEST PUSH1 0x0 JUMPDEST DUP4 DUP2 LT ISZERO PUSH2 0x13F2 JUMPI DUP2 PUSH2 0x13DC DUP9 DUP3 PUSH2 0x1464 JUMP JUMPDEST DUP5 MSTORE POP PUSH1 0x20 SWAP3 DUP4 ADD SWAP3 SWAP2 SWAP1 SWAP2 ADD SWAP1 PUSH1 0x1 ADD PUSH2 0x13C9 JUMP JUMPDEST POP POP POP POP SWAP3 SWAP2 POP POP JUMP JUMPDEST PUSH1 0x0 DUP3 PUSH1 0x1F DUP4 ADD SLT PUSH2 0x140D JUMPI PUSH1 0x0 DUP1 REVERT JUMPDEST DUP2 CALLDATALOAD PUSH2 0x141B PUSH2 0x139C DUP3 PUSH2 0x1F04 JUMP JUMPDEST DUP2 DUP2 MSTORE PUSH1 0x20 SWAP4 DUP5 ADD SWAP4 SWAP1 SWAP3 POP DUP3 ADD DUP4 PUSH1 0x0 JUMPDEST DUP4 DUP2 LT ISZERO PUSH2 0x13F2 JUMPI DUP2 CALLDATALOAD DUP7 ADD PUSH2 0x1443 DUP9 DUP3 PUSH2 0x147A JUMP JUMPDEST DUP5 MSTORE POP PUSH1 0x20 SWAP3 DUP4 ADD SWAP3 SWAP2 SWAP1 SWAP2 ADD SWAP1 PUSH1 0x1 ADD PUSH2 0x142D JUMP JUMPDEST DUP1 CALLDATALOAD PUSH2 0x65A DUP2 PUSH2 0x1FF5 JUMP JUMPDEST DUP1 CALLDATALOAD PUSH2 0x65A DUP2 PUSH2 0x1FFE JUMP JUMPDEST DUP1 MLOAD PUSH2 0x65A DUP2 PUSH2 0x1FFE JUMP JUMPDEST PUSH1 0x0 DUP3 PUSH1 0x1F DUP4 ADD SLT PUSH2 0x148B JUMPI PUSH1 0x0 DUP1 REVERT JUMPDEST DUP2 CALLDATALOAD PUSH2 0x1499 PUSH2 0x139C DUP3 PUSH2 0x1F25 JUMP JUMPDEST SWAP2 POP DUP1 DUP3 MSTORE PUSH1 0x20 DUP4 ADD PUSH1 0x20 DUP4 ADD DUP6 DUP4 DUP4 ADD GT ISZERO PUSH2 0x14B5 JUMPI PUSH1 0x0 DUP1 REVERT JUMPDEST PUSH2 0x14C0 DUP4 DUP3 DUP5 PUSH2 0x1F88 JUMP JUMPDEST POP POP POP SWAP3 SWAP2 POP POP JUMP JUMPDEST PUSH1 0x0 PUSH1 0x20 DUP3 DUP5 SUB SLT ISZERO PUSH2 0x14DB JUMPI PUSH1 0x0 DUP1 REVERT JUMPDEST PUSH1 0x0 PUSH2 0x14E7 DUP5 DUP5 PUSH2 0x1372 JUMP JUMPDEST SWAP5 SWAP4 POP POP POP POP JUMP JUMPDEST PUSH1 0x0 DUP1 PUSH1 0x0 DUP1 PUSH1 0x80 DUP6 DUP8 SUB SLT ISZERO PUSH2 0x1505 JUMPI PUSH1 0x0 DUP1 REVERT JUMPDEST PUSH1 0x0 PUSH2 0x1511 DUP8 DUP8 PUSH2 0x1372 JUMP JUMPDEST SWAP5 POP POP PUSH1 0x20 PUSH2 0x1522 DUP8 DUP3 DUP9 ADD PUSH2 0x1372 JUMP JUMPDEST SWAP4 POP POP PUSH1 0x40 PUSH2 0x1533 DUP8 DUP3 DUP9 ADD PUSH2 0x1464 JUMP JUMPDEST SWAP3 POP POP PUSH1 0x60 DUP6 ADD CALLDATALOAD PUSH8 0xFFFFFFFFFFFFFFFF DUP2 GT ISZERO PUSH2 0x1550 JUMPI PUSH1 0x0 DUP1 REVERT JUMPDEST PUSH2 0x155C DUP8 DUP3 DUP9 ADD PUSH2 0x147A JUMP JUMPDEST SWAP2 POP POP SWAP3 SWAP6 SWAP2 SWAP5 POP SWAP3 POP JUMP JUMPDEST PUSH1 0x0 DUP1 PUSH1 0x40 DUP4 DUP6 SUB SLT ISZERO PUSH2 0x157B JUMPI PUSH1 0x0 DUP1 REVERT JUMPDEST PUSH1 0x0 PUSH2 0x1587 DUP6 DUP6 PUSH2 0x1372 JUMP JUMPDEST SWAP3 POP POP PUSH1 0x20 PUSH2 0x1598 DUP6 DUP3 DUP7 ADD PUSH2 0x1464 JUMP JUMPDEST SWAP2 POP POP SWAP3 POP SWAP3 SWAP1 POP JUMP JUMPDEST PUSH1 0x0 DUP1 PUSH1 0x0 PUSH1 0x60 DUP5 DUP7 SUB SLT ISZERO PUSH2 0x15B7 JUMPI PUSH1 0x0 DUP1 REVERT JUMPDEST PUSH1 0x0 PUSH2 0x15C3 DUP7 DUP7 PUSH2 0x1372 JUMP JUMPDEST SWAP4 POP POP PUSH1 0x20 DUP5 ADD CALLDATALOAD PUSH8 0xFFFFFFFFFFFFFFFF DUP2 GT ISZERO PUSH2 0x15E0 JUMPI PUSH1 0x0 DUP1 REVERT JUMPDEST PUSH2 0x15EC DUP7 DUP3 DUP8 ADD PUSH2 0x147A JUMP JUMPDEST SWAP3 POP POP PUSH1 0x40 PUSH2 0x15FD DUP7 DUP3 DUP8 ADD PUSH2 0x1459 JUMP JUMPDEST SWAP2 POP POP SWAP3 POP SWAP3 POP SWAP3 JUMP JUMPDEST PUSH1 0x0 DUP1 PUSH1 0x0 DUP1 PUSH1 0x80 DUP6 DUP8 SUB SLT ISZERO PUSH2 0x161D JUMPI PUSH1 0x0 DUP1 REVERT JUMPDEST DUP5 CALLDATALOAD PUSH8 0xFFFFFFFFFFFFFFFF DUP2 GT ISZERO PUSH2 0x1634 JUMPI PUSH1 0x0 DUP1 REVERT JUMPDEST PUSH2 0x1640 DUP8 DUP3 DUP9 ADD PUSH2 0x137D JUMP JUMPDEST SWAP5 POP POP PUSH1 0x20 DUP6 ADD CALLDATALOAD PUSH8 0xFFFFFFFFFFFFFFFF DUP2 GT ISZERO PUSH2 0x165D JUMPI PUSH1 0x0 DUP1 REVERT JUMPDEST PUSH2 0x1669 DUP8 DUP3 DUP9 ADD PUSH2 0x137D JUMP JUMPDEST SWAP4 POP POP PUSH1 0x40 PUSH2 0x167A DUP8 DUP3 DUP9 ADD PUSH2 0x1464 JUMP JUMPDEST SWAP3 POP POP PUSH1 0x60 PUSH2 0x155C DUP8 DUP3 DUP9 ADD PUSH2 0x1464 JUMP JUMPDEST PUSH1 0x0 PUSH1 0x20 DUP3 DUP5 SUB SLT ISZERO PUSH2 0x169D JUMPI PUSH1 0x0 DUP1 REVERT JUMPDEST PUSH1 0x0 PUSH2 0x14E7 DUP5 DUP5 PUSH2 0x1464 JUMP JUMPDEST PUSH1 0x0 PUSH1 0x20 DUP3 DUP5 SUB SLT ISZERO PUSH2 0x16BB JUMPI PUSH1 0x0 DUP1 REVERT JUMPDEST PUSH1 0x0 PUSH2 0x14E7 DUP5 DUP5 PUSH2 0x146F JUMP JUMPDEST PUSH1 0x0 DUP1 PUSH1 0x40 DUP4 DUP6 SUB SLT ISZERO PUSH2 0x16DA JUMPI PUSH1 0x0 DUP1 REVERT JUMPDEST PUSH1 0x0 PUSH2 0x1587 DUP6 DUP6 PUSH2 0x1464 JUMP JUMPDEST PUSH1 0x0 DUP1 PUSH1 0x40 DUP4 DUP6 SUB SLT ISZERO PUSH2 0x16F9 JUMPI PUSH1 0x0 DUP1 REVERT JUMPDEST PUSH1 0x0 PUSH2 0x1705 DUP6 DUP6 PUSH2 0x1464 JUMP JUMPDEST SWAP3 POP POP PUSH1 0x20 DUP4 ADD CALLDATALOAD PUSH8 0xFFFFFFFFFFFFFFFF DUP2 GT ISZERO PUSH2 0x1722 JUMPI PUSH1 0x0 DUP1 REVERT JUMPDEST PUSH2 0x1598 DUP6 DUP3 DUP7 ADD PUSH2 0x147A JUMP JUMPDEST PUSH1 0x0 DUP1 PUSH1 0x0 DUP1 PUSH1 0x80 DUP6 DUP8 SUB SLT ISZERO PUSH2 0x1744 JUMPI PUSH1 0x0 DUP1 REVERT JUMPDEST PUSH1 0x0 PUSH2 0x1511 DUP8 DUP8 PUSH2 0x1464 JUMP JUMPDEST PUSH1 0x0 DUP1 PUSH1 0x0 DUP1 PUSH1 0x0 DUP1 PUSH1 0xC0 DUP8 DUP10 SUB SLT ISZERO PUSH2 0x1769 JUMPI PUSH1 0x0 DUP1 REVERT JUMPDEST PUSH1 0x0 PUSH2 0x1775 DUP10 DUP10 PUSH2 0x1464 JUMP JUMPDEST SWAP7 POP POP PUSH1 0x20 PUSH2 0x1786 DUP10 DUP3 DUP11 ADD PUSH2 0x1372 JUMP JUMPDEST SWAP6 POP POP PUSH1 0x40 PUSH2 0x1797 DUP10 DUP3 DUP11 ADD PUSH2 0x1464 JUMP JUMPDEST SWAP5 POP POP PUSH1 0x60 DUP8 ADD CALLDATALOAD PUSH8 0xFFFFFFFFFFFFFFFF DUP2 GT ISZERO PUSH2 0x17B4 JUMPI PUSH1 0x0 DUP1 REVERT JUMPDEST PUSH2 0x17C0 DUP10 DUP3 DUP11 ADD PUSH2 0x147A JUMP JUMPDEST SWAP4 POP POP PUSH1 0x80 PUSH2 0x17D1 DUP10 DUP3 DUP11 ADD PUSH2 0x1464 JUMP JUMPDEST SWAP3 POP POP PUSH1 0xA0 DUP8 ADD CALLDATALOAD PUSH8 0xFFFFFFFFFFFFFFFF DUP2 GT ISZERO PUSH2 0x17EE JUMPI PUSH1 0x0 DUP1 REVERT JUMPDEST PUSH2 0x17FA DUP10 DUP3 DUP11 ADD PUSH2 0x13FC JUMP JUMPDEST SWAP2 POP POP SWAP3 SWAP6 POP SWAP3 SWAP6 POP SWAP3 SWAP6 JUMP JUMPDEST PUSH1 0x0 PUSH2 0x1813 DUP4 DUP4 PUSH2 0x189D JUMP JUMPDEST POP POP PUSH1 0x20 ADD SWAP1 JUMP JUMPDEST PUSH2 0x182C PUSH2 0x1827 DUP3 PUSH2 0x1F65 JUMP JUMPDEST PUSH2 0x1FC0 JUMP JUMPDEST DUP3 MSTORE POP POP JUMP JUMPDEST PUSH2 0x182C DUP2 PUSH2 0x1F65 JUMP JUMPDEST PUSH1 0x0 PUSH2 0x1846 DUP3 PUSH2 0x1F53 JUMP JUMPDEST PUSH2 0x1850 DUP2 DUP6 PUSH2 0x1F57 JUMP JUMPDEST SWAP4 POP PUSH2 0x185B DUP4 PUSH2 0x1F4D JUMP JUMPDEST DUP1 PUSH1 0x0 JUMPDEST DUP4 DUP2 LT ISZERO PUSH2 0x1889 JUMPI DUP2 MLOAD PUSH2 0x1873 DUP9 DUP3 PUSH2 0x1807 JUMP JUMPDEST SWAP8 POP PUSH2 0x187E DUP4 PUSH2 0x1F4D JUMP JUMPDEST SWAP3 POP POP PUSH1 0x1 ADD PUSH2 0x185F JUMP JUMPDEST POP SWAP5 SWAP6 SWAP5 POP POP POP POP POP JUMP JUMPDEST PUSH2 0x182C DUP2 PUSH2 0x1F70 JUMP JUMPDEST PUSH2 0x182C DUP2 PUSH2 0x7B7 JUMP JUMPDEST PUSH2 0x182C PUSH2 0x18B2 DUP3 PUSH2 0x7B7 JUMP JUMPDEST PUSH2 0x7B7 JUMP JUMPDEST PUSH2 0x182C DUP2 PUSH2 0x1F75 JUMP JUMPDEST PUSH1 0x0 PUSH2 0x18CB DUP3 PUSH2 0x1F53 JUMP JUMPDEST PUSH2 0x18D5 DUP2 DUP6 PUSH2 0x1F57 JUMP JUMPDEST SWAP4 POP PUSH2 0x18E5 DUP2 DUP6 PUSH1 0x20 DUP7 ADD PUSH2 0x1F94 JUMP JUMPDEST PUSH2 0x18EE DUP2 PUSH2 0x1FD1 JUMP JUMPDEST SWAP1 SWAP4 ADD SWAP4 SWAP3 POP POP POP JUMP JUMPDEST PUSH1 0x0 PUSH2 0x1903 DUP3 PUSH2 0x1F53 JUMP JUMPDEST PUSH2 0x190D DUP2 DUP6 PUSH2 0x1F60 JUMP JUMPDEST SWAP4 POP PUSH2 0x191D DUP2 DUP6 PUSH1 0x20 DUP7 ADD PUSH2 0x1F94 JUMP JUMPDEST SWAP3 SWAP1 SWAP3 ADD SWAP3 SWAP2 POP POP JUMP JUMPDEST PUSH1 0x0 PUSH2 0x1934 PUSH1 0x14 DUP4 PUSH2 0x1F57 JUMP JUMPDEST PUSH32 0x6661696C65642D746F2D696E697469616C697A65000000000000000000000000 DUP2 MSTORE PUSH1 0x20 ADD SWAP3 SWAP2 POP POP JUMP JUMPDEST PUSH1 0x0 PUSH2 0x196D PUSH1 0x1C DUP4 PUSH2 0x1F60 JUMP JUMPDEST PUSH32 0x19457468657265756D205369676E6564204D6573736167653A0A333200000000 DUP2 MSTORE PUSH1 0x1C ADD SWAP3 SWAP2 POP POP JUMP JUMPDEST PUSH1 0x0 PUSH2 0x19A6 PUSH1 0xD DUP4 PUSH2 0x1F57 JUMP JUMPDEST PUSH32 0x6163636573732D64656E69656400000000000000000000000000000000000000 DUP2 MSTORE PUSH1 0x20 ADD SWAP3 SWAP2 POP POP JUMP JUMPDEST PUSH1 0x0 PUSH2 0x19DF PUSH1 0x11 DUP4 PUSH2 0x1F57 JUMP JUMPDEST PUSH32 0x7468726573686F6C642D746F6F2D6C6F77000000000000000000000000000000 DUP2 MSTORE PUSH1 0x20 ADD SWAP3 SWAP2 POP POP JUMP JUMPDEST PUSH1 0x0 PUSH2 0x1A18 PUSH1 0x11 DUP4 PUSH2 0x1F57 JUMP JUMPDEST PUSH32 0x696E76616C69642D7369676E6174757265000000000000000000000000000000 DUP2 MSTORE PUSH1 0x20 ADD SWAP3 SWAP2 POP POP JUMP JUMPDEST PUSH1 0x0 PUSH2 0x1A51 PUSH1 0x25 DUP4 PUSH2 0x1F57 JUMP JUMPDEST PUSH32 0x63616E6E6F742D72656D6F76652D637269746963616C2D6D616E6167656D656E DUP2 MSTORE PUSH1 0x1 PUSH1 0xD8 SHL PUSH5 0x742D6B6579 MUL PUSH1 0x20 DUP3 ADD MSTORE PUSH1 0x40 ADD SWAP3 SWAP2 POP POP JUMP JUMPDEST PUSH1 0x0 PUSH2 0x1A9B PUSH1 0x13 DUP4 PUSH2 0x1F57 JUMP JUMPDEST PUSH32 0x616C72656164792D696E697469616C697A656400000000000000000000000000 DUP2 MSTORE PUSH1 0x20 ADD SWAP3 SWAP2 POP POP JUMP JUMPDEST PUSH1 0x0 PUSH2 0x1AD4 PUSH1 0x1B DUP4 PUSH2 0x1F57 JUMP JUMPDEST PUSH32 0x696E76616C69642D7369676E6174757265732D6F72646572696E670000000000 DUP2 MSTORE PUSH1 0x20 ADD SWAP3 SWAP2 POP POP JUMP JUMPDEST PUSH1 0x0 PUSH2 0x1B0D PUSH1 0x29 DUP4 PUSH2 0x1F57 JUMP JUMPDEST PUSH32 0x6B65792D616E642D707572706F73652D61727261792D6D7573742D686176652D DUP2 MSTORE PUSH1 0x1 PUSH1 0xB8 SHL PUSH9 0x73616D652D73697A65 MUL PUSH1 0x20 DUP3 ADD MSTORE PUSH1 0x40 ADD SWAP3 SWAP2 POP POP JUMP JUMPDEST PUSH1 0x0 PUSH2 0x1B5B PUSH1 0x12 DUP4 PUSH2 0x1F57 JUMP JUMPDEST PUSH32 0x7468726573686F6C642D746F6F2D686967680000000000000000000000000000 DUP2 MSTORE PUSH1 0x20 ADD SWAP3 SWAP2 POP POP JUMP JUMPDEST PUSH1 0x0 PUSH2 0x1B94 PUSH1 0x16 DUP4 PUSH2 0x1F57 JUMP JUMPDEST PUSH32 0x696E76616C69642D6F7065726174696F6E2D7479706500000000000000000000 DUP2 MSTORE PUSH1 0x20 ADD SWAP3 SWAP2 POP POP JUMP JUMPDEST PUSH1 0x0 PUSH2 0x1BCD PUSH1 0xD DUP4 PUSH2 0x1F57 JUMP JUMPDEST PUSH32 0x696E76616C69642D6E6F6E636500000000000000000000000000000000000000 DUP2 MSTORE PUSH1 0x20 ADD SWAP3 SWAP2 POP POP JUMP JUMPDEST PUSH1 0x0 PUSH2 0x1C06 PUSH1 0xF DUP4 PUSH2 0x1F57 JUMP JUMPDEST PUSH32 0x6D697373696E672D7369676E6572730000000000000000000000000000000000 DUP2 MSTORE PUSH1 0x20 ADD SWAP3 SWAP2 POP POP JUMP JUMPDEST PUSH1 0x0 PUSH2 0x1C3F PUSH1 0x1A DUP4 PUSH2 0x1F57 JUMP JUMPDEST PUSH32 0x6E6F742D656E6F7567682D6D616E6167656D656E742D6B657973000000000000 DUP2 MSTORE PUSH1 0x20 ADD SWAP3 SWAP2 POP POP JUMP JUMPDEST PUSH1 0x0 PUSH2 0x1C78 PUSH1 0x13 DUP4 PUSH2 0x1F57 JUMP JUMPDEST PUSH32 0x696E76616C69642D6D61737465722D7575696400000000000000000000000000 DUP2 MSTORE PUSH1 0x20 ADD SWAP3 SWAP2 POP POP JUMP JUMPDEST PUSH2 0x182C DUP2 PUSH2 0x1F82 JUMP JUMPDEST PUSH1 0x0 PUSH2 0x1CB9 DUP3 DUP10 PUSH2 0x181B JUMP JUMPDEST PUSH1 0x14 DUP3 ADD SWAP2 POP PUSH2 0x1CC9 DUP3 DUP9 PUSH2 0x18A6 JUMP JUMPDEST PUSH1 0x20 DUP3 ADD SWAP2 POP PUSH2 0x1CD9 DUP3 DUP8 PUSH2 0x181B JUMP JUMPDEST PUSH1 0x14 DUP3 ADD SWAP2 POP PUSH2 0x1CE9 DUP3 DUP7 PUSH2 0x18A6 JUMP JUMPDEST PUSH1 0x20 DUP3 ADD SWAP2 POP PUSH2 0x1CF9 DUP3 DUP6 PUSH2 0x18A6 JUMP JUMPDEST PUSH1 0x20 DUP3 ADD SWAP2 POP PUSH2 0x1D09 DUP3 DUP5 PUSH2 0x18A6 JUMP JUMPDEST POP PUSH1 0x20 ADD SWAP7 SWAP6 POP POP POP POP POP POP JUMP JUMPDEST PUSH1 0x0 PUSH2 0x1D23 DUP3 DUP5 PUSH2 0x18F8 JUMP JUMPDEST SWAP4 SWAP3 POP POP POP JUMP JUMPDEST PUSH1 0x0 PUSH2 0x1D35 DUP3 PUSH2 0x1960 JUMP JUMPDEST SWAP2 POP PUSH2 0x1D41 DUP3 DUP5 PUSH2 0x18A6 JUMP JUMPDEST POP PUSH1 0x20 ADD SWAP2 SWAP1 POP JUMP JUMPDEST PUSH1 0x20 DUP2 ADD PUSH2 0x65A DUP3 DUP5 PUSH2 0x1832 JUMP JUMPDEST PUSH1 0x20 DUP1 DUP3 MSTORE DUP2 ADD PUSH2 0x657 DUP2 DUP5 PUSH2 0x183B JUMP JUMPDEST PUSH1 0x20 DUP2 ADD PUSH2 0x65A DUP3 DUP5 PUSH2 0x1894 JUMP JUMPDEST PUSH1 0x20 DUP2 ADD PUSH2 0x65A DUP3 DUP5 PUSH2 0x189D JUMP JUMPDEST PUSH1 0x80 DUP2 ADD PUSH2 0x1D93 DUP3 DUP8 PUSH2 0x189D JUMP JUMPDEST PUSH2 0x1DA0 PUSH1 0x20 DUP4 ADD DUP7 PUSH2 0x1CA4 JUMP JUMPDEST PUSH2 0x1DAD PUSH1 0x40 DUP4 ADD DUP6 PUSH2 0x189D JUMP JUMPDEST PUSH2 0x1DBA PUSH1 0x60 DUP4 ADD DUP5 PUSH2 0x189D JUMP JUMPDEST SWAP6 SWAP5 POP POP POP POP POP JUMP JUMPDEST PUSH1 0x20 DUP2 ADD PUSH2 0x65A DUP3 DUP5 PUSH2 0x18B7 JUMP JUMPDEST PUSH1 0x20 DUP1 DUP3 MSTORE DUP2 ADD PUSH2 0x657 DUP2 DUP5 PUSH2 0x18C0 JUMP JUMPDEST PUSH1 0x20 DUP1 DUP3 MSTORE DUP2 ADD PUSH2 0x65A DUP2 PUSH2 0x1927 JUMP JUMPDEST PUSH1 0x20 DUP1 DUP3 MSTORE DUP2 ADD PUSH2 0x65A DUP2 PUSH2 0x1999 JUMP JUMPDEST PUSH1 0x20 DUP1 DUP3 MSTORE DUP2 ADD PUSH2 0x65A DUP2 PUSH2 0x19D2 JUMP JUMPDEST PUSH1 0x20 DUP1 DUP3 MSTORE DUP2 ADD PUSH2 0x65A DUP2 PUSH2 0x1A0B JUMP JUMPDEST PUSH1 0x20 DUP1 DUP3 MSTORE DUP2 ADD PUSH2 0x65A DUP2 PUSH2 0x1A44 JUMP JUMPDEST PUSH1 0x20 DUP1 DUP3 MSTORE DUP2 ADD PUSH2 0x65A DUP2 PUSH2 0x1A8E JUMP JUMPDEST PUSH1 0x20 DUP1 DUP3 MSTORE DUP2 ADD PUSH2 0x65A DUP2 PUSH2 0x1AC7 JUMP JUMPDEST PUSH1 0x20 DUP1 DUP3 MSTORE DUP2 ADD PUSH2 0x65A DUP2 PUSH2 0x1B00 JUMP JUMPDEST PUSH1 0x20 DUP1 DUP3 MSTORE DUP2 ADD PUSH2 0x65A DUP2 PUSH2 0x1B4E JUMP JUMPDEST PUSH1 0x20 DUP1 DUP3 MSTORE DUP2 ADD PUSH2 0x65A DUP2 PUSH2 0x1B87 JUMP JUMPDEST PUSH1 0x20 DUP1 DUP3 MSTORE DUP2 ADD PUSH2 0x65A DUP2 PUSH2 0x1BC0 JUMP JUMPDEST PUSH1 0x20 DUP1 DUP3 MSTORE DUP2 ADD PUSH2 0x65A DUP2 PUSH2 0x1BF9 JUMP JUMPDEST PUSH1 0x20 DUP1 DUP3 MSTORE DUP2 ADD PUSH2 0x65A DUP2 PUSH2 0x1C32 JUMP JUMPDEST PUSH1 0x20 DUP1 DUP3 MSTORE DUP2 ADD PUSH2 0x65A DUP2 PUSH2 0x1C6B JUMP JUMPDEST PUSH1 0x40 DUP2 ADD PUSH2 0x1ED0 DUP3 DUP6 PUSH2 0x189D JUMP JUMPDEST PUSH2 0x1D23 PUSH1 0x20 DUP4 ADD DUP5 PUSH2 0x189D JUMP JUMPDEST PUSH1 0x40 MLOAD DUP2 DUP2 ADD PUSH8 0xFFFFFFFFFFFFFFFF DUP2 GT DUP3 DUP3 LT OR ISZERO PUSH2 0x1EFC JUMPI PUSH1 0x0 DUP1 REVERT JUMPDEST PUSH1 0x40 MSTORE SWAP2 SWAP1 POP JUMP JUMPDEST PUSH1 0x0 PUSH8 0xFFFFFFFFFFFFFFFF DUP3 GT ISZERO PUSH2 0x1F1B JUMPI PUSH1 0x0 DUP1 REVERT JUMPDEST POP PUSH1 0x20 SWAP1 DUP2 MUL ADD SWAP1 JUMP JUMPDEST PUSH1 0x0 PUSH8 0xFFFFFFFFFFFFFFFF DUP3 GT ISZERO PUSH2 0x1F3C JUMPI PUSH1 0x0 DUP1 REVERT JUMPDEST POP PUSH1 0x20 PUSH1 0x1F SWAP2 SWAP1 SWAP2 ADD PUSH1 0x1F NOT AND ADD SWAP1 JUMP JUMPDEST PUSH1 0x20 ADD SWAP1 JUMP JUMPDEST MLOAD SWAP1 JUMP JUMPDEST SWAP1 DUP2 MSTORE PUSH1 0x20 ADD SWAP1 JUMP JUMPDEST SWAP2 SWAP1 POP JUMP JUMPDEST PUSH1 0x0 PUSH2 0x65A DUP3 PUSH2 0x87B JUMP JUMPDEST ISZERO ISZERO SWAP1 JUMP JUMPDEST PUSH1 0x1 PUSH1 0x1 PUSH1 0xE0 SHL SUB NOT AND SWAP1 JUMP JUMPDEST PUSH1 0xFF AND SWAP1 JUMP JUMPDEST DUP3 DUP2 DUP4 CALLDATACOPY POP PUSH1 0x0 SWAP2 ADD MSTORE JUMP JUMPDEST PUSH1 0x0 JUMPDEST DUP4 DUP2 LT ISZERO PUSH2 0x1FAF JUMPI DUP2 DUP2 ADD MLOAD DUP4 DUP3 ADD MSTORE PUSH1 0x20 ADD PUSH2 0x1F97 JUMP JUMPDEST DUP4 DUP2 GT ISZERO PUSH2 0x78F JUMPI POP POP PUSH1 0x0 SWAP2 ADD MSTORE JUMP JUMPDEST PUSH1 0x0 PUSH2 0x65A DUP3 PUSH1 0x0 PUSH2 0x65A DUP3 PUSH2 0x1FDB JUMP JUMPDEST PUSH1 0x1F ADD PUSH1 0x1F NOT AND SWAP1 JUMP JUMPDEST PUSH1 0x60 SHL SWAP1 JUMP JUMPDEST PUSH2 0x1FEA DUP2 PUSH2 0x1F65 JUMP JUMPDEST DUP2 EQ PUSH2 0x12B7 JUMPI PUSH1 0x0 DUP1 REVERT JUMPDEST PUSH2 0x1FEA DUP2 PUSH2 0x1F70 JUMP JUMPDEST PUSH2 0x1FEA DUP2 PUSH2 0x7B7 JUMP INVALID LOG2 PUSH6 0x627A7A723058 KECCAK256 BYTE 0xe3 POP DIV SWAP12 0x28 0xe4 0xe6 0xd3 DUP8 0xfc DELEGATECALL RETURN NUMBER SWAP1 0xdf SMOD DUP11 0x1e SAR NUMBER 0x4e PUSH25 0xEB4132D592B4F5CC236C6578706572696D656E74616CF50037 "
    }
  },
  "interface": [
    {
      "constant": false,
      "inputs": [
        {
          "name": "key",
          "type": "bytes32"
        },
        {
          "name": "purpose",
          "type": "uint256"
        }
      ],
      "name": "setKey",
      "outputs": [],
      "payable": false,
      "stateMutability": "nonpayable",
      "type": "function"
    },
    {
      "constant": false,
      "inputs": [
        {
          "name": "key",
          "type": "bytes32"
        },
        {
          "name": "purpose",
          "type": "bytes32"
        }
      ],
      "name": "setKey",
      "outputs": [],
      "payable": false,
      "stateMutability": "nonpayable",
      "type": "function"
    },
    {
      "constant": false,
      "inputs": [
        {
          "name": "keys",
          "type": "bytes32[]"
        },
        {
          "name": "purposes",
          "type": "bytes32[]"
        },
        {
          "name": "managementThreshold",
          "type": "uint256"
        },
        {
          "name": "actionThreshold",
          "type": "uint256"
        }
      ],
      "name": "initialize",
      "outputs": [],
      "payable": false,
      "stateMutability": "nonpayable",
      "type": "function"
    },
    {
      "constant": true,
      "inputs": [
        {
          "name": "key",
          "type": "bytes32"
        }
      ],
      "name": "getKey",
      "outputs": [
        {
          "name": "",
          "type": "bytes32"
        }
      ],
      "payable": false,
      "stateMutability": "view",
      "type": "function"
    },
    {
      "constant": false,
      "inputs": [
        {
          "name": "",
          "type": "address"
        },
        {
          "name": "",
          "type": "address"
        },
        {
          "name": "",
          "type": "uint256"
        },
        {
          "name": "",
          "type": "bytes"
        }
      ],
      "name": "onERC721Received",
      "outputs": [
        {
          "name": "",
          "type": "bytes4"
        }
      ],
      "payable": false,
      "stateMutability": "nonpayable",
      "type": "function"
    },
    {
      "constant": true,
      "inputs": [
        {
          "name": "data",
          "type": "bytes32"
        },
        {
          "name": "signature",
          "type": "bytes"
        }
      ],
      "name": "isValidSignature",
      "outputs": [
        {
          "name": "",
          "type": "bool"
        }
      ],
      "payable": false,
      "stateMutability": "view",
      "type": "function"
    },
    {
      "constant": false,
      "inputs": [
        {
          "name": "actionThreshold",
          "type": "uint256"
        }
      ],
      "name": "setActionThreshold",
      "outputs": [],
      "payable": false,
      "stateMutability": "nonpayable",
      "type": "function"
    },
    {
      "constant": false,
      "inputs": [
        {
          "name": "key",
          "type": "address"
        },
        {
          "name": "purpose",
          "type": "uint256"
        }
      ],
      "name": "setKey",
      "outputs": [],
      "payable": false,
      "stateMutability": "nonpayable",
      "type": "function"
    },
    {
      "constant": false,
      "inputs": [
        {
          "name": "key",
          "type": "address"
        },
        {
          "name": "purpose",
          "type": "bytes32"
        }
      ],
      "name": "setKey",
      "outputs": [],
      "payable": false,
      "stateMutability": "nonpayable",
      "type": "function"
    },
    {
      "constant": false,
      "inputs": [
        {
          "name": "operationType",
          "type": "uint256"
        },
        {
          "name": "to",
          "type": "address"
        },
        {
          "name": "value",
          "type": "uint256"
        },
        {
          "name": "data",
          "type": "bytes"
        }
      ],
      "name": "execute",
      "outputs": [],
      "payable": false,
      "stateMutability": "nonpayable",
      "type": "function"
    },
    {
      "constant": true,
      "inputs": [],
      "name": "masterId",
      "outputs": [
        {
          "name": "",
          "type": "bytes32"
        }
      ],
      "payable": false,
      "stateMutability": "pure",
      "type": "function"
    },
    {
      "constant": true,
      "inputs": [
        {
          "name": "key",
          "type": "bytes32"
        }
      ],
      "name": "getData",
      "outputs": [
        {
          "name": "",
          "type": "bytes"
        }
      ],
      "payable": false,
      "stateMutability": "view",
      "type": "function"
    },
    {
      "constant": true,
      "inputs": [
        {
          "name": "key",
          "type": "address"
        },
        {
          "name": "purpose",
          "type": "uint256"
        }
      ],
      "name": "keyHasPurpose",
      "outputs": [
        {
          "name": "",
          "type": "bool"
        }
      ],
      "payable": false,
      "stateMutability": "view",
      "type": "function"
    },
    {
      "constant": true,
      "inputs": [
        {
          "name": "key",
          "type": "bytes32"
        },
        {
          "name": "purpose",
          "type": "bytes32"
        }
      ],
      "name": "keyHasPurpose",
      "outputs": [
        {
          "name": "",
          "type": "bool"
        }
      ],
      "payable": false,
      "stateMutability": "view",
      "type": "function"
    },
    {
      "constant": true,
      "inputs": [
        {
          "name": "addr",
          "type": "address"
        }
      ],
      "name": "addrToKey",
      "outputs": [
        {
          "name": "",
          "type": "bytes32"
        }
      ],
      "payable": false,
      "stateMutability": "pure",
      "type": "function"
    },
    {
      "constant": false,
      "inputs": [
        {
          "name": "newMaster",
          "type": "address"
        },
        {
          "name": "initData",
          "type": "bytes"
        },
        {
          "name": "reset",
          "type": "bool"
        }
      ],
      "name": "updateMaster",
      "outputs": [],
      "payable": false,
      "stateMutability": "nonpayable",
      "type": "function"
    },
    {
      "constant": false,
      "inputs": [
        {
          "name": "operationType",
          "type": "uint256"
        },
        {
          "name": "to",
          "type": "address"
        },
        {
          "name": "value",
          "type": "uint256"
        },
        {
          "name": "data",
          "type": "bytes"
        },
        {
          "name": "nonce",
          "type": "uint256"
        },
        {
          "name": "sigs",
          "type": "bytes[]"
        }
      ],
      "name": "execute",
      "outputs": [],
      "payable": false,
      "stateMutability": "nonpayable",
      "type": "function"
    },
    {
      "constant": false,
      "inputs": [
        {
          "name": "key",
          "type": "bytes32"
        },
        {
          "name": "value",
          "type": "bytes"
        }
      ],
      "name": "setData",
      "outputs": [],
      "payable": false,
      "stateMutability": "nonpayable",
      "type": "function"
    },
    {
      "constant": true,
      "inputs": [],
      "name": "getActiveKeys",
      "outputs": [
        {
          "name": "",
          "type": "bytes32[]"
        }
      ],
      "payable": false,
      "stateMutability": "view",
      "type": "function"
    },
    {
      "constant": true,
      "inputs": [],
      "name": "owner",
      "outputs": [
        {
          "name": "",
          "type": "address"
        }
      ],
      "payable": false,
      "stateMutability": "view",
      "type": "function"
    },
    {
      "constant": true,
      "inputs": [],
      "name": "getManagementThreshold",
      "outputs": [
        {
          "name": "",
          "type": "uint256"
        }
      ],
      "payable": false,
      "stateMutability": "view",
      "type": "function"
    },
    {
      "constant": true,
      "inputs": [
        {
          "name": "key",
          "type": "address"
        }
      ],
      "name": "getKey",
      "outputs": [
        {
          "name": "",
          "type": "bytes32"
        }
      ],
      "payable": false,
      "stateMutability": "view",
      "type": "function"
    },
    {
      "constant": true,
      "inputs": [],
      "name": "getManagementKeyCount",
      "outputs": [
        {
          "name": "",
          "type": "uint256"
        }
      ],
      "payable": false,
      "stateMutability": "view",
      "type": "function"
    },
    {
      "constant": true,
      "inputs": [],
      "name": "nonce",
      "outputs": [
        {
          "name": "",
          "type": "uint256"
        }
      ],
      "payable": false,
      "stateMutability": "view",
      "type": "function"
    },
    {
      "constant": true,
      "inputs": [
        {
          "name": "key",
          "type": "bytes32"
        },
        {
          "name": "purpose",
          "type": "uint256"
        }
      ],
      "name": "keyHasPurpose",
      "outputs": [
        {
          "name": "",
          "type": "bool"
        }
      ],
      "payable": false,
      "stateMutability": "view",
      "type": "function"
    },
    {
      "constant": false,
      "inputs": [
        {
          "name": "managementThreshold",
          "type": "uint256"
        }
      ],
      "name": "setManagementThreshold",
      "outputs": [],
      "payable": false,
      "stateMutability": "nonpayable",
      "type": "function"
    },
    {
      "constant": true,
      "inputs": [],
      "name": "getActionThreshold",
      "outputs": [
        {
          "name": "",
          "type": "uint256"
        }
      ],
      "payable": false,
      "stateMutability": "view",
      "type": "function"
    },
    {
      "constant": true,
      "inputs": [],
      "name": "master",
      "outputs": [
        {
          "name": "",
          "type": "address"
        }
      ],
      "payable": false,
      "stateMutability": "view",
      "type": "function"
    },
    {
      "constant": true,
      "inputs": [
        {
          "name": "key",
          "type": "address"
        },
        {
          "name": "purpose",
          "type": "bytes32"
        }
      ],
      "name": "keyHasPurpose",
      "outputs": [
        {
          "name": "",
          "type": "bool"
        }
      ],
      "payable": false,
      "stateMutability": "view",
      "type": "function"
    },
    {
      "inputs": [],
      "payable": false,
      "stateMutability": "nonpayable",
      "type": "constructor"
    },
    {
      "payable": true,
      "stateMutability": "payable",
      "type": "fallback"
    },
    {
      "anonymous": false,
      "inputs": [
        {
          "indexed": true,
          "name": "key",
          "type": "bytes32"
        },
        {
          "indexed": true,
          "name": "previousPurpose",
          "type": "bytes32"
        },
        {
          "indexed": true,
          "name": "newPurpose",
          "type": "bytes32"
        }
      ],
      "name": "SetKey",
      "type": "event"
    },
    {
      "anonymous": false,
      "inputs": [
        {
          "indexed": false,
          "name": "previousThreshold",
          "type": "uint256"
        },
        {
          "indexed": false,
          "name": "newThreshold",
          "type": "uint256"
        }
      ],
      "name": "ManagementThresholdChange",
      "type": "event"
    },
    {
      "anonymous": false,
      "inputs": [
        {
          "indexed": false,
          "name": "previousThreshold",
          "type": "uint256"
        },
        {
          "indexed": false,
          "name": "newThreshold",
          "type": "uint256"
        }
      ],
      "name": "ActionThresholdChange",
      "type": "event"
    },
    {
      "anonymous": false,
      "inputs": [
        {
          "indexed": true,
          "name": "previousMaster",
          "type": "address"
        },
        {
          "indexed": true,
          "name": "newMaster",
          "type": "address"
        }
      ],
      "name": "MasterChange",
      "type": "event"
    },
    {
      "anonymous": false,
      "inputs": [
        {
          "indexed": true,
          "name": "key",
          "type": "bytes32"
        },
        {
          "indexed": false,
          "name": "value",
          "type": "bytes"
        }
      ],
      "name": "DataChanged",
      "type": "event"
    },
    {
      "anonymous": false,
      "inputs": [
        {
          "indexed": true,
          "name": "contractAddress",
          "type": "address"
        }
      ],
      "name": "ContractCreated",
      "type": "event"
    },
    {
      "anonymous": false,
      "inputs": [
        {
          "indexed": true,
          "name": "to",
          "type": "address"
        }
      ],
      "name": "CallSuccess",
      "type": "event"
    },
    {
      "anonymous": false,
      "inputs": [
        {
          "indexed": true,
          "name": "to",
          "type": "address"
        },
        {
          "indexed": false,
          "name": "returndata",
          "type": "bytes"
        }
      ],
      "name": "CallFailure",
      "type": "event"
    }
  ]
}