{
  "abi": [
    {
      "constant": false,
      "inputs": [
        {
          "name": "key",
          "type": "bytes32"
        },
        {
          "name": "purpose",
          "type": "uint256"
        }
      ],
      "name": "setKey",
      "outputs": [],
      "payable": false,
      "stateMutability": "nonpayable",
      "type": "function"
    },
    {
      "constant": false,
      "inputs": [
        {
          "name": "key",
          "type": "bytes32"
        },
        {
          "name": "purpose",
          "type": "bytes32"
        }
      ],
      "name": "setKey",
      "outputs": [],
      "payable": false,
      "stateMutability": "nonpayable",
      "type": "function"
    },
    {
      "constant": false,
      "inputs": [
        {
          "name": "keys",
          "type": "bytes32[]"
        },
        {
          "name": "purposes",
          "type": "bytes32[]"
        },
        {
          "name": "managementThreshold",
          "type": "uint256"
        },
        {
          "name": "actionThreshold",
          "type": "uint256"
        }
      ],
      "name": "initialize",
      "outputs": [],
      "payable": false,
      "stateMutability": "nonpayable",
      "type": "function"
    },
    {
      "constant": true,
      "inputs": [
        {
          "name": "key",
          "type": "bytes32"
        }
      ],
      "name": "getKey",
      "outputs": [
        {
          "name": "",
          "type": "bytes32"
        }
      ],
      "payable": false,
      "stateMutability": "view",
      "type": "function"
    },
    {
      "constant": false,
      "inputs": [
        {
          "name": "",
          "type": "address"
        },
        {
          "name": "",
          "type": "address"
        },
        {
          "name": "",
          "type": "uint256"
        },
        {
          "name": "",
          "type": "bytes"
        }
      ],
      "name": "onERC721Received",
      "outputs": [
        {
          "name": "",
          "type": "bytes4"
        }
      ],
      "payable": false,
      "stateMutability": "nonpayable",
      "type": "function"
    },
    {
      "constant": true,
      "inputs": [
        {
          "name": "data",
          "type": "bytes32"
        },
        {
          "name": "signature",
          "type": "bytes"
        }
      ],
      "name": "isValidSignature",
      "outputs": [
        {
          "name": "",
          "type": "bool"
        }
      ],
      "payable": false,
      "stateMutability": "view",
      "type": "function"
    },
    {
      "constant": false,
      "inputs": [
        {
          "name": "actionThreshold",
          "type": "uint256"
        }
      ],
      "name": "setActionThreshold",
      "outputs": [],
      "payable": false,
      "stateMutability": "nonpayable",
      "type": "function"
    },
    {
      "constant": false,
      "inputs": [
        {
          "name": "key",
          "type": "address"
        },
        {
          "name": "purpose",
          "type": "uint256"
        }
      ],
      "name": "setKey",
      "outputs": [],
      "payable": false,
      "stateMutability": "nonpayable",
      "type": "function"
    },
    {
      "constant": false,
      "inputs": [
        {
          "name": "key",
          "type": "address"
        },
        {
          "name": "purpose",
          "type": "bytes32"
        }
      ],
      "name": "setKey",
      "outputs": [],
      "payable": false,
      "stateMutability": "nonpayable",
      "type": "function"
    },
    {
      "constant": false,
      "inputs": [
        {
          "name": "operationType",
          "type": "uint256"
        },
        {
          "name": "to",
          "type": "address"
        },
        {
          "name": "value",
          "type": "uint256"
        },
        {
          "name": "data",
          "type": "bytes"
        }
      ],
      "name": "execute",
      "outputs": [],
      "payable": false,
      "stateMutability": "nonpayable",
      "type": "function"
    },
    {
      "constant": true,
      "inputs": [],
      "name": "masterId",
      "outputs": [
        {
          "name": "",
          "type": "bytes32"
        }
      ],
      "payable": false,
      "stateMutability": "pure",
      "type": "function"
    },
    {
      "constant": true,
      "inputs": [
        {
          "name": "key",
          "type": "bytes32"
        }
      ],
      "name": "getData",
      "outputs": [
        {
          "name": "",
          "type": "bytes"
        }
      ],
      "payable": false,
      "stateMutability": "view",
      "type": "function"
    },
    {
      "constant": true,
      "inputs": [
        {
          "name": "key",
          "type": "address"
        },
        {
          "name": "purpose",
          "type": "uint256"
        }
      ],
      "name": "keyHasPurpose",
      "outputs": [
        {
          "name": "",
          "type": "bool"
        }
      ],
      "payable": false,
      "stateMutability": "view",
      "type": "function"
    },
    {
      "constant": true,
      "inputs": [
        {
          "name": "key",
          "type": "bytes32"
        },
        {
          "name": "purpose",
          "type": "bytes32"
        }
      ],
      "name": "keyHasPurpose",
      "outputs": [
        {
          "name": "",
          "type": "bool"
        }
      ],
      "payable": false,
      "stateMutability": "view",
      "type": "function"
    },
    {
      "constant": true,
      "inputs": [
        {
          "name": "addr",
          "type": "address"
        }
      ],
      "name": "addrToKey",
      "outputs": [
        {
          "name": "",
          "type": "bytes32"
        }
      ],
      "payable": false,
      "stateMutability": "pure",
      "type": "function"
    },
    {
      "constant": false,
      "inputs": [
        {
          "name": "newMaster",
          "type": "address"
        },
        {
          "name": "initData",
          "type": "bytes"
        },
        {
          "name": "reset",
          "type": "bool"
        }
      ],
      "name": "updateMaster",
      "outputs": [],
      "payable": false,
      "stateMutability": "nonpayable",
      "type": "function"
    },
    {
      "constant": false,
      "inputs": [
        {
          "name": "key",
          "type": "bytes32"
        },
        {
          "name": "value",
          "type": "bytes"
        }
      ],
      "name": "setData",
      "outputs": [],
      "payable": false,
      "stateMutability": "nonpayable",
      "type": "function"
    },
    {
      "constant": true,
      "inputs": [],
      "name": "getActiveKeys",
      "outputs": [
        {
          "name": "",
          "type": "bytes32[]"
        }
      ],
      "payable": false,
      "stateMutability": "view",
      "type": "function"
    },
    {
      "constant": true,
      "inputs": [],
      "name": "owner",
      "outputs": [
        {
          "name": "",
          "type": "address"
        }
      ],
      "payable": false,
      "stateMutability": "view",
      "type": "function"
    },
    {
      "constant": true,
      "inputs": [],
      "name": "getManagementThreshold",
      "outputs": [
        {
          "name": "",
          "type": "uint256"
        }
      ],
      "payable": false,
      "stateMutability": "view",
      "type": "function"
    },
    {
      "constant": true,
      "inputs": [
        {
          "name": "key",
          "type": "address"
        }
      ],
      "name": "getKey",
      "outputs": [
        {
          "name": "",
          "type": "bytes32"
        }
      ],
      "payable": false,
      "stateMutability": "view",
      "type": "function"
    },
    {
      "constant": true,
      "inputs": [],
      "name": "getManagementKeyCount",
      "outputs": [
        {
          "name": "",
          "type": "uint256"
        }
      ],
      "payable": false,
      "stateMutability": "view",
      "type": "function"
    },
    {
      "constant": true,
      "inputs": [],
      "name": "nonce",
      "outputs": [
        {
          "name": "",
          "type": "uint256"
        }
      ],
      "payable": false,
      "stateMutability": "view",
      "type": "function"
    },
    {
      "constant": false,
      "inputs": [
        {
          "name": "operationType",
          "type": "uint256"
        },
        {
          "name": "to",
          "type": "address"
        },
        {
          "name": "value",
          "type": "uint256"
        },
        {
          "name": "data",
          "type": "bytes"
        },
        {
          "name": "nonce",
          "type": "uint256"
        },
        {
          "name": "gasToken",
          "type": "address"
        },
        {
          "name": "gasPrice",
          "type": "uint256"
        },
        {
          "name": "sigs",
          "type": "bytes[]"
        }
      ],
      "name": "execute",
      "outputs": [],
      "payable": false,
      "stateMutability": "nonpayable",
      "type": "function"
    },
    {
      "constant": true,
      "inputs": [
        {
          "name": "key",
          "type": "bytes32"
        },
        {
          "name": "purpose",
          "type": "uint256"
        }
      ],
      "name": "keyHasPurpose",
      "outputs": [
        {
          "name": "",
          "type": "bool"
        }
      ],
      "payable": false,
      "stateMutability": "view",
      "type": "function"
    },
    {
      "constant": false,
      "inputs": [
        {
          "name": "managementThreshold",
          "type": "uint256"
        }
      ],
      "name": "setManagementThreshold",
      "outputs": [],
      "payable": false,
      "stateMutability": "nonpayable",
      "type": "function"
    },
    {
      "constant": true,
      "inputs": [],
      "name": "getActionThreshold",
      "outputs": [
        {
          "name": "",
          "type": "uint256"
        }
      ],
      "payable": false,
      "stateMutability": "view",
      "type": "function"
    },
    {
      "constant": true,
      "inputs": [],
      "name": "master",
      "outputs": [
        {
          "name": "",
          "type": "address"
        }
      ],
      "payable": false,
      "stateMutability": "view",
      "type": "function"
    },
    {
      "constant": true,
      "inputs": [
        {
          "name": "key",
          "type": "address"
        },
        {
          "name": "purpose",
          "type": "bytes32"
        }
      ],
      "name": "keyHasPurpose",
      "outputs": [
        {
          "name": "",
          "type": "bool"
        }
      ],
      "payable": false,
      "stateMutability": "view",
      "type": "function"
    },
    {
      "inputs": [],
      "payable": false,
      "stateMutability": "nonpayable",
      "type": "constructor"
    },
    {
      "payable": true,
      "stateMutability": "payable",
      "type": "fallback"
    },
    {
      "anonymous": false,
      "inputs": [
        {
          "indexed": true,
          "name": "key",
          "type": "bytes32"
        },
        {
          "indexed": true,
          "name": "previousPurpose",
          "type": "bytes32"
        },
        {
          "indexed": true,
          "name": "newPurpose",
          "type": "bytes32"
        }
      ],
      "name": "SetKey",
      "type": "event"
    },
    {
      "anonymous": false,
      "inputs": [
        {
          "indexed": false,
          "name": "previousThreshold",
          "type": "uint256"
        },
        {
          "indexed": false,
          "name": "newThreshold",
          "type": "uint256"
        }
      ],
      "name": "ManagementThresholdChange",
      "type": "event"
    },
    {
      "anonymous": false,
      "inputs": [
        {
          "indexed": false,
          "name": "previousThreshold",
          "type": "uint256"
        },
        {
          "indexed": false,
          "name": "newThreshold",
          "type": "uint256"
        }
      ],
      "name": "ActionThresholdChange",
      "type": "event"
    },
    {
      "anonymous": false,
      "inputs": [
        {
          "indexed": true,
          "name": "previousMaster",
          "type": "address"
        },
        {
          "indexed": true,
          "name": "newMaster",
          "type": "address"
        }
      ],
      "name": "MasterChange",
      "type": "event"
    },
    {
      "anonymous": false,
      "inputs": [
        {
          "indexed": true,
          "name": "key",
          "type": "bytes32"
        },
        {
          "indexed": false,
          "name": "value",
          "type": "bytes"
        }
      ],
      "name": "DataChanged",
      "type": "event"
    },
    {
      "anonymous": false,
      "inputs": [
        {
          "indexed": true,
          "name": "contractAddress",
          "type": "address"
        }
      ],
      "name": "ContractCreated",
      "type": "event"
    },
    {
      "anonymous": false,
      "inputs": [
        {
          "indexed": true,
          "name": "to",
          "type": "address"
        }
      ],
      "name": "CallSuccess",
      "type": "event"
    },
    {
      "anonymous": false,
      "inputs": [
        {
          "indexed": true,
          "name": "to",
          "type": "address"
        },
        {
          "indexed": false,
          "name": "returndata",
          "type": "bytes"
        }
      ],
      "name": "CallFailure",
      "type": "event"
    }
  ],
  "evm": {
    "bytecode": {
      "linkReferences": {},
      "object": "608060405234801561001057600080fd5b50612237806100206000396000f3fe6080604052600436106101c25760003560e01c806363f14c3c116100f7578063aa4361b911610095578063da84ddd111610064578063da84ddd114610499578063ea40df3a146104b9578063ee97f7f3146104ce578063f2725bbe14610336576101c2565b8063aa4361b91461044f578063affed0e014610464578063cd82e56b14610479578063d202158d14610356576101c2565b806383d2deb1116100d157806383d2deb1146103d65780638da5cb5b146103f85780638efee3b51461041a57806393790f441461042f576101c2565b806363f14c3c14610376578063646e55db146103965780637f23690c146103b6576101c2565b80631c5e56a0116101645780635122bb7c1161013e5780635122bb7c146102f457806354f6127f146103095780635e6261fa1461033657806363ebc4dd14610356576101c2565b80631c5e56a0146102b457806335d8df48146102b457806344c028fe146102d4576101c2565b806312aaac70116101a057806312aaac7014610204578063150b7a021461023a5780631626ba7e1461026757806319a3974014610294576101c2565b806303f778de146101c457806307a00330146101c45780630eda0979146101e4575b005b3480156101d057600080fd5b506101c26101df36600461184a565b6104e3565b3480156101f057600080fd5b506101c26101ff36600461176c565b610535565b34801561021057600080fd5b5061022461021f36600461180e565b610613565b6040516102319190611f69565b60405180910390f35b34801561024657600080fd5b5061025a610255366004611654565b610625565b6040516102319190611fb5565b34801561027357600080fd5b50610287610282366004611869565b610638565b6040516102319190611f5b565b3480156102a057600080fd5b506101c26102af36600461180e565b610660565b3480156102c057600080fd5b506101c26102cf3660046116cd565b6106fb565b3480156102e057600080fd5b506101c26102ef3660046118b1565b610748565b34801561030057600080fd5b50610224610795565b34801561031557600080fd5b5061032961032436600461180e565b6107ba565b6040516102319190611fc3565b34801561034257600080fd5b506102876103513660046116cd565b61085b565b34801561036257600080fd5b5061028761037136600461184a565b61086f565b34801561038257600080fd5b5061022461039136600461162e565b61087b565b3480156103a257600080fd5b506101c26103b1366004611707565b610887565b3480156103c257600080fd5b506101c26103d1366004611869565b61093a565b3480156103e257600080fd5b506103eb6109d1565b6040516102319190611f4a565b34801561040457600080fd5b5061040d610a29565b6040516102319190611f21565b34801561042657600080fd5b50610224610a2d565b34801561043b57600080fd5b5061022461044a36600461162e565b610a33565b34801561045b57600080fd5b50610224610a58565b34801561047057600080fd5b50610224610a5e565b34801561048557600080fd5b506101c26104943660046118d3565b610a64565b3480156104a557600080fd5b506101c26104b436600461180e565b610c44565b3480156104c557600080fd5b50610224610d04565b3480156104da57600080fd5b5061040d610d0a565b6104eb610a29565b6001600160a01b0316336001600160a01b03161461052757604051600160e51b62461bcd02815260040161051e90611fe4565b60405180910390fd5b6105318282610d19565b5050565b600054600160a01b900460ff161561056257604051600160e51b62461bcd02815260040161051e90612024565b825184511461058657604051600160e51b62461bcd02815260040161051e90612044565b60005b84518110156105ca576105c28582815181106105a157fe5b60200260200101518583815181106105b557fe5b6020026020010151610d19565b600101610589565b508160065410156105f057604051600160e51b62461bcd02815260040161051e90612094565b600791909155600855505060008054600160a01b60ff021916600160a01b179055565b60009081526004602052604090205490565b600160e11b630a85bd0102949350505050565b6000610657610650610391858563ffffffff610eda16565b600461086f565b90505b92915050565b610668610a29565b6001600160a01b0316336001600160a01b03161461069b57604051600160e51b62461bcd02815260040161051e90611fe4565b806106bb57604051600160e51b62461bcd02815260040161051e90611ff4565b7ffd0b44227dee5de3fa844ff17983688ade4471a8257d62ed2a48507168810d7a600854826040516106ee9291906120b4565b60405180910390a1600855565b610703610a29565b6001600160a01b0316336001600160a01b03161461073657604051600160e51b62461bcd02815260040161051e90611fe4565b6105316107428361087b565b82610d19565b610750610a29565b6001600160a01b0316336001600160a01b03161461078357604051600160e51b62461bcd02815260040161051e90611fe4565b61078f84848484610fb6565b50505050565b7f1618fcec65bce0693e931d337fc12424ee920bf56c4a74bc8ddb1361328af2365b90565b60008181526003602090815260409182902080548351601f600260001961010060018616150201909316929092049182018490048402810184019094528084526060939283018282801561084f5780601f106108245761010080835404028352916020019161084f565b820191906000526020600020905b81548152906001019060200180831161083257829003601f168201915b50505050509050919050565b60006106576108698461087b565b83611114565b60006106578383611114565b6001600160a01b031690565b61088f610a29565b6001600160a01b0316336001600160a01b0316146108c257604051600160e51b62461bcd02815260040161051e90611fe4565b801561092b5760005b60055481101561090e5760046000600583815481106108e657fe5b90600052602060002001548152602001908152602001600020600090558060010190506108cb565b5061091b600560006113f3565b6000600681905560078190556008555b610935838361112a565b505050565b610942610a29565b6001600160a01b0316336001600160a01b03161461097557604051600160e51b62461bcd02815260040161051e90611fe4565b6000828152600360209081526040909120825161099492840190611414565b50817fece574603820d07bc9b91f2a932baadf4628aabcb8afba49776529c14a6104b2826040516109c59190611fc3565b60405180910390a25050565b60606005805480602002602001604051908101604052809291908181526020018280548015610a1f57602002820191906000526020600020905b815481526020019060010190808311610a0b575b5050505050905090565b3090565b60075490565b600060046000610a428461087b565b8152602001908152602001600020549050919050565b60065490565b60015490565b60005a600180548101908190559091508514610a9557604051600160e51b62461bcd02815260040161051e90612074565b60006001600160a01b038916301415610ad65760075483511015610ace57604051600160e51b62461bcd02815260040161051e90612084565b506001610b00565b60085483511015610afc57604051600160e51b62461bcd02815260040161051e90612084565b5060025b6000610b46308c8c8c8c805190602001208c8c8c604051602001610b2b989796959493929190611e62565b604051602081830303815290604052805190602001206112b1565b90506000805b8551811015610bee576000610b7d878381518110610b6657fe5b602002602001015185610eda90919063ffffffff16565b9050826001600160a01b0316816001600160a01b031611610bb357604051600160e51b62461bcd02815260040161051e90612034565b610bc5610bbf8261087b565b8661086f565b610be457604051600160e51b62461bcd02815260040161051e90612004565b9150600101610b4c565b50610bfb8c8c8c8c610fb6565b610c36610c3087610c245a610c1861a1548a63ffffffff6112e116565b9063ffffffff6112f316565b9063ffffffff61130816565b8861132f565b505050505050505050505050565b610c4c610a29565b6001600160a01b0316336001600160a01b031614610c7f57604051600160e51b62461bcd02815260040161051e90611fe4565b80610c9f57604051600160e51b62461bcd02815260040161051e90611ff4565b806006541015610cc457604051600160e51b62461bcd02815260040161051e90612054565b7f9b1fc5ddbac8d6fac2661a57e7515dee9abf241f420629999d85f031919f4b4d60075482604051610cf79291906120b4565b60405180910390a1600755565b60085490565b6000546001600160a01b031690565b60008281526004602052604090205419600116158015610d3a575060018116155b15610d4a57600680546000190190555b600082815260046020526040902054600116158015610d6b57506001811916155b15610d7a576006805460010190555b6007546006541015610da157604051600160e51b62461bcd02815260040161051e90612014565b600082815260046020526040902054610dea57600580546001810182556000919091527f036b6384b5eca791c62761152d0c79bb0604c104a5fb6f4eb0703f3154bb3db0018290555b600082815260046020526040808220549051839285917f82f65b599219dc2719c1104b915b860b397dc476d20c4df48810a72bb8ad1e5b9190a46000828152600460205260409020819055806105315760005b600554811015610935578260058281548110610e5557fe5b90600052602060002001541415610ed257600580546000198101908110610e7857fe5b906000526020600020015460058281548110610e9057fe5b600091825260209091200155600580546000198101908110610eae57fe5b60009182526020822001556005805490610ecc906000198301611492565b50610935565b600101610e3d565b60008151604114610eed5750600061065a565b60208201516040830151606084015160001a7f7fffffffffffffffffffffffffffffff5d576e7357a4501ddfe92f46681b20a0821115610f33576000935050505061065a565b8060ff16601b14158015610f4b57508060ff16601c14155b15610f5c576000935050505061065a565b60018682858560405160008152602001604052604051610f7f9493929190611f77565b6020604051602081039080840390855afa158015610fa1573d6000803e3d6000fd5b5050604051601f190151979650505050505050565b836110a85760006060846001600160a01b03168484604051610fd89190611eee565b60006040518083038185875af1925050503d8060008114611015576040519150601f19603f3d011682016040523d82523d6000602084013e61101a565b606091505b509092509050811561105f576040516001600160a01b038616907f7c940052472fd1d616012dc780a92c777783e8f45cdb6802d1d48891cd33a50890600090a26110a1565b846001600160a01b03167f4b0b4377cb27b4634a3573214783294886bc4e04f64fa75d3f5469fb26393462826040516110989190611fc3565b60405180910390a25b505061078f565b60018414156110f95760008151602083016000f06040519091506001600160a01b038216907fcf78cf0d6f3d8371e1075c69c492ab4ec5d8cf23a1a239b6a51a1d00be7ca31290600090a25061078f565b604051600160e51b62461bcd02815260040161051e90612064565b6000918252600460205260409091205419161590565b7f1618fcec65bce0693e931d337fc12424ee920bf56c4a74bc8ddb1361328af23660001b826001600160a01b0316635122bb7c6040518163ffffffff1660e01b815260040160206040518083038186803b15801561118757600080fd5b505afa15801561119b573d6000803e3d6000fd5b505050506040513d601f19601f820116820180604052506111bf919081019061182c565b146111df57604051600160e51b62461bcd02815260040161051e906120a4565b600080546040516001600160a01b03808616939216917fb177a4a05a82a0d82537f71956f554ee3d2d0f32a76c0b056e0490778be10ab491a3600080546001600160a01b0319166001600160a01b038416908117600160a01b60ff021916825560405161124d908490611eee565b600060405180830381855af49150503d8060008114611288576040519150601f19603f3d011682016040523d82523d6000602084013e61128d565b606091505b505090508061093557604051600160e51b62461bcd02815260040161051e90611fd4565b6000816040516020016112c49190611f01565b604051602081830303815290604052805190602001209050919050565b60008282018381101561065757600080fd5b60008282111561130257600080fd5b50900390565b6000826113175750600061065a565b8282028284828161132457fe5b041461065757600080fd5b6001600160a01b03811661137057604051339083156108fc029084906000818181858888f1935050505015801561136a573d6000803e3d6000fd5b50610531565b604051600160e01b63a9059cbb0281526001600160a01b0382169063a9059cbb906113a19033908690600401611f2f565b602060405180830381600087803b1580156113bb57600080fd5b505af11580156113cf573d6000803e3d6000fd5b505050506040513d601f19601f8201168201806040525061093591908101906117f0565b508054600082559060005260206000209081019061141191906114b2565b50565b828054600181600116156101000203166002900490600052602060002090601f016020900481019282601f1061145557805160ff1916838001178555611482565b82800160010185558215611482579182015b82811115611482578251825591602001919060010190611467565b5061148e9291506114b2565b5090565b815481835581811115610935576000838152602090206109359181019083015b6107b791905b8082111561148e57600081556001016114b8565b803561065a816121d7565b600082601f8301126114e857600080fd5b81356114fb6114f6826120e9565b6120c2565b9150818183526020840193506020810190508385602084028201111561152057600080fd5b60005b8381101561154c578161153688826115c9565b8452506020928301929190910190600101611523565b5050505092915050565b600082601f83011261156757600080fd5b81356115756114f6826120e9565b81815260209384019390925082018360005b8381101561154c578135860161159d88826115df565b8452506020928301929190910190600101611587565b803561065a816121eb565b805161065a816121eb565b803561065a816121f4565b805161065a816121f4565b600082601f8301126115f057600080fd5b81356115fe6114f68261210a565b9150808252602083016020830185838301111561161a57600080fd5b61162583828461217e565b50505092915050565b60006020828403121561164057600080fd5b600061164c84846114cc565b949350505050565b6000806000806080858703121561166a57600080fd5b600061167687876114cc565b9450506020611687878288016114cc565b9350506040611698878288016115c9565b925050606085013567ffffffffffffffff8111156116b557600080fd5b6116c1878288016115df565b91505092959194509250565b600080604083850312156116e057600080fd5b60006116ec85856114cc565b92505060206116fd858286016115c9565b9150509250929050565b60008060006060848603121561171c57600080fd5b600061172886866114cc565b935050602084013567ffffffffffffffff81111561174557600080fd5b611751868287016115df565b9250506040611762868287016115b3565b9150509250925092565b6000806000806080858703121561178257600080fd5b843567ffffffffffffffff81111561179957600080fd5b6117a5878288016114d7565b945050602085013567ffffffffffffffff8111156117c257600080fd5b6117ce878288016114d7565b93505060406117df878288016115c9565b92505060606116c1878288016115c9565b60006020828403121561180257600080fd5b600061164c84846115be565b60006020828403121561182057600080fd5b600061164c84846115c9565b60006020828403121561183e57600080fd5b600061164c84846115d4565b6000806040838503121561185d57600080fd5b60006116ec85856115c9565b6000806040838503121561187c57600080fd5b600061188885856115c9565b925050602083013567ffffffffffffffff8111156118a557600080fd5b6116fd858286016115df565b600080600080608085870312156118c757600080fd5b600061167687876115c9565b600080600080600080600080610100898b0312156118f057600080fd5b60006118fc8b8b6115c9565b985050602061190d8b828c016114cc565b975050604061191e8b828c016115c9565b965050606089013567ffffffffffffffff81111561193b57600080fd5b6119478b828c016115df565b95505060806119588b828c016115c9565b94505060a06119698b828c016114cc565b93505060c061197a8b828c016115c9565b92505060e089013567ffffffffffffffff81111561199757600080fd5b6119a38b828c01611556565b9150509295985092959890939650565b60006119bf8383611a52565b505060200190565b6119d08161216d565b82525050565b6119d06119e28261214a565b6121b6565b6119d08161214a565b60006119fb82612138565b611a05818561213c565b9350611a1083612132565b8060005b83811015611a3e578151611a2888826119b3565b9750611a3383612132565b925050600101611a14565b509495945050505050565b6119d081612155565b6119d0816107b7565b6119d0611a67826107b7565b6107b7565b6119d08161215a565b6000611a8082612138565b611a8a818561213c565b9350611a9a81856020860161218a565b611aa3816121c7565b9093019392505050565b6000611ab882612138565b611ac28185612145565b9350611ad281856020860161218a565b9290920192915050565b6000611ae960148361213c565b7f6661696c65642d746f2d696e697469616c697a65000000000000000000000000815260200192915050565b6000611b22601c83612145565b7f19457468657265756d205369676e6564204d6573736167653a0a3332000000008152601c0192915050565b6000611b5b600d8361213c565b7f6163636573732d64656e69656400000000000000000000000000000000000000815260200192915050565b6000611b9460118361213c565b7f7468726573686f6c642d746f6f2d6c6f77000000000000000000000000000000815260200192915050565b6000611bcd60118361213c565b7f696e76616c69642d7369676e6174757265000000000000000000000000000000815260200192915050565b6000611c0660258361213c565b7f63616e6e6f742d72656d6f76652d637269746963616c2d6d616e6167656d656e8152600160d81b64742d6b657902602082015260400192915050565b6000611c5060138361213c565b7f616c72656164792d696e697469616c697a656400000000000000000000000000815260200192915050565b6000611c89601b8361213c565b7f696e76616c69642d7369676e6174757265732d6f72646572696e670000000000815260200192915050565b6000611cc260298361213c565b7f6b65792d616e642d707572706f73652d61727261792d6d7573742d686176652d8152600160b81b6873616d652d73697a6502602082015260400192915050565b6000611d1060128361213c565b7f7468726573686f6c642d746f6f2d686967680000000000000000000000000000815260200192915050565b6000611d4960168361213c565b7f696e76616c69642d6f7065726174696f6e2d7479706500000000000000000000815260200192915050565b6000611d82600d8361213c565b7f696e76616c69642d6e6f6e636500000000000000000000000000000000000000815260200192915050565b6000611dbb600f8361213c565b7f6d697373696e672d7369676e6572730000000000000000000000000000000000815260200192915050565b6000611df4601a8361213c565b7f6e6f742d656e6f7567682d6d616e6167656d656e742d6b657973000000000000815260200192915050565b6000611e2d60138361213c565b7f696e76616c69642d6d61737465722d7575696400000000000000000000000000815260200192915050565b6119d081612167565b6000611e6e828b6119d6565b601482019150611e7e828a611a5b565b602082019150611e8e82896119d6565b601482019150611e9e8288611a5b565b602082019150611eae8287611a5b565b602082019150611ebe8286611a5b565b602082019150611ece82856119d6565b601482019150611ede8284611a5b565b5060200198975050505050505050565b6000611efa8284611aad565b9392505050565b6000611f0c82611b15565b9150611f188284611a5b565b50602001919050565b6020810161065a82846119e7565b60408101611f3d82856119c7565b611efa6020830184611a52565b6020808252810161065781846119f0565b6020810161065a8284611a49565b6020810161065a8284611a52565b60808101611f858287611a52565b611f926020830186611e59565b611f9f6040830185611a52565b611fac6060830184611a52565b95945050505050565b6020810161065a8284611a6c565b602080825281016106578184611a75565b6020808252810161065a81611adc565b6020808252810161065a81611b4e565b6020808252810161065a81611b87565b6020808252810161065a81611bc0565b6020808252810161065a81611bf9565b6020808252810161065a81611c43565b6020808252810161065a81611c7c565b6020808252810161065a81611cb5565b6020808252810161065a81611d03565b6020808252810161065a81611d3c565b6020808252810161065a81611d75565b6020808252810161065a81611dae565b6020808252810161065a81611de7565b6020808252810161065a81611e20565b60408101611f3d8285611a52565b60405181810167ffffffffffffffff811182821017156120e157600080fd5b604052919050565b600067ffffffffffffffff82111561210057600080fd5b5060209081020190565b600067ffffffffffffffff82111561212157600080fd5b506020601f91909101601f19160190565b60200190565b5190565b90815260200190565b919050565b600061065a8261087b565b151590565b6001600160e01b03191690565b60ff1690565b600061065a82600061065a8261214a565b82818337506000910152565b60005b838110156121a557818101518382015260200161218d565b8381111561078f5750506000910152565b600061065a82600061065a826121d1565b601f01601f191690565b60601b90565b6121e08161214a565b811461141157600080fd5b6121e081612155565b6121e0816107b756fea265627a7a7230582027789c07a4e1f164056d1d749e85014e841f094f0f8f8efec6f47ba0d158b4296c6578706572696d656e74616cf50037",
      "opcodes": "PUSH1 0x80 PUSH1 0x40 MSTORE CALLVALUE DUP1 ISZERO PUSH2 0x10 JUMPI PUSH1 0x0 DUP1 REVERT JUMPDEST POP PUSH2 0x2237 DUP1 PUSH2 0x20 PUSH1 0x0 CODECOPY PUSH1 0x0 RETURN INVALID PUSH1 0x80 PUSH1 0x40 MSTORE PUSH1 0x4 CALLDATASIZE LT PUSH2 0x1C2 JUMPI PUSH1 0x0 CALLDATALOAD PUSH1 0xE0 SHR DUP1 PUSH4 0x63F14C3C GT PUSH2 0xF7 JUMPI DUP1 PUSH4 0xAA4361B9 GT PUSH2 0x95 JUMPI DUP1 PUSH4 0xDA84DDD1 GT PUSH2 0x64 JUMPI DUP1 PUSH4 0xDA84DDD1 EQ PUSH2 0x499 JUMPI DUP1 PUSH4 0xEA40DF3A EQ PUSH2 0x4B9 JUMPI DUP1 PUSH4 0xEE97F7F3 EQ PUSH2 0x4CE JUMPI DUP1 PUSH4 0xF2725BBE EQ PUSH2 0x336 JUMPI PUSH2 0x1C2 JUMP JUMPDEST DUP1 PUSH4 0xAA4361B9 EQ PUSH2 0x44F JUMPI DUP1 PUSH4 0xAFFED0E0 EQ PUSH2 0x464 JUMPI DUP1 PUSH4 0xCD82E56B EQ PUSH2 0x479 JUMPI DUP1 PUSH4 0xD202158D EQ PUSH2 0x356 JUMPI PUSH2 0x1C2 JUMP JUMPDEST DUP1 PUSH4 0x83D2DEB1 GT PUSH2 0xD1 JUMPI DUP1 PUSH4 0x83D2DEB1 EQ PUSH2 0x3D6 JUMPI DUP1 PUSH4 0x8DA5CB5B EQ PUSH2 0x3F8 JUMPI DUP1 PUSH4 0x8EFEE3B5 EQ PUSH2 0x41A JUMPI DUP1 PUSH4 0x93790F44 EQ PUSH2 0x42F JUMPI PUSH2 0x1C2 JUMP JUMPDEST DUP1 PUSH4 0x63F14C3C EQ PUSH2 0x376 JUMPI DUP1 PUSH4 0x646E55DB EQ PUSH2 0x396 JUMPI DUP1 PUSH4 0x7F23690C EQ PUSH2 0x3B6 JUMPI PUSH2 0x1C2 JUMP JUMPDEST DUP1 PUSH4 0x1C5E56A0 GT PUSH2 0x164 JUMPI DUP1 PUSH4 0x5122BB7C GT PUSH2 0x13E JUMPI DUP1 PUSH4 0x5122BB7C EQ PUSH2 0x2F4 JUMPI DUP1 PUSH4 0x54F6127F EQ PUSH2 0x309 JUMPI DUP1 PUSH4 0x5E6261FA EQ PUSH2 0x336 JUMPI DUP1 PUSH4 0x63EBC4DD EQ PUSH2 0x356 JUMPI PUSH2 0x1C2 JUMP JUMPDEST DUP1 PUSH4 0x1C5E56A0 EQ PUSH2 0x2B4 JUMPI DUP1 PUSH4 0x35D8DF48 EQ PUSH2 0x2B4 JUMPI DUP1 PUSH4 0x44C028FE EQ PUSH2 0x2D4 JUMPI PUSH2 0x1C2 JUMP JUMPDEST DUP1 PUSH4 0x12AAAC70 GT PUSH2 0x1A0 JUMPI DUP1 PUSH4 0x12AAAC70 EQ PUSH2 0x204 JUMPI DUP1 PUSH4 0x150B7A02 EQ PUSH2 0x23A JUMPI DUP1 PUSH4 0x1626BA7E EQ PUSH2 0x267 JUMPI DUP1 PUSH4 0x19A39740 EQ PUSH2 0x294 JUMPI PUSH2 0x1C2 JUMP JUMPDEST DUP1 PUSH4 0x3F778DE EQ PUSH2 0x1C4 JUMPI DUP1 PUSH4 0x7A00330 EQ PUSH2 0x1C4 JUMPI DUP1 PUSH4 0xEDA0979 EQ PUSH2 0x1E4 JUMPI JUMPDEST STOP JUMPDEST CALLVALUE DUP1 ISZERO PUSH2 0x1D0 JUMPI PUSH1 0x0 DUP1 REVERT JUMPDEST POP PUSH2 0x1C2 PUSH2 0x1DF CALLDATASIZE PUSH1 0x4 PUSH2 0x184A JUMP JUMPDEST PUSH2 0x4E3 JUMP JUMPDEST CALLVALUE DUP1 ISZERO PUSH2 0x1F0 JUMPI PUSH1 0x0 DUP1 REVERT JUMPDEST POP PUSH2 0x1C2 PUSH2 0x1FF CALLDATASIZE PUSH1 0x4 PUSH2 0x176C JUMP JUMPDEST PUSH2 0x535 JUMP JUMPDEST CALLVALUE DUP1 ISZERO PUSH2 0x210 JUMPI PUSH1 0x0 DUP1 REVERT JUMPDEST POP PUSH2 0x224 PUSH2 0x21F CALLDATASIZE PUSH1 0x4 PUSH2 0x180E JUMP JUMPDEST PUSH2 0x613 JUMP JUMPDEST PUSH1 0x40 MLOAD PUSH2 0x231 SWAP2 SWAP1 PUSH2 0x1F69 JUMP JUMPDEST PUSH1 0x40 MLOAD DUP1 SWAP2 SUB SWAP1 RETURN JUMPDEST CALLVALUE DUP1 ISZERO PUSH2 0x246 JUMPI PUSH1 0x0 DUP1 REVERT JUMPDEST POP PUSH2 0x25A PUSH2 0x255 CALLDATASIZE PUSH1 0x4 PUSH2 0x1654 JUMP JUMPDEST PUSH2 0x625 JUMP JUMPDEST PUSH1 0x40 MLOAD PUSH2 0x231 SWAP2 SWAP1 PUSH2 0x1FB5 JUMP JUMPDEST CALLVALUE DUP1 ISZERO PUSH2 0x273 JUMPI PUSH1 0x0 DUP1 REVERT JUMPDEST POP PUSH2 0x287 PUSH2 0x282 CALLDATASIZE PUSH1 0x4 PUSH2 0x1869 JUMP JUMPDEST PUSH2 0x638 JUMP JUMPDEST PUSH1 0x40 MLOAD PUSH2 0x231 SWAP2 SWAP1 PUSH2 0x1F5B JUMP JUMPDEST CALLVALUE DUP1 ISZERO PUSH2 0x2A0 JUMPI PUSH1 0x0 DUP1 REVERT JUMPDEST POP PUSH2 0x1C2 PUSH2 0x2AF CALLDATASIZE PUSH1 0x4 PUSH2 0x180E JUMP JUMPDEST PUSH2 0x660 JUMP JUMPDEST CALLVALUE DUP1 ISZERO PUSH2 0x2C0 JUMPI PUSH1 0x0 DUP1 REVERT JUMPDEST POP PUSH2 0x1C2 PUSH2 0x2CF CALLDATASIZE PUSH1 0x4 PUSH2 0x16CD JUMP JUMPDEST PUSH2 0x6FB JUMP JUMPDEST CALLVALUE DUP1 ISZERO PUSH2 0x2E0 JUMPI PUSH1 0x0 DUP1 REVERT JUMPDEST POP PUSH2 0x1C2 PUSH2 0x2EF CALLDATASIZE PUSH1 0x4 PUSH2 0x18B1 JUMP JUMPDEST PUSH2 0x748 JUMP JUMPDEST CALLVALUE DUP1 ISZERO PUSH2 0x300 JUMPI PUSH1 0x0 DUP1 REVERT JUMPDEST POP PUSH2 0x224 PUSH2 0x795 JUMP JUMPDEST CALLVALUE DUP1 ISZERO PUSH2 0x315 JUMPI PUSH1 0x0 DUP1 REVERT JUMPDEST POP PUSH2 0x329 PUSH2 0x324 CALLDATASIZE PUSH1 0x4 PUSH2 0x180E JUMP JUMPDEST PUSH2 0x7BA JUMP JUMPDEST PUSH1 0x40 MLOAD PUSH2 0x231 SWAP2 SWAP1 PUSH2 0x1FC3 JUMP JUMPDEST CALLVALUE DUP1 ISZERO PUSH2 0x342 JUMPI PUSH1 0x0 DUP1 REVERT JUMPDEST POP PUSH2 0x287 PUSH2 0x351 CALLDATASIZE PUSH1 0x4 PUSH2 0x16CD JUMP JUMPDEST PUSH2 0x85B JUMP JUMPDEST CALLVALUE DUP1 ISZERO PUSH2 0x362 JUMPI PUSH1 0x0 DUP1 REVERT JUMPDEST POP PUSH2 0x287 PUSH2 0x371 CALLDATASIZE PUSH1 0x4 PUSH2 0x184A JUMP JUMPDEST PUSH2 0x86F JUMP JUMPDEST CALLVALUE DUP1 ISZERO PUSH2 0x382 JUMPI PUSH1 0x0 DUP1 REVERT JUMPDEST POP PUSH2 0x224 PUSH2 0x391 CALLDATASIZE PUSH1 0x4 PUSH2 0x162E JUMP JUMPDEST PUSH2 0x87B JUMP JUMPDEST CALLVALUE DUP1 ISZERO PUSH2 0x3A2 JUMPI PUSH1 0x0 DUP1 REVERT JUMPDEST POP PUSH2 0x1C2 PUSH2 0x3B1 CALLDATASIZE PUSH1 0x4 PUSH2 0x1707 JUMP JUMPDEST PUSH2 0x887 JUMP JUMPDEST CALLVALUE DUP1 ISZERO PUSH2 0x3C2 JUMPI PUSH1 0x0 DUP1 REVERT JUMPDEST POP PUSH2 0x1C2 PUSH2 0x3D1 CALLDATASIZE PUSH1 0x4 PUSH2 0x1869 JUMP JUMPDEST PUSH2 0x93A JUMP JUMPDEST CALLVALUE DUP1 ISZERO PUSH2 0x3E2 JUMPI PUSH1 0x0 DUP1 REVERT JUMPDEST POP PUSH2 0x3EB PUSH2 0x9D1 JUMP JUMPDEST PUSH1 0x40 MLOAD PUSH2 0x231 SWAP2 SWAP1 PUSH2 0x1F4A JUMP JUMPDEST CALLVALUE DUP1 ISZERO PUSH2 0x404 JUMPI PUSH1 0x0 DUP1 REVERT JUMPDEST POP PUSH2 0x40D PUSH2 0xA29 JUMP JUMPDEST PUSH1 0x40 MLOAD PUSH2 0x231 SWAP2 SWAP1 PUSH2 0x1F21 JUMP JUMPDEST CALLVALUE DUP1 ISZERO PUSH2 0x426 JUMPI PUSH1 0x0 DUP1 REVERT JUMPDEST POP PUSH2 0x224 PUSH2 0xA2D JUMP JUMPDEST CALLVALUE DUP1 ISZERO PUSH2 0x43B JUMPI PUSH1 0x0 DUP1 REVERT JUMPDEST POP PUSH2 0x224 PUSH2 0x44A CALLDATASIZE PUSH1 0x4 PUSH2 0x162E JUMP JUMPDEST PUSH2 0xA33 JUMP JUMPDEST CALLVALUE DUP1 ISZERO PUSH2 0x45B JUMPI PUSH1 0x0 DUP1 REVERT JUMPDEST POP PUSH2 0x224 PUSH2 0xA58 JUMP JUMPDEST CALLVALUE DUP1 ISZERO PUSH2 0x470 JUMPI PUSH1 0x0 DUP1 REVERT JUMPDEST POP PUSH2 0x224 PUSH2 0xA5E JUMP JUMPDEST CALLVALUE DUP1 ISZERO PUSH2 0x485 JUMPI PUSH1 0x0 DUP1 REVERT JUMPDEST POP PUSH2 0x1C2 PUSH2 0x494 CALLDATASIZE PUSH1 0x4 PUSH2 0x18D3 JUMP JUMPDEST PUSH2 0xA64 JUMP JUMPDEST CALLVALUE DUP1 ISZERO PUSH2 0x4A5 JUMPI PUSH1 0x0 DUP1 REVERT JUMPDEST POP PUSH2 0x1C2 PUSH2 0x4B4 CALLDATASIZE PUSH1 0x4 PUSH2 0x180E JUMP JUMPDEST PUSH2 0xC44 JUMP JUMPDEST CALLVALUE DUP1 ISZERO PUSH2 0x4C5 JUMPI PUSH1 0x0 DUP1 REVERT JUMPDEST POP PUSH2 0x224 PUSH2 0xD04 JUMP JUMPDEST CALLVALUE DUP1 ISZERO PUSH2 0x4DA JUMPI PUSH1 0x0 DUP1 REVERT JUMPDEST POP PUSH2 0x40D PUSH2 0xD0A JUMP JUMPDEST PUSH2 0x4EB PUSH2 0xA29 JUMP JUMPDEST PUSH1 0x1 PUSH1 0x1 PUSH1 0xA0 SHL SUB AND CALLER PUSH1 0x1 PUSH1 0x1 PUSH1 0xA0 SHL SUB AND EQ PUSH2 0x527 JUMPI PUSH1 0x40 MLOAD PUSH1 0x1 PUSH1 0xE5 SHL PUSH3 0x461BCD MUL DUP2 MSTORE PUSH1 0x4 ADD PUSH2 0x51E SWAP1 PUSH2 0x1FE4 JUMP JUMPDEST PUSH1 0x40 MLOAD DUP1 SWAP2 SUB SWAP1 REVERT JUMPDEST PUSH2 0x531 DUP3 DUP3 PUSH2 0xD19 JUMP JUMPDEST POP POP JUMP JUMPDEST PUSH1 0x0 SLOAD PUSH1 0x1 PUSH1 0xA0 SHL SWAP1 DIV PUSH1 0xFF AND ISZERO PUSH2 0x562 JUMPI PUSH1 0x40 MLOAD PUSH1 0x1 PUSH1 0xE5 SHL PUSH3 0x461BCD MUL DUP2 MSTORE PUSH1 0x4 ADD PUSH2 0x51E SWAP1 PUSH2 0x2024 JUMP JUMPDEST DUP3 MLOAD DUP5 MLOAD EQ PUSH2 0x586 JUMPI PUSH1 0x40 MLOAD PUSH1 0x1 PUSH1 0xE5 SHL PUSH3 0x461BCD MUL DUP2 MSTORE PUSH1 0x4 ADD PUSH2 0x51E SWAP1 PUSH2 0x2044 JUMP JUMPDEST PUSH1 0x0 JUMPDEST DUP5 MLOAD DUP2 LT ISZERO PUSH2 0x5CA JUMPI PUSH2 0x5C2 DUP6 DUP3 DUP2 MLOAD DUP2 LT PUSH2 0x5A1 JUMPI INVALID JUMPDEST PUSH1 0x20 MUL PUSH1 0x20 ADD ADD MLOAD DUP6 DUP4 DUP2 MLOAD DUP2 LT PUSH2 0x5B5 JUMPI INVALID JUMPDEST PUSH1 0x20 MUL PUSH1 0x20 ADD ADD MLOAD PUSH2 0xD19 JUMP JUMPDEST PUSH1 0x1 ADD PUSH2 0x589 JUMP JUMPDEST POP DUP2 PUSH1 0x6 SLOAD LT ISZERO PUSH2 0x5F0 JUMPI PUSH1 0x40 MLOAD PUSH1 0x1 PUSH1 0xE5 SHL PUSH3 0x461BCD MUL DUP2 MSTORE PUSH1 0x4 ADD PUSH2 0x51E SWAP1 PUSH2 0x2094 JUMP JUMPDEST PUSH1 0x7 SWAP2 SWAP1 SWAP2 SSTORE PUSH1 0x8 SSTORE POP POP PUSH1 0x0 DUP1 SLOAD PUSH1 0x1 PUSH1 0xA0 SHL PUSH1 0xFF MUL NOT AND PUSH1 0x1 PUSH1 0xA0 SHL OR SWAP1 SSTORE JUMP JUMPDEST PUSH1 0x0 SWAP1 DUP2 MSTORE PUSH1 0x4 PUSH1 0x20 MSTORE PUSH1 0x40 SWAP1 KECCAK256 SLOAD SWAP1 JUMP JUMPDEST PUSH1 0x1 PUSH1 0xE1 SHL PUSH4 0xA85BD01 MUL SWAP5 SWAP4 POP POP POP POP JUMP JUMPDEST PUSH1 0x0 PUSH2 0x657 PUSH2 0x650 PUSH2 0x391 DUP6 DUP6 PUSH4 0xFFFFFFFF PUSH2 0xEDA AND JUMP JUMPDEST PUSH1 0x4 PUSH2 0x86F JUMP JUMPDEST SWAP1 POP JUMPDEST SWAP3 SWAP2 POP POP JUMP JUMPDEST PUSH2 0x668 PUSH2 0xA29 JUMP JUMPDEST PUSH1 0x1 PUSH1 0x1 PUSH1 0xA0 SHL SUB AND CALLER PUSH1 0x1 PUSH1 0x1 PUSH1 0xA0 SHL SUB AND EQ PUSH2 0x69B JUMPI PUSH1 0x40 MLOAD PUSH1 0x1 PUSH1 0xE5 SHL PUSH3 0x461BCD MUL DUP2 MSTORE PUSH1 0x4 ADD PUSH2 0x51E SWAP1 PUSH2 0x1FE4 JUMP JUMPDEST DUP1 PUSH2 0x6BB JUMPI PUSH1 0x40 MLOAD PUSH1 0x1 PUSH1 0xE5 SHL PUSH3 0x461BCD MUL DUP2 MSTORE PUSH1 0x4 ADD PUSH2 0x51E SWAP1 PUSH2 0x1FF4 JUMP JUMPDEST PUSH32 0xFD0B44227DEE5DE3FA844FF17983688ADE4471A8257D62ED2A48507168810D7A PUSH1 0x8 SLOAD DUP3 PUSH1 0x40 MLOAD PUSH2 0x6EE SWAP3 SWAP2 SWAP1 PUSH2 0x20B4 JUMP JUMPDEST PUSH1 0x40 MLOAD DUP1 SWAP2 SUB SWAP1 LOG1 PUSH1 0x8 SSTORE JUMP JUMPDEST PUSH2 0x703 PUSH2 0xA29 JUMP JUMPDEST PUSH1 0x1 PUSH1 0x1 PUSH1 0xA0 SHL SUB AND CALLER PUSH1 0x1 PUSH1 0x1 PUSH1 0xA0 SHL SUB AND EQ PUSH2 0x736 JUMPI PUSH1 0x40 MLOAD PUSH1 0x1 PUSH1 0xE5 SHL PUSH3 0x461BCD MUL DUP2 MSTORE PUSH1 0x4 ADD PUSH2 0x51E SWAP1 PUSH2 0x1FE4 JUMP JUMPDEST PUSH2 0x531 PUSH2 0x742 DUP4 PUSH2 0x87B JUMP JUMPDEST DUP3 PUSH2 0xD19 JUMP JUMPDEST PUSH2 0x750 PUSH2 0xA29 JUMP JUMPDEST PUSH1 0x1 PUSH1 0x1 PUSH1 0xA0 SHL SUB AND CALLER PUSH1 0x1 PUSH1 0x1 PUSH1 0xA0 SHL SUB AND EQ PUSH2 0x783 JUMPI PUSH1 0x40 MLOAD PUSH1 0x1 PUSH1 0xE5 SHL PUSH3 0x461BCD MUL DUP2 MSTORE PUSH1 0x4 ADD PUSH2 0x51E SWAP1 PUSH2 0x1FE4 JUMP JUMPDEST PUSH2 0x78F DUP5 DUP5 DUP5 DUP5 PUSH2 0xFB6 JUMP JUMPDEST POP POP POP POP JUMP JUMPDEST PUSH32 0x1618FCEC65BCE0693E931D337FC12424EE920BF56C4A74BC8DDB1361328AF236 JUMPDEST SWAP1 JUMP JUMPDEST PUSH1 0x0 DUP2 DUP2 MSTORE PUSH1 0x3 PUSH1 0x20 SWAP1 DUP2 MSTORE PUSH1 0x40 SWAP2 DUP3 SWAP1 KECCAK256 DUP1 SLOAD DUP4 MLOAD PUSH1 0x1F PUSH1 0x2 PUSH1 0x0 NOT PUSH2 0x100 PUSH1 0x1 DUP7 AND ISZERO MUL ADD SWAP1 SWAP4 AND SWAP3 SWAP1 SWAP3 DIV SWAP2 DUP3 ADD DUP5 SWAP1 DIV DUP5 MUL DUP2 ADD DUP5 ADD SWAP1 SWAP5 MSTORE DUP1 DUP5 MSTORE PUSH1 0x60 SWAP4 SWAP3 DUP4 ADD DUP3 DUP3 DUP1 ISZERO PUSH2 0x84F JUMPI DUP1 PUSH1 0x1F LT PUSH2 0x824 JUMPI PUSH2 0x100 DUP1 DUP4 SLOAD DIV MUL DUP4 MSTORE SWAP2 PUSH1 0x20 ADD SWAP2 PUSH2 0x84F JUMP JUMPDEST DUP3 ADD SWAP2 SWAP1 PUSH1 0x0 MSTORE PUSH1 0x20 PUSH1 0x0 KECCAK256 SWAP1 JUMPDEST DUP2 SLOAD DUP2 MSTORE SWAP1 PUSH1 0x1 ADD SWAP1 PUSH1 0x20 ADD DUP1 DUP4 GT PUSH2 0x832 JUMPI DUP3 SWAP1 SUB PUSH1 0x1F AND DUP3 ADD SWAP2 JUMPDEST POP POP POP POP POP SWAP1 POP SWAP2 SWAP1 POP JUMP JUMPDEST PUSH1 0x0 PUSH2 0x657 PUSH2 0x869 DUP5 PUSH2 0x87B JUMP JUMPDEST DUP4 PUSH2 0x1114 JUMP JUMPDEST PUSH1 0x0 PUSH2 0x657 DUP4 DUP4 PUSH2 0x1114 JUMP JUMPDEST PUSH1 0x1 PUSH1 0x1 PUSH1 0xA0 SHL SUB AND SWAP1 JUMP JUMPDEST PUSH2 0x88F PUSH2 0xA29 JUMP JUMPDEST PUSH1 0x1 PUSH1 0x1 PUSH1 0xA0 SHL SUB AND CALLER PUSH1 0x1 PUSH1 0x1 PUSH1 0xA0 SHL SUB AND EQ PUSH2 0x8C2 JUMPI PUSH1 0x40 MLOAD PUSH1 0x1 PUSH1 0xE5 SHL PUSH3 0x461BCD MUL DUP2 MSTORE PUSH1 0x4 ADD PUSH2 0x51E SWAP1 PUSH2 0x1FE4 JUMP JUMPDEST DUP1 ISZERO PUSH2 0x92B JUMPI PUSH1 0x0 JUMPDEST PUSH1 0x5 SLOAD DUP2 LT ISZERO PUSH2 0x90E JUMPI PUSH1 0x4 PUSH1 0x0 PUSH1 0x5 DUP4 DUP2 SLOAD DUP2 LT PUSH2 0x8E6 JUMPI INVALID JUMPDEST SWAP1 PUSH1 0x0 MSTORE PUSH1 0x20 PUSH1 0x0 KECCAK256 ADD SLOAD DUP2 MSTORE PUSH1 0x20 ADD SWAP1 DUP2 MSTORE PUSH1 0x20 ADD PUSH1 0x0 KECCAK256 PUSH1 0x0 SWAP1 SSTORE DUP1 PUSH1 0x1 ADD SWAP1 POP PUSH2 0x8CB JUMP JUMPDEST POP PUSH2 0x91B PUSH1 0x5 PUSH1 0x0 PUSH2 0x13F3 JUMP JUMPDEST PUSH1 0x0 PUSH1 0x6 DUP2 SWAP1 SSTORE PUSH1 0x7 DUP2 SWAP1 SSTORE PUSH1 0x8 SSTORE JUMPDEST PUSH2 0x935 DUP4 DUP4 PUSH2 0x112A JUMP JUMPDEST POP POP POP JUMP JUMPDEST PUSH2 0x942 PUSH2 0xA29 JUMP JUMPDEST PUSH1 0x1 PUSH1 0x1 PUSH1 0xA0 SHL SUB AND CALLER PUSH1 0x1 PUSH1 0x1 PUSH1 0xA0 SHL SUB AND EQ PUSH2 0x975 JUMPI PUSH1 0x40 MLOAD PUSH1 0x1 PUSH1 0xE5 SHL PUSH3 0x461BCD MUL DUP2 MSTORE PUSH1 0x4 ADD PUSH2 0x51E SWAP1 PUSH2 0x1FE4 JUMP JUMPDEST PUSH1 0x0 DUP3 DUP2 MSTORE PUSH1 0x3 PUSH1 0x20 SWAP1 DUP2 MSTORE PUSH1 0x40 SWAP1 SWAP2 KECCAK256 DUP3 MLOAD PUSH2 0x994 SWAP3 DUP5 ADD SWAP1 PUSH2 0x1414 JUMP JUMPDEST POP DUP2 PUSH32 0xECE574603820D07BC9B91F2A932BAADF4628AABCB8AFBA49776529C14A6104B2 DUP3 PUSH1 0x40 MLOAD PUSH2 0x9C5 SWAP2 SWAP1 PUSH2 0x1FC3 JUMP JUMPDEST PUSH1 0x40 MLOAD DUP1 SWAP2 SUB SWAP1 LOG2 POP POP JUMP JUMPDEST PUSH1 0x60 PUSH1 0x5 DUP1 SLOAD DUP1 PUSH1 0x20 MUL PUSH1 0x20 ADD PUSH1 0x40 MLOAD SWAP1 DUP2 ADD PUSH1 0x40 MSTORE DUP1 SWAP3 SWAP2 SWAP1 DUP2 DUP2 MSTORE PUSH1 0x20 ADD DUP3 DUP1 SLOAD DUP1 ISZERO PUSH2 0xA1F JUMPI PUSH1 0x20 MUL DUP3 ADD SWAP2 SWAP1 PUSH1 0x0 MSTORE PUSH1 0x20 PUSH1 0x0 KECCAK256 SWAP1 JUMPDEST DUP2 SLOAD DUP2 MSTORE PUSH1 0x20 ADD SWAP1 PUSH1 0x1 ADD SWAP1 DUP1 DUP4 GT PUSH2 0xA0B JUMPI JUMPDEST POP POP POP POP POP SWAP1 POP SWAP1 JUMP JUMPDEST ADDRESS SWAP1 JUMP JUMPDEST PUSH1 0x7 SLOAD SWAP1 JUMP JUMPDEST PUSH1 0x0 PUSH1 0x4 PUSH1 0x0 PUSH2 0xA42 DUP5 PUSH2 0x87B JUMP JUMPDEST DUP2 MSTORE PUSH1 0x20 ADD SWAP1 DUP2 MSTORE PUSH1 0x20 ADD PUSH1 0x0 KECCAK256 SLOAD SWAP1 POP SWAP2 SWAP1 POP JUMP JUMPDEST PUSH1 0x6 SLOAD SWAP1 JUMP JUMPDEST PUSH1 0x1 SLOAD SWAP1 JUMP JUMPDEST PUSH1 0x0 GAS PUSH1 0x1 DUP1 SLOAD DUP2 ADD SWAP1 DUP2 SWAP1 SSTORE SWAP1 SWAP2 POP DUP6 EQ PUSH2 0xA95 JUMPI PUSH1 0x40 MLOAD PUSH1 0x1 PUSH1 0xE5 SHL PUSH3 0x461BCD MUL DUP2 MSTORE PUSH1 0x4 ADD PUSH2 0x51E SWAP1 PUSH2 0x2074 JUMP JUMPDEST PUSH1 0x0 PUSH1 0x1 PUSH1 0x1 PUSH1 0xA0 SHL SUB DUP10 AND ADDRESS EQ ISZERO PUSH2 0xAD6 JUMPI PUSH1 0x7 SLOAD DUP4 MLOAD LT ISZERO PUSH2 0xACE JUMPI PUSH1 0x40 MLOAD PUSH1 0x1 PUSH1 0xE5 SHL PUSH3 0x461BCD MUL DUP2 MSTORE PUSH1 0x4 ADD PUSH2 0x51E SWAP1 PUSH2 0x2084 JUMP JUMPDEST POP PUSH1 0x1 PUSH2 0xB00 JUMP JUMPDEST PUSH1 0x8 SLOAD DUP4 MLOAD LT ISZERO PUSH2 0xAFC JUMPI PUSH1 0x40 MLOAD PUSH1 0x1 PUSH1 0xE5 SHL PUSH3 0x461BCD MUL DUP2 MSTORE PUSH1 0x4 ADD PUSH2 0x51E SWAP1 PUSH2 0x2084 JUMP JUMPDEST POP PUSH1 0x2 JUMPDEST PUSH1 0x0 PUSH2 0xB46 ADDRESS DUP13 DUP13 DUP13 DUP13 DUP1 MLOAD SWAP1 PUSH1 0x20 ADD KECCAK256 DUP13 DUP13 DUP13 PUSH1 0x40 MLOAD PUSH1 0x20 ADD PUSH2 0xB2B SWAP9 SWAP8 SWAP7 SWAP6 SWAP5 SWAP4 SWAP3 SWAP2 SWAP1 PUSH2 0x1E62 JUMP JUMPDEST PUSH1 0x40 MLOAD PUSH1 0x20 DUP2 DUP4 SUB SUB DUP2 MSTORE SWAP1 PUSH1 0x40 MSTORE DUP1 MLOAD SWAP1 PUSH1 0x20 ADD KECCAK256 PUSH2 0x12B1 JUMP JUMPDEST SWAP1 POP PUSH1 0x0 DUP1 JUMPDEST DUP6 MLOAD DUP2 LT ISZERO PUSH2 0xBEE JUMPI PUSH1 0x0 PUSH2 0xB7D DUP8 DUP4 DUP2 MLOAD DUP2 LT PUSH2 0xB66 JUMPI INVALID JUMPDEST PUSH1 0x20 MUL PUSH1 0x20 ADD ADD MLOAD DUP6 PUSH2 0xEDA SWAP1 SWAP2 SWAP1 PUSH4 0xFFFFFFFF AND JUMP JUMPDEST SWAP1 POP DUP3 PUSH1 0x1 PUSH1 0x1 PUSH1 0xA0 SHL SUB AND DUP2 PUSH1 0x1 PUSH1 0x1 PUSH1 0xA0 SHL SUB AND GT PUSH2 0xBB3 JUMPI PUSH1 0x40 MLOAD PUSH1 0x1 PUSH1 0xE5 SHL PUSH3 0x461BCD MUL DUP2 MSTORE PUSH1 0x4 ADD PUSH2 0x51E SWAP1 PUSH2 0x2034 JUMP JUMPDEST PUSH2 0xBC5 PUSH2 0xBBF DUP3 PUSH2 0x87B JUMP JUMPDEST DUP7 PUSH2 0x86F JUMP JUMPDEST PUSH2 0xBE4 JUMPI PUSH1 0x40 MLOAD PUSH1 0x1 PUSH1 0xE5 SHL PUSH3 0x461BCD MUL DUP2 MSTORE PUSH1 0x4 ADD PUSH2 0x51E SWAP1 PUSH2 0x2004 JUMP JUMPDEST SWAP2 POP PUSH1 0x1 ADD PUSH2 0xB4C JUMP JUMPDEST POP PUSH2 0xBFB DUP13 DUP13 DUP13 DUP13 PUSH2 0xFB6 JUMP JUMPDEST PUSH2 0xC36 PUSH2 0xC30 DUP8 PUSH2 0xC24 GAS PUSH2 0xC18 PUSH2 0xA154 DUP11 PUSH4 0xFFFFFFFF PUSH2 0x12E1 AND JUMP JUMPDEST SWAP1 PUSH4 0xFFFFFFFF PUSH2 0x12F3 AND JUMP JUMPDEST SWAP1 PUSH4 0xFFFFFFFF PUSH2 0x1308 AND JUMP JUMPDEST DUP9 PUSH2 0x132F JUMP JUMPDEST POP POP POP POP POP POP POP POP POP POP POP POP JUMP JUMPDEST PUSH2 0xC4C PUSH2 0xA29 JUMP JUMPDEST PUSH1 0x1 PUSH1 0x1 PUSH1 0xA0 SHL SUB AND CALLER PUSH1 0x1 PUSH1 0x1 PUSH1 0xA0 SHL SUB AND EQ PUSH2 0xC7F JUMPI PUSH1 0x40 MLOAD PUSH1 0x1 PUSH1 0xE5 SHL PUSH3 0x461BCD MUL DUP2 MSTORE PUSH1 0x4 ADD PUSH2 0x51E SWAP1 PUSH2 0x1FE4 JUMP JUMPDEST DUP1 PUSH2 0xC9F JUMPI PUSH1 0x40 MLOAD PUSH1 0x1 PUSH1 0xE5 SHL PUSH3 0x461BCD MUL DUP2 MSTORE PUSH1 0x4 ADD PUSH2 0x51E SWAP1 PUSH2 0x1FF4 JUMP JUMPDEST DUP1 PUSH1 0x6 SLOAD LT ISZERO PUSH2 0xCC4 JUMPI PUSH1 0x40 MLOAD PUSH1 0x1 PUSH1 0xE5 SHL PUSH3 0x461BCD MUL DUP2 MSTORE PUSH1 0x4 ADD PUSH2 0x51E SWAP1 PUSH2 0x2054 JUMP JUMPDEST PUSH32 0x9B1FC5DDBAC8D6FAC2661A57E7515DEE9ABF241F420629999D85F031919F4B4D PUSH1 0x7 SLOAD DUP3 PUSH1 0x40 MLOAD PUSH2 0xCF7 SWAP3 SWAP2 SWAP1 PUSH2 0x20B4 JUMP JUMPDEST PUSH1 0x40 MLOAD DUP1 SWAP2 SUB SWAP1 LOG1 PUSH1 0x7 SSTORE JUMP JUMPDEST PUSH1 0x8 SLOAD SWAP1 JUMP JUMPDEST PUSH1 0x0 SLOAD PUSH1 0x1 PUSH1 0x1 PUSH1 0xA0 SHL SUB AND SWAP1 JUMP JUMPDEST PUSH1 0x0 DUP3 DUP2 MSTORE PUSH1 0x4 PUSH1 0x20 MSTORE PUSH1 0x40 SWAP1 KECCAK256 SLOAD NOT PUSH1 0x1 AND ISZERO DUP1 ISZERO PUSH2 0xD3A JUMPI POP PUSH1 0x1 DUP2 AND ISZERO JUMPDEST ISZERO PUSH2 0xD4A JUMPI PUSH1 0x6 DUP1 SLOAD PUSH1 0x0 NOT ADD SWAP1 SSTORE JUMPDEST PUSH1 0x0 DUP3 DUP2 MSTORE PUSH1 0x4 PUSH1 0x20 MSTORE PUSH1 0x40 SWAP1 KECCAK256 SLOAD PUSH1 0x1 AND ISZERO DUP1 ISZERO PUSH2 0xD6B JUMPI POP PUSH1 0x1 DUP2 NOT AND ISZERO JUMPDEST ISZERO PUSH2 0xD7A JUMPI PUSH1 0x6 DUP1 SLOAD PUSH1 0x1 ADD SWAP1 SSTORE JUMPDEST PUSH1 0x7 SLOAD PUSH1 0x6 SLOAD LT ISZERO PUSH2 0xDA1 JUMPI PUSH1 0x40 MLOAD PUSH1 0x1 PUSH1 0xE5 SHL PUSH3 0x461BCD MUL DUP2 MSTORE PUSH1 0x4 ADD PUSH2 0x51E SWAP1 PUSH2 0x2014 JUMP JUMPDEST PUSH1 0x0 DUP3 DUP2 MSTORE PUSH1 0x4 PUSH1 0x20 MSTORE PUSH1 0x40 SWAP1 KECCAK256 SLOAD PUSH2 0xDEA JUMPI PUSH1 0x5 DUP1 SLOAD PUSH1 0x1 DUP2 ADD DUP3 SSTORE PUSH1 0x0 SWAP2 SWAP1 SWAP2 MSTORE PUSH32 0x36B6384B5ECA791C62761152D0C79BB0604C104A5FB6F4EB0703F3154BB3DB0 ADD DUP3 SWAP1 SSTORE JUMPDEST PUSH1 0x0 DUP3 DUP2 MSTORE PUSH1 0x4 PUSH1 0x20 MSTORE PUSH1 0x40 DUP1 DUP3 KECCAK256 SLOAD SWAP1 MLOAD DUP4 SWAP3 DUP6 SWAP2 PUSH32 0x82F65B599219DC2719C1104B915B860B397DC476D20C4DF48810A72BB8AD1E5B SWAP2 SWAP1 LOG4 PUSH1 0x0 DUP3 DUP2 MSTORE PUSH1 0x4 PUSH1 0x20 MSTORE PUSH1 0x40 SWAP1 KECCAK256 DUP2 SWAP1 SSTORE DUP1 PUSH2 0x531 JUMPI PUSH1 0x0 JUMPDEST PUSH1 0x5 SLOAD DUP2 LT ISZERO PUSH2 0x935 JUMPI DUP3 PUSH1 0x5 DUP3 DUP2 SLOAD DUP2 LT PUSH2 0xE55 JUMPI INVALID JUMPDEST SWAP1 PUSH1 0x0 MSTORE PUSH1 0x20 PUSH1 0x0 KECCAK256 ADD SLOAD EQ ISZERO PUSH2 0xED2 JUMPI PUSH1 0x5 DUP1 SLOAD PUSH1 0x0 NOT DUP2 ADD SWAP1 DUP2 LT PUSH2 0xE78 JUMPI INVALID JUMPDEST SWAP1 PUSH1 0x0 MSTORE PUSH1 0x20 PUSH1 0x0 KECCAK256 ADD SLOAD PUSH1 0x5 DUP3 DUP2 SLOAD DUP2 LT PUSH2 0xE90 JUMPI INVALID JUMPDEST PUSH1 0x0 SWAP2 DUP3 MSTORE PUSH1 0x20 SWAP1 SWAP2 KECCAK256 ADD SSTORE PUSH1 0x5 DUP1 SLOAD PUSH1 0x0 NOT DUP2 ADD SWAP1 DUP2 LT PUSH2 0xEAE JUMPI INVALID JUMPDEST PUSH1 0x0 SWAP2 DUP3 MSTORE PUSH1 0x20 DUP3 KECCAK256 ADD SSTORE PUSH1 0x5 DUP1 SLOAD SWAP1 PUSH2 0xECC SWAP1 PUSH1 0x0 NOT DUP4 ADD PUSH2 0x1492 JUMP JUMPDEST POP PUSH2 0x935 JUMP JUMPDEST PUSH1 0x1 ADD PUSH2 0xE3D JUMP JUMPDEST PUSH1 0x0 DUP2 MLOAD PUSH1 0x41 EQ PUSH2 0xEED JUMPI POP PUSH1 0x0 PUSH2 0x65A JUMP JUMPDEST PUSH1 0x20 DUP3 ADD MLOAD PUSH1 0x40 DUP4 ADD MLOAD PUSH1 0x60 DUP5 ADD MLOAD PUSH1 0x0 BYTE PUSH32 0x7FFFFFFFFFFFFFFFFFFFFFFFFFFFFFFF5D576E7357A4501DDFE92F46681B20A0 DUP3 GT ISZERO PUSH2 0xF33 JUMPI PUSH1 0x0 SWAP4 POP POP POP POP PUSH2 0x65A JUMP JUMPDEST DUP1 PUSH1 0xFF AND PUSH1 0x1B EQ ISZERO DUP1 ISZERO PUSH2 0xF4B JUMPI POP DUP1 PUSH1 0xFF AND PUSH1 0x1C EQ ISZERO JUMPDEST ISZERO PUSH2 0xF5C JUMPI PUSH1 0x0 SWAP4 POP POP POP POP PUSH2 0x65A JUMP JUMPDEST PUSH1 0x1 DUP7 DUP3 DUP6 DUP6 PUSH1 0x40 MLOAD PUSH1 0x0 DUP2 MSTORE PUSH1 0x20 ADD PUSH1 0x40 MSTORE PUSH1 0x40 MLOAD PUSH2 0xF7F SWAP5 SWAP4 SWAP3 SWAP2 SWAP1 PUSH2 0x1F77 JUMP JUMPDEST PUSH1 0x20 PUSH1 0x40 MLOAD PUSH1 0x20 DUP2 SUB SWAP1 DUP1 DUP5 SUB SWAP1 DUP6 GAS STATICCALL ISZERO DUP1 ISZERO PUSH2 0xFA1 JUMPI RETURNDATASIZE PUSH1 0x0 DUP1 RETURNDATACOPY RETURNDATASIZE PUSH1 0x0 REVERT JUMPDEST POP POP PUSH1 0x40 MLOAD PUSH1 0x1F NOT ADD MLOAD SWAP8 SWAP7 POP POP POP POP POP POP POP JUMP JUMPDEST DUP4 PUSH2 0x10A8 JUMPI PUSH1 0x0 PUSH1 0x60 DUP5 PUSH1 0x1 PUSH1 0x1 PUSH1 0xA0 SHL SUB AND DUP5 DUP5 PUSH1 0x40 MLOAD PUSH2 0xFD8 SWAP2 SWAP1 PUSH2 0x1EEE JUMP JUMPDEST PUSH1 0x0 PUSH1 0x40 MLOAD DUP1 DUP4 SUB DUP2 DUP6 DUP8 GAS CALL SWAP3 POP POP POP RETURNDATASIZE DUP1 PUSH1 0x0 DUP2 EQ PUSH2 0x1015 JUMPI PUSH1 0x40 MLOAD SWAP2 POP PUSH1 0x1F NOT PUSH1 0x3F RETURNDATASIZE ADD AND DUP3 ADD PUSH1 0x40 MSTORE RETURNDATASIZE DUP3 MSTORE RETURNDATASIZE PUSH1 0x0 PUSH1 0x20 DUP5 ADD RETURNDATACOPY PUSH2 0x101A JUMP JUMPDEST PUSH1 0x60 SWAP2 POP JUMPDEST POP SWAP1 SWAP3 POP SWAP1 POP DUP2 ISZERO PUSH2 0x105F JUMPI PUSH1 0x40 MLOAD PUSH1 0x1 PUSH1 0x1 PUSH1 0xA0 SHL SUB DUP7 AND SWAP1 PUSH32 0x7C940052472FD1D616012DC780A92C777783E8F45CDB6802D1D48891CD33A508 SWAP1 PUSH1 0x0 SWAP1 LOG2 PUSH2 0x10A1 JUMP JUMPDEST DUP5 PUSH1 0x1 PUSH1 0x1 PUSH1 0xA0 SHL SUB AND PUSH32 0x4B0B4377CB27B4634A3573214783294886BC4E04F64FA75D3F5469FB26393462 DUP3 PUSH1 0x40 MLOAD PUSH2 0x1098 SWAP2 SWAP1 PUSH2 0x1FC3 JUMP JUMPDEST PUSH1 0x40 MLOAD DUP1 SWAP2 SUB SWAP1 LOG2 JUMPDEST POP POP PUSH2 0x78F JUMP JUMPDEST PUSH1 0x1 DUP5 EQ ISZERO PUSH2 0x10F9 JUMPI PUSH1 0x0 DUP2 MLOAD PUSH1 0x20 DUP4 ADD PUSH1 0x0 CREATE PUSH1 0x40 MLOAD SWAP1 SWAP2 POP PUSH1 0x1 PUSH1 0x1 PUSH1 0xA0 SHL SUB DUP3 AND SWAP1 PUSH32 0xCF78CF0D6F3D8371E1075C69C492AB4EC5D8CF23A1A239B6A51A1D00BE7CA312 SWAP1 PUSH1 0x0 SWAP1 LOG2 POP PUSH2 0x78F JUMP JUMPDEST PUSH1 0x40 MLOAD PUSH1 0x1 PUSH1 0xE5 SHL PUSH3 0x461BCD MUL DUP2 MSTORE PUSH1 0x4 ADD PUSH2 0x51E SWAP1 PUSH2 0x2064 JUMP JUMPDEST PUSH1 0x0 SWAP2 DUP3 MSTORE PUSH1 0x4 PUSH1 0x20 MSTORE PUSH1 0x40 SWAP1 SWAP2 KECCAK256 SLOAD NOT AND ISZERO SWAP1 JUMP JUMPDEST PUSH32 0x1618FCEC65BCE0693E931D337FC12424EE920BF56C4A74BC8DDB1361328AF236 PUSH1 0x0 SHL DUP3 PUSH1 0x1 PUSH1 0x1 PUSH1 0xA0 SHL SUB AND PUSH4 0x5122BB7C PUSH1 0x40 MLOAD DUP2 PUSH4 0xFFFFFFFF AND PUSH1 0xE0 SHL DUP2 MSTORE PUSH1 0x4 ADD PUSH1 0x20 PUSH1 0x40 MLOAD DUP1 DUP4 SUB DUP2 DUP7 DUP1 EXTCODESIZE ISZERO DUP1 ISZERO PUSH2 0x1187 JUMPI PUSH1 0x0 DUP1 REVERT JUMPDEST POP GAS STATICCALL ISZERO DUP1 ISZERO PUSH2 0x119B JUMPI RETURNDATASIZE PUSH1 0x0 DUP1 RETURNDATACOPY RETURNDATASIZE PUSH1 0x0 REVERT JUMPDEST POP POP POP POP PUSH1 0x40 MLOAD RETURNDATASIZE PUSH1 0x1F NOT PUSH1 0x1F DUP3 ADD AND DUP3 ADD DUP1 PUSH1 0x40 MSTORE POP PUSH2 0x11BF SWAP2 SWAP1 DUP2 ADD SWAP1 PUSH2 0x182C JUMP JUMPDEST EQ PUSH2 0x11DF JUMPI PUSH1 0x40 MLOAD PUSH1 0x1 PUSH1 0xE5 SHL PUSH3 0x461BCD MUL DUP2 MSTORE PUSH1 0x4 ADD PUSH2 0x51E SWAP1 PUSH2 0x20A4 JUMP JUMPDEST PUSH1 0x0 DUP1 SLOAD PUSH1 0x40 MLOAD PUSH1 0x1 PUSH1 0x1 PUSH1 0xA0 SHL SUB DUP1 DUP7 AND SWAP4 SWAP3 AND SWAP2 PUSH32 0xB177A4A05A82A0D82537F71956F554EE3D2D0F32A76C0B056E0490778BE10AB4 SWAP2 LOG3 PUSH1 0x0 DUP1 SLOAD PUSH1 0x1 PUSH1 0x1 PUSH1 0xA0 SHL SUB NOT AND PUSH1 0x1 PUSH1 0x1 PUSH1 0xA0 SHL SUB DUP5 AND SWAP1 DUP2 OR PUSH1 0x1 PUSH1 0xA0 SHL PUSH1 0xFF MUL NOT AND DUP3 SSTORE PUSH1 0x40 MLOAD PUSH2 0x124D SWAP1 DUP5 SWAP1 PUSH2 0x1EEE JUMP JUMPDEST PUSH1 0x0 PUSH1 0x40 MLOAD DUP1 DUP4 SUB DUP2 DUP6 GAS DELEGATECALL SWAP2 POP POP RETURNDATASIZE DUP1 PUSH1 0x0 DUP2 EQ PUSH2 0x1288 JUMPI PUSH1 0x40 MLOAD SWAP2 POP PUSH1 0x1F NOT PUSH1 0x3F RETURNDATASIZE ADD AND DUP3 ADD PUSH1 0x40 MSTORE RETURNDATASIZE DUP3 MSTORE RETURNDATASIZE PUSH1 0x0 PUSH1 0x20 DUP5 ADD RETURNDATACOPY PUSH2 0x128D JUMP JUMPDEST PUSH1 0x60 SWAP2 POP JUMPDEST POP POP SWAP1 POP DUP1 PUSH2 0x935 JUMPI PUSH1 0x40 MLOAD PUSH1 0x1 PUSH1 0xE5 SHL PUSH3 0x461BCD MUL DUP2 MSTORE PUSH1 0x4 ADD PUSH2 0x51E SWAP1 PUSH2 0x1FD4 JUMP JUMPDEST PUSH1 0x0 DUP2 PUSH1 0x40 MLOAD PUSH1 0x20 ADD PUSH2 0x12C4 SWAP2 SWAP1 PUSH2 0x1F01 JUMP JUMPDEST PUSH1 0x40 MLOAD PUSH1 0x20 DUP2 DUP4 SUB SUB DUP2 MSTORE SWAP1 PUSH1 0x40 MSTORE DUP1 MLOAD SWAP1 PUSH1 0x20 ADD KECCAK256 SWAP1 POP SWAP2 SWAP1 POP JUMP JUMPDEST PUSH1 0x0 DUP3 DUP3 ADD DUP4 DUP2 LT ISZERO PUSH2 0x657 JUMPI PUSH1 0x0 DUP1 REVERT JUMPDEST PUSH1 0x0 DUP3 DUP3 GT ISZERO PUSH2 0x1302 JUMPI PUSH1 0x0 DUP1 REVERT JUMPDEST POP SWAP1 SUB SWAP1 JUMP JUMPDEST PUSH1 0x0 DUP3 PUSH2 0x1317 JUMPI POP PUSH1 0x0 PUSH2 0x65A JUMP JUMPDEST DUP3 DUP3 MUL DUP3 DUP5 DUP3 DUP2 PUSH2 0x1324 JUMPI INVALID JUMPDEST DIV EQ PUSH2 0x657 JUMPI PUSH1 0x0 DUP1 REVERT JUMPDEST PUSH1 0x1 PUSH1 0x1 PUSH1 0xA0 SHL SUB DUP2 AND PUSH2 0x1370 JUMPI PUSH1 0x40 MLOAD CALLER SWAP1 DUP4 ISZERO PUSH2 0x8FC MUL SWAP1 DUP5 SWAP1 PUSH1 0x0 DUP2 DUP2 DUP2 DUP6 DUP9 DUP9 CALL SWAP4 POP POP POP POP ISZERO DUP1 ISZERO PUSH2 0x136A JUMPI RETURNDATASIZE PUSH1 0x0 DUP1 RETURNDATACOPY RETURNDATASIZE PUSH1 0x0 REVERT JUMPDEST POP PUSH2 0x531 JUMP JUMPDEST PUSH1 0x40 MLOAD PUSH1 0x1 PUSH1 0xE0 SHL PUSH4 0xA9059CBB MUL DUP2 MSTORE PUSH1 0x1 PUSH1 0x1 PUSH1 0xA0 SHL SUB DUP3 AND SWAP1 PUSH4 0xA9059CBB SWAP1 PUSH2 0x13A1 SWAP1 CALLER SWAP1 DUP7 SWAP1 PUSH1 0x4 ADD PUSH2 0x1F2F JUMP JUMPDEST PUSH1 0x20 PUSH1 0x40 MLOAD DUP1 DUP4 SUB DUP2 PUSH1 0x0 DUP8 DUP1 EXTCODESIZE ISZERO DUP1 ISZERO PUSH2 0x13BB JUMPI PUSH1 0x0 DUP1 REVERT JUMPDEST POP GAS CALL ISZERO DUP1 ISZERO PUSH2 0x13CF JUMPI RETURNDATASIZE PUSH1 0x0 DUP1 RETURNDATACOPY RETURNDATASIZE PUSH1 0x0 REVERT JUMPDEST POP POP POP POP PUSH1 0x40 MLOAD RETURNDATASIZE PUSH1 0x1F NOT PUSH1 0x1F DUP3 ADD AND DUP3 ADD DUP1 PUSH1 0x40 MSTORE POP PUSH2 0x935 SWAP2 SWAP1 DUP2 ADD SWAP1 PUSH2 0x17F0 JUMP JUMPDEST POP DUP1 SLOAD PUSH1 0x0 DUP3 SSTORE SWAP1 PUSH1 0x0 MSTORE PUSH1 0x20 PUSH1 0x0 KECCAK256 SWAP1 DUP2 ADD SWAP1 PUSH2 0x1411 SWAP2 SWAP1 PUSH2 0x14B2 JUMP JUMPDEST POP JUMP JUMPDEST DUP3 DUP1 SLOAD PUSH1 0x1 DUP2 PUSH1 0x1 AND ISZERO PUSH2 0x100 MUL SUB AND PUSH1 0x2 SWAP1 DIV SWAP1 PUSH1 0x0 MSTORE PUSH1 0x20 PUSH1 0x0 KECCAK256 SWAP1 PUSH1 0x1F ADD PUSH1 0x20 SWAP1 DIV DUP2 ADD SWAP3 DUP3 PUSH1 0x1F LT PUSH2 0x1455 JUMPI DUP1 MLOAD PUSH1 0xFF NOT AND DUP4 DUP1 ADD OR DUP6 SSTORE PUSH2 0x1482 JUMP JUMPDEST DUP3 DUP1 ADD PUSH1 0x1 ADD DUP6 SSTORE DUP3 ISZERO PUSH2 0x1482 JUMPI SWAP2 DUP3 ADD JUMPDEST DUP3 DUP2 GT ISZERO PUSH2 0x1482 JUMPI DUP3 MLOAD DUP3 SSTORE SWAP2 PUSH1 0x20 ADD SWAP2 SWAP1 PUSH1 0x1 ADD SWAP1 PUSH2 0x1467 JUMP JUMPDEST POP PUSH2 0x148E SWAP3 SWAP2 POP PUSH2 0x14B2 JUMP JUMPDEST POP SWAP1 JUMP JUMPDEST DUP2 SLOAD DUP2 DUP4 SSTORE DUP2 DUP2 GT ISZERO PUSH2 0x935 JUMPI PUSH1 0x0 DUP4 DUP2 MSTORE PUSH1 0x20 SWAP1 KECCAK256 PUSH2 0x935 SWAP2 DUP2 ADD SWAP1 DUP4 ADD JUMPDEST PUSH2 0x7B7 SWAP2 SWAP1 JUMPDEST DUP1 DUP3 GT ISZERO PUSH2 0x148E JUMPI PUSH1 0x0 DUP2 SSTORE PUSH1 0x1 ADD PUSH2 0x14B8 JUMP JUMPDEST DUP1 CALLDATALOAD PUSH2 0x65A DUP2 PUSH2 0x21D7 JUMP JUMPDEST PUSH1 0x0 DUP3 PUSH1 0x1F DUP4 ADD SLT PUSH2 0x14E8 JUMPI PUSH1 0x0 DUP1 REVERT JUMPDEST DUP2 CALLDATALOAD PUSH2 0x14FB PUSH2 0x14F6 DUP3 PUSH2 0x20E9 JUMP JUMPDEST PUSH2 0x20C2 JUMP JUMPDEST SWAP2 POP DUP2 DUP2 DUP4 MSTORE PUSH1 0x20 DUP5 ADD SWAP4 POP PUSH1 0x20 DUP2 ADD SWAP1 POP DUP4 DUP6 PUSH1 0x20 DUP5 MUL DUP3 ADD GT ISZERO PUSH2 0x1520 JUMPI PUSH1 0x0 DUP1 REVERT JUMPDEST PUSH1 0x0 JUMPDEST DUP4 DUP2 LT ISZERO PUSH2 0x154C JUMPI DUP2 PUSH2 0x1536 DUP9 DUP3 PUSH2 0x15C9 JUMP JUMPDEST DUP5 MSTORE POP PUSH1 0x20 SWAP3 DUP4 ADD SWAP3 SWAP2 SWAP1 SWAP2 ADD SWAP1 PUSH1 0x1 ADD PUSH2 0x1523 JUMP JUMPDEST POP POP POP POP SWAP3 SWAP2 POP POP JUMP JUMPDEST PUSH1 0x0 DUP3 PUSH1 0x1F DUP4 ADD SLT PUSH2 0x1567 JUMPI PUSH1 0x0 DUP1 REVERT JUMPDEST DUP2 CALLDATALOAD PUSH2 0x1575 PUSH2 0x14F6 DUP3 PUSH2 0x20E9 JUMP JUMPDEST DUP2 DUP2 MSTORE PUSH1 0x20 SWAP4 DUP5 ADD SWAP4 SWAP1 SWAP3 POP DUP3 ADD DUP4 PUSH1 0x0 JUMPDEST DUP4 DUP2 LT ISZERO PUSH2 0x154C JUMPI DUP2 CALLDATALOAD DUP7 ADD PUSH2 0x159D DUP9 DUP3 PUSH2 0x15DF JUMP JUMPDEST DUP5 MSTORE POP PUSH1 0x20 SWAP3 DUP4 ADD SWAP3 SWAP2 SWAP1 SWAP2 ADD SWAP1 PUSH1 0x1 ADD PUSH2 0x1587 JUMP JUMPDEST DUP1 CALLDATALOAD PUSH2 0x65A DUP2 PUSH2 0x21EB JUMP JUMPDEST DUP1 MLOAD PUSH2 0x65A DUP2 PUSH2 0x21EB JUMP JUMPDEST DUP1 CALLDATALOAD PUSH2 0x65A DUP2 PUSH2 0x21F4 JUMP JUMPDEST DUP1 MLOAD PUSH2 0x65A DUP2 PUSH2 0x21F4 JUMP JUMPDEST PUSH1 0x0 DUP3 PUSH1 0x1F DUP4 ADD SLT PUSH2 0x15F0 JUMPI PUSH1 0x0 DUP1 REVERT JUMPDEST DUP2 CALLDATALOAD PUSH2 0x15FE PUSH2 0x14F6 DUP3 PUSH2 0x210A JUMP JUMPDEST SWAP2 POP DUP1 DUP3 MSTORE PUSH1 0x20 DUP4 ADD PUSH1 0x20 DUP4 ADD DUP6 DUP4 DUP4 ADD GT ISZERO PUSH2 0x161A JUMPI PUSH1 0x0 DUP1 REVERT JUMPDEST PUSH2 0x1625 DUP4 DUP3 DUP5 PUSH2 0x217E JUMP JUMPDEST POP POP POP SWAP3 SWAP2 POP POP JUMP JUMPDEST PUSH1 0x0 PUSH1 0x20 DUP3 DUP5 SUB SLT ISZERO PUSH2 0x1640 JUMPI PUSH1 0x0 DUP1 REVERT JUMPDEST PUSH1 0x0 PUSH2 0x164C DUP5 DUP5 PUSH2 0x14CC JUMP JUMPDEST SWAP5 SWAP4 POP POP POP POP JUMP JUMPDEST PUSH1 0x0 DUP1 PUSH1 0x0 DUP1 PUSH1 0x80 DUP6 DUP8 SUB SLT ISZERO PUSH2 0x166A JUMPI PUSH1 0x0 DUP1 REVERT JUMPDEST PUSH1 0x0 PUSH2 0x1676 DUP8 DUP8 PUSH2 0x14CC JUMP JUMPDEST SWAP5 POP POP PUSH1 0x20 PUSH2 0x1687 DUP8 DUP3 DUP9 ADD PUSH2 0x14CC JUMP JUMPDEST SWAP4 POP POP PUSH1 0x40 PUSH2 0x1698 DUP8 DUP3 DUP9 ADD PUSH2 0x15C9 JUMP JUMPDEST SWAP3 POP POP PUSH1 0x60 DUP6 ADD CALLDATALOAD PUSH8 0xFFFFFFFFFFFFFFFF DUP2 GT ISZERO PUSH2 0x16B5 JUMPI PUSH1 0x0 DUP1 REVERT JUMPDEST PUSH2 0x16C1 DUP8 DUP3 DUP9 ADD PUSH2 0x15DF JUMP JUMPDEST SWAP2 POP POP SWAP3 SWAP6 SWAP2 SWAP5 POP SWAP3 POP JUMP JUMPDEST PUSH1 0x0 DUP1 PUSH1 0x40 DUP4 DUP6 SUB SLT ISZERO PUSH2 0x16E0 JUMPI PUSH1 0x0 DUP1 REVERT JUMPDEST PUSH1 0x0 PUSH2 0x16EC DUP6 DUP6 PUSH2 0x14CC JUMP JUMPDEST SWAP3 POP POP PUSH1 0x20 PUSH2 0x16FD DUP6 DUP3 DUP7 ADD PUSH2 0x15C9 JUMP JUMPDEST SWAP2 POP POP SWAP3 POP SWAP3 SWAP1 POP JUMP JUMPDEST PUSH1 0x0 DUP1 PUSH1 0x0 PUSH1 0x60 DUP5 DUP7 SUB SLT ISZERO PUSH2 0x171C JUMPI PUSH1 0x0 DUP1 REVERT JUMPDEST PUSH1 0x0 PUSH2 0x1728 DUP7 DUP7 PUSH2 0x14CC JUMP JUMPDEST SWAP4 POP POP PUSH1 0x20 DUP5 ADD CALLDATALOAD PUSH8 0xFFFFFFFFFFFFFFFF DUP2 GT ISZERO PUSH2 0x1745 JUMPI PUSH1 0x0 DUP1 REVERT JUMPDEST PUSH2 0x1751 DUP7 DUP3 DUP8 ADD PUSH2 0x15DF JUMP JUMPDEST SWAP3 POP POP PUSH1 0x40 PUSH2 0x1762 DUP7 DUP3 DUP8 ADD PUSH2 0x15B3 JUMP JUMPDEST SWAP2 POP POP SWAP3 POP SWAP3 POP SWAP3 JUMP JUMPDEST PUSH1 0x0 DUP1 PUSH1 0x0 DUP1 PUSH1 0x80 DUP6 DUP8 SUB SLT ISZERO PUSH2 0x1782 JUMPI PUSH1 0x0 DUP1 REVERT JUMPDEST DUP5 CALLDATALOAD PUSH8 0xFFFFFFFFFFFFFFFF DUP2 GT ISZERO PUSH2 0x1799 JUMPI PUSH1 0x0 DUP1 REVERT JUMPDEST PUSH2 0x17A5 DUP8 DUP3 DUP9 ADD PUSH2 0x14D7 JUMP JUMPDEST SWAP5 POP POP PUSH1 0x20 DUP6 ADD CALLDATALOAD PUSH8 0xFFFFFFFFFFFFFFFF DUP2 GT ISZERO PUSH2 0x17C2 JUMPI PUSH1 0x0 DUP1 REVERT JUMPDEST PUSH2 0x17CE DUP8 DUP3 DUP9 ADD PUSH2 0x14D7 JUMP JUMPDEST SWAP4 POP POP PUSH1 0x40 PUSH2 0x17DF DUP8 DUP3 DUP9 ADD PUSH2 0x15C9 JUMP JUMPDEST SWAP3 POP POP PUSH1 0x60 PUSH2 0x16C1 DUP8 DUP3 DUP9 ADD PUSH2 0x15C9 JUMP JUMPDEST PUSH1 0x0 PUSH1 0x20 DUP3 DUP5 SUB SLT ISZERO PUSH2 0x1802 JUMPI PUSH1 0x0 DUP1 REVERT JUMPDEST PUSH1 0x0 PUSH2 0x164C DUP5 DUP5 PUSH2 0x15BE JUMP JUMPDEST PUSH1 0x0 PUSH1 0x20 DUP3 DUP5 SUB SLT ISZERO PUSH2 0x1820 JUMPI PUSH1 0x0 DUP1 REVERT JUMPDEST PUSH1 0x0 PUSH2 0x164C DUP5 DUP5 PUSH2 0x15C9 JUMP JUMPDEST PUSH1 0x0 PUSH1 0x20 DUP3 DUP5 SUB SLT ISZERO PUSH2 0x183E JUMPI PUSH1 0x0 DUP1 REVERT JUMPDEST PUSH1 0x0 PUSH2 0x164C DUP5 DUP5 PUSH2 0x15D4 JUMP JUMPDEST PUSH1 0x0 DUP1 PUSH1 0x40 DUP4 DUP6 SUB SLT ISZERO PUSH2 0x185D JUMPI PUSH1 0x0 DUP1 REVERT JUMPDEST PUSH1 0x0 PUSH2 0x16EC DUP6 DUP6 PUSH2 0x15C9 JUMP JUMPDEST PUSH1 0x0 DUP1 PUSH1 0x40 DUP4 DUP6 SUB SLT ISZERO PUSH2 0x187C JUMPI PUSH1 0x0 DUP1 REVERT JUMPDEST PUSH1 0x0 PUSH2 0x1888 DUP6 DUP6 PUSH2 0x15C9 JUMP JUMPDEST SWAP3 POP POP PUSH1 0x20 DUP4 ADD CALLDATALOAD PUSH8 0xFFFFFFFFFFFFFFFF DUP2 GT ISZERO PUSH2 0x18A5 JUMPI PUSH1 0x0 DUP1 REVERT JUMPDEST PUSH2 0x16FD DUP6 DUP3 DUP7 ADD PUSH2 0x15DF JUMP JUMPDEST PUSH1 0x0 DUP1 PUSH1 0x0 DUP1 PUSH1 0x80 DUP6 DUP8 SUB SLT ISZERO PUSH2 0x18C7 JUMPI PUSH1 0x0 DUP1 REVERT JUMPDEST PUSH1 0x0 PUSH2 0x1676 DUP8 DUP8 PUSH2 0x15C9 JUMP JUMPDEST PUSH1 0x0 DUP1 PUSH1 0x0 DUP1 PUSH1 0x0 DUP1 PUSH1 0x0 DUP1 PUSH2 0x100 DUP10 DUP12 SUB SLT ISZERO PUSH2 0x18F0 JUMPI PUSH1 0x0 DUP1 REVERT JUMPDEST PUSH1 0x0 PUSH2 0x18FC DUP12 DUP12 PUSH2 0x15C9 JUMP JUMPDEST SWAP9 POP POP PUSH1 0x20 PUSH2 0x190D DUP12 DUP3 DUP13 ADD PUSH2 0x14CC JUMP JUMPDEST SWAP8 POP POP PUSH1 0x40 PUSH2 0x191E DUP12 DUP3 DUP13 ADD PUSH2 0x15C9 JUMP JUMPDEST SWAP7 POP POP PUSH1 0x60 DUP10 ADD CALLDATALOAD PUSH8 0xFFFFFFFFFFFFFFFF DUP2 GT ISZERO PUSH2 0x193B JUMPI PUSH1 0x0 DUP1 REVERT JUMPDEST PUSH2 0x1947 DUP12 DUP3 DUP13 ADD PUSH2 0x15DF JUMP JUMPDEST SWAP6 POP POP PUSH1 0x80 PUSH2 0x1958 DUP12 DUP3 DUP13 ADD PUSH2 0x15C9 JUMP JUMPDEST SWAP5 POP POP PUSH1 0xA0 PUSH2 0x1969 DUP12 DUP3 DUP13 ADD PUSH2 0x14CC JUMP JUMPDEST SWAP4 POP POP PUSH1 0xC0 PUSH2 0x197A DUP12 DUP3 DUP13 ADD PUSH2 0x15C9 JUMP JUMPDEST SWAP3 POP POP PUSH1 0xE0 DUP10 ADD CALLDATALOAD PUSH8 0xFFFFFFFFFFFFFFFF DUP2 GT ISZERO PUSH2 0x1997 JUMPI PUSH1 0x0 DUP1 REVERT JUMPDEST PUSH2 0x19A3 DUP12 DUP3 DUP13 ADD PUSH2 0x1556 JUMP JUMPDEST SWAP2 POP POP SWAP3 SWAP6 SWAP9 POP SWAP3 SWAP6 SWAP9 SWAP1 SWAP4 SWAP7 POP JUMP JUMPDEST PUSH1 0x0 PUSH2 0x19BF DUP4 DUP4 PUSH2 0x1A52 JUMP JUMPDEST POP POP PUSH1 0x20 ADD SWAP1 JUMP JUMPDEST PUSH2 0x19D0 DUP2 PUSH2 0x216D JUMP JUMPDEST DUP3 MSTORE POP POP JUMP JUMPDEST PUSH2 0x19D0 PUSH2 0x19E2 DUP3 PUSH2 0x214A JUMP JUMPDEST PUSH2 0x21B6 JUMP JUMPDEST PUSH2 0x19D0 DUP2 PUSH2 0x214A JUMP JUMPDEST PUSH1 0x0 PUSH2 0x19FB DUP3 PUSH2 0x2138 JUMP JUMPDEST PUSH2 0x1A05 DUP2 DUP6 PUSH2 0x213C JUMP JUMPDEST SWAP4 POP PUSH2 0x1A10 DUP4 PUSH2 0x2132 JUMP JUMPDEST DUP1 PUSH1 0x0 JUMPDEST DUP4 DUP2 LT ISZERO PUSH2 0x1A3E JUMPI DUP2 MLOAD PUSH2 0x1A28 DUP9 DUP3 PUSH2 0x19B3 JUMP JUMPDEST SWAP8 POP PUSH2 0x1A33 DUP4 PUSH2 0x2132 JUMP JUMPDEST SWAP3 POP POP PUSH1 0x1 ADD PUSH2 0x1A14 JUMP JUMPDEST POP SWAP5 SWAP6 SWAP5 POP POP POP POP POP JUMP JUMPDEST PUSH2 0x19D0 DUP2 PUSH2 0x2155 JUMP JUMPDEST PUSH2 0x19D0 DUP2 PUSH2 0x7B7 JUMP JUMPDEST PUSH2 0x19D0 PUSH2 0x1A67 DUP3 PUSH2 0x7B7 JUMP JUMPDEST PUSH2 0x7B7 JUMP JUMPDEST PUSH2 0x19D0 DUP2 PUSH2 0x215A JUMP JUMPDEST PUSH1 0x0 PUSH2 0x1A80 DUP3 PUSH2 0x2138 JUMP JUMPDEST PUSH2 0x1A8A DUP2 DUP6 PUSH2 0x213C JUMP JUMPDEST SWAP4 POP PUSH2 0x1A9A DUP2 DUP6 PUSH1 0x20 DUP7 ADD PUSH2 0x218A JUMP JUMPDEST PUSH2 0x1AA3 DUP2 PUSH2 0x21C7 JUMP JUMPDEST SWAP1 SWAP4 ADD SWAP4 SWAP3 POP POP POP JUMP JUMPDEST PUSH1 0x0 PUSH2 0x1AB8 DUP3 PUSH2 0x2138 JUMP JUMPDEST PUSH2 0x1AC2 DUP2 DUP6 PUSH2 0x2145 JUMP JUMPDEST SWAP4 POP PUSH2 0x1AD2 DUP2 DUP6 PUSH1 0x20 DUP7 ADD PUSH2 0x218A JUMP JUMPDEST SWAP3 SWAP1 SWAP3 ADD SWAP3 SWAP2 POP POP JUMP JUMPDEST PUSH1 0x0 PUSH2 0x1AE9 PUSH1 0x14 DUP4 PUSH2 0x213C JUMP JUMPDEST PUSH32 0x6661696C65642D746F2D696E697469616C697A65000000000000000000000000 DUP2 MSTORE PUSH1 0x20 ADD SWAP3 SWAP2 POP POP JUMP JUMPDEST PUSH1 0x0 PUSH2 0x1B22 PUSH1 0x1C DUP4 PUSH2 0x2145 JUMP JUMPDEST PUSH32 0x19457468657265756D205369676E6564204D6573736167653A0A333200000000 DUP2 MSTORE PUSH1 0x1C ADD SWAP3 SWAP2 POP POP JUMP JUMPDEST PUSH1 0x0 PUSH2 0x1B5B PUSH1 0xD DUP4 PUSH2 0x213C JUMP JUMPDEST PUSH32 0x6163636573732D64656E69656400000000000000000000000000000000000000 DUP2 MSTORE PUSH1 0x20 ADD SWAP3 SWAP2 POP POP JUMP JUMPDEST PUSH1 0x0 PUSH2 0x1B94 PUSH1 0x11 DUP4 PUSH2 0x213C JUMP JUMPDEST PUSH32 0x7468726573686F6C642D746F6F2D6C6F77000000000000000000000000000000 DUP2 MSTORE PUSH1 0x20 ADD SWAP3 SWAP2 POP POP JUMP JUMPDEST PUSH1 0x0 PUSH2 0x1BCD PUSH1 0x11 DUP4 PUSH2 0x213C JUMP JUMPDEST PUSH32 0x696E76616C69642D7369676E6174757265000000000000000000000000000000 DUP2 MSTORE PUSH1 0x20 ADD SWAP3 SWAP2 POP POP JUMP JUMPDEST PUSH1 0x0 PUSH2 0x1C06 PUSH1 0x25 DUP4 PUSH2 0x213C JUMP JUMPDEST PUSH32 0x63616E6E6F742D72656D6F76652D637269746963616C2D6D616E6167656D656E DUP2 MSTORE PUSH1 0x1 PUSH1 0xD8 SHL PUSH5 0x742D6B6579 MUL PUSH1 0x20 DUP3 ADD MSTORE PUSH1 0x40 ADD SWAP3 SWAP2 POP POP JUMP JUMPDEST PUSH1 0x0 PUSH2 0x1C50 PUSH1 0x13 DUP4 PUSH2 0x213C JUMP JUMPDEST PUSH32 0x616C72656164792D696E697469616C697A656400000000000000000000000000 DUP2 MSTORE PUSH1 0x20 ADD SWAP3 SWAP2 POP POP JUMP JUMPDEST PUSH1 0x0 PUSH2 0x1C89 PUSH1 0x1B DUP4 PUSH2 0x213C JUMP JUMPDEST PUSH32 0x696E76616C69642D7369676E6174757265732D6F72646572696E670000000000 DUP2 MSTORE PUSH1 0x20 ADD SWAP3 SWAP2 POP POP JUMP JUMPDEST PUSH1 0x0 PUSH2 0x1CC2 PUSH1 0x29 DUP4 PUSH2 0x213C JUMP JUMPDEST PUSH32 0x6B65792D616E642D707572706F73652D61727261792D6D7573742D686176652D DUP2 MSTORE PUSH1 0x1 PUSH1 0xB8 SHL PUSH9 0x73616D652D73697A65 MUL PUSH1 0x20 DUP3 ADD MSTORE PUSH1 0x40 ADD SWAP3 SWAP2 POP POP JUMP JUMPDEST PUSH1 0x0 PUSH2 0x1D10 PUSH1 0x12 DUP4 PUSH2 0x213C JUMP JUMPDEST PUSH32 0x7468726573686F6C642D746F6F2D686967680000000000000000000000000000 DUP2 MSTORE PUSH1 0x20 ADD SWAP3 SWAP2 POP POP JUMP JUMPDEST PUSH1 0x0 PUSH2 0x1D49 PUSH1 0x16 DUP4 PUSH2 0x213C JUMP JUMPDEST PUSH32 0x696E76616C69642D6F7065726174696F6E2D7479706500000000000000000000 DUP2 MSTORE PUSH1 0x20 ADD SWAP3 SWAP2 POP POP JUMP JUMPDEST PUSH1 0x0 PUSH2 0x1D82 PUSH1 0xD DUP4 PUSH2 0x213C JUMP JUMPDEST PUSH32 0x696E76616C69642D6E6F6E636500000000000000000000000000000000000000 DUP2 MSTORE PUSH1 0x20 ADD SWAP3 SWAP2 POP POP JUMP JUMPDEST PUSH1 0x0 PUSH2 0x1DBB PUSH1 0xF DUP4 PUSH2 0x213C JUMP JUMPDEST PUSH32 0x6D697373696E672D7369676E6572730000000000000000000000000000000000 DUP2 MSTORE PUSH1 0x20 ADD SWAP3 SWAP2 POP POP JUMP JUMPDEST PUSH1 0x0 PUSH2 0x1DF4 PUSH1 0x1A DUP4 PUSH2 0x213C JUMP JUMPDEST PUSH32 0x6E6F742D656E6F7567682D6D616E6167656D656E742D6B657973000000000000 DUP2 MSTORE PUSH1 0x20 ADD SWAP3 SWAP2 POP POP JUMP JUMPDEST PUSH1 0x0 PUSH2 0x1E2D PUSH1 0x13 DUP4 PUSH2 0x213C JUMP JUMPDEST PUSH32 0x696E76616C69642D6D61737465722D7575696400000000000000000000000000 DUP2 MSTORE PUSH1 0x20 ADD SWAP3 SWAP2 POP POP JUMP JUMPDEST PUSH2 0x19D0 DUP2 PUSH2 0x2167 JUMP JUMPDEST PUSH1 0x0 PUSH2 0x1E6E DUP3 DUP12 PUSH2 0x19D6 JUMP JUMPDEST PUSH1 0x14 DUP3 ADD SWAP2 POP PUSH2 0x1E7E DUP3 DUP11 PUSH2 0x1A5B JUMP JUMPDEST PUSH1 0x20 DUP3 ADD SWAP2 POP PUSH2 0x1E8E DUP3 DUP10 PUSH2 0x19D6 JUMP JUMPDEST PUSH1 0x14 DUP3 ADD SWAP2 POP PUSH2 0x1E9E DUP3 DUP9 PUSH2 0x1A5B JUMP JUMPDEST PUSH1 0x20 DUP3 ADD SWAP2 POP PUSH2 0x1EAE DUP3 DUP8 PUSH2 0x1A5B JUMP JUMPDEST PUSH1 0x20 DUP3 ADD SWAP2 POP PUSH2 0x1EBE DUP3 DUP7 PUSH2 0x1A5B JUMP JUMPDEST PUSH1 0x20 DUP3 ADD SWAP2 POP PUSH2 0x1ECE DUP3 DUP6 PUSH2 0x19D6 JUMP JUMPDEST PUSH1 0x14 DUP3 ADD SWAP2 POP PUSH2 0x1EDE DUP3 DUP5 PUSH2 0x1A5B JUMP JUMPDEST POP PUSH1 0x20 ADD SWAP9 SWAP8 POP POP POP POP POP POP POP POP JUMP JUMPDEST PUSH1 0x0 PUSH2 0x1EFA DUP3 DUP5 PUSH2 0x1AAD JUMP JUMPDEST SWAP4 SWAP3 POP POP POP JUMP JUMPDEST PUSH1 0x0 PUSH2 0x1F0C DUP3 PUSH2 0x1B15 JUMP JUMPDEST SWAP2 POP PUSH2 0x1F18 DUP3 DUP5 PUSH2 0x1A5B JUMP JUMPDEST POP PUSH1 0x20 ADD SWAP2 SWAP1 POP JUMP JUMPDEST PUSH1 0x20 DUP2 ADD PUSH2 0x65A DUP3 DUP5 PUSH2 0x19E7 JUMP JUMPDEST PUSH1 0x40 DUP2 ADD PUSH2 0x1F3D DUP3 DUP6 PUSH2 0x19C7 JUMP JUMPDEST PUSH2 0x1EFA PUSH1 0x20 DUP4 ADD DUP5 PUSH2 0x1A52 JUMP JUMPDEST PUSH1 0x20 DUP1 DUP3 MSTORE DUP2 ADD PUSH2 0x657 DUP2 DUP5 PUSH2 0x19F0 JUMP JUMPDEST PUSH1 0x20 DUP2 ADD PUSH2 0x65A DUP3 DUP5 PUSH2 0x1A49 JUMP JUMPDEST PUSH1 0x20 DUP2 ADD PUSH2 0x65A DUP3 DUP5 PUSH2 0x1A52 JUMP JUMPDEST PUSH1 0x80 DUP2 ADD PUSH2 0x1F85 DUP3 DUP8 PUSH2 0x1A52 JUMP JUMPDEST PUSH2 0x1F92 PUSH1 0x20 DUP4 ADD DUP7 PUSH2 0x1E59 JUMP JUMPDEST PUSH2 0x1F9F PUSH1 0x40 DUP4 ADD DUP6 PUSH2 0x1A52 JUMP JUMPDEST PUSH2 0x1FAC PUSH1 0x60 DUP4 ADD DUP5 PUSH2 0x1A52 JUMP JUMPDEST SWAP6 SWAP5 POP POP POP POP POP JUMP JUMPDEST PUSH1 0x20 DUP2 ADD PUSH2 0x65A DUP3 DUP5 PUSH2 0x1A6C JUMP JUMPDEST PUSH1 0x20 DUP1 DUP3 MSTORE DUP2 ADD PUSH2 0x657 DUP2 DUP5 PUSH2 0x1A75 JUMP JUMPDEST PUSH1 0x20 DUP1 DUP3 MSTORE DUP2 ADD PUSH2 0x65A DUP2 PUSH2 0x1ADC JUMP JUMPDEST PUSH1 0x20 DUP1 DUP3 MSTORE DUP2 ADD PUSH2 0x65A DUP2 PUSH2 0x1B4E JUMP JUMPDEST PUSH1 0x20 DUP1 DUP3 MSTORE DUP2 ADD PUSH2 0x65A DUP2 PUSH2 0x1B87 JUMP JUMPDEST PUSH1 0x20 DUP1 DUP3 MSTORE DUP2 ADD PUSH2 0x65A DUP2 PUSH2 0x1BC0 JUMP JUMPDEST PUSH1 0x20 DUP1 DUP3 MSTORE DUP2 ADD PUSH2 0x65A DUP2 PUSH2 0x1BF9 JUMP JUMPDEST PUSH1 0x20 DUP1 DUP3 MSTORE DUP2 ADD PUSH2 0x65A DUP2 PUSH2 0x1C43 JUMP JUMPDEST PUSH1 0x20 DUP1 DUP3 MSTORE DUP2 ADD PUSH2 0x65A DUP2 PUSH2 0x1C7C JUMP JUMPDEST PUSH1 0x20 DUP1 DUP3 MSTORE DUP2 ADD PUSH2 0x65A DUP2 PUSH2 0x1CB5 JUMP JUMPDEST PUSH1 0x20 DUP1 DUP3 MSTORE DUP2 ADD PUSH2 0x65A DUP2 PUSH2 0x1D03 JUMP JUMPDEST PUSH1 0x20 DUP1 DUP3 MSTORE DUP2 ADD PUSH2 0x65A DUP2 PUSH2 0x1D3C JUMP JUMPDEST PUSH1 0x20 DUP1 DUP3 MSTORE DUP2 ADD PUSH2 0x65A DUP2 PUSH2 0x1D75 JUMP JUMPDEST PUSH1 0x20 DUP1 DUP3 MSTORE DUP2 ADD PUSH2 0x65A DUP2 PUSH2 0x1DAE JUMP JUMPDEST PUSH1 0x20 DUP1 DUP3 MSTORE DUP2 ADD PUSH2 0x65A DUP2 PUSH2 0x1DE7 JUMP JUMPDEST PUSH1 0x20 DUP1 DUP3 MSTORE DUP2 ADD PUSH2 0x65A DUP2 PUSH2 0x1E20 JUMP JUMPDEST PUSH1 0x40 DUP2 ADD PUSH2 0x1F3D DUP3 DUP6 PUSH2 0x1A52 JUMP JUMPDEST PUSH1 0x40 MLOAD DUP2 DUP2 ADD PUSH8 0xFFFFFFFFFFFFFFFF DUP2 GT DUP3 DUP3 LT OR ISZERO PUSH2 0x20E1 JUMPI PUSH1 0x0 DUP1 REVERT JUMPDEST PUSH1 0x40 MSTORE SWAP2 SWAP1 POP JUMP JUMPDEST PUSH1 0x0 PUSH8 0xFFFFFFFFFFFFFFFF DUP3 GT ISZERO PUSH2 0x2100 JUMPI PUSH1 0x0 DUP1 REVERT JUMPDEST POP PUSH1 0x20 SWAP1 DUP2 MUL ADD SWAP1 JUMP JUMPDEST PUSH1 0x0 PUSH8 0xFFFFFFFFFFFFFFFF DUP3 GT ISZERO PUSH2 0x2121 JUMPI PUSH1 0x0 DUP1 REVERT JUMPDEST POP PUSH1 0x20 PUSH1 0x1F SWAP2 SWAP1 SWAP2 ADD PUSH1 0x1F NOT AND ADD SWAP1 JUMP JUMPDEST PUSH1 0x20 ADD SWAP1 JUMP JUMPDEST MLOAD SWAP1 JUMP JUMPDEST SWAP1 DUP2 MSTORE PUSH1 0x20 ADD SWAP1 JUMP JUMPDEST SWAP2 SWAP1 POP JUMP JUMPDEST PUSH1 0x0 PUSH2 0x65A DUP3 PUSH2 0x87B JUMP JUMPDEST ISZERO ISZERO SWAP1 JUMP JUMPDEST PUSH1 0x1 PUSH1 0x1 PUSH1 0xE0 SHL SUB NOT AND SWAP1 JUMP JUMPDEST PUSH1 0xFF AND SWAP1 JUMP JUMPDEST PUSH1 0x0 PUSH2 0x65A DUP3 PUSH1 0x0 PUSH2 0x65A DUP3 PUSH2 0x214A JUMP JUMPDEST DUP3 DUP2 DUP4 CALLDATACOPY POP PUSH1 0x0 SWAP2 ADD MSTORE JUMP JUMPDEST PUSH1 0x0 JUMPDEST DUP4 DUP2 LT ISZERO PUSH2 0x21A5 JUMPI DUP2 DUP2 ADD MLOAD DUP4 DUP3 ADD MSTORE PUSH1 0x20 ADD PUSH2 0x218D JUMP JUMPDEST DUP4 DUP2 GT ISZERO PUSH2 0x78F JUMPI POP POP PUSH1 0x0 SWAP2 ADD MSTORE JUMP JUMPDEST PUSH1 0x0 PUSH2 0x65A DUP3 PUSH1 0x0 PUSH2 0x65A DUP3 PUSH2 0x21D1 JUMP JUMPDEST PUSH1 0x1F ADD PUSH1 0x1F NOT AND SWAP1 JUMP JUMPDEST PUSH1 0x60 SHL SWAP1 JUMP JUMPDEST PUSH2 0x21E0 DUP2 PUSH2 0x214A JUMP JUMPDEST DUP2 EQ PUSH2 0x1411 JUMPI PUSH1 0x0 DUP1 REVERT JUMPDEST PUSH2 0x21E0 DUP2 PUSH2 0x2155 JUMP JUMPDEST PUSH2 0x21E0 DUP2 PUSH2 0x7B7 JUMP INVALID LOG2 PUSH6 0x627A7A723058 KECCAK256 0x27 PUSH25 0x9C07A4E1F164056D1D749E85014E841F094F0F8F8EFEC6F47B LOG0 0xd1 PC 0xb4 0x29 PUSH13 0x6578706572696D656E74616CF5 STOP CALLDATACOPY "
    }
  },
  "interface": [
    {
      "constant": false,
      "inputs": [
        {
          "name": "key",
          "type": "bytes32"
        },
        {
          "name": "purpose",
          "type": "uint256"
        }
      ],
      "name": "setKey",
      "outputs": [],
      "payable": false,
      "stateMutability": "nonpayable",
      "type": "function"
    },
    {
      "constant": false,
      "inputs": [
        {
          "name": "key",
          "type": "bytes32"
        },
        {
          "name": "purpose",
          "type": "bytes32"
        }
      ],
      "name": "setKey",
      "outputs": [],
      "payable": false,
      "stateMutability": "nonpayable",
      "type": "function"
    },
    {
      "constant": false,
      "inputs": [
        {
          "name": "keys",
          "type": "bytes32[]"
        },
        {
          "name": "purposes",
          "type": "bytes32[]"
        },
        {
          "name": "managementThreshold",
          "type": "uint256"
        },
        {
          "name": "actionThreshold",
          "type": "uint256"
        }
      ],
      "name": "initialize",
      "outputs": [],
      "payable": false,
      "stateMutability": "nonpayable",
      "type": "function"
    },
    {
      "constant": true,
      "inputs": [
        {
          "name": "key",
          "type": "bytes32"
        }
      ],
      "name": "getKey",
      "outputs": [
        {
          "name": "",
          "type": "bytes32"
        }
      ],
      "payable": false,
      "stateMutability": "view",
      "type": "function"
    },
    {
      "constant": false,
      "inputs": [
        {
          "name": "",
          "type": "address"
        },
        {
          "name": "",
          "type": "address"
        },
        {
          "name": "",
          "type": "uint256"
        },
        {
          "name": "",
          "type": "bytes"
        }
      ],
      "name": "onERC721Received",
      "outputs": [
        {
          "name": "",
          "type": "bytes4"
        }
      ],
      "payable": false,
      "stateMutability": "nonpayable",
      "type": "function"
    },
    {
      "constant": true,
      "inputs": [
        {
          "name": "data",
          "type": "bytes32"
        },
        {
          "name": "signature",
          "type": "bytes"
        }
      ],
      "name": "isValidSignature",
      "outputs": [
        {
          "name": "",
          "type": "bool"
        }
      ],
      "payable": false,
      "stateMutability": "view",
      "type": "function"
    },
    {
      "constant": false,
      "inputs": [
        {
          "name": "actionThreshold",
          "type": "uint256"
        }
      ],
      "name": "setActionThreshold",
      "outputs": [],
      "payable": false,
      "stateMutability": "nonpayable",
      "type": "function"
    },
    {
      "constant": false,
      "inputs": [
        {
          "name": "key",
          "type": "address"
        },
        {
          "name": "purpose",
          "type": "uint256"
        }
      ],
      "name": "setKey",
      "outputs": [],
      "payable": false,
      "stateMutability": "nonpayable",
      "type": "function"
    },
    {
      "constant": false,
      "inputs": [
        {
          "name": "key",
          "type": "address"
        },
        {
          "name": "purpose",
          "type": "bytes32"
        }
      ],
      "name": "setKey",
      "outputs": [],
      "payable": false,
      "stateMutability": "nonpayable",
      "type": "function"
    },
    {
      "constant": false,
      "inputs": [
        {
          "name": "operationType",
          "type": "uint256"
        },
        {
          "name": "to",
          "type": "address"
        },
        {
          "name": "value",
          "type": "uint256"
        },
        {
          "name": "data",
          "type": "bytes"
        }
      ],
      "name": "execute",
      "outputs": [],
      "payable": false,
      "stateMutability": "nonpayable",
      "type": "function"
    },
    {
      "constant": true,
      "inputs": [],
      "name": "masterId",
      "outputs": [
        {
          "name": "",
          "type": "bytes32"
        }
      ],
      "payable": false,
      "stateMutability": "pure",
      "type": "function"
    },
    {
      "constant": true,
      "inputs": [
        {
          "name": "key",
          "type": "bytes32"
        }
      ],
      "name": "getData",
      "outputs": [
        {
          "name": "",
          "type": "bytes"
        }
      ],
      "payable": false,
      "stateMutability": "view",
      "type": "function"
    },
    {
      "constant": true,
      "inputs": [
        {
          "name": "key",
          "type": "address"
        },
        {
          "name": "purpose",
          "type": "uint256"
        }
      ],
      "name": "keyHasPurpose",
      "outputs": [
        {
          "name": "",
          "type": "bool"
        }
      ],
      "payable": false,
      "stateMutability": "view",
      "type": "function"
    },
    {
      "constant": true,
      "inputs": [
        {
          "name": "key",
          "type": "bytes32"
        },
        {
          "name": "purpose",
          "type": "bytes32"
        }
      ],
      "name": "keyHasPurpose",
      "outputs": [
        {
          "name": "",
          "type": "bool"
        }
      ],
      "payable": false,
      "stateMutability": "view",
      "type": "function"
    },
    {
      "constant": true,
      "inputs": [
        {
          "name": "addr",
          "type": "address"
        }
      ],
      "name": "addrToKey",
      "outputs": [
        {
          "name": "",
          "type": "bytes32"
        }
      ],
      "payable": false,
      "stateMutability": "pure",
      "type": "function"
    },
    {
      "constant": false,
      "inputs": [
        {
          "name": "newMaster",
          "type": "address"
        },
        {
          "name": "initData",
          "type": "bytes"
        },
        {
          "name": "reset",
          "type": "bool"
        }
      ],
      "name": "updateMaster",
      "outputs": [],
      "payable": false,
      "stateMutability": "nonpayable",
      "type": "function"
    },
    {
      "constant": false,
      "inputs": [
        {
          "name": "key",
          "type": "bytes32"
        },
        {
          "name": "value",
          "type": "bytes"
        }
      ],
      "name": "setData",
      "outputs": [],
      "payable": false,
      "stateMutability": "nonpayable",
      "type": "function"
    },
    {
      "constant": true,
      "inputs": [],
      "name": "getActiveKeys",
      "outputs": [
        {
          "name": "",
          "type": "bytes32[]"
        }
      ],
      "payable": false,
      "stateMutability": "view",
      "type": "function"
    },
    {
      "constant": true,
      "inputs": [],
      "name": "owner",
      "outputs": [
        {
          "name": "",
          "type": "address"
        }
      ],
      "payable": false,
      "stateMutability": "view",
      "type": "function"
    },
    {
      "constant": true,
      "inputs": [],
      "name": "getManagementThreshold",
      "outputs": [
        {
          "name": "",
          "type": "uint256"
        }
      ],
      "payable": false,
      "stateMutability": "view",
      "type": "function"
    },
    {
      "constant": true,
      "inputs": [
        {
          "name": "key",
          "type": "address"
        }
      ],
      "name": "getKey",
      "outputs": [
        {
          "name": "",
          "type": "bytes32"
        }
      ],
      "payable": false,
      "stateMutability": "view",
      "type": "function"
    },
    {
      "constant": true,
      "inputs": [],
      "name": "getManagementKeyCount",
      "outputs": [
        {
          "name": "",
          "type": "uint256"
        }
      ],
      "payable": false,
      "stateMutability": "view",
      "type": "function"
    },
    {
      "constant": true,
      "inputs": [],
      "name": "nonce",
      "outputs": [
        {
          "name": "",
          "type": "uint256"
        }
      ],
      "payable": false,
      "stateMutability": "view",
      "type": "function"
    },
    {
      "constant": false,
      "inputs": [
        {
          "name": "operationType",
          "type": "uint256"
        },
        {
          "name": "to",
          "type": "address"
        },
        {
          "name": "value",
          "type": "uint256"
        },
        {
          "name": "data",
          "type": "bytes"
        },
        {
          "name": "nonce",
          "type": "uint256"
        },
        {
          "name": "gasToken",
          "type": "address"
        },
        {
          "name": "gasPrice",
          "type": "uint256"
        },
        {
          "name": "sigs",
          "type": "bytes[]"
        }
      ],
      "name": "execute",
      "outputs": [],
      "payable": false,
      "stateMutability": "nonpayable",
      "type": "function"
    },
    {
      "constant": true,
      "inputs": [
        {
          "name": "key",
          "type": "bytes32"
        },
        {
          "name": "purpose",
          "type": "uint256"
        }
      ],
      "name": "keyHasPurpose",
      "outputs": [
        {
          "name": "",
          "type": "bool"
        }
      ],
      "payable": false,
      "stateMutability": "view",
      "type": "function"
    },
    {
      "constant": false,
      "inputs": [
        {
          "name": "managementThreshold",
          "type": "uint256"
        }
      ],
      "name": "setManagementThreshold",
      "outputs": [],
      "payable": false,
      "stateMutability": "nonpayable",
      "type": "function"
    },
    {
      "constant": true,
      "inputs": [],
      "name": "getActionThreshold",
      "outputs": [
        {
          "name": "",
          "type": "uint256"
        }
      ],
      "payable": false,
      "stateMutability": "view",
      "type": "function"
    },
    {
      "constant": true,
      "inputs": [],
      "name": "master",
      "outputs": [
        {
          "name": "",
          "type": "address"
        }
      ],
      "payable": false,
      "stateMutability": "view",
      "type": "function"
    },
    {
      "constant": true,
      "inputs": [
        {
          "name": "key",
          "type": "address"
        },
        {
          "name": "purpose",
          "type": "bytes32"
        }
      ],
      "name": "keyHasPurpose",
      "outputs": [
        {
          "name": "",
          "type": "bool"
        }
      ],
      "payable": false,
      "stateMutability": "view",
      "type": "function"
    },
    {
      "inputs": [],
      "payable": false,
      "stateMutability": "nonpayable",
      "type": "constructor"
    },
    {
      "payable": true,
      "stateMutability": "payable",
      "type": "fallback"
    },
    {
      "anonymous": false,
      "inputs": [
        {
          "indexed": true,
          "name": "key",
          "type": "bytes32"
        },
        {
          "indexed": true,
          "name": "previousPurpose",
          "type": "bytes32"
        },
        {
          "indexed": true,
          "name": "newPurpose",
          "type": "bytes32"
        }
      ],
      "name": "SetKey",
      "type": "event"
    },
    {
      "anonymous": false,
      "inputs": [
        {
          "indexed": false,
          "name": "previousThreshold",
          "type": "uint256"
        },
        {
          "indexed": false,
          "name": "newThreshold",
          "type": "uint256"
        }
      ],
      "name": "ManagementThresholdChange",
      "type": "event"
    },
    {
      "anonymous": false,
      "inputs": [
        {
          "indexed": false,
          "name": "previousThreshold",
          "type": "uint256"
        },
        {
          "indexed": false,
          "name": "newThreshold",
          "type": "uint256"
        }
      ],
      "name": "ActionThresholdChange",
      "type": "event"
    },
    {
      "anonymous": false,
      "inputs": [
        {
          "indexed": true,
          "name": "previousMaster",
          "type": "address"
        },
        {
          "indexed": true,
          "name": "newMaster",
          "type": "address"
        }
      ],
      "name": "MasterChange",
      "type": "event"
    },
    {
      "anonymous": false,
      "inputs": [
        {
          "indexed": true,
          "name": "key",
          "type": "bytes32"
        },
        {
          "indexed": false,
          "name": "value",
          "type": "bytes"
        }
      ],
      "name": "DataChanged",
      "type": "event"
    },
    {
      "anonymous": false,
      "inputs": [
        {
          "indexed": true,
          "name": "contractAddress",
          "type": "address"
        }
      ],
      "name": "ContractCreated",
      "type": "event"
    },
    {
      "anonymous": false,
      "inputs": [
        {
          "indexed": true,
          "name": "to",
          "type": "address"
        }
      ],
      "name": "CallSuccess",
      "type": "event"
    },
    {
      "anonymous": false,
      "inputs": [
        {
          "indexed": true,
          "name": "to",
          "type": "address"
        },
        {
          "indexed": false,
          "name": "returndata",
          "type": "bytes"
        }
      ],
      "name": "CallFailure",
      "type": "event"
    }
  ]
}