{
  "abi": [
    {
      "constant": false,
      "inputs": [
        {
          "name": "key",
          "type": "bytes32"
        },
        {
          "name": "purpose",
          "type": "uint256"
        }
      ],
      "name": "setKey",
      "outputs": [],
      "payable": false,
      "stateMutability": "nonpayable",
      "type": "function"
    },
    {
      "constant": false,
      "inputs": [
        {
          "name": "key",
          "type": "bytes32"
        },
        {
          "name": "purpose",
          "type": "bytes32"
        }
      ],
      "name": "setKey",
      "outputs": [],
      "payable": false,
      "stateMutability": "nonpayable",
      "type": "function"
    },
    {
      "constant": false,
      "inputs": [
        {
          "name": "keys",
          "type": "bytes32[]"
        },
        {
          "name": "purposes",
          "type": "bytes32[]"
        },
        {
          "name": "managementThreshold",
          "type": "uint256"
        },
        {
          "name": "actionThreshold",
          "type": "uint256"
        }
      ],
      "name": "initialize",
      "outputs": [],
      "payable": false,
      "stateMutability": "nonpayable",
      "type": "function"
    },
    {
      "constant": true,
      "inputs": [
        {
          "name": "key",
          "type": "bytes32"
        }
      ],
      "name": "getKey",
      "outputs": [
        {
          "name": "",
          "type": "bytes32"
        }
      ],
      "payable": false,
      "stateMutability": "view",
      "type": "function"
    },
    {
      "constant": true,
      "inputs": [
        {
          "name": "data",
          "type": "bytes32"
        },
        {
          "name": "signature",
          "type": "bytes"
        }
      ],
      "name": "isValidSignature",
      "outputs": [
        {
          "name": "",
          "type": "bool"
        }
      ],
      "payable": false,
      "stateMutability": "view",
      "type": "function"
    },
    {
      "constant": false,
      "inputs": [
        {
          "name": "actionThreshold",
          "type": "uint256"
        }
      ],
      "name": "setActionThreshold",
      "outputs": [],
      "payable": false,
      "stateMutability": "nonpayable",
      "type": "function"
    },
    {
      "constant": false,
      "inputs": [
        {
          "name": "key",
          "type": "address"
        },
        {
          "name": "purpose",
          "type": "uint256"
        }
      ],
      "name": "setKey",
      "outputs": [],
      "payable": false,
      "stateMutability": "nonpayable",
      "type": "function"
    },
    {
      "constant": false,
      "inputs": [
        {
          "name": "key",
          "type": "address"
        },
        {
          "name": "purpose",
          "type": "bytes32"
        }
      ],
      "name": "setKey",
      "outputs": [],
      "payable": false,
      "stateMutability": "nonpayable",
      "type": "function"
    },
    {
      "constant": false,
      "inputs": [
        {
          "name": "operationType",
          "type": "uint256"
        },
        {
          "name": "to",
          "type": "address"
        },
        {
          "name": "value",
          "type": "uint256"
        },
        {
          "name": "data",
          "type": "bytes"
        }
      ],
      "name": "execute",
      "outputs": [],
      "payable": false,
      "stateMutability": "nonpayable",
      "type": "function"
    },
    {
      "constant": true,
      "inputs": [],
      "name": "masterId",
      "outputs": [
        {
          "name": "",
          "type": "bytes32"
        }
      ],
      "payable": false,
      "stateMutability": "pure",
      "type": "function"
    },
    {
      "constant": true,
      "inputs": [
        {
          "name": "key",
          "type": "bytes32"
        }
      ],
      "name": "getData",
      "outputs": [
        {
          "name": "",
          "type": "bytes"
        }
      ],
      "payable": false,
      "stateMutability": "view",
      "type": "function"
    },
    {
      "constant": true,
      "inputs": [
        {
          "name": "key",
          "type": "address"
        },
        {
          "name": "purpose",
          "type": "uint256"
        }
      ],
      "name": "keyHasPurpose",
      "outputs": [
        {
          "name": "",
          "type": "bool"
        }
      ],
      "payable": false,
      "stateMutability": "view",
      "type": "function"
    },
    {
      "constant": true,
      "inputs": [
        {
          "name": "key",
          "type": "bytes32"
        },
        {
          "name": "purpose",
          "type": "bytes32"
        }
      ],
      "name": "keyHasPurpose",
      "outputs": [
        {
          "name": "",
          "type": "bool"
        }
      ],
      "payable": false,
      "stateMutability": "view",
      "type": "function"
    },
    {
      "constant": true,
      "inputs": [
        {
          "name": "addr",
          "type": "address"
        }
      ],
      "name": "addrToKey",
      "outputs": [
        {
          "name": "",
          "type": "bytes32"
        }
      ],
      "payable": false,
      "stateMutability": "pure",
      "type": "function"
    },
    {
      "constant": false,
      "inputs": [
        {
          "name": "newMaster",
          "type": "address"
        },
        {
          "name": "initData",
          "type": "bytes"
        },
        {
          "name": "reset",
          "type": "bool"
        }
      ],
      "name": "updateMaster",
      "outputs": [],
      "payable": false,
      "stateMutability": "nonpayable",
      "type": "function"
    },
    {
      "constant": false,
      "inputs": [
        {
          "name": "operationType",
          "type": "uint256"
        },
        {
          "name": "to",
          "type": "address"
        },
        {
          "name": "value",
          "type": "uint256"
        },
        {
          "name": "data",
          "type": "bytes"
        },
        {
          "name": "nonce",
          "type": "uint256"
        },
        {
          "name": "sigs",
          "type": "bytes[]"
        }
      ],
      "name": "execute",
      "outputs": [],
      "payable": false,
      "stateMutability": "nonpayable",
      "type": "function"
    },
    {
      "constant": false,
      "inputs": [
        {
          "name": "key",
          "type": "bytes32"
        },
        {
          "name": "value",
          "type": "bytes"
        }
      ],
      "name": "setData",
      "outputs": [],
      "payable": false,
      "stateMutability": "nonpayable",
      "type": "function"
    },
    {
      "constant": true,
      "inputs": [],
      "name": "getActiveKeys",
      "outputs": [
        {
          "name": "",
          "type": "bytes32[]"
        }
      ],
      "payable": false,
      "stateMutability": "view",
      "type": "function"
    },
    {
      "constant": true,
      "inputs": [],
      "name": "owner",
      "outputs": [
        {
          "name": "",
          "type": "address"
        }
      ],
      "payable": false,
      "stateMutability": "view",
      "type": "function"
    },
    {
      "constant": true,
      "inputs": [],
      "name": "getManagementThreshold",
      "outputs": [
        {
          "name": "",
          "type": "uint256"
        }
      ],
      "payable": false,
      "stateMutability": "view",
      "type": "function"
    },
    {
      "constant": true,
      "inputs": [
        {
          "name": "key",
          "type": "address"
        }
      ],
      "name": "getKey",
      "outputs": [
        {
          "name": "",
          "type": "bytes32"
        }
      ],
      "payable": false,
      "stateMutability": "view",
      "type": "function"
    },
    {
      "constant": true,
      "inputs": [],
      "name": "getManagementKeyCount",
      "outputs": [
        {
          "name": "",
          "type": "uint256"
        }
      ],
      "payable": false,
      "stateMutability": "view",
      "type": "function"
    },
    {
      "constant": true,
      "inputs": [],
      "name": "nonce",
      "outputs": [
        {
          "name": "",
          "type": "uint256"
        }
      ],
      "payable": false,
      "stateMutability": "view",
      "type": "function"
    },
    {
      "constant": true,
      "inputs": [
        {
          "name": "key",
          "type": "bytes32"
        },
        {
          "name": "purpose",
          "type": "uint256"
        }
      ],
      "name": "keyHasPurpose",
      "outputs": [
        {
          "name": "",
          "type": "bool"
        }
      ],
      "payable": false,
      "stateMutability": "view",
      "type": "function"
    },
    {
      "constant": false,
      "inputs": [
        {
          "name": "managementThreshold",
          "type": "uint256"
        }
      ],
      "name": "setManagementThreshold",
      "outputs": [],
      "payable": false,
      "stateMutability": "nonpayable",
      "type": "function"
    },
    {
      "constant": true,
      "inputs": [],
      "name": "getActionThreshold",
      "outputs": [
        {
          "name": "",
          "type": "uint256"
        }
      ],
      "payable": false,
      "stateMutability": "view",
      "type": "function"
    },
    {
      "constant": true,
      "inputs": [],
      "name": "master",
      "outputs": [
        {
          "name": "",
          "type": "address"
        }
      ],
      "payable": false,
      "stateMutability": "view",
      "type": "function"
    },
    {
      "constant": true,
      "inputs": [
        {
          "name": "key",
          "type": "address"
        },
        {
          "name": "purpose",
          "type": "bytes32"
        }
      ],
      "name": "keyHasPurpose",
      "outputs": [
        {
          "name": "",
          "type": "bool"
        }
      ],
      "payable": false,
      "stateMutability": "view",
      "type": "function"
    },
    {
      "inputs": [],
      "payable": false,
      "stateMutability": "nonpayable",
      "type": "constructor"
    },
    {
      "payable": true,
      "stateMutability": "payable",
      "type": "fallback"
    },
    {
      "anonymous": false,
      "inputs": [
        {
          "indexed": true,
          "name": "key",
          "type": "bytes32"
        },
        {
          "indexed": true,
          "name": "previousPurpose",
          "type": "bytes32"
        },
        {
          "indexed": true,
          "name": "newPurpose",
          "type": "bytes32"
        }
      ],
      "name": "SetKey",
      "type": "event"
    },
    {
      "anonymous": false,
      "inputs": [
        {
          "indexed": false,
          "name": "previousThreshold",
          "type": "uint256"
        },
        {
          "indexed": false,
          "name": "newThreshold",
          "type": "uint256"
        }
      ],
      "name": "ManagementThresholdChange",
      "type": "event"
    },
    {
      "anonymous": false,
      "inputs": [
        {
          "indexed": false,
          "name": "previousThreshold",
          "type": "uint256"
        },
        {
          "indexed": false,
          "name": "newThreshold",
          "type": "uint256"
        }
      ],
      "name": "ActionThresholdChange",
      "type": "event"
    },
    {
      "anonymous": false,
      "inputs": [
        {
          "indexed": true,
          "name": "previousMaster",
          "type": "address"
        },
        {
          "indexed": true,
          "name": "newMaster",
          "type": "address"
        }
      ],
      "name": "MasterChange",
      "type": "event"
    },
    {
      "anonymous": false,
      "inputs": [
        {
          "indexed": true,
          "name": "key",
          "type": "bytes32"
        },
        {
          "indexed": false,
          "name": "value",
          "type": "bytes"
        }
      ],
      "name": "DataChanged",
      "type": "event"
    },
    {
      "anonymous": false,
      "inputs": [
        {
          "indexed": true,
          "name": "contractAddress",
          "type": "address"
        }
      ],
      "name": "ContractCreated",
      "type": "event"
    },
    {
      "anonymous": false,
      "inputs": [
        {
          "indexed": true,
          "name": "to",
          "type": "address"
        }
      ],
      "name": "CallSuccess",
      "type": "event"
    },
    {
      "anonymous": false,
      "inputs": [
        {
          "indexed": true,
          "name": "to",
          "type": "address"
        },
        {
          "indexed": false,
          "name": "returndata",
          "type": "bytes"
        }
      ],
      "name": "CallFailure",
      "type": "event"
    }
  ],
  "evm": {
    "bytecode": {
      "linkReferences": {},
      "object": "608060405234801561001057600080fd5b50611fb0806100206000396000f3fe6080604052600436106101b75760003560e01c8063646e55db116100ec578063aa4361b91161008a578063da84ddd111610064578063da84ddd114610461578063ea40df3a14610481578063ee97f7f314610496578063f2725bbe146102fe576101b7565b8063aa4361b914610437578063affed0e01461044c578063d202158d1461031e576101b7565b806383d2deb1116100c657806383d2deb1146103be5780638da5cb5b146103e05780638efee3b51461040257806393790f4414610417576101b7565b8063646e55db1461035e5780637d0a91721461037e5780637f23690c1461039e576101b7565b806335d8df481161015957806354f6127f1161013357806354f6127f146102d15780635e6261fa146102fe57806363ebc4dd1461031e57806363f14c3c1461033e576101b7565b806335d8df481461027c57806344c028fe1461029c5780635122bb7c146102bc576101b7565b806312aaac701161019557806312aaac70146101f95780631626ba7e1461022f57806319a397401461025c5780631c5e56a01461027c576101b7565b806303f778de146101b957806307a00330146101b95780630eda0979146101d9575b005b3480156101c557600080fd5b506101b76101d436600461160f565b6104ab565b3480156101e557600080fd5b506101b76101f4366004611543565b6104fd565b34801561020557600080fd5b506102196102143660046115d3565b6105db565b6040516102269190611d01565b60405180910390f35b34801561023b57600080fd5b5061024f61024a36600461162e565b6105ed565b6040516102269190611cf3565b34801561026857600080fd5b506101b76102773660046115d3565b610615565b34801561028857600080fd5b506101b76102973660046114a4565b6106b0565b3480156102a857600080fd5b506101b76102b7366004611676565b6106fd565b3480156102c857600080fd5b5061021961074a565b3480156102dd57600080fd5b506102f16102ec3660046115d3565b61076f565b6040516102269190611d4d565b34801561030a57600080fd5b5061024f6103193660046114a4565b610810565b34801561032a57600080fd5b5061024f61033936600461160f565b610824565b34801561034a57600080fd5b5061021961035936600461147e565b610830565b34801561036a57600080fd5b506101b76103793660046114de565b61083c565b34801561038a57600080fd5b506101b76103993660046116e3565b6108ef565b3480156103aa57600080fd5b506101b76103b936600461162e565b610a87565b3480156103ca57600080fd5b506103d3610b1e565b6040516102269190611ce2565b3480156103ec57600080fd5b506103f5610b76565b6040516102269190611cd4565b34801561040e57600080fd5b50610219610b7a565b34801561042357600080fd5b5061021961043236600461147e565b610b80565b34801561044357600080fd5b50610219610ba5565b34801561045857600080fd5b50610219610bab565b34801561046d57600080fd5b506101b761047c3660046115d3565b610bb1565b34801561048d57600080fd5b50610219610c71565b3480156104a257600080fd5b506103f5610c77565b6104b3610b76565b6001600160a01b0316336001600160a01b0316146104ef57604051600160e51b62461bcd0281526004016104e690611d6e565b60405180910390fd5b6104f98282610c86565b5050565b600054600160a01b900460ff161561052a57604051600160e51b62461bcd0281526004016104e690611dae565b825184511461054e57604051600160e51b62461bcd0281526004016104e690611dce565b60005b84518110156105925761058a85828151811061056957fe5b602002602001015185838151811061057d57fe5b6020026020010151610c86565b600101610551565b508160065410156105b857604051600160e51b62461bcd0281526004016104e690611e1e565b600791909155600855505060008054600160a01b60ff021916600160a01b179055565b60009081526004602052604090205490565b600061060c610605610359858563ffffffff610e4716565b6004610824565b90505b92915050565b61061d610b76565b6001600160a01b0316336001600160a01b03161461065057604051600160e51b62461bcd0281526004016104e690611d6e565b8061067057604051600160e51b62461bcd0281526004016104e690611d7e565b7ffd0b44227dee5de3fa844ff17983688ade4471a8257d62ed2a48507168810d7a600854826040516106a3929190611e3e565b60405180910390a1600855565b6106b8610b76565b6001600160a01b0316336001600160a01b0316146106eb57604051600160e51b62461bcd0281526004016104e690611d6e565b6104f96106f783610830565b82610c86565b610705610b76565b6001600160a01b0316336001600160a01b03161461073857604051600160e51b62461bcd0281526004016104e690611d6e565b61074484848484610f23565b50505050565b7f1618fcec65bce0693e931d337fc12424ee920bf56c4a74bc8ddb1361328af2365b90565b60008181526003602090815260409182902080548351601f60026000196101006001861615020190931692909204918201849004840281018401909452808452606093928301828280156108045780601f106107d957610100808354040283529160200191610804565b820191906000526020600020905b8154815290600101906020018083116107e757829003601f168201915b50505050509050919050565b600061060c61081e84610830565b83611081565b600061060c8383611081565b6001600160a01b031690565b610844610b76565b6001600160a01b0316336001600160a01b03161461087757604051600160e51b62461bcd0281526004016104e690611d6e565b80156108e05760005b6005548110156108c357600460006005838154811061089b57fe5b9060005260206000200154815260200190815260200160002060009055806001019050610880565b506108d06005600061124e565b6000600681905560078190556008555b6108ea8383611097565b505050565b60018054810190819055821461091a57604051600160e51b62461bcd0281526004016104e690611dfe565b60006001600160a01b03861630141561095b576007548251101561095357604051600160e51b62461bcd0281526004016104e690611e0e565b506001610985565b6008548251101561098157604051600160e51b62461bcd0281526004016104e690611e0e565b5060025b60006109c7308989898980519060200120896040516020016109ac96959493929190611c37565b6040516020818303038152906040528051906020012061121e565b90506000805b8451811015610a6f5760006109fe8683815181106109e757fe5b602002602001015185610e4790919063ffffffff16565b9050826001600160a01b0316816001600160a01b031611610a3457604051600160e51b62461bcd0281526004016104e690611dbe565b610a46610a4082610830565b86610824565b610a6557604051600160e51b62461bcd0281526004016104e690611d8e565b91506001016109cd565b50610a7c89898989610f23565b505050505050505050565b610a8f610b76565b6001600160a01b0316336001600160a01b031614610ac257604051600160e51b62461bcd0281526004016104e690611d6e565b60008281526003602090815260409091208251610ae19284019061126f565b50817fece574603820d07bc9b91f2a932baadf4628aabcb8afba49776529c14a6104b282604051610b129190611d4d565b60405180910390a25050565b60606005805480602002602001604051908101604052809291908181526020018280548015610b6c57602002820191906000526020600020905b815481526020019060010190808311610b58575b5050505050905090565b3090565b60075490565b600060046000610b8f84610830565b8152602001908152602001600020549050919050565b60065490565b60015490565b610bb9610b76565b6001600160a01b0316336001600160a01b031614610bec57604051600160e51b62461bcd0281526004016104e690611d6e565b80610c0c57604051600160e51b62461bcd0281526004016104e690611d7e565b806006541015610c3157604051600160e51b62461bcd0281526004016104e690611dde565b7f9b1fc5ddbac8d6fac2661a57e7515dee9abf241f420629999d85f031919f4b4d60075482604051610c64929190611e3e565b60405180910390a1600755565b60085490565b6000546001600160a01b031690565b60008281526004602052604090205419600116158015610ca7575060018116155b15610cb757600680546000190190555b600082815260046020526040902054600116158015610cd857506001811916155b15610ce7576006805460010190555b6007546006541015610d0e57604051600160e51b62461bcd0281526004016104e690611d9e565b600082815260046020526040902054610d5757600580546001810182556000919091527f036b6384b5eca791c62761152d0c79bb0604c104a5fb6f4eb0703f3154bb3db0018290555b600082815260046020526040808220549051839285917f82f65b599219dc2719c1104b915b860b397dc476d20c4df48810a72bb8ad1e5b9190a46000828152600460205260409020819055806104f95760005b6005548110156108ea578260058281548110610dc257fe5b90600052602060002001541415610e3f57600580546000198101908110610de557fe5b906000526020600020015460058281548110610dfd57fe5b600091825260209091200155600580546000198101908110610e1b57fe5b60009182526020822001556005805490610e399060001983016112ed565b506108ea565b600101610daa565b60008151604114610e5a5750600061060f565b60208201516040830151606084015160001a7f7fffffffffffffffffffffffffffffff5d576e7357a4501ddfe92f46681b20a0821115610ea0576000935050505061060f565b8060ff16601b14158015610eb857508060ff16601c14155b15610ec9576000935050505061060f565b60018682858560405160008152602001604052604051610eec9493929190611d0f565b6020604051602081039080840390855afa158015610f0e573d6000803e3d6000fd5b5050604051601f190151979650505050505050565b836110155760006060846001600160a01b03168484604051610f459190611ca1565b60006040518083038185875af1925050503d8060008114610f82576040519150601f19603f3d011682016040523d82523d6000602084013e610f87565b606091505b5090925090508115610fcc576040516001600160a01b038616907f7c940052472fd1d616012dc780a92c777783e8f45cdb6802d1d48891cd33a50890600090a261100e565b846001600160a01b03167f4b0b4377cb27b4634a3573214783294886bc4e04f64fa75d3f5469fb26393462826040516110059190611d4d565b60405180910390a25b5050610744565b60018414156110665760008151602083016000f06040519091506001600160a01b038216907fcf78cf0d6f3d8371e1075c69c492ab4ec5d8cf23a1a239b6a51a1d00be7ca31290600090a250610744565b604051600160e51b62461bcd0281526004016104e690611dee565b6000918252600460205260409091205419161590565b7f1618fcec65bce0693e931d337fc12424ee920bf56c4a74bc8ddb1361328af23660001b826001600160a01b0316635122bb7c6040518163ffffffff1660e01b815260040160206040518083038186803b1580156110f457600080fd5b505afa158015611108573d6000803e3d6000fd5b505050506040513d601f19601f8201168201806040525061112c91908101906115f1565b1461114c57604051600160e51b62461bcd0281526004016104e690611e2e565b600080546040516001600160a01b03808616939216917fb177a4a05a82a0d82537f71956f554ee3d2d0f32a76c0b056e0490778be10ab491a3600080546001600160a01b0319166001600160a01b038416908117600160a01b60ff02191682556040516111ba908490611ca1565b600060405180830381855af49150503d80600081146111f5576040519150601f19603f3d011682016040523d82523d6000602084013e6111fa565b606091505b50509050806108ea57604051600160e51b62461bcd0281526004016104e690611d5e565b6000816040516020016112319190611cb4565b604051602081830303815290604052805190602001209050919050565b508054600082559060005260206000209081019061126c919061130d565b50565b828054600181600116156101000203166002900490600052602060002090601f016020900481019282601f106112b057805160ff19168380011785556112dd565b828001600101855582156112dd579182015b828111156112dd5782518255916020019190600101906112c2565b506112e992915061130d565b5090565b8154818355818111156108ea576000838152602090206108ea9181019083015b61076c91905b808211156112e95760008155600101611313565b803561060f81611f50565b600082601f83011261134357600080fd5b813561135661135182611e80565b611e59565b9150818183526020840193506020810190508385602084028201111561137b57600080fd5b60005b838110156113a757816113918882611419565b845250602092830192919091019060010161137e565b5050505092915050565b600082601f8301126113c257600080fd5b81356113d061135182611e80565b81815260209384019390925082018360005b838110156113a757813586016113f8888261142f565b84525060209283019291909101906001016113e2565b803561060f81611f64565b803561060f81611f6d565b805161060f81611f6d565b600082601f83011261144057600080fd5b813561144e61135182611ea1565b9150808252602083016020830185838301111561146a57600080fd5b611475838284611ef7565b50505092915050565b60006020828403121561149057600080fd5b600061149c8484611327565b949350505050565b600080604083850312156114b757600080fd5b60006114c38585611327565b92505060206114d485828601611419565b9150509250929050565b6000806000606084860312156114f357600080fd5b60006114ff8686611327565b935050602084013567ffffffffffffffff81111561151c57600080fd5b6115288682870161142f565b92505060406115398682870161140e565b9150509250925092565b6000806000806080858703121561155957600080fd5b843567ffffffffffffffff81111561157057600080fd5b61157c87828801611332565b945050602085013567ffffffffffffffff81111561159957600080fd5b6115a587828801611332565b93505060406115b687828801611419565b92505060606115c787828801611419565b91505092959194509250565b6000602082840312156115e557600080fd5b600061149c8484611419565b60006020828403121561160357600080fd5b600061149c8484611424565b6000806040838503121561162257600080fd5b60006114c38585611419565b6000806040838503121561164157600080fd5b600061164d8585611419565b925050602083013567ffffffffffffffff81111561166a57600080fd5b6114d48582860161142f565b6000806000806080858703121561168c57600080fd5b60006116988787611419565b94505060206116a987828801611327565b93505060406116ba87828801611419565b925050606085013567ffffffffffffffff8111156116d757600080fd5b6115c78782880161142f565b60008060008060008060c087890312156116fc57600080fd5b60006117088989611419565b965050602061171989828a01611327565b955050604061172a89828a01611419565b945050606087013567ffffffffffffffff81111561174757600080fd5b61175389828a0161142f565b935050608061176489828a01611419565b92505060a087013567ffffffffffffffff81111561178157600080fd5b61178d89828a016113b1565b9150509295509295509295565b60006117a68383611830565b505060200190565b6117bf6117ba82611ee1565b611f2f565b82525050565b6117bf81611ee1565b60006117d982611ecf565b6117e38185611ed3565b93506117ee83611ec9565b8060005b8381101561181c578151611806888261179a565b975061181183611ec9565b9250506001016117f2565b509495945050505050565b6117bf81611eec565b6117bf8161076c565b6117bf6118458261076c565b61076c565b600061185582611ecf565b61185f8185611ed3565b935061186f818560208601611f03565b61187881611f40565b9093019392505050565b600061188d82611ecf565b6118978185611edc565b93506118a7818560208601611f03565b9290920192915050565b60006118be601483611ed3565b7f6661696c65642d746f2d696e697469616c697a65000000000000000000000000815260200192915050565b60006118f7601c83611edc565b7f19457468657265756d205369676e6564204d6573736167653a0a3332000000008152601c0192915050565b6000611930600d83611ed3565b7f6163636573732d64656e69656400000000000000000000000000000000000000815260200192915050565b6000611969601183611ed3565b7f7468726573686f6c642d746f6f2d6c6f77000000000000000000000000000000815260200192915050565b60006119a2601183611ed3565b7f696e76616c69642d7369676e6174757265000000000000000000000000000000815260200192915050565b60006119db602583611ed3565b7f63616e6e6f742d72656d6f76652d637269746963616c2d6d616e6167656d656e8152600160d81b64742d6b657902602082015260400192915050565b6000611a25601383611ed3565b7f616c72656164792d696e697469616c697a656400000000000000000000000000815260200192915050565b6000611a5e601b83611ed3565b7f696e76616c69642d7369676e6174757265732d6f72646572696e670000000000815260200192915050565b6000611a97602983611ed3565b7f6b65792d616e642d707572706f73652d61727261792d6d7573742d686176652d8152600160b81b6873616d652d73697a6502602082015260400192915050565b6000611ae5601283611ed3565b7f7468726573686f6c642d746f6f2d686967680000000000000000000000000000815260200192915050565b6000611b1e601683611ed3565b7f696e76616c69642d6f7065726174696f6e2d7479706500000000000000000000815260200192915050565b6000611b57600d83611ed3565b7f696e76616c69642d6e6f6e636500000000000000000000000000000000000000815260200192915050565b6000611b90600f83611ed3565b7f6d697373696e672d7369676e6572730000000000000000000000000000000000815260200192915050565b6000611bc9601a83611ed3565b7f6e6f742d656e6f7567682d6d616e6167656d656e742d6b657973000000000000815260200192915050565b6000611c02601383611ed3565b7f696e76616c69642d6d61737465722d7575696400000000000000000000000000815260200192915050565b6117bf81611ef1565b6000611c4382896117ae565b601482019150611c538288611839565b602082019150611c6382876117ae565b601482019150611c738286611839565b602082019150611c838285611839565b602082019150611c938284611839565b506020019695505050505050565b6000611cad8284611882565b9392505050565b6000611cbf826118ea565b9150611ccb8284611839565b50602001919050565b6020810161060f82846117c5565b6020808252810161060c81846117ce565b6020810161060f8284611827565b6020810161060f8284611830565b60808101611d1d8287611830565b611d2a6020830186611c2e565b611d376040830185611830565b611d446060830184611830565b95945050505050565b6020808252810161060c818461184a565b6020808252810161060f816118b1565b6020808252810161060f81611923565b6020808252810161060f8161195c565b6020808252810161060f81611995565b6020808252810161060f816119ce565b6020808252810161060f81611a18565b6020808252810161060f81611a51565b6020808252810161060f81611a8a565b6020808252810161060f81611ad8565b6020808252810161060f81611b11565b6020808252810161060f81611b4a565b6020808252810161060f81611b83565b6020808252810161060f81611bbc565b6020808252810161060f81611bf5565b60408101611e4c8285611830565b611cad6020830184611830565b60405181810167ffffffffffffffff81118282101715611e7857600080fd5b604052919050565b600067ffffffffffffffff821115611e9757600080fd5b5060209081020190565b600067ffffffffffffffff821115611eb857600080fd5b506020601f91909101601f19160190565b60200190565b5190565b90815260200190565b919050565b600061060f82610830565b151590565b60ff1690565b82818337506000910152565b60005b83811015611f1e578181015183820152602001611f06565b838111156107445750506000910152565b600061060f82600061060f82611f4a565b601f01601f191690565b60601b90565b611f5981611ee1565b811461126c57600080fd5b611f5981611eec565b611f598161076c56fea265627a7a723058201282f7aa4f72cfd6db2e2c391968edeb7d473b53415256dceb06d6908437fbaf6c6578706572696d656e74616cf50037",
      "opcodes": "PUSH1 0x80 PUSH1 0x40 MSTORE CALLVALUE DUP1 ISZERO PUSH2 0x10 JUMPI PUSH1 0x0 DUP1 REVERT JUMPDEST POP PUSH2 0x1FB0 DUP1 PUSH2 0x20 PUSH1 0x0 CODECOPY PUSH1 0x0 RETURN INVALID PUSH1 0x80 PUSH1 0x40 MSTORE PUSH1 0x4 CALLDATASIZE LT PUSH2 0x1B7 JUMPI PUSH1 0x0 CALLDATALOAD PUSH1 0xE0 SHR DUP1 PUSH4 0x646E55DB GT PUSH2 0xEC JUMPI DUP1 PUSH4 0xAA4361B9 GT PUSH2 0x8A JUMPI DUP1 PUSH4 0xDA84DDD1 GT PUSH2 0x64 JUMPI DUP1 PUSH4 0xDA84DDD1 EQ PUSH2 0x461 JUMPI DUP1 PUSH4 0xEA40DF3A EQ PUSH2 0x481 JUMPI DUP1 PUSH4 0xEE97F7F3 EQ PUSH2 0x496 JUMPI DUP1 PUSH4 0xF2725BBE EQ PUSH2 0x2FE JUMPI PUSH2 0x1B7 JUMP JUMPDEST DUP1 PUSH4 0xAA4361B9 EQ PUSH2 0x437 JUMPI DUP1 PUSH4 0xAFFED0E0 EQ PUSH2 0x44C JUMPI DUP1 PUSH4 0xD202158D EQ PUSH2 0x31E JUMPI PUSH2 0x1B7 JUMP JUMPDEST DUP1 PUSH4 0x83D2DEB1 GT PUSH2 0xC6 JUMPI DUP1 PUSH4 0x83D2DEB1 EQ PUSH2 0x3BE JUMPI DUP1 PUSH4 0x8DA5CB5B EQ PUSH2 0x3E0 JUMPI DUP1 PUSH4 0x8EFEE3B5 EQ PUSH2 0x402 JUMPI DUP1 PUSH4 0x93790F44 EQ PUSH2 0x417 JUMPI PUSH2 0x1B7 JUMP JUMPDEST DUP1 PUSH4 0x646E55DB EQ PUSH2 0x35E JUMPI DUP1 PUSH4 0x7D0A9172 EQ PUSH2 0x37E JUMPI DUP1 PUSH4 0x7F23690C EQ PUSH2 0x39E JUMPI PUSH2 0x1B7 JUMP JUMPDEST DUP1 PUSH4 0x35D8DF48 GT PUSH2 0x159 JUMPI DUP1 PUSH4 0x54F6127F GT PUSH2 0x133 JUMPI DUP1 PUSH4 0x54F6127F EQ PUSH2 0x2D1 JUMPI DUP1 PUSH4 0x5E6261FA EQ PUSH2 0x2FE JUMPI DUP1 PUSH4 0x63EBC4DD EQ PUSH2 0x31E JUMPI DUP1 PUSH4 0x63F14C3C EQ PUSH2 0x33E JUMPI PUSH2 0x1B7 JUMP JUMPDEST DUP1 PUSH4 0x35D8DF48 EQ PUSH2 0x27C JUMPI DUP1 PUSH4 0x44C028FE EQ PUSH2 0x29C JUMPI DUP1 PUSH4 0x5122BB7C EQ PUSH2 0x2BC JUMPI PUSH2 0x1B7 JUMP JUMPDEST DUP1 PUSH4 0x12AAAC70 GT PUSH2 0x195 JUMPI DUP1 PUSH4 0x12AAAC70 EQ PUSH2 0x1F9 JUMPI DUP1 PUSH4 0x1626BA7E EQ PUSH2 0x22F JUMPI DUP1 PUSH4 0x19A39740 EQ PUSH2 0x25C JUMPI DUP1 PUSH4 0x1C5E56A0 EQ PUSH2 0x27C JUMPI PUSH2 0x1B7 JUMP JUMPDEST DUP1 PUSH4 0x3F778DE EQ PUSH2 0x1B9 JUMPI DUP1 PUSH4 0x7A00330 EQ PUSH2 0x1B9 JUMPI DUP1 PUSH4 0xEDA0979 EQ PUSH2 0x1D9 JUMPI JUMPDEST STOP JUMPDEST CALLVALUE DUP1 ISZERO PUSH2 0x1C5 JUMPI PUSH1 0x0 DUP1 REVERT JUMPDEST POP PUSH2 0x1B7 PUSH2 0x1D4 CALLDATASIZE PUSH1 0x4 PUSH2 0x160F JUMP JUMPDEST PUSH2 0x4AB JUMP JUMPDEST CALLVALUE DUP1 ISZERO PUSH2 0x1E5 JUMPI PUSH1 0x0 DUP1 REVERT JUMPDEST POP PUSH2 0x1B7 PUSH2 0x1F4 CALLDATASIZE PUSH1 0x4 PUSH2 0x1543 JUMP JUMPDEST PUSH2 0x4FD JUMP JUMPDEST CALLVALUE DUP1 ISZERO PUSH2 0x205 JUMPI PUSH1 0x0 DUP1 REVERT JUMPDEST POP PUSH2 0x219 PUSH2 0x214 CALLDATASIZE PUSH1 0x4 PUSH2 0x15D3 JUMP JUMPDEST PUSH2 0x5DB JUMP JUMPDEST PUSH1 0x40 MLOAD PUSH2 0x226 SWAP2 SWAP1 PUSH2 0x1D01 JUMP JUMPDEST PUSH1 0x40 MLOAD DUP1 SWAP2 SUB SWAP1 RETURN JUMPDEST CALLVALUE DUP1 ISZERO PUSH2 0x23B JUMPI PUSH1 0x0 DUP1 REVERT JUMPDEST POP PUSH2 0x24F PUSH2 0x24A CALLDATASIZE PUSH1 0x4 PUSH2 0x162E JUMP JUMPDEST PUSH2 0x5ED JUMP JUMPDEST PUSH1 0x40 MLOAD PUSH2 0x226 SWAP2 SWAP1 PUSH2 0x1CF3 JUMP JUMPDEST CALLVALUE DUP1 ISZERO PUSH2 0x268 JUMPI PUSH1 0x0 DUP1 REVERT JUMPDEST POP PUSH2 0x1B7 PUSH2 0x277 CALLDATASIZE PUSH1 0x4 PUSH2 0x15D3 JUMP JUMPDEST PUSH2 0x615 JUMP JUMPDEST CALLVALUE DUP1 ISZERO PUSH2 0x288 JUMPI PUSH1 0x0 DUP1 REVERT JUMPDEST POP PUSH2 0x1B7 PUSH2 0x297 CALLDATASIZE PUSH1 0x4 PUSH2 0x14A4 JUMP JUMPDEST PUSH2 0x6B0 JUMP JUMPDEST CALLVALUE DUP1 ISZERO PUSH2 0x2A8 JUMPI PUSH1 0x0 DUP1 REVERT JUMPDEST POP PUSH2 0x1B7 PUSH2 0x2B7 CALLDATASIZE PUSH1 0x4 PUSH2 0x1676 JUMP JUMPDEST PUSH2 0x6FD JUMP JUMPDEST CALLVALUE DUP1 ISZERO PUSH2 0x2C8 JUMPI PUSH1 0x0 DUP1 REVERT JUMPDEST POP PUSH2 0x219 PUSH2 0x74A JUMP JUMPDEST CALLVALUE DUP1 ISZERO PUSH2 0x2DD JUMPI PUSH1 0x0 DUP1 REVERT JUMPDEST POP PUSH2 0x2F1 PUSH2 0x2EC CALLDATASIZE PUSH1 0x4 PUSH2 0x15D3 JUMP JUMPDEST PUSH2 0x76F JUMP JUMPDEST PUSH1 0x40 MLOAD PUSH2 0x226 SWAP2 SWAP1 PUSH2 0x1D4D JUMP JUMPDEST CALLVALUE DUP1 ISZERO PUSH2 0x30A JUMPI PUSH1 0x0 DUP1 REVERT JUMPDEST POP PUSH2 0x24F PUSH2 0x319 CALLDATASIZE PUSH1 0x4 PUSH2 0x14A4 JUMP JUMPDEST PUSH2 0x810 JUMP JUMPDEST CALLVALUE DUP1 ISZERO PUSH2 0x32A JUMPI PUSH1 0x0 DUP1 REVERT JUMPDEST POP PUSH2 0x24F PUSH2 0x339 CALLDATASIZE PUSH1 0x4 PUSH2 0x160F JUMP JUMPDEST PUSH2 0x824 JUMP JUMPDEST CALLVALUE DUP1 ISZERO PUSH2 0x34A JUMPI PUSH1 0x0 DUP1 REVERT JUMPDEST POP PUSH2 0x219 PUSH2 0x359 CALLDATASIZE PUSH1 0x4 PUSH2 0x147E JUMP JUMPDEST PUSH2 0x830 JUMP JUMPDEST CALLVALUE DUP1 ISZERO PUSH2 0x36A JUMPI PUSH1 0x0 DUP1 REVERT JUMPDEST POP PUSH2 0x1B7 PUSH2 0x379 CALLDATASIZE PUSH1 0x4 PUSH2 0x14DE JUMP JUMPDEST PUSH2 0x83C JUMP JUMPDEST CALLVALUE DUP1 ISZERO PUSH2 0x38A JUMPI PUSH1 0x0 DUP1 REVERT JUMPDEST POP PUSH2 0x1B7 PUSH2 0x399 CALLDATASIZE PUSH1 0x4 PUSH2 0x16E3 JUMP JUMPDEST PUSH2 0x8EF JUMP JUMPDEST CALLVALUE DUP1 ISZERO PUSH2 0x3AA JUMPI PUSH1 0x0 DUP1 REVERT JUMPDEST POP PUSH2 0x1B7 PUSH2 0x3B9 CALLDATASIZE PUSH1 0x4 PUSH2 0x162E JUMP JUMPDEST PUSH2 0xA87 JUMP JUMPDEST CALLVALUE DUP1 ISZERO PUSH2 0x3CA JUMPI PUSH1 0x0 DUP1 REVERT JUMPDEST POP PUSH2 0x3D3 PUSH2 0xB1E JUMP JUMPDEST PUSH1 0x40 MLOAD PUSH2 0x226 SWAP2 SWAP1 PUSH2 0x1CE2 JUMP JUMPDEST CALLVALUE DUP1 ISZERO PUSH2 0x3EC JUMPI PUSH1 0x0 DUP1 REVERT JUMPDEST POP PUSH2 0x3F5 PUSH2 0xB76 JUMP JUMPDEST PUSH1 0x40 MLOAD PUSH2 0x226 SWAP2 SWAP1 PUSH2 0x1CD4 JUMP JUMPDEST CALLVALUE DUP1 ISZERO PUSH2 0x40E JUMPI PUSH1 0x0 DUP1 REVERT JUMPDEST POP PUSH2 0x219 PUSH2 0xB7A JUMP JUMPDEST CALLVALUE DUP1 ISZERO PUSH2 0x423 JUMPI PUSH1 0x0 DUP1 REVERT JUMPDEST POP PUSH2 0x219 PUSH2 0x432 CALLDATASIZE PUSH1 0x4 PUSH2 0x147E JUMP JUMPDEST PUSH2 0xB80 JUMP JUMPDEST CALLVALUE DUP1 ISZERO PUSH2 0x443 JUMPI PUSH1 0x0 DUP1 REVERT JUMPDEST POP PUSH2 0x219 PUSH2 0xBA5 JUMP JUMPDEST CALLVALUE DUP1 ISZERO PUSH2 0x458 JUMPI PUSH1 0x0 DUP1 REVERT JUMPDEST POP PUSH2 0x219 PUSH2 0xBAB JUMP JUMPDEST CALLVALUE DUP1 ISZERO PUSH2 0x46D JUMPI PUSH1 0x0 DUP1 REVERT JUMPDEST POP PUSH2 0x1B7 PUSH2 0x47C CALLDATASIZE PUSH1 0x4 PUSH2 0x15D3 JUMP JUMPDEST PUSH2 0xBB1 JUMP JUMPDEST CALLVALUE DUP1 ISZERO PUSH2 0x48D JUMPI PUSH1 0x0 DUP1 REVERT JUMPDEST POP PUSH2 0x219 PUSH2 0xC71 JUMP JUMPDEST CALLVALUE DUP1 ISZERO PUSH2 0x4A2 JUMPI PUSH1 0x0 DUP1 REVERT JUMPDEST POP PUSH2 0x3F5 PUSH2 0xC77 JUMP JUMPDEST PUSH2 0x4B3 PUSH2 0xB76 JUMP JUMPDEST PUSH1 0x1 PUSH1 0x1 PUSH1 0xA0 SHL SUB AND CALLER PUSH1 0x1 PUSH1 0x1 PUSH1 0xA0 SHL SUB AND EQ PUSH2 0x4EF JUMPI PUSH1 0x40 MLOAD PUSH1 0x1 PUSH1 0xE5 SHL PUSH3 0x461BCD MUL DUP2 MSTORE PUSH1 0x4 ADD PUSH2 0x4E6 SWAP1 PUSH2 0x1D6E JUMP JUMPDEST PUSH1 0x40 MLOAD DUP1 SWAP2 SUB SWAP1 REVERT JUMPDEST PUSH2 0x4F9 DUP3 DUP3 PUSH2 0xC86 JUMP JUMPDEST POP POP JUMP JUMPDEST PUSH1 0x0 SLOAD PUSH1 0x1 PUSH1 0xA0 SHL SWAP1 DIV PUSH1 0xFF AND ISZERO PUSH2 0x52A JUMPI PUSH1 0x40 MLOAD PUSH1 0x1 PUSH1 0xE5 SHL PUSH3 0x461BCD MUL DUP2 MSTORE PUSH1 0x4 ADD PUSH2 0x4E6 SWAP1 PUSH2 0x1DAE JUMP JUMPDEST DUP3 MLOAD DUP5 MLOAD EQ PUSH2 0x54E JUMPI PUSH1 0x40 MLOAD PUSH1 0x1 PUSH1 0xE5 SHL PUSH3 0x461BCD MUL DUP2 MSTORE PUSH1 0x4 ADD PUSH2 0x4E6 SWAP1 PUSH2 0x1DCE JUMP JUMPDEST PUSH1 0x0 JUMPDEST DUP5 MLOAD DUP2 LT ISZERO PUSH2 0x592 JUMPI PUSH2 0x58A DUP6 DUP3 DUP2 MLOAD DUP2 LT PUSH2 0x569 JUMPI INVALID JUMPDEST PUSH1 0x20 MUL PUSH1 0x20 ADD ADD MLOAD DUP6 DUP4 DUP2 MLOAD DUP2 LT PUSH2 0x57D JUMPI INVALID JUMPDEST PUSH1 0x20 MUL PUSH1 0x20 ADD ADD MLOAD PUSH2 0xC86 JUMP JUMPDEST PUSH1 0x1 ADD PUSH2 0x551 JUMP JUMPDEST POP DUP2 PUSH1 0x6 SLOAD LT ISZERO PUSH2 0x5B8 JUMPI PUSH1 0x40 MLOAD PUSH1 0x1 PUSH1 0xE5 SHL PUSH3 0x461BCD MUL DUP2 MSTORE PUSH1 0x4 ADD PUSH2 0x4E6 SWAP1 PUSH2 0x1E1E JUMP JUMPDEST PUSH1 0x7 SWAP2 SWAP1 SWAP2 SSTORE PUSH1 0x8 SSTORE POP POP PUSH1 0x0 DUP1 SLOAD PUSH1 0x1 PUSH1 0xA0 SHL PUSH1 0xFF MUL NOT AND PUSH1 0x1 PUSH1 0xA0 SHL OR SWAP1 SSTORE JUMP JUMPDEST PUSH1 0x0 SWAP1 DUP2 MSTORE PUSH1 0x4 PUSH1 0x20 MSTORE PUSH1 0x40 SWAP1 KECCAK256 SLOAD SWAP1 JUMP JUMPDEST PUSH1 0x0 PUSH2 0x60C PUSH2 0x605 PUSH2 0x359 DUP6 DUP6 PUSH4 0xFFFFFFFF PUSH2 0xE47 AND JUMP JUMPDEST PUSH1 0x4 PUSH2 0x824 JUMP JUMPDEST SWAP1 POP JUMPDEST SWAP3 SWAP2 POP POP JUMP JUMPDEST PUSH2 0x61D PUSH2 0xB76 JUMP JUMPDEST PUSH1 0x1 PUSH1 0x1 PUSH1 0xA0 SHL SUB AND CALLER PUSH1 0x1 PUSH1 0x1 PUSH1 0xA0 SHL SUB AND EQ PUSH2 0x650 JUMPI PUSH1 0x40 MLOAD PUSH1 0x1 PUSH1 0xE5 SHL PUSH3 0x461BCD MUL DUP2 MSTORE PUSH1 0x4 ADD PUSH2 0x4E6 SWAP1 PUSH2 0x1D6E JUMP JUMPDEST DUP1 PUSH2 0x670 JUMPI PUSH1 0x40 MLOAD PUSH1 0x1 PUSH1 0xE5 SHL PUSH3 0x461BCD MUL DUP2 MSTORE PUSH1 0x4 ADD PUSH2 0x4E6 SWAP1 PUSH2 0x1D7E JUMP JUMPDEST PUSH32 0xFD0B44227DEE5DE3FA844FF17983688ADE4471A8257D62ED2A48507168810D7A PUSH1 0x8 SLOAD DUP3 PUSH1 0x40 MLOAD PUSH2 0x6A3 SWAP3 SWAP2 SWAP1 PUSH2 0x1E3E JUMP JUMPDEST PUSH1 0x40 MLOAD DUP1 SWAP2 SUB SWAP1 LOG1 PUSH1 0x8 SSTORE JUMP JUMPDEST PUSH2 0x6B8 PUSH2 0xB76 JUMP JUMPDEST PUSH1 0x1 PUSH1 0x1 PUSH1 0xA0 SHL SUB AND CALLER PUSH1 0x1 PUSH1 0x1 PUSH1 0xA0 SHL SUB AND EQ PUSH2 0x6EB JUMPI PUSH1 0x40 MLOAD PUSH1 0x1 PUSH1 0xE5 SHL PUSH3 0x461BCD MUL DUP2 MSTORE PUSH1 0x4 ADD PUSH2 0x4E6 SWAP1 PUSH2 0x1D6E JUMP JUMPDEST PUSH2 0x4F9 PUSH2 0x6F7 DUP4 PUSH2 0x830 JUMP JUMPDEST DUP3 PUSH2 0xC86 JUMP JUMPDEST PUSH2 0x705 PUSH2 0xB76 JUMP JUMPDEST PUSH1 0x1 PUSH1 0x1 PUSH1 0xA0 SHL SUB AND CALLER PUSH1 0x1 PUSH1 0x1 PUSH1 0xA0 SHL SUB AND EQ PUSH2 0x738 JUMPI PUSH1 0x40 MLOAD PUSH1 0x1 PUSH1 0xE5 SHL PUSH3 0x461BCD MUL DUP2 MSTORE PUSH1 0x4 ADD PUSH2 0x4E6 SWAP1 PUSH2 0x1D6E JUMP JUMPDEST PUSH2 0x744 DUP5 DUP5 DUP5 DUP5 PUSH2 0xF23 JUMP JUMPDEST POP POP POP POP JUMP JUMPDEST PUSH32 0x1618FCEC65BCE0693E931D337FC12424EE920BF56C4A74BC8DDB1361328AF236 JUMPDEST SWAP1 JUMP JUMPDEST PUSH1 0x0 DUP2 DUP2 MSTORE PUSH1 0x3 PUSH1 0x20 SWAP1 DUP2 MSTORE PUSH1 0x40 SWAP2 DUP3 SWAP1 KECCAK256 DUP1 SLOAD DUP4 MLOAD PUSH1 0x1F PUSH1 0x2 PUSH1 0x0 NOT PUSH2 0x100 PUSH1 0x1 DUP7 AND ISZERO MUL ADD SWAP1 SWAP4 AND SWAP3 SWAP1 SWAP3 DIV SWAP2 DUP3 ADD DUP5 SWAP1 DIV DUP5 MUL DUP2 ADD DUP5 ADD SWAP1 SWAP5 MSTORE DUP1 DUP5 MSTORE PUSH1 0x60 SWAP4 SWAP3 DUP4 ADD DUP3 DUP3 DUP1 ISZERO PUSH2 0x804 JUMPI DUP1 PUSH1 0x1F LT PUSH2 0x7D9 JUMPI PUSH2 0x100 DUP1 DUP4 SLOAD DIV MUL DUP4 MSTORE SWAP2 PUSH1 0x20 ADD SWAP2 PUSH2 0x804 JUMP JUMPDEST DUP3 ADD SWAP2 SWAP1 PUSH1 0x0 MSTORE PUSH1 0x20 PUSH1 0x0 KECCAK256 SWAP1 JUMPDEST DUP2 SLOAD DUP2 MSTORE SWAP1 PUSH1 0x1 ADD SWAP1 PUSH1 0x20 ADD DUP1 DUP4 GT PUSH2 0x7E7 JUMPI DUP3 SWAP1 SUB PUSH1 0x1F AND DUP3 ADD SWAP2 JUMPDEST POP POP POP POP POP SWAP1 POP SWAP2 SWAP1 POP JUMP JUMPDEST PUSH1 0x0 PUSH2 0x60C PUSH2 0x81E DUP5 PUSH2 0x830 JUMP JUMPDEST DUP4 PUSH2 0x1081 JUMP JUMPDEST PUSH1 0x0 PUSH2 0x60C DUP4 DUP4 PUSH2 0x1081 JUMP JUMPDEST PUSH1 0x1 PUSH1 0x1 PUSH1 0xA0 SHL SUB AND SWAP1 JUMP JUMPDEST PUSH2 0x844 PUSH2 0xB76 JUMP JUMPDEST PUSH1 0x1 PUSH1 0x1 PUSH1 0xA0 SHL SUB AND CALLER PUSH1 0x1 PUSH1 0x1 PUSH1 0xA0 SHL SUB AND EQ PUSH2 0x877 JUMPI PUSH1 0x40 MLOAD PUSH1 0x1 PUSH1 0xE5 SHL PUSH3 0x461BCD MUL DUP2 MSTORE PUSH1 0x4 ADD PUSH2 0x4E6 SWAP1 PUSH2 0x1D6E JUMP JUMPDEST DUP1 ISZERO PUSH2 0x8E0 JUMPI PUSH1 0x0 JUMPDEST PUSH1 0x5 SLOAD DUP2 LT ISZERO PUSH2 0x8C3 JUMPI PUSH1 0x4 PUSH1 0x0 PUSH1 0x5 DUP4 DUP2 SLOAD DUP2 LT PUSH2 0x89B JUMPI INVALID JUMPDEST SWAP1 PUSH1 0x0 MSTORE PUSH1 0x20 PUSH1 0x0 KECCAK256 ADD SLOAD DUP2 MSTORE PUSH1 0x20 ADD SWAP1 DUP2 MSTORE PUSH1 0x20 ADD PUSH1 0x0 KECCAK256 PUSH1 0x0 SWAP1 SSTORE DUP1 PUSH1 0x1 ADD SWAP1 POP PUSH2 0x880 JUMP JUMPDEST POP PUSH2 0x8D0 PUSH1 0x5 PUSH1 0x0 PUSH2 0x124E JUMP JUMPDEST PUSH1 0x0 PUSH1 0x6 DUP2 SWAP1 SSTORE PUSH1 0x7 DUP2 SWAP1 SSTORE PUSH1 0x8 SSTORE JUMPDEST PUSH2 0x8EA DUP4 DUP4 PUSH2 0x1097 JUMP JUMPDEST POP POP POP JUMP JUMPDEST PUSH1 0x1 DUP1 SLOAD DUP2 ADD SWAP1 DUP2 SWAP1 SSTORE DUP3 EQ PUSH2 0x91A JUMPI PUSH1 0x40 MLOAD PUSH1 0x1 PUSH1 0xE5 SHL PUSH3 0x461BCD MUL DUP2 MSTORE PUSH1 0x4 ADD PUSH2 0x4E6 SWAP1 PUSH2 0x1DFE JUMP JUMPDEST PUSH1 0x0 PUSH1 0x1 PUSH1 0x1 PUSH1 0xA0 SHL SUB DUP7 AND ADDRESS EQ ISZERO PUSH2 0x95B JUMPI PUSH1 0x7 SLOAD DUP3 MLOAD LT ISZERO PUSH2 0x953 JUMPI PUSH1 0x40 MLOAD PUSH1 0x1 PUSH1 0xE5 SHL PUSH3 0x461BCD MUL DUP2 MSTORE PUSH1 0x4 ADD PUSH2 0x4E6 SWAP1 PUSH2 0x1E0E JUMP JUMPDEST POP PUSH1 0x1 PUSH2 0x985 JUMP JUMPDEST PUSH1 0x8 SLOAD DUP3 MLOAD LT ISZERO PUSH2 0x981 JUMPI PUSH1 0x40 MLOAD PUSH1 0x1 PUSH1 0xE5 SHL PUSH3 0x461BCD MUL DUP2 MSTORE PUSH1 0x4 ADD PUSH2 0x4E6 SWAP1 PUSH2 0x1E0E JUMP JUMPDEST POP PUSH1 0x2 JUMPDEST PUSH1 0x0 PUSH2 0x9C7 ADDRESS DUP10 DUP10 DUP10 DUP10 DUP1 MLOAD SWAP1 PUSH1 0x20 ADD KECCAK256 DUP10 PUSH1 0x40 MLOAD PUSH1 0x20 ADD PUSH2 0x9AC SWAP7 SWAP6 SWAP5 SWAP4 SWAP3 SWAP2 SWAP1 PUSH2 0x1C37 JUMP JUMPDEST PUSH1 0x40 MLOAD PUSH1 0x20 DUP2 DUP4 SUB SUB DUP2 MSTORE SWAP1 PUSH1 0x40 MSTORE DUP1 MLOAD SWAP1 PUSH1 0x20 ADD KECCAK256 PUSH2 0x121E JUMP JUMPDEST SWAP1 POP PUSH1 0x0 DUP1 JUMPDEST DUP5 MLOAD DUP2 LT ISZERO PUSH2 0xA6F JUMPI PUSH1 0x0 PUSH2 0x9FE DUP7 DUP4 DUP2 MLOAD DUP2 LT PUSH2 0x9E7 JUMPI INVALID JUMPDEST PUSH1 0x20 MUL PUSH1 0x20 ADD ADD MLOAD DUP6 PUSH2 0xE47 SWAP1 SWAP2 SWAP1 PUSH4 0xFFFFFFFF AND JUMP JUMPDEST SWAP1 POP DUP3 PUSH1 0x1 PUSH1 0x1 PUSH1 0xA0 SHL SUB AND DUP2 PUSH1 0x1 PUSH1 0x1 PUSH1 0xA0 SHL SUB AND GT PUSH2 0xA34 JUMPI PUSH1 0x40 MLOAD PUSH1 0x1 PUSH1 0xE5 SHL PUSH3 0x461BCD MUL DUP2 MSTORE PUSH1 0x4 ADD PUSH2 0x4E6 SWAP1 PUSH2 0x1DBE JUMP JUMPDEST PUSH2 0xA46 PUSH2 0xA40 DUP3 PUSH2 0x830 JUMP JUMPDEST DUP7 PUSH2 0x824 JUMP JUMPDEST PUSH2 0xA65 JUMPI PUSH1 0x40 MLOAD PUSH1 0x1 PUSH1 0xE5 SHL PUSH3 0x461BCD MUL DUP2 MSTORE PUSH1 0x4 ADD PUSH2 0x4E6 SWAP1 PUSH2 0x1D8E JUMP JUMPDEST SWAP2 POP PUSH1 0x1 ADD PUSH2 0x9CD JUMP JUMPDEST POP PUSH2 0xA7C DUP10 DUP10 DUP10 DUP10 PUSH2 0xF23 JUMP JUMPDEST POP POP POP POP POP POP POP POP POP JUMP JUMPDEST PUSH2 0xA8F PUSH2 0xB76 JUMP JUMPDEST PUSH1 0x1 PUSH1 0x1 PUSH1 0xA0 SHL SUB AND CALLER PUSH1 0x1 PUSH1 0x1 PUSH1 0xA0 SHL SUB AND EQ PUSH2 0xAC2 JUMPI PUSH1 0x40 MLOAD PUSH1 0x1 PUSH1 0xE5 SHL PUSH3 0x461BCD MUL DUP2 MSTORE PUSH1 0x4 ADD PUSH2 0x4E6 SWAP1 PUSH2 0x1D6E JUMP JUMPDEST PUSH1 0x0 DUP3 DUP2 MSTORE PUSH1 0x3 PUSH1 0x20 SWAP1 DUP2 MSTORE PUSH1 0x40 SWAP1 SWAP2 KECCAK256 DUP3 MLOAD PUSH2 0xAE1 SWAP3 DUP5 ADD SWAP1 PUSH2 0x126F JUMP JUMPDEST POP DUP2 PUSH32 0xECE574603820D07BC9B91F2A932BAADF4628AABCB8AFBA49776529C14A6104B2 DUP3 PUSH1 0x40 MLOAD PUSH2 0xB12 SWAP2 SWAP1 PUSH2 0x1D4D JUMP JUMPDEST PUSH1 0x40 MLOAD DUP1 SWAP2 SUB SWAP1 LOG2 POP POP JUMP JUMPDEST PUSH1 0x60 PUSH1 0x5 DUP1 SLOAD DUP1 PUSH1 0x20 MUL PUSH1 0x20 ADD PUSH1 0x40 MLOAD SWAP1 DUP2 ADD PUSH1 0x40 MSTORE DUP1 SWAP3 SWAP2 SWAP1 DUP2 DUP2 MSTORE PUSH1 0x20 ADD DUP3 DUP1 SLOAD DUP1 ISZERO PUSH2 0xB6C JUMPI PUSH1 0x20 MUL DUP3 ADD SWAP2 SWAP1 PUSH1 0x0 MSTORE PUSH1 0x20 PUSH1 0x0 KECCAK256 SWAP1 JUMPDEST DUP2 SLOAD DUP2 MSTORE PUSH1 0x20 ADD SWAP1 PUSH1 0x1 ADD SWAP1 DUP1 DUP4 GT PUSH2 0xB58 JUMPI JUMPDEST POP POP POP POP POP SWAP1 POP SWAP1 JUMP JUMPDEST ADDRESS SWAP1 JUMP JUMPDEST PUSH1 0x7 SLOAD SWAP1 JUMP JUMPDEST PUSH1 0x0 PUSH1 0x4 PUSH1 0x0 PUSH2 0xB8F DUP5 PUSH2 0x830 JUMP JUMPDEST DUP2 MSTORE PUSH1 0x20 ADD SWAP1 DUP2 MSTORE PUSH1 0x20 ADD PUSH1 0x0 KECCAK256 SLOAD SWAP1 POP SWAP2 SWAP1 POP JUMP JUMPDEST PUSH1 0x6 SLOAD SWAP1 JUMP JUMPDEST PUSH1 0x1 SLOAD SWAP1 JUMP JUMPDEST PUSH2 0xBB9 PUSH2 0xB76 JUMP JUMPDEST PUSH1 0x1 PUSH1 0x1 PUSH1 0xA0 SHL SUB AND CALLER PUSH1 0x1 PUSH1 0x1 PUSH1 0xA0 SHL SUB AND EQ PUSH2 0xBEC JUMPI PUSH1 0x40 MLOAD PUSH1 0x1 PUSH1 0xE5 SHL PUSH3 0x461BCD MUL DUP2 MSTORE PUSH1 0x4 ADD PUSH2 0x4E6 SWAP1 PUSH2 0x1D6E JUMP JUMPDEST DUP1 PUSH2 0xC0C JUMPI PUSH1 0x40 MLOAD PUSH1 0x1 PUSH1 0xE5 SHL PUSH3 0x461BCD MUL DUP2 MSTORE PUSH1 0x4 ADD PUSH2 0x4E6 SWAP1 PUSH2 0x1D7E JUMP JUMPDEST DUP1 PUSH1 0x6 SLOAD LT ISZERO PUSH2 0xC31 JUMPI PUSH1 0x40 MLOAD PUSH1 0x1 PUSH1 0xE5 SHL PUSH3 0x461BCD MUL DUP2 MSTORE PUSH1 0x4 ADD PUSH2 0x4E6 SWAP1 PUSH2 0x1DDE JUMP JUMPDEST PUSH32 0x9B1FC5DDBAC8D6FAC2661A57E7515DEE9ABF241F420629999D85F031919F4B4D PUSH1 0x7 SLOAD DUP3 PUSH1 0x40 MLOAD PUSH2 0xC64 SWAP3 SWAP2 SWAP1 PUSH2 0x1E3E JUMP JUMPDEST PUSH1 0x40 MLOAD DUP1 SWAP2 SUB SWAP1 LOG1 PUSH1 0x7 SSTORE JUMP JUMPDEST PUSH1 0x8 SLOAD SWAP1 JUMP JUMPDEST PUSH1 0x0 SLOAD PUSH1 0x1 PUSH1 0x1 PUSH1 0xA0 SHL SUB AND SWAP1 JUMP JUMPDEST PUSH1 0x0 DUP3 DUP2 MSTORE PUSH1 0x4 PUSH1 0x20 MSTORE PUSH1 0x40 SWAP1 KECCAK256 SLOAD NOT PUSH1 0x1 AND ISZERO DUP1 ISZERO PUSH2 0xCA7 JUMPI POP PUSH1 0x1 DUP2 AND ISZERO JUMPDEST ISZERO PUSH2 0xCB7 JUMPI PUSH1 0x6 DUP1 SLOAD PUSH1 0x0 NOT ADD SWAP1 SSTORE JUMPDEST PUSH1 0x0 DUP3 DUP2 MSTORE PUSH1 0x4 PUSH1 0x20 MSTORE PUSH1 0x40 SWAP1 KECCAK256 SLOAD PUSH1 0x1 AND ISZERO DUP1 ISZERO PUSH2 0xCD8 JUMPI POP PUSH1 0x1 DUP2 NOT AND ISZERO JUMPDEST ISZERO PUSH2 0xCE7 JUMPI PUSH1 0x6 DUP1 SLOAD PUSH1 0x1 ADD SWAP1 SSTORE JUMPDEST PUSH1 0x7 SLOAD PUSH1 0x6 SLOAD LT ISZERO PUSH2 0xD0E JUMPI PUSH1 0x40 MLOAD PUSH1 0x1 PUSH1 0xE5 SHL PUSH3 0x461BCD MUL DUP2 MSTORE PUSH1 0x4 ADD PUSH2 0x4E6 SWAP1 PUSH2 0x1D9E JUMP JUMPDEST PUSH1 0x0 DUP3 DUP2 MSTORE PUSH1 0x4 PUSH1 0x20 MSTORE PUSH1 0x40 SWAP1 KECCAK256 SLOAD PUSH2 0xD57 JUMPI PUSH1 0x5 DUP1 SLOAD PUSH1 0x1 DUP2 ADD DUP3 SSTORE PUSH1 0x0 SWAP2 SWAP1 SWAP2 MSTORE PUSH32 0x36B6384B5ECA791C62761152D0C79BB0604C104A5FB6F4EB0703F3154BB3DB0 ADD DUP3 SWAP1 SSTORE JUMPDEST PUSH1 0x0 DUP3 DUP2 MSTORE PUSH1 0x4 PUSH1 0x20 MSTORE PUSH1 0x40 DUP1 DUP3 KECCAK256 SLOAD SWAP1 MLOAD DUP4 SWAP3 DUP6 SWAP2 PUSH32 0x82F65B599219DC2719C1104B915B860B397DC476D20C4DF48810A72BB8AD1E5B SWAP2 SWAP1 LOG4 PUSH1 0x0 DUP3 DUP2 MSTORE PUSH1 0x4 PUSH1 0x20 MSTORE PUSH1 0x40 SWAP1 KECCAK256 DUP2 SWAP1 SSTORE DUP1 PUSH2 0x4F9 JUMPI PUSH1 0x0 JUMPDEST PUSH1 0x5 SLOAD DUP2 LT ISZERO PUSH2 0x8EA JUMPI DUP3 PUSH1 0x5 DUP3 DUP2 SLOAD DUP2 LT PUSH2 0xDC2 JUMPI INVALID JUMPDEST SWAP1 PUSH1 0x0 MSTORE PUSH1 0x20 PUSH1 0x0 KECCAK256 ADD SLOAD EQ ISZERO PUSH2 0xE3F JUMPI PUSH1 0x5 DUP1 SLOAD PUSH1 0x0 NOT DUP2 ADD SWAP1 DUP2 LT PUSH2 0xDE5 JUMPI INVALID JUMPDEST SWAP1 PUSH1 0x0 MSTORE PUSH1 0x20 PUSH1 0x0 KECCAK256 ADD SLOAD PUSH1 0x5 DUP3 DUP2 SLOAD DUP2 LT PUSH2 0xDFD JUMPI INVALID JUMPDEST PUSH1 0x0 SWAP2 DUP3 MSTORE PUSH1 0x20 SWAP1 SWAP2 KECCAK256 ADD SSTORE PUSH1 0x5 DUP1 SLOAD PUSH1 0x0 NOT DUP2 ADD SWAP1 DUP2 LT PUSH2 0xE1B JUMPI INVALID JUMPDEST PUSH1 0x0 SWAP2 DUP3 MSTORE PUSH1 0x20 DUP3 KECCAK256 ADD SSTORE PUSH1 0x5 DUP1 SLOAD SWAP1 PUSH2 0xE39 SWAP1 PUSH1 0x0 NOT DUP4 ADD PUSH2 0x12ED JUMP JUMPDEST POP PUSH2 0x8EA JUMP JUMPDEST PUSH1 0x1 ADD PUSH2 0xDAA JUMP JUMPDEST PUSH1 0x0 DUP2 MLOAD PUSH1 0x41 EQ PUSH2 0xE5A JUMPI POP PUSH1 0x0 PUSH2 0x60F JUMP JUMPDEST PUSH1 0x20 DUP3 ADD MLOAD PUSH1 0x40 DUP4 ADD MLOAD PUSH1 0x60 DUP5 ADD MLOAD PUSH1 0x0 BYTE PUSH32 0x7FFFFFFFFFFFFFFFFFFFFFFFFFFFFFFF5D576E7357A4501DDFE92F46681B20A0 DUP3 GT ISZERO PUSH2 0xEA0 JUMPI PUSH1 0x0 SWAP4 POP POP POP POP PUSH2 0x60F JUMP JUMPDEST DUP1 PUSH1 0xFF AND PUSH1 0x1B EQ ISZERO DUP1 ISZERO PUSH2 0xEB8 JUMPI POP DUP1 PUSH1 0xFF AND PUSH1 0x1C EQ ISZERO JUMPDEST ISZERO PUSH2 0xEC9 JUMPI PUSH1 0x0 SWAP4 POP POP POP POP PUSH2 0x60F JUMP JUMPDEST PUSH1 0x1 DUP7 DUP3 DUP6 DUP6 PUSH1 0x40 MLOAD PUSH1 0x0 DUP2 MSTORE PUSH1 0x20 ADD PUSH1 0x40 MSTORE PUSH1 0x40 MLOAD PUSH2 0xEEC SWAP5 SWAP4 SWAP3 SWAP2 SWAP1 PUSH2 0x1D0F JUMP JUMPDEST PUSH1 0x20 PUSH1 0x40 MLOAD PUSH1 0x20 DUP2 SUB SWAP1 DUP1 DUP5 SUB SWAP1 DUP6 GAS STATICCALL ISZERO DUP1 ISZERO PUSH2 0xF0E JUMPI RETURNDATASIZE PUSH1 0x0 DUP1 RETURNDATACOPY RETURNDATASIZE PUSH1 0x0 REVERT JUMPDEST POP POP PUSH1 0x40 MLOAD PUSH1 0x1F NOT ADD MLOAD SWAP8 SWAP7 POP POP POP POP POP POP POP JUMP JUMPDEST DUP4 PUSH2 0x1015 JUMPI PUSH1 0x0 PUSH1 0x60 DUP5 PUSH1 0x1 PUSH1 0x1 PUSH1 0xA0 SHL SUB AND DUP5 DUP5 PUSH1 0x40 MLOAD PUSH2 0xF45 SWAP2 SWAP1 PUSH2 0x1CA1 JUMP JUMPDEST PUSH1 0x0 PUSH1 0x40 MLOAD DUP1 DUP4 SUB DUP2 DUP6 DUP8 GAS CALL SWAP3 POP POP POP RETURNDATASIZE DUP1 PUSH1 0x0 DUP2 EQ PUSH2 0xF82 JUMPI PUSH1 0x40 MLOAD SWAP2 POP PUSH1 0x1F NOT PUSH1 0x3F RETURNDATASIZE ADD AND DUP3 ADD PUSH1 0x40 MSTORE RETURNDATASIZE DUP3 MSTORE RETURNDATASIZE PUSH1 0x0 PUSH1 0x20 DUP5 ADD RETURNDATACOPY PUSH2 0xF87 JUMP JUMPDEST PUSH1 0x60 SWAP2 POP JUMPDEST POP SWAP1 SWAP3 POP SWAP1 POP DUP2 ISZERO PUSH2 0xFCC JUMPI PUSH1 0x40 MLOAD PUSH1 0x1 PUSH1 0x1 PUSH1 0xA0 SHL SUB DUP7 AND SWAP1 PUSH32 0x7C940052472FD1D616012DC780A92C777783E8F45CDB6802D1D48891CD33A508 SWAP1 PUSH1 0x0 SWAP1 LOG2 PUSH2 0x100E JUMP JUMPDEST DUP5 PUSH1 0x1 PUSH1 0x1 PUSH1 0xA0 SHL SUB AND PUSH32 0x4B0B4377CB27B4634A3573214783294886BC4E04F64FA75D3F5469FB26393462 DUP3 PUSH1 0x40 MLOAD PUSH2 0x1005 SWAP2 SWAP1 PUSH2 0x1D4D JUMP JUMPDEST PUSH1 0x40 MLOAD DUP1 SWAP2 SUB SWAP1 LOG2 JUMPDEST POP POP PUSH2 0x744 JUMP JUMPDEST PUSH1 0x1 DUP5 EQ ISZERO PUSH2 0x1066 JUMPI PUSH1 0x0 DUP2 MLOAD PUSH1 0x20 DUP4 ADD PUSH1 0x0 CREATE PUSH1 0x40 MLOAD SWAP1 SWAP2 POP PUSH1 0x1 PUSH1 0x1 PUSH1 0xA0 SHL SUB DUP3 AND SWAP1 PUSH32 0xCF78CF0D6F3D8371E1075C69C492AB4EC5D8CF23A1A239B6A51A1D00BE7CA312 SWAP1 PUSH1 0x0 SWAP1 LOG2 POP PUSH2 0x744 JUMP JUMPDEST PUSH1 0x40 MLOAD PUSH1 0x1 PUSH1 0xE5 SHL PUSH3 0x461BCD MUL DUP2 MSTORE PUSH1 0x4 ADD PUSH2 0x4E6 SWAP1 PUSH2 0x1DEE JUMP JUMPDEST PUSH1 0x0 SWAP2 DUP3 MSTORE PUSH1 0x4 PUSH1 0x20 MSTORE PUSH1 0x40 SWAP1 SWAP2 KECCAK256 SLOAD NOT AND ISZERO SWAP1 JUMP JUMPDEST PUSH32 0x1618FCEC65BCE0693E931D337FC12424EE920BF56C4A74BC8DDB1361328AF236 PUSH1 0x0 SHL DUP3 PUSH1 0x1 PUSH1 0x1 PUSH1 0xA0 SHL SUB AND PUSH4 0x5122BB7C PUSH1 0x40 MLOAD DUP2 PUSH4 0xFFFFFFFF AND PUSH1 0xE0 SHL DUP2 MSTORE PUSH1 0x4 ADD PUSH1 0x20 PUSH1 0x40 MLOAD DUP1 DUP4 SUB DUP2 DUP7 DUP1 EXTCODESIZE ISZERO DUP1 ISZERO PUSH2 0x10F4 JUMPI PUSH1 0x0 DUP1 REVERT JUMPDEST POP GAS STATICCALL ISZERO DUP1 ISZERO PUSH2 0x1108 JUMPI RETURNDATASIZE PUSH1 0x0 DUP1 RETURNDATACOPY RETURNDATASIZE PUSH1 0x0 REVERT JUMPDEST POP POP POP POP PUSH1 0x40 MLOAD RETURNDATASIZE PUSH1 0x1F NOT PUSH1 0x1F DUP3 ADD AND DUP3 ADD DUP1 PUSH1 0x40 MSTORE POP PUSH2 0x112C SWAP2 SWAP1 DUP2 ADD SWAP1 PUSH2 0x15F1 JUMP JUMPDEST EQ PUSH2 0x114C JUMPI PUSH1 0x40 MLOAD PUSH1 0x1 PUSH1 0xE5 SHL PUSH3 0x461BCD MUL DUP2 MSTORE PUSH1 0x4 ADD PUSH2 0x4E6 SWAP1 PUSH2 0x1E2E JUMP JUMPDEST PUSH1 0x0 DUP1 SLOAD PUSH1 0x40 MLOAD PUSH1 0x1 PUSH1 0x1 PUSH1 0xA0 SHL SUB DUP1 DUP7 AND SWAP4 SWAP3 AND SWAP2 PUSH32 0xB177A4A05A82A0D82537F71956F554EE3D2D0F32A76C0B056E0490778BE10AB4 SWAP2 LOG3 PUSH1 0x0 DUP1 SLOAD PUSH1 0x1 PUSH1 0x1 PUSH1 0xA0 SHL SUB NOT AND PUSH1 0x1 PUSH1 0x1 PUSH1 0xA0 SHL SUB DUP5 AND SWAP1 DUP2 OR PUSH1 0x1 PUSH1 0xA0 SHL PUSH1 0xFF MUL NOT AND DUP3 SSTORE PUSH1 0x40 MLOAD PUSH2 0x11BA SWAP1 DUP5 SWAP1 PUSH2 0x1CA1 JUMP JUMPDEST PUSH1 0x0 PUSH1 0x40 MLOAD DUP1 DUP4 SUB DUP2 DUP6 GAS DELEGATECALL SWAP2 POP POP RETURNDATASIZE DUP1 PUSH1 0x0 DUP2 EQ PUSH2 0x11F5 JUMPI PUSH1 0x40 MLOAD SWAP2 POP PUSH1 0x1F NOT PUSH1 0x3F RETURNDATASIZE ADD AND DUP3 ADD PUSH1 0x40 MSTORE RETURNDATASIZE DUP3 MSTORE RETURNDATASIZE PUSH1 0x0 PUSH1 0x20 DUP5 ADD RETURNDATACOPY PUSH2 0x11FA JUMP JUMPDEST PUSH1 0x60 SWAP2 POP JUMPDEST POP POP SWAP1 POP DUP1 PUSH2 0x8EA JUMPI PUSH1 0x40 MLOAD PUSH1 0x1 PUSH1 0xE5 SHL PUSH3 0x461BCD MUL DUP2 MSTORE PUSH1 0x4 ADD PUSH2 0x4E6 SWAP1 PUSH2 0x1D5E JUMP JUMPDEST PUSH1 0x0 DUP2 PUSH1 0x40 MLOAD PUSH1 0x20 ADD PUSH2 0x1231 SWAP2 SWAP1 PUSH2 0x1CB4 JUMP JUMPDEST PUSH1 0x40 MLOAD PUSH1 0x20 DUP2 DUP4 SUB SUB DUP2 MSTORE SWAP1 PUSH1 0x40 MSTORE DUP1 MLOAD SWAP1 PUSH1 0x20 ADD KECCAK256 SWAP1 POP SWAP2 SWAP1 POP JUMP JUMPDEST POP DUP1 SLOAD PUSH1 0x0 DUP3 SSTORE SWAP1 PUSH1 0x0 MSTORE PUSH1 0x20 PUSH1 0x0 KECCAK256 SWAP1 DUP2 ADD SWAP1 PUSH2 0x126C SWAP2 SWAP1 PUSH2 0x130D JUMP JUMPDEST POP JUMP JUMPDEST DUP3 DUP1 SLOAD PUSH1 0x1 DUP2 PUSH1 0x1 AND ISZERO PUSH2 0x100 MUL SUB AND PUSH1 0x2 SWAP1 DIV SWAP1 PUSH1 0x0 MSTORE PUSH1 0x20 PUSH1 0x0 KECCAK256 SWAP1 PUSH1 0x1F ADD PUSH1 0x20 SWAP1 DIV DUP2 ADD SWAP3 DUP3 PUSH1 0x1F LT PUSH2 0x12B0 JUMPI DUP1 MLOAD PUSH1 0xFF NOT AND DUP4 DUP1 ADD OR DUP6 SSTORE PUSH2 0x12DD JUMP JUMPDEST DUP3 DUP1 ADD PUSH1 0x1 ADD DUP6 SSTORE DUP3 ISZERO PUSH2 0x12DD JUMPI SWAP2 DUP3 ADD JUMPDEST DUP3 DUP2 GT ISZERO PUSH2 0x12DD JUMPI DUP3 MLOAD DUP3 SSTORE SWAP2 PUSH1 0x20 ADD SWAP2 SWAP1 PUSH1 0x1 ADD SWAP1 PUSH2 0x12C2 JUMP JUMPDEST POP PUSH2 0x12E9 SWAP3 SWAP2 POP PUSH2 0x130D JUMP JUMPDEST POP SWAP1 JUMP JUMPDEST DUP2 SLOAD DUP2 DUP4 SSTORE DUP2 DUP2 GT ISZERO PUSH2 0x8EA JUMPI PUSH1 0x0 DUP4 DUP2 MSTORE PUSH1 0x20 SWAP1 KECCAK256 PUSH2 0x8EA SWAP2 DUP2 ADD SWAP1 DUP4 ADD JUMPDEST PUSH2 0x76C SWAP2 SWAP1 JUMPDEST DUP1 DUP3 GT ISZERO PUSH2 0x12E9 JUMPI PUSH1 0x0 DUP2 SSTORE PUSH1 0x1 ADD PUSH2 0x1313 JUMP JUMPDEST DUP1 CALLDATALOAD PUSH2 0x60F DUP2 PUSH2 0x1F50 JUMP JUMPDEST PUSH1 0x0 DUP3 PUSH1 0x1F DUP4 ADD SLT PUSH2 0x1343 JUMPI PUSH1 0x0 DUP1 REVERT JUMPDEST DUP2 CALLDATALOAD PUSH2 0x1356 PUSH2 0x1351 DUP3 PUSH2 0x1E80 JUMP JUMPDEST PUSH2 0x1E59 JUMP JUMPDEST SWAP2 POP DUP2 DUP2 DUP4 MSTORE PUSH1 0x20 DUP5 ADD SWAP4 POP PUSH1 0x20 DUP2 ADD SWAP1 POP DUP4 DUP6 PUSH1 0x20 DUP5 MUL DUP3 ADD GT ISZERO PUSH2 0x137B JUMPI PUSH1 0x0 DUP1 REVERT JUMPDEST PUSH1 0x0 JUMPDEST DUP4 DUP2 LT ISZERO PUSH2 0x13A7 JUMPI DUP2 PUSH2 0x1391 DUP9 DUP3 PUSH2 0x1419 JUMP JUMPDEST DUP5 MSTORE POP PUSH1 0x20 SWAP3 DUP4 ADD SWAP3 SWAP2 SWAP1 SWAP2 ADD SWAP1 PUSH1 0x1 ADD PUSH2 0x137E JUMP JUMPDEST POP POP POP POP SWAP3 SWAP2 POP POP JUMP JUMPDEST PUSH1 0x0 DUP3 PUSH1 0x1F DUP4 ADD SLT PUSH2 0x13C2 JUMPI PUSH1 0x0 DUP1 REVERT JUMPDEST DUP2 CALLDATALOAD PUSH2 0x13D0 PUSH2 0x1351 DUP3 PUSH2 0x1E80 JUMP JUMPDEST DUP2 DUP2 MSTORE PUSH1 0x20 SWAP4 DUP5 ADD SWAP4 SWAP1 SWAP3 POP DUP3 ADD DUP4 PUSH1 0x0 JUMPDEST DUP4 DUP2 LT ISZERO PUSH2 0x13A7 JUMPI DUP2 CALLDATALOAD DUP7 ADD PUSH2 0x13F8 DUP9 DUP3 PUSH2 0x142F JUMP JUMPDEST DUP5 MSTORE POP PUSH1 0x20 SWAP3 DUP4 ADD SWAP3 SWAP2 SWAP1 SWAP2 ADD SWAP1 PUSH1 0x1 ADD PUSH2 0x13E2 JUMP JUMPDEST DUP1 CALLDATALOAD PUSH2 0x60F DUP2 PUSH2 0x1F64 JUMP JUMPDEST DUP1 CALLDATALOAD PUSH2 0x60F DUP2 PUSH2 0x1F6D JUMP JUMPDEST DUP1 MLOAD PUSH2 0x60F DUP2 PUSH2 0x1F6D JUMP JUMPDEST PUSH1 0x0 DUP3 PUSH1 0x1F DUP4 ADD SLT PUSH2 0x1440 JUMPI PUSH1 0x0 DUP1 REVERT JUMPDEST DUP2 CALLDATALOAD PUSH2 0x144E PUSH2 0x1351 DUP3 PUSH2 0x1EA1 JUMP JUMPDEST SWAP2 POP DUP1 DUP3 MSTORE PUSH1 0x20 DUP4 ADD PUSH1 0x20 DUP4 ADD DUP6 DUP4 DUP4 ADD GT ISZERO PUSH2 0x146A JUMPI PUSH1 0x0 DUP1 REVERT JUMPDEST PUSH2 0x1475 DUP4 DUP3 DUP5 PUSH2 0x1EF7 JUMP JUMPDEST POP POP POP SWAP3 SWAP2 POP POP JUMP JUMPDEST PUSH1 0x0 PUSH1 0x20 DUP3 DUP5 SUB SLT ISZERO PUSH2 0x1490 JUMPI PUSH1 0x0 DUP1 REVERT JUMPDEST PUSH1 0x0 PUSH2 0x149C DUP5 DUP5 PUSH2 0x1327 JUMP JUMPDEST SWAP5 SWAP4 POP POP POP POP JUMP JUMPDEST PUSH1 0x0 DUP1 PUSH1 0x40 DUP4 DUP6 SUB SLT ISZERO PUSH2 0x14B7 JUMPI PUSH1 0x0 DUP1 REVERT JUMPDEST PUSH1 0x0 PUSH2 0x14C3 DUP6 DUP6 PUSH2 0x1327 JUMP JUMPDEST SWAP3 POP POP PUSH1 0x20 PUSH2 0x14D4 DUP6 DUP3 DUP7 ADD PUSH2 0x1419 JUMP JUMPDEST SWAP2 POP POP SWAP3 POP SWAP3 SWAP1 POP JUMP JUMPDEST PUSH1 0x0 DUP1 PUSH1 0x0 PUSH1 0x60 DUP5 DUP7 SUB SLT ISZERO PUSH2 0x14F3 JUMPI PUSH1 0x0 DUP1 REVERT JUMPDEST PUSH1 0x0 PUSH2 0x14FF DUP7 DUP7 PUSH2 0x1327 JUMP JUMPDEST SWAP4 POP POP PUSH1 0x20 DUP5 ADD CALLDATALOAD PUSH8 0xFFFFFFFFFFFFFFFF DUP2 GT ISZERO PUSH2 0x151C JUMPI PUSH1 0x0 DUP1 REVERT JUMPDEST PUSH2 0x1528 DUP7 DUP3 DUP8 ADD PUSH2 0x142F JUMP JUMPDEST SWAP3 POP POP PUSH1 0x40 PUSH2 0x1539 DUP7 DUP3 DUP8 ADD PUSH2 0x140E JUMP JUMPDEST SWAP2 POP POP SWAP3 POP SWAP3 POP SWAP3 JUMP JUMPDEST PUSH1 0x0 DUP1 PUSH1 0x0 DUP1 PUSH1 0x80 DUP6 DUP8 SUB SLT ISZERO PUSH2 0x1559 JUMPI PUSH1 0x0 DUP1 REVERT JUMPDEST DUP5 CALLDATALOAD PUSH8 0xFFFFFFFFFFFFFFFF DUP2 GT ISZERO PUSH2 0x1570 JUMPI PUSH1 0x0 DUP1 REVERT JUMPDEST PUSH2 0x157C DUP8 DUP3 DUP9 ADD PUSH2 0x1332 JUMP JUMPDEST SWAP5 POP POP PUSH1 0x20 DUP6 ADD CALLDATALOAD PUSH8 0xFFFFFFFFFFFFFFFF DUP2 GT ISZERO PUSH2 0x1599 JUMPI PUSH1 0x0 DUP1 REVERT JUMPDEST PUSH2 0x15A5 DUP8 DUP3 DUP9 ADD PUSH2 0x1332 JUMP JUMPDEST SWAP4 POP POP PUSH1 0x40 PUSH2 0x15B6 DUP8 DUP3 DUP9 ADD PUSH2 0x1419 JUMP JUMPDEST SWAP3 POP POP PUSH1 0x60 PUSH2 0x15C7 DUP8 DUP3 DUP9 ADD PUSH2 0x1419 JUMP JUMPDEST SWAP2 POP POP SWAP3 SWAP6 SWAP2 SWAP5 POP SWAP3 POP JUMP JUMPDEST PUSH1 0x0 PUSH1 0x20 DUP3 DUP5 SUB SLT ISZERO PUSH2 0x15E5 JUMPI PUSH1 0x0 DUP1 REVERT JUMPDEST PUSH1 0x0 PUSH2 0x149C DUP5 DUP5 PUSH2 0x1419 JUMP JUMPDEST PUSH1 0x0 PUSH1 0x20 DUP3 DUP5 SUB SLT ISZERO PUSH2 0x1603 JUMPI PUSH1 0x0 DUP1 REVERT JUMPDEST PUSH1 0x0 PUSH2 0x149C DUP5 DUP5 PUSH2 0x1424 JUMP JUMPDEST PUSH1 0x0 DUP1 PUSH1 0x40 DUP4 DUP6 SUB SLT ISZERO PUSH2 0x1622 JUMPI PUSH1 0x0 DUP1 REVERT JUMPDEST PUSH1 0x0 PUSH2 0x14C3 DUP6 DUP6 PUSH2 0x1419 JUMP JUMPDEST PUSH1 0x0 DUP1 PUSH1 0x40 DUP4 DUP6 SUB SLT ISZERO PUSH2 0x1641 JUMPI PUSH1 0x0 DUP1 REVERT JUMPDEST PUSH1 0x0 PUSH2 0x164D DUP6 DUP6 PUSH2 0x1419 JUMP JUMPDEST SWAP3 POP POP PUSH1 0x20 DUP4 ADD CALLDATALOAD PUSH8 0xFFFFFFFFFFFFFFFF DUP2 GT ISZERO PUSH2 0x166A JUMPI PUSH1 0x0 DUP1 REVERT JUMPDEST PUSH2 0x14D4 DUP6 DUP3 DUP7 ADD PUSH2 0x142F JUMP JUMPDEST PUSH1 0x0 DUP1 PUSH1 0x0 DUP1 PUSH1 0x80 DUP6 DUP8 SUB SLT ISZERO PUSH2 0x168C JUMPI PUSH1 0x0 DUP1 REVERT JUMPDEST PUSH1 0x0 PUSH2 0x1698 DUP8 DUP8 PUSH2 0x1419 JUMP JUMPDEST SWAP5 POP POP PUSH1 0x20 PUSH2 0x16A9 DUP8 DUP3 DUP9 ADD PUSH2 0x1327 JUMP JUMPDEST SWAP4 POP POP PUSH1 0x40 PUSH2 0x16BA DUP8 DUP3 DUP9 ADD PUSH2 0x1419 JUMP JUMPDEST SWAP3 POP POP PUSH1 0x60 DUP6 ADD CALLDATALOAD PUSH8 0xFFFFFFFFFFFFFFFF DUP2 GT ISZERO PUSH2 0x16D7 JUMPI PUSH1 0x0 DUP1 REVERT JUMPDEST PUSH2 0x15C7 DUP8 DUP3 DUP9 ADD PUSH2 0x142F JUMP JUMPDEST PUSH1 0x0 DUP1 PUSH1 0x0 DUP1 PUSH1 0x0 DUP1 PUSH1 0xC0 DUP8 DUP10 SUB SLT ISZERO PUSH2 0x16FC JUMPI PUSH1 0x0 DUP1 REVERT JUMPDEST PUSH1 0x0 PUSH2 0x1708 DUP10 DUP10 PUSH2 0x1419 JUMP JUMPDEST SWAP7 POP POP PUSH1 0x20 PUSH2 0x1719 DUP10 DUP3 DUP11 ADD PUSH2 0x1327 JUMP JUMPDEST SWAP6 POP POP PUSH1 0x40 PUSH2 0x172A DUP10 DUP3 DUP11 ADD PUSH2 0x1419 JUMP JUMPDEST SWAP5 POP POP PUSH1 0x60 DUP8 ADD CALLDATALOAD PUSH8 0xFFFFFFFFFFFFFFFF DUP2 GT ISZERO PUSH2 0x1747 JUMPI PUSH1 0x0 DUP1 REVERT JUMPDEST PUSH2 0x1753 DUP10 DUP3 DUP11 ADD PUSH2 0x142F JUMP JUMPDEST SWAP4 POP POP PUSH1 0x80 PUSH2 0x1764 DUP10 DUP3 DUP11 ADD PUSH2 0x1419 JUMP JUMPDEST SWAP3 POP POP PUSH1 0xA0 DUP8 ADD CALLDATALOAD PUSH8 0xFFFFFFFFFFFFFFFF DUP2 GT ISZERO PUSH2 0x1781 JUMPI PUSH1 0x0 DUP1 REVERT JUMPDEST PUSH2 0x178D DUP10 DUP3 DUP11 ADD PUSH2 0x13B1 JUMP JUMPDEST SWAP2 POP POP SWAP3 SWAP6 POP SWAP3 SWAP6 POP SWAP3 SWAP6 JUMP JUMPDEST PUSH1 0x0 PUSH2 0x17A6 DUP4 DUP4 PUSH2 0x1830 JUMP JUMPDEST POP POP PUSH1 0x20 ADD SWAP1 JUMP JUMPDEST PUSH2 0x17BF PUSH2 0x17BA DUP3 PUSH2 0x1EE1 JUMP JUMPDEST PUSH2 0x1F2F JUMP JUMPDEST DUP3 MSTORE POP POP JUMP JUMPDEST PUSH2 0x17BF DUP2 PUSH2 0x1EE1 JUMP JUMPDEST PUSH1 0x0 PUSH2 0x17D9 DUP3 PUSH2 0x1ECF JUMP JUMPDEST PUSH2 0x17E3 DUP2 DUP6 PUSH2 0x1ED3 JUMP JUMPDEST SWAP4 POP PUSH2 0x17EE DUP4 PUSH2 0x1EC9 JUMP JUMPDEST DUP1 PUSH1 0x0 JUMPDEST DUP4 DUP2 LT ISZERO PUSH2 0x181C JUMPI DUP2 MLOAD PUSH2 0x1806 DUP9 DUP3 PUSH2 0x179A JUMP JUMPDEST SWAP8 POP PUSH2 0x1811 DUP4 PUSH2 0x1EC9 JUMP JUMPDEST SWAP3 POP POP PUSH1 0x1 ADD PUSH2 0x17F2 JUMP JUMPDEST POP SWAP5 SWAP6 SWAP5 POP POP POP POP POP JUMP JUMPDEST PUSH2 0x17BF DUP2 PUSH2 0x1EEC JUMP JUMPDEST PUSH2 0x17BF DUP2 PUSH2 0x76C JUMP JUMPDEST PUSH2 0x17BF PUSH2 0x1845 DUP3 PUSH2 0x76C JUMP JUMPDEST PUSH2 0x76C JUMP JUMPDEST PUSH1 0x0 PUSH2 0x1855 DUP3 PUSH2 0x1ECF JUMP JUMPDEST PUSH2 0x185F DUP2 DUP6 PUSH2 0x1ED3 JUMP JUMPDEST SWAP4 POP PUSH2 0x186F DUP2 DUP6 PUSH1 0x20 DUP7 ADD PUSH2 0x1F03 JUMP JUMPDEST PUSH2 0x1878 DUP2 PUSH2 0x1F40 JUMP JUMPDEST SWAP1 SWAP4 ADD SWAP4 SWAP3 POP POP POP JUMP JUMPDEST PUSH1 0x0 PUSH2 0x188D DUP3 PUSH2 0x1ECF JUMP JUMPDEST PUSH2 0x1897 DUP2 DUP6 PUSH2 0x1EDC JUMP JUMPDEST SWAP4 POP PUSH2 0x18A7 DUP2 DUP6 PUSH1 0x20 DUP7 ADD PUSH2 0x1F03 JUMP JUMPDEST SWAP3 SWAP1 SWAP3 ADD SWAP3 SWAP2 POP POP JUMP JUMPDEST PUSH1 0x0 PUSH2 0x18BE PUSH1 0x14 DUP4 PUSH2 0x1ED3 JUMP JUMPDEST PUSH32 0x6661696C65642D746F2D696E697469616C697A65000000000000000000000000 DUP2 MSTORE PUSH1 0x20 ADD SWAP3 SWAP2 POP POP JUMP JUMPDEST PUSH1 0x0 PUSH2 0x18F7 PUSH1 0x1C DUP4 PUSH2 0x1EDC JUMP JUMPDEST PUSH32 0x19457468657265756D205369676E6564204D6573736167653A0A333200000000 DUP2 MSTORE PUSH1 0x1C ADD SWAP3 SWAP2 POP POP JUMP JUMPDEST PUSH1 0x0 PUSH2 0x1930 PUSH1 0xD DUP4 PUSH2 0x1ED3 JUMP JUMPDEST PUSH32 0x6163636573732D64656E69656400000000000000000000000000000000000000 DUP2 MSTORE PUSH1 0x20 ADD SWAP3 SWAP2 POP POP JUMP JUMPDEST PUSH1 0x0 PUSH2 0x1969 PUSH1 0x11 DUP4 PUSH2 0x1ED3 JUMP JUMPDEST PUSH32 0x7468726573686F6C642D746F6F2D6C6F77000000000000000000000000000000 DUP2 MSTORE PUSH1 0x20 ADD SWAP3 SWAP2 POP POP JUMP JUMPDEST PUSH1 0x0 PUSH2 0x19A2 PUSH1 0x11 DUP4 PUSH2 0x1ED3 JUMP JUMPDEST PUSH32 0x696E76616C69642D7369676E6174757265000000000000000000000000000000 DUP2 MSTORE PUSH1 0x20 ADD SWAP3 SWAP2 POP POP JUMP JUMPDEST PUSH1 0x0 PUSH2 0x19DB PUSH1 0x25 DUP4 PUSH2 0x1ED3 JUMP JUMPDEST PUSH32 0x63616E6E6F742D72656D6F76652D637269746963616C2D6D616E6167656D656E DUP2 MSTORE PUSH1 0x1 PUSH1 0xD8 SHL PUSH5 0x742D6B6579 MUL PUSH1 0x20 DUP3 ADD MSTORE PUSH1 0x40 ADD SWAP3 SWAP2 POP POP JUMP JUMPDEST PUSH1 0x0 PUSH2 0x1A25 PUSH1 0x13 DUP4 PUSH2 0x1ED3 JUMP JUMPDEST PUSH32 0x616C72656164792D696E697469616C697A656400000000000000000000000000 DUP2 MSTORE PUSH1 0x20 ADD SWAP3 SWAP2 POP POP JUMP JUMPDEST PUSH1 0x0 PUSH2 0x1A5E PUSH1 0x1B DUP4 PUSH2 0x1ED3 JUMP JUMPDEST PUSH32 0x696E76616C69642D7369676E6174757265732D6F72646572696E670000000000 DUP2 MSTORE PUSH1 0x20 ADD SWAP3 SWAP2 POP POP JUMP JUMPDEST PUSH1 0x0 PUSH2 0x1A97 PUSH1 0x29 DUP4 PUSH2 0x1ED3 JUMP JUMPDEST PUSH32 0x6B65792D616E642D707572706F73652D61727261792D6D7573742D686176652D DUP2 MSTORE PUSH1 0x1 PUSH1 0xB8 SHL PUSH9 0x73616D652D73697A65 MUL PUSH1 0x20 DUP3 ADD MSTORE PUSH1 0x40 ADD SWAP3 SWAP2 POP POP JUMP JUMPDEST PUSH1 0x0 PUSH2 0x1AE5 PUSH1 0x12 DUP4 PUSH2 0x1ED3 JUMP JUMPDEST PUSH32 0x7468726573686F6C642D746F6F2D686967680000000000000000000000000000 DUP2 MSTORE PUSH1 0x20 ADD SWAP3 SWAP2 POP POP JUMP JUMPDEST PUSH1 0x0 PUSH2 0x1B1E PUSH1 0x16 DUP4 PUSH2 0x1ED3 JUMP JUMPDEST PUSH32 0x696E76616C69642D6F7065726174696F6E2D7479706500000000000000000000 DUP2 MSTORE PUSH1 0x20 ADD SWAP3 SWAP2 POP POP JUMP JUMPDEST PUSH1 0x0 PUSH2 0x1B57 PUSH1 0xD DUP4 PUSH2 0x1ED3 JUMP JUMPDEST PUSH32 0x696E76616C69642D6E6F6E636500000000000000000000000000000000000000 DUP2 MSTORE PUSH1 0x20 ADD SWAP3 SWAP2 POP POP JUMP JUMPDEST PUSH1 0x0 PUSH2 0x1B90 PUSH1 0xF DUP4 PUSH2 0x1ED3 JUMP JUMPDEST PUSH32 0x6D697373696E672D7369676E6572730000000000000000000000000000000000 DUP2 MSTORE PUSH1 0x20 ADD SWAP3 SWAP2 POP POP JUMP JUMPDEST PUSH1 0x0 PUSH2 0x1BC9 PUSH1 0x1A DUP4 PUSH2 0x1ED3 JUMP JUMPDEST PUSH32 0x6E6F742D656E6F7567682D6D616E6167656D656E742D6B657973000000000000 DUP2 MSTORE PUSH1 0x20 ADD SWAP3 SWAP2 POP POP JUMP JUMPDEST PUSH1 0x0 PUSH2 0x1C02 PUSH1 0x13 DUP4 PUSH2 0x1ED3 JUMP JUMPDEST PUSH32 0x696E76616C69642D6D61737465722D7575696400000000000000000000000000 DUP2 MSTORE PUSH1 0x20 ADD SWAP3 SWAP2 POP POP JUMP JUMPDEST PUSH2 0x17BF DUP2 PUSH2 0x1EF1 JUMP JUMPDEST PUSH1 0x0 PUSH2 0x1C43 DUP3 DUP10 PUSH2 0x17AE JUMP JUMPDEST PUSH1 0x14 DUP3 ADD SWAP2 POP PUSH2 0x1C53 DUP3 DUP9 PUSH2 0x1839 JUMP JUMPDEST PUSH1 0x20 DUP3 ADD SWAP2 POP PUSH2 0x1C63 DUP3 DUP8 PUSH2 0x17AE JUMP JUMPDEST PUSH1 0x14 DUP3 ADD SWAP2 POP PUSH2 0x1C73 DUP3 DUP7 PUSH2 0x1839 JUMP JUMPDEST PUSH1 0x20 DUP3 ADD SWAP2 POP PUSH2 0x1C83 DUP3 DUP6 PUSH2 0x1839 JUMP JUMPDEST PUSH1 0x20 DUP3 ADD SWAP2 POP PUSH2 0x1C93 DUP3 DUP5 PUSH2 0x1839 JUMP JUMPDEST POP PUSH1 0x20 ADD SWAP7 SWAP6 POP POP POP POP POP POP JUMP JUMPDEST PUSH1 0x0 PUSH2 0x1CAD DUP3 DUP5 PUSH2 0x1882 JUMP JUMPDEST SWAP4 SWAP3 POP POP POP JUMP JUMPDEST PUSH1 0x0 PUSH2 0x1CBF DUP3 PUSH2 0x18EA JUMP JUMPDEST SWAP2 POP PUSH2 0x1CCB DUP3 DUP5 PUSH2 0x1839 JUMP JUMPDEST POP PUSH1 0x20 ADD SWAP2 SWAP1 POP JUMP JUMPDEST PUSH1 0x20 DUP2 ADD PUSH2 0x60F DUP3 DUP5 PUSH2 0x17C5 JUMP JUMPDEST PUSH1 0x20 DUP1 DUP3 MSTORE DUP2 ADD PUSH2 0x60C DUP2 DUP5 PUSH2 0x17CE JUMP JUMPDEST PUSH1 0x20 DUP2 ADD PUSH2 0x60F DUP3 DUP5 PUSH2 0x1827 JUMP JUMPDEST PUSH1 0x20 DUP2 ADD PUSH2 0x60F DUP3 DUP5 PUSH2 0x1830 JUMP JUMPDEST PUSH1 0x80 DUP2 ADD PUSH2 0x1D1D DUP3 DUP8 PUSH2 0x1830 JUMP JUMPDEST PUSH2 0x1D2A PUSH1 0x20 DUP4 ADD DUP7 PUSH2 0x1C2E JUMP JUMPDEST PUSH2 0x1D37 PUSH1 0x40 DUP4 ADD DUP6 PUSH2 0x1830 JUMP JUMPDEST PUSH2 0x1D44 PUSH1 0x60 DUP4 ADD DUP5 PUSH2 0x1830 JUMP JUMPDEST SWAP6 SWAP5 POP POP POP POP POP JUMP JUMPDEST PUSH1 0x20 DUP1 DUP3 MSTORE DUP2 ADD PUSH2 0x60C DUP2 DUP5 PUSH2 0x184A JUMP JUMPDEST PUSH1 0x20 DUP1 DUP3 MSTORE DUP2 ADD PUSH2 0x60F DUP2 PUSH2 0x18B1 JUMP JUMPDEST PUSH1 0x20 DUP1 DUP3 MSTORE DUP2 ADD PUSH2 0x60F DUP2 PUSH2 0x1923 JUMP JUMPDEST PUSH1 0x20 DUP1 DUP3 MSTORE DUP2 ADD PUSH2 0x60F DUP2 PUSH2 0x195C JUMP JUMPDEST PUSH1 0x20 DUP1 DUP3 MSTORE DUP2 ADD PUSH2 0x60F DUP2 PUSH2 0x1995 JUMP JUMPDEST PUSH1 0x20 DUP1 DUP3 MSTORE DUP2 ADD PUSH2 0x60F DUP2 PUSH2 0x19CE JUMP JUMPDEST PUSH1 0x20 DUP1 DUP3 MSTORE DUP2 ADD PUSH2 0x60F DUP2 PUSH2 0x1A18 JUMP JUMPDEST PUSH1 0x20 DUP1 DUP3 MSTORE DUP2 ADD PUSH2 0x60F DUP2 PUSH2 0x1A51 JUMP JUMPDEST PUSH1 0x20 DUP1 DUP3 MSTORE DUP2 ADD PUSH2 0x60F DUP2 PUSH2 0x1A8A JUMP JUMPDEST PUSH1 0x20 DUP1 DUP3 MSTORE DUP2 ADD PUSH2 0x60F DUP2 PUSH2 0x1AD8 JUMP JUMPDEST PUSH1 0x20 DUP1 DUP3 MSTORE DUP2 ADD PUSH2 0x60F DUP2 PUSH2 0x1B11 JUMP JUMPDEST PUSH1 0x20 DUP1 DUP3 MSTORE DUP2 ADD PUSH2 0x60F DUP2 PUSH2 0x1B4A JUMP JUMPDEST PUSH1 0x20 DUP1 DUP3 MSTORE DUP2 ADD PUSH2 0x60F DUP2 PUSH2 0x1B83 JUMP JUMPDEST PUSH1 0x20 DUP1 DUP3 MSTORE DUP2 ADD PUSH2 0x60F DUP2 PUSH2 0x1BBC JUMP JUMPDEST PUSH1 0x20 DUP1 DUP3 MSTORE DUP2 ADD PUSH2 0x60F DUP2 PUSH2 0x1BF5 JUMP JUMPDEST PUSH1 0x40 DUP2 ADD PUSH2 0x1E4C DUP3 DUP6 PUSH2 0x1830 JUMP JUMPDEST PUSH2 0x1CAD PUSH1 0x20 DUP4 ADD DUP5 PUSH2 0x1830 JUMP JUMPDEST PUSH1 0x40 MLOAD DUP2 DUP2 ADD PUSH8 0xFFFFFFFFFFFFFFFF DUP2 GT DUP3 DUP3 LT OR ISZERO PUSH2 0x1E78 JUMPI PUSH1 0x0 DUP1 REVERT JUMPDEST PUSH1 0x40 MSTORE SWAP2 SWAP1 POP JUMP JUMPDEST PUSH1 0x0 PUSH8 0xFFFFFFFFFFFFFFFF DUP3 GT ISZERO PUSH2 0x1E97 JUMPI PUSH1 0x0 DUP1 REVERT JUMPDEST POP PUSH1 0x20 SWAP1 DUP2 MUL ADD SWAP1 JUMP JUMPDEST PUSH1 0x0 PUSH8 0xFFFFFFFFFFFFFFFF DUP3 GT ISZERO PUSH2 0x1EB8 JUMPI PUSH1 0x0 DUP1 REVERT JUMPDEST POP PUSH1 0x20 PUSH1 0x1F SWAP2 SWAP1 SWAP2 ADD PUSH1 0x1F NOT AND ADD SWAP1 JUMP JUMPDEST PUSH1 0x20 ADD SWAP1 JUMP JUMPDEST MLOAD SWAP1 JUMP JUMPDEST SWAP1 DUP2 MSTORE PUSH1 0x20 ADD SWAP1 JUMP JUMPDEST SWAP2 SWAP1 POP JUMP JUMPDEST PUSH1 0x0 PUSH2 0x60F DUP3 PUSH2 0x830 JUMP JUMPDEST ISZERO ISZERO SWAP1 JUMP JUMPDEST PUSH1 0xFF AND SWAP1 JUMP JUMPDEST DUP3 DUP2 DUP4 CALLDATACOPY POP PUSH1 0x0 SWAP2 ADD MSTORE JUMP JUMPDEST PUSH1 0x0 JUMPDEST DUP4 DUP2 LT ISZERO PUSH2 0x1F1E JUMPI DUP2 DUP2 ADD MLOAD DUP4 DUP3 ADD MSTORE PUSH1 0x20 ADD PUSH2 0x1F06 JUMP JUMPDEST DUP4 DUP2 GT ISZERO PUSH2 0x744 JUMPI POP POP PUSH1 0x0 SWAP2 ADD MSTORE JUMP JUMPDEST PUSH1 0x0 PUSH2 0x60F DUP3 PUSH1 0x0 PUSH2 0x60F DUP3 PUSH2 0x1F4A JUMP JUMPDEST PUSH1 0x1F ADD PUSH1 0x1F NOT AND SWAP1 JUMP JUMPDEST PUSH1 0x60 SHL SWAP1 JUMP JUMPDEST PUSH2 0x1F59 DUP2 PUSH2 0x1EE1 JUMP JUMPDEST DUP2 EQ PUSH2 0x126C JUMPI PUSH1 0x0 DUP1 REVERT JUMPDEST PUSH2 0x1F59 DUP2 PUSH2 0x1EEC JUMP JUMPDEST PUSH2 0x1F59 DUP2 PUSH2 0x76C JUMP INVALID LOG2 PUSH6 0x627A7A723058 KECCAK256 SLT DUP3 0xf7 0xaa 0x4f PUSH19 0xCFD6DB2E2C391968EDEB7D473B53415256DCEB MOD 0xd6 SWAP1 DUP5 CALLDATACOPY 0xfb 0xaf PUSH13 0x6578706572696D656E74616CF5 STOP CALLDATACOPY "
    }
  },
  "interface": [
    {
      "constant": false,
      "inputs": [
        {
          "name": "key",
          "type": "bytes32"
        },
        {
          "name": "purpose",
          "type": "uint256"
        }
      ],
      "name": "setKey",
      "outputs": [],
      "payable": false,
      "stateMutability": "nonpayable",
      "type": "function"
    },
    {
      "constant": false,
      "inputs": [
        {
          "name": "key",
          "type": "bytes32"
        },
        {
          "name": "purpose",
          "type": "bytes32"
        }
      ],
      "name": "setKey",
      "outputs": [],
      "payable": false,
      "stateMutability": "nonpayable",
      "type": "function"
    },
    {
      "constant": false,
      "inputs": [
        {
          "name": "keys",
          "type": "bytes32[]"
        },
        {
          "name": "purposes",
          "type": "bytes32[]"
        },
        {
          "name": "managementThreshold",
          "type": "uint256"
        },
        {
          "name": "actionThreshold",
          "type": "uint256"
        }
      ],
      "name": "initialize",
      "outputs": [],
      "payable": false,
      "stateMutability": "nonpayable",
      "type": "function"
    },
    {
      "constant": true,
      "inputs": [
        {
          "name": "key",
          "type": "bytes32"
        }
      ],
      "name": "getKey",
      "outputs": [
        {
          "name": "",
          "type": "bytes32"
        }
      ],
      "payable": false,
      "stateMutability": "view",
      "type": "function"
    },
    {
      "constant": true,
      "inputs": [
        {
          "name": "data",
          "type": "bytes32"
        },
        {
          "name": "signature",
          "type": "bytes"
        }
      ],
      "name": "isValidSignature",
      "outputs": [
        {
          "name": "",
          "type": "bool"
        }
      ],
      "payable": false,
      "stateMutability": "view",
      "type": "function"
    },
    {
      "constant": false,
      "inputs": [
        {
          "name": "actionThreshold",
          "type": "uint256"
        }
      ],
      "name": "setActionThreshold",
      "outputs": [],
      "payable": false,
      "stateMutability": "nonpayable",
      "type": "function"
    },
    {
      "constant": false,
      "inputs": [
        {
          "name": "key",
          "type": "address"
        },
        {
          "name": "purpose",
          "type": "uint256"
        }
      ],
      "name": "setKey",
      "outputs": [],
      "payable": false,
      "stateMutability": "nonpayable",
      "type": "function"
    },
    {
      "constant": false,
      "inputs": [
        {
          "name": "key",
          "type": "address"
        },
        {
          "name": "purpose",
          "type": "bytes32"
        }
      ],
      "name": "setKey",
      "outputs": [],
      "payable": false,
      "stateMutability": "nonpayable",
      "type": "function"
    },
    {
      "constant": false,
      "inputs": [
        {
          "name": "operationType",
          "type": "uint256"
        },
        {
          "name": "to",
          "type": "address"
        },
        {
          "name": "value",
          "type": "uint256"
        },
        {
          "name": "data",
          "type": "bytes"
        }
      ],
      "name": "execute",
      "outputs": [],
      "payable": false,
      "stateMutability": "nonpayable",
      "type": "function"
    },
    {
      "constant": true,
      "inputs": [],
      "name": "masterId",
      "outputs": [
        {
          "name": "",
          "type": "bytes32"
        }
      ],
      "payable": false,
      "stateMutability": "pure",
      "type": "function"
    },
    {
      "constant": true,
      "inputs": [
        {
          "name": "key",
          "type": "bytes32"
        }
      ],
      "name": "getData",
      "outputs": [
        {
          "name": "",
          "type": "bytes"
        }
      ],
      "payable": false,
      "stateMutability": "view",
      "type": "function"
    },
    {
      "constant": true,
      "inputs": [
        {
          "name": "key",
          "type": "address"
        },
        {
          "name": "purpose",
          "type": "uint256"
        }
      ],
      "name": "keyHasPurpose",
      "outputs": [
        {
          "name": "",
          "type": "bool"
        }
      ],
      "payable": false,
      "stateMutability": "view",
      "type": "function"
    },
    {
      "constant": true,
      "inputs": [
        {
          "name": "key",
          "type": "bytes32"
        },
        {
          "name": "purpose",
          "type": "bytes32"
        }
      ],
      "name": "keyHasPurpose",
      "outputs": [
        {
          "name": "",
          "type": "bool"
        }
      ],
      "payable": false,
      "stateMutability": "view",
      "type": "function"
    },
    {
      "constant": true,
      "inputs": [
        {
          "name": "addr",
          "type": "address"
        }
      ],
      "name": "addrToKey",
      "outputs": [
        {
          "name": "",
          "type": "bytes32"
        }
      ],
      "payable": false,
      "stateMutability": "pure",
      "type": "function"
    },
    {
      "constant": false,
      "inputs": [
        {
          "name": "newMaster",
          "type": "address"
        },
        {
          "name": "initData",
          "type": "bytes"
        },
        {
          "name": "reset",
          "type": "bool"
        }
      ],
      "name": "updateMaster",
      "outputs": [],
      "payable": false,
      "stateMutability": "nonpayable",
      "type": "function"
    },
    {
      "constant": false,
      "inputs": [
        {
          "name": "operationType",
          "type": "uint256"
        },
        {
          "name": "to",
          "type": "address"
        },
        {
          "name": "value",
          "type": "uint256"
        },
        {
          "name": "data",
          "type": "bytes"
        },
        {
          "name": "nonce",
          "type": "uint256"
        },
        {
          "name": "sigs",
          "type": "bytes[]"
        }
      ],
      "name": "execute",
      "outputs": [],
      "payable": false,
      "stateMutability": "nonpayable",
      "type": "function"
    },
    {
      "constant": false,
      "inputs": [
        {
          "name": "key",
          "type": "bytes32"
        },
        {
          "name": "value",
          "type": "bytes"
        }
      ],
      "name": "setData",
      "outputs": [],
      "payable": false,
      "stateMutability": "nonpayable",
      "type": "function"
    },
    {
      "constant": true,
      "inputs": [],
      "name": "getActiveKeys",
      "outputs": [
        {
          "name": "",
          "type": "bytes32[]"
        }
      ],
      "payable": false,
      "stateMutability": "view",
      "type": "function"
    },
    {
      "constant": true,
      "inputs": [],
      "name": "owner",
      "outputs": [
        {
          "name": "",
          "type": "address"
        }
      ],
      "payable": false,
      "stateMutability": "view",
      "type": "function"
    },
    {
      "constant": true,
      "inputs": [],
      "name": "getManagementThreshold",
      "outputs": [
        {
          "name": "",
          "type": "uint256"
        }
      ],
      "payable": false,
      "stateMutability": "view",
      "type": "function"
    },
    {
      "constant": true,
      "inputs": [
        {
          "name": "key",
          "type": "address"
        }
      ],
      "name": "getKey",
      "outputs": [
        {
          "name": "",
          "type": "bytes32"
        }
      ],
      "payable": false,
      "stateMutability": "view",
      "type": "function"
    },
    {
      "constant": true,
      "inputs": [],
      "name": "getManagementKeyCount",
      "outputs": [
        {
          "name": "",
          "type": "uint256"
        }
      ],
      "payable": false,
      "stateMutability": "view",
      "type": "function"
    },
    {
      "constant": true,
      "inputs": [],
      "name": "nonce",
      "outputs": [
        {
          "name": "",
          "type": "uint256"
        }
      ],
      "payable": false,
      "stateMutability": "view",
      "type": "function"
    },
    {
      "constant": true,
      "inputs": [
        {
          "name": "key",
          "type": "bytes32"
        },
        {
          "name": "purpose",
          "type": "uint256"
        }
      ],
      "name": "keyHasPurpose",
      "outputs": [
        {
          "name": "",
          "type": "bool"
        }
      ],
      "payable": false,
      "stateMutability": "view",
      "type": "function"
    },
    {
      "constant": false,
      "inputs": [
        {
          "name": "managementThreshold",
          "type": "uint256"
        }
      ],
      "name": "setManagementThreshold",
      "outputs": [],
      "payable": false,
      "stateMutability": "nonpayable",
      "type": "function"
    },
    {
      "constant": true,
      "inputs": [],
      "name": "getActionThreshold",
      "outputs": [
        {
          "name": "",
          "type": "uint256"
        }
      ],
      "payable": false,
      "stateMutability": "view",
      "type": "function"
    },
    {
      "constant": true,
      "inputs": [],
      "name": "master",
      "outputs": [
        {
          "name": "",
          "type": "address"
        }
      ],
      "payable": false,
      "stateMutability": "view",
      "type": "function"
    },
    {
      "constant": true,
      "inputs": [
        {
          "name": "key",
          "type": "address"
        },
        {
          "name": "purpose",
          "type": "bytes32"
        }
      ],
      "name": "keyHasPurpose",
      "outputs": [
        {
          "name": "",
          "type": "bool"
        }
      ],
      "payable": false,
      "stateMutability": "view",
      "type": "function"
    },
    {
      "inputs": [],
      "payable": false,
      "stateMutability": "nonpayable",
      "type": "constructor"
    },
    {
      "payable": true,
      "stateMutability": "payable",
      "type": "fallback"
    },
    {
      "anonymous": false,
      "inputs": [
        {
          "indexed": true,
          "name": "key",
          "type": "bytes32"
        },
        {
          "indexed": true,
          "name": "previousPurpose",
          "type": "bytes32"
        },
        {
          "indexed": true,
          "name": "newPurpose",
          "type": "bytes32"
        }
      ],
      "name": "SetKey",
      "type": "event"
    },
    {
      "anonymous": false,
      "inputs": [
        {
          "indexed": false,
          "name": "previousThreshold",
          "type": "uint256"
        },
        {
          "indexed": false,
          "name": "newThreshold",
          "type": "uint256"
        }
      ],
      "name": "ManagementThresholdChange",
      "type": "event"
    },
    {
      "anonymous": false,
      "inputs": [
        {
          "indexed": false,
          "name": "previousThreshold",
          "type": "uint256"
        },
        {
          "indexed": false,
          "name": "newThreshold",
          "type": "uint256"
        }
      ],
      "name": "ActionThresholdChange",
      "type": "event"
    },
    {
      "anonymous": false,
      "inputs": [
        {
          "indexed": true,
          "name": "previousMaster",
          "type": "address"
        },
        {
          "indexed": true,
          "name": "newMaster",
          "type": "address"
        }
      ],
      "name": "MasterChange",
      "type": "event"
    },
    {
      "anonymous": false,
      "inputs": [
        {
          "indexed": true,
          "name": "key",
          "type": "bytes32"
        },
        {
          "indexed": false,
          "name": "value",
          "type": "bytes"
        }
      ],
      "name": "DataChanged",
      "type": "event"
    },
    {
      "anonymous": false,
      "inputs": [
        {
          "indexed": true,
          "name": "contractAddress",
          "type": "address"
        }
      ],
      "name": "ContractCreated",
      "type": "event"
    },
    {
      "anonymous": false,
      "inputs": [
        {
          "indexed": true,
          "name": "to",
          "type": "address"
        }
      ],
      "name": "CallSuccess",
      "type": "event"
    },
    {
      "anonymous": false,
      "inputs": [
        {
          "indexed": true,
          "name": "to",
          "type": "address"
        },
        {
          "indexed": false,
          "name": "returndata",
          "type": "bytes"
        }
      ],
      "name": "CallFailure",
      "type": "event"
    }
  ]
}