{
  "abi": [
    {
      "constant": false,
      "inputs": [
        {
          "name": "key",
          "type": "bytes32"
        },
        {
          "name": "purpose",
          "type": "uint256"
        }
      ],
      "name": "setKey",
      "outputs": [],
      "payable": false,
      "stateMutability": "nonpayable",
      "type": "function"
    },
    {
      "constant": false,
      "inputs": [
        {
          "name": "key",
          "type": "bytes32"
        },
        {
          "name": "purpose",
          "type": "bytes32"
        }
      ],
      "name": "setKey",
      "outputs": [],
      "payable": false,
      "stateMutability": "nonpayable",
      "type": "function"
    },
    {
      "constant": false,
      "inputs": [
        {
          "name": "keys",
          "type": "bytes32[]"
        },
        {
          "name": "purposes",
          "type": "bytes32[]"
        },
        {
          "name": "managementThreshold",
          "type": "uint256"
        },
        {
          "name": "actionThreshold",
          "type": "uint256"
        }
      ],
      "name": "initialize",
      "outputs": [],
      "payable": false,
      "stateMutability": "nonpayable",
      "type": "function"
    },
    {
      "constant": true,
      "inputs": [
        {
          "name": "key",
          "type": "bytes32"
        }
      ],
      "name": "getKey",
      "outputs": [
        {
          "name": "",
          "type": "bytes32"
        }
      ],
      "payable": false,
      "stateMutability": "view",
      "type": "function"
    },
    {
      "constant": true,
      "inputs": [
        {
          "name": "data",
          "type": "bytes32"
        },
        {
          "name": "signature",
          "type": "bytes"
        }
      ],
      "name": "isValidSignature",
      "outputs": [
        {
          "name": "",
          "type": "bool"
        }
      ],
      "payable": false,
      "stateMutability": "view",
      "type": "function"
    },
    {
      "constant": false,
      "inputs": [
        {
          "name": "actionThreshold",
          "type": "uint256"
        }
      ],
      "name": "setActionThreshold",
      "outputs": [],
      "payable": false,
      "stateMutability": "nonpayable",
      "type": "function"
    },
    {
      "constant": false,
      "inputs": [
        {
          "name": "key",
          "type": "address"
        },
        {
          "name": "purpose",
          "type": "uint256"
        }
      ],
      "name": "setKey",
      "outputs": [],
      "payable": false,
      "stateMutability": "nonpayable",
      "type": "function"
    },
    {
      "constant": false,
      "inputs": [
        {
          "name": "key",
          "type": "address"
        },
        {
          "name": "purpose",
          "type": "bytes32"
        }
      ],
      "name": "setKey",
      "outputs": [],
      "payable": false,
      "stateMutability": "nonpayable",
      "type": "function"
    },
    {
      "constant": false,
      "inputs": [
        {
          "name": "operationType",
          "type": "uint256"
        },
        {
          "name": "to",
          "type": "address"
        },
        {
          "name": "value",
          "type": "uint256"
        },
        {
          "name": "data",
          "type": "bytes"
        }
      ],
      "name": "execute",
      "outputs": [],
      "payable": false,
      "stateMutability": "nonpayable",
      "type": "function"
    },
    {
      "constant": true,
      "inputs": [],
      "name": "masterId",
      "outputs": [
        {
          "name": "",
          "type": "bytes32"
        }
      ],
      "payable": false,
      "stateMutability": "pure",
      "type": "function"
    },
    {
      "constant": true,
      "inputs": [
        {
          "name": "key",
          "type": "bytes32"
        }
      ],
      "name": "getData",
      "outputs": [
        {
          "name": "",
          "type": "bytes"
        }
      ],
      "payable": false,
      "stateMutability": "view",
      "type": "function"
    },
    {
      "constant": true,
      "inputs": [
        {
          "name": "key",
          "type": "address"
        },
        {
          "name": "purpose",
          "type": "uint256"
        }
      ],
      "name": "keyHasPurpose",
      "outputs": [
        {
          "name": "",
          "type": "bool"
        }
      ],
      "payable": false,
      "stateMutability": "view",
      "type": "function"
    },
    {
      "constant": true,
      "inputs": [
        {
          "name": "key",
          "type": "bytes32"
        },
        {
          "name": "purpose",
          "type": "bytes32"
        }
      ],
      "name": "keyHasPurpose",
      "outputs": [
        {
          "name": "",
          "type": "bool"
        }
      ],
      "payable": false,
      "stateMutability": "view",
      "type": "function"
    },
    {
      "constant": true,
      "inputs": [
        {
          "name": "addr",
          "type": "address"
        }
      ],
      "name": "addrToKey",
      "outputs": [
        {
          "name": "",
          "type": "bytes32"
        }
      ],
      "payable": false,
      "stateMutability": "pure",
      "type": "function"
    },
    {
      "constant": false,
      "inputs": [
        {
          "name": "newMaster",
          "type": "address"
        },
        {
          "name": "initData",
          "type": "bytes"
        },
        {
          "name": "reset",
          "type": "bool"
        }
      ],
      "name": "updateMaster",
      "outputs": [],
      "payable": false,
      "stateMutability": "nonpayable",
      "type": "function"
    },
    {
      "constant": false,
      "inputs": [
        {
          "name": "key",
          "type": "bytes32"
        },
        {
          "name": "value",
          "type": "bytes"
        }
      ],
      "name": "setData",
      "outputs": [],
      "payable": false,
      "stateMutability": "nonpayable",
      "type": "function"
    },
    {
      "constant": true,
      "inputs": [],
      "name": "getActiveKeys",
      "outputs": [
        {
          "name": "",
          "type": "bytes32[]"
        }
      ],
      "payable": false,
      "stateMutability": "view",
      "type": "function"
    },
    {
      "constant": true,
      "inputs": [],
      "name": "owner",
      "outputs": [
        {
          "name": "",
          "type": "address"
        }
      ],
      "payable": false,
      "stateMutability": "view",
      "type": "function"
    },
    {
      "constant": true,
      "inputs": [],
      "name": "getManagementThreshold",
      "outputs": [
        {
          "name": "",
          "type": "uint256"
        }
      ],
      "payable": false,
      "stateMutability": "view",
      "type": "function"
    },
    {
      "constant": true,
      "inputs": [
        {
          "name": "key",
          "type": "address"
        }
      ],
      "name": "getKey",
      "outputs": [
        {
          "name": "",
          "type": "bytes32"
        }
      ],
      "payable": false,
      "stateMutability": "view",
      "type": "function"
    },
    {
      "constant": true,
      "inputs": [],
      "name": "getManagementKeyCount",
      "outputs": [
        {
          "name": "",
          "type": "uint256"
        }
      ],
      "payable": false,
      "stateMutability": "view",
      "type": "function"
    },
    {
      "constant": true,
      "inputs": [],
      "name": "nonce",
      "outputs": [
        {
          "name": "",
          "type": "uint256"
        }
      ],
      "payable": false,
      "stateMutability": "view",
      "type": "function"
    },
    {
      "constant": false,
      "inputs": [
        {
          "name": "operationType",
          "type": "uint256"
        },
        {
          "name": "to",
          "type": "address"
        },
        {
          "name": "value",
          "type": "uint256"
        },
        {
          "name": "data",
          "type": "bytes"
        },
        {
          "name": "nonce",
          "type": "uint256"
        },
        {
          "name": "salt",
          "type": "bytes32"
        },
        {
          "name": "gasToken",
          "type": "address"
        },
        {
          "name": "gasPrice",
          "type": "uint256"
        },
        {
          "name": "sigs",
          "type": "bytes[]"
        }
      ],
      "name": "execute",
      "outputs": [],
      "payable": false,
      "stateMutability": "nonpayable",
      "type": "function"
    },
    {
      "constant": true,
      "inputs": [
        {
          "name": "key",
          "type": "bytes32"
        },
        {
          "name": "purpose",
          "type": "uint256"
        }
      ],
      "name": "keyHasPurpose",
      "outputs": [
        {
          "name": "",
          "type": "bool"
        }
      ],
      "payable": false,
      "stateMutability": "view",
      "type": "function"
    },
    {
      "constant": false,
      "inputs": [
        {
          "name": "managementThreshold",
          "type": "uint256"
        }
      ],
      "name": "setManagementThreshold",
      "outputs": [],
      "payable": false,
      "stateMutability": "nonpayable",
      "type": "function"
    },
    {
      "constant": true,
      "inputs": [],
      "name": "getActionThreshold",
      "outputs": [
        {
          "name": "",
          "type": "uint256"
        }
      ],
      "payable": false,
      "stateMutability": "view",
      "type": "function"
    },
    {
      "constant": true,
      "inputs": [],
      "name": "master",
      "outputs": [
        {
          "name": "",
          "type": "address"
        }
      ],
      "payable": false,
      "stateMutability": "view",
      "type": "function"
    },
    {
      "constant": true,
      "inputs": [
        {
          "name": "key",
          "type": "address"
        },
        {
          "name": "purpose",
          "type": "bytes32"
        }
      ],
      "name": "keyHasPurpose",
      "outputs": [
        {
          "name": "",
          "type": "bool"
        }
      ],
      "payable": false,
      "stateMutability": "view",
      "type": "function"
    },
    {
      "inputs": [],
      "payable": false,
      "stateMutability": "nonpayable",
      "type": "constructor"
    },
    {
      "payable": true,
      "stateMutability": "payable",
      "type": "fallback"
    },
    {
      "anonymous": false,
      "inputs": [
        {
          "indexed": true,
          "name": "key",
          "type": "bytes32"
        },
        {
          "indexed": true,
          "name": "previousPurpose",
          "type": "bytes32"
        },
        {
          "indexed": true,
          "name": "newPurpose",
          "type": "bytes32"
        }
      ],
      "name": "SetKey",
      "type": "event"
    },
    {
      "anonymous": false,
      "inputs": [
        {
          "indexed": false,
          "name": "previousThreshold",
          "type": "uint256"
        },
        {
          "indexed": false,
          "name": "newThreshold",
          "type": "uint256"
        }
      ],
      "name": "ManagementThresholdChange",
      "type": "event"
    },
    {
      "anonymous": false,
      "inputs": [
        {
          "indexed": false,
          "name": "previousThreshold",
          "type": "uint256"
        },
        {
          "indexed": false,
          "name": "newThreshold",
          "type": "uint256"
        }
      ],
      "name": "ActionThresholdChange",
      "type": "event"
    },
    {
      "anonymous": false,
      "inputs": [
        {
          "indexed": true,
          "name": "previousMaster",
          "type": "address"
        },
        {
          "indexed": true,
          "name": "newMaster",
          "type": "address"
        }
      ],
      "name": "MasterChange",
      "type": "event"
    },
    {
      "anonymous": false,
      "inputs": [
        {
          "indexed": true,
          "name": "key",
          "type": "bytes32"
        },
        {
          "indexed": false,
          "name": "value",
          "type": "bytes"
        }
      ],
      "name": "DataChanged",
      "type": "event"
    },
    {
      "anonymous": false,
      "inputs": [
        {
          "indexed": true,
          "name": "contractAddress",
          "type": "address"
        }
      ],
      "name": "ContractCreated",
      "type": "event"
    },
    {
      "anonymous": false,
      "inputs": [
        {
          "indexed": true,
          "name": "to",
          "type": "address"
        }
      ],
      "name": "CallSuccess",
      "type": "event"
    },
    {
      "anonymous": false,
      "inputs": [
        {
          "indexed": true,
          "name": "to",
          "type": "address"
        },
        {
          "indexed": false,
          "name": "returndata",
          "type": "bytes"
        }
      ],
      "name": "CallFailure",
      "type": "event"
    }
  ],
  "evm": {
    "bytecode": {
      "linkReferences": {},
      "object": "608060405234801561001057600080fd5b5061227f806100206000396000f3fe6080604052600436106101b75760003560e01c8063646e55db116100ec578063affed0e01161008a578063da84ddd111610064578063da84ddd114610461578063ea40df3a14610481578063ee97f7f314610496578063f2725bbe146102fe576101b7565b8063affed0e01461042c578063b7b58d2714610441578063d202158d1461031e576101b7565b80638da5cb5b116100c65780638da5cb5b146103c05780638efee3b5146103e257806393790f44146103f7578063aa4361b914610417576101b7565b8063646e55db1461035e5780637f23690c1461037e57806383d2deb11461039e576101b7565b806335d8df481161015957806354f6127f1161013357806354f6127f146102d15780635e6261fa146102fe57806363ebc4dd1461031e57806363f14c3c1461033e576101b7565b806335d8df481461027c57806344c028fe1461029c5780635122bb7c146102bc576101b7565b806312aaac701161019557806312aaac70146101f95780631626ba7e1461022f57806319a397401461025c5780631c5e56a01461027c576101b7565b806303f778de146101b957806307a00330146101b95780630eda0979146101d9575b005b3480156101c557600080fd5b506101b76101d43660046117fd565b6104ab565b3480156101e557600080fd5b506101b76101f4366004611713565b6104fd565b34801561020557600080fd5b506102196102143660046117c1565b6105db565b6040516102269190611fbc565b60405180910390f35b34801561023b57600080fd5b5061024f61024a36600461181c565b6105ed565b6040516102269190611fae565b34801561026857600080fd5b506101b76102773660046117c1565b610615565b34801561028857600080fd5b506101b7610297366004611674565b6106b0565b3480156102a857600080fd5b506101b76102b7366004611864565b6106fd565b3480156102c857600080fd5b5061021961074a565b3480156102dd57600080fd5b506102f16102ec3660046117c1565b61076f565b6040516102269190612008565b34801561030a57600080fd5b5061024f610319366004611674565b610810565b34801561032a57600080fd5b5061024f6103393660046117fd565b610824565b34801561034a57600080fd5b5061021961035936600461164e565b610830565b34801561036a57600080fd5b506101b76103793660046116ae565b61083c565b34801561038a57600080fd5b506101b761039936600461181c565b6108ef565b3480156103aa57600080fd5b506103b3610986565b6040516102269190611f9d565b3480156103cc57600080fd5b506103d56109de565b6040516102269190611f74565b3480156103ee57600080fd5b506102196109e2565b34801561040357600080fd5b5061021961041236600461164e565b6109e8565b34801561042357600080fd5b50610219610a0d565b34801561043857600080fd5b50610219610a13565b34801561044d57600080fd5b506101b761045c3660046118d1565b610a19565b34801561046d57600080fd5b506101b761047c3660046117c1565b610c64565b34801561048d57600080fd5b50610219610d24565b3480156104a257600080fd5b506103d5610d2a565b6104b36109de565b6001600160a01b0316336001600160a01b0316146104ef57604051600160e51b62461bcd0281526004016104e690612029565b60405180910390fd5b6104f98282610d39565b5050565b600054600160a01b900460ff161561052a57604051600160e51b62461bcd0281526004016104e690612069565b825184511461054e57604051600160e51b62461bcd0281526004016104e690612099565b60005b84518110156105925761058a85828151811061056957fe5b602002602001015185838151811061057d57fe5b6020026020010151610d39565b600101610551565b508160065410156105b857604051600160e51b62461bcd0281526004016104e6906120e9565b600791909155600855505060008054600160a01b60ff021916600160a01b179055565b60009081526004602052604090205490565b600061060c610605610359858563ffffffff610efa16565b6004610824565b90505b92915050565b61061d6109de565b6001600160a01b0316336001600160a01b03161461065057604051600160e51b62461bcd0281526004016104e690612029565b8061067057604051600160e51b62461bcd0281526004016104e690612039565b7ffd0b44227dee5de3fa844ff17983688ade4471a8257d62ed2a48507168810d7a600854826040516106a3929190612109565b60405180910390a1600855565b6106b86109de565b6001600160a01b0316336001600160a01b0316146106eb57604051600160e51b62461bcd0281526004016104e690612029565b6104f96106f783610830565b82610d39565b6107056109de565b6001600160a01b0316336001600160a01b03161461073857604051600160e51b62461bcd0281526004016104e690612029565b61074484848484610fd6565b50505050565b7f1618fcec65bce0693e931d337fc12424ee920bf56c4a74bc8ddb1361328af2365b90565b60008181526003602090815260409182902080548351601f60026000196101006001861615020190931692909204918201849004840281018401909452808452606093928301828280156108045780601f106107d957610100808354040283529160200191610804565b820191906000526020600020905b8154815290600101906020018083116107e757829003601f168201915b50505050509050919050565b600061060c61081e84610830565b83611134565b600061060c8383611134565b6001600160a01b031690565b6108446109de565b6001600160a01b0316336001600160a01b03161461087757604051600160e51b62461bcd0281526004016104e690612029565b80156108e05760005b6005548110156108c357600460006005838154811061089b57fe5b9060005260206000200154815260200190815260200160002060009055806001019050610880565b506108d060056000611413565b6000600681905560078190556008555b6108ea838361114a565b505050565b6108f76109de565b6001600160a01b0316336001600160a01b03161461092a57604051600160e51b62461bcd0281526004016104e690612029565b6000828152600360209081526040909120825161094992840190611434565b50817fece574603820d07bc9b91f2a932baadf4628aabcb8afba49776529c14a6104b28260405161097a9190612008565b60405180910390a25050565b606060058054806020026020016040519081016040528092919081815260200182805480156109d457602002820191906000526020600020905b8154815260200190600101908083116109c0575b5050505050905090565b3090565b60075490565b6000600460006109f784610830565b8152602001908152602001600020549050919050565b60065490565b60015490565b60005a60018054810190559050851580610a34575060015486145b610a5357604051600160e51b62461bcd0281526004016104e6906120c9565b60006001600160a01b038a16301415610a945760075483511015610a8c57604051600160e51b62461bcd0281526004016104e6906120d9565b506001610abe565b60085483511015610aba57604051600160e51b62461bcd0281526004016104e6906120d9565b5060025b6000610b06308d8d8d8d805190602001208d8d8d8d604051602001610aeb99989796959493929190611ea4565b604051602081830303815290604052805190602001206112d1565b60008181526002602052604090205490915015610b3857604051600160e51b62461bcd0281526004016104e690612079565b60008181526002602052604081207fa50daf8ffad995556f094fb7bb26ec5c7aadc7f574c741d0237ea13300bc1dd79055805b8551811015610c0d576000610b9c878381518110610b8557fe5b602002602001015185610efa90919063ffffffff16565b9050826001600160a01b0316816001600160a01b031611610bd257604051600160e51b62461bcd0281526004016104e690612089565b610be4610bde82610830565b86610824565b610c0357604051600160e51b62461bcd0281526004016104e690612049565b9150600101610b6b565b50610c1a8d8d8d8d610fd6565b610c55610c4f87610c435a610c3761aa508a63ffffffff61130116565b9063ffffffff61131316565b9063ffffffff61132816565b8861134f565b50505050505050505050505050565b610c6c6109de565b6001600160a01b0316336001600160a01b031614610c9f57604051600160e51b62461bcd0281526004016104e690612029565b80610cbf57604051600160e51b62461bcd0281526004016104e690612039565b806006541015610ce457604051600160e51b62461bcd0281526004016104e6906120a9565b7f9b1fc5ddbac8d6fac2661a57e7515dee9abf241f420629999d85f031919f4b4d60075482604051610d17929190612109565b60405180910390a1600755565b60085490565b6000546001600160a01b031690565b60008281526004602052604090205419600116158015610d5a575060018116155b15610d6a57600680546000190190555b600082815260046020526040902054600116158015610d8b57506001811916155b15610d9a576006805460010190555b6007546006541015610dc157604051600160e51b62461bcd0281526004016104e690612059565b600082815260046020526040902054610e0a57600580546001810182556000919091527f036b6384b5eca791c62761152d0c79bb0604c104a5fb6f4eb0703f3154bb3db0018290555b600082815260046020526040808220549051839285917f82f65b599219dc2719c1104b915b860b397dc476d20c4df48810a72bb8ad1e5b9190a46000828152600460205260409020819055806104f95760005b6005548110156108ea578260058281548110610e7557fe5b90600052602060002001541415610ef257600580546000198101908110610e9857fe5b906000526020600020015460058281548110610eb057fe5b600091825260209091200155600580546000198101908110610ece57fe5b60009182526020822001556005805490610eec9060001983016114b2565b506108ea565b600101610e5d565b60008151604114610f0d5750600061060f565b60208201516040830151606084015160001a7f7fffffffffffffffffffffffffffffff5d576e7357a4501ddfe92f46681b20a0821115610f53576000935050505061060f565b8060ff16601b14158015610f6b57508060ff16601c14155b15610f7c576000935050505061060f565b60018682858560405160008152602001604052604051610f9f9493929190611fca565b6020604051602081039080840390855afa158015610fc1573d6000803e3d6000fd5b5050604051601f190151979650505050505050565b836110c85760006060846001600160a01b03168484604051610ff89190611f41565b60006040518083038185875af1925050503d8060008114611035576040519150601f19603f3d011682016040523d82523d6000602084013e61103a565b606091505b509092509050811561107f576040516001600160a01b038616907f7c940052472fd1d616012dc780a92c777783e8f45cdb6802d1d48891cd33a50890600090a26110c1565b846001600160a01b03167f4b0b4377cb27b4634a3573214783294886bc4e04f64fa75d3f5469fb26393462826040516110b89190612008565b60405180910390a25b5050610744565b60018414156111195760008151602083016000f06040519091506001600160a01b038216907fcf78cf0d6f3d8371e1075c69c492ab4ec5d8cf23a1a239b6a51a1d00be7ca31290600090a250610744565b604051600160e51b62461bcd0281526004016104e6906120b9565b6000918252600460205260409091205419161590565b7f1618fcec65bce0693e931d337fc12424ee920bf56c4a74bc8ddb1361328af23660001b826001600160a01b0316635122bb7c6040518163ffffffff1660e01b815260040160206040518083038186803b1580156111a757600080fd5b505afa1580156111bb573d6000803e3d6000fd5b505050506040513d601f19601f820116820180604052506111df91908101906117df565b146111ff57604051600160e51b62461bcd0281526004016104e6906120f9565b600080546040516001600160a01b03808616939216917fb177a4a05a82a0d82537f71956f554ee3d2d0f32a76c0b056e0490778be10ab491a3600080546001600160a01b0319166001600160a01b038416908117600160a01b60ff021916825560405161126d908490611f41565b600060405180830381855af49150503d80600081146112a8576040519150601f19603f3d011682016040523d82523d6000602084013e6112ad565b606091505b50509050806108ea57604051600160e51b62461bcd0281526004016104e690612019565b6000816040516020016112e49190611f54565b604051602081830303815290604052805190602001209050919050565b60008282018381101561060c57600080fd5b60008282111561132257600080fd5b50900390565b6000826113375750600061060f565b8282028284828161134457fe5b041461060c57600080fd5b6001600160a01b03811661139057604051339083156108fc029084906000818181858888f1935050505015801561138a573d6000803e3d6000fd5b506104f9565b604051600160e01b63a9059cbb0281526001600160a01b0382169063a9059cbb906113c19033908690600401611f82565b602060405180830381600087803b1580156113db57600080fd5b505af11580156113ef573d6000803e3d6000fd5b505050506040513d601f19601f820116820180604052506108ea91908101906117a3565b508054600082559060005260206000209081019061143191906114d2565b50565b828054600181600116156101000203166002900490600052602060002090601f016020900481019282601f1061147557805160ff19168380011785556114a2565b828001600101855582156114a2579182015b828111156114a2578251825591602001919060010190611487565b506114ae9291506114d2565b5090565b8154818355818111156108ea576000838152602090206108ea9181019083015b61076c91905b808211156114ae57600081556001016114d8565b803561060f8161221f565b600082601f83011261150857600080fd5b813561151b6115168261213e565b612117565b9150818183526020840193506020810190508385602084028201111561154057600080fd5b60005b8381101561156c578161155688826115e9565b8452506020928301929190910190600101611543565b5050505092915050565b600082601f83011261158757600080fd5b81356115956115168261213e565b81815260209384019390925082018360005b8381101561156c57813586016115bd88826115ff565b84525060209283019291909101906001016115a7565b803561060f81612233565b805161060f81612233565b803561060f8161223c565b805161060f8161223c565b600082601f83011261161057600080fd5b813561161e6115168261215f565b9150808252602083016020830185838301111561163a57600080fd5b6116458382846121c6565b50505092915050565b60006020828403121561166057600080fd5b600061166c84846114ec565b949350505050565b6000806040838503121561168757600080fd5b600061169385856114ec565b92505060206116a4858286016115e9565b9150509250929050565b6000806000606084860312156116c357600080fd5b60006116cf86866114ec565b935050602084013567ffffffffffffffff8111156116ec57600080fd5b6116f8868287016115ff565b9250506040611709868287016115d3565b9150509250925092565b6000806000806080858703121561172957600080fd5b843567ffffffffffffffff81111561174057600080fd5b61174c878288016114f7565b945050602085013567ffffffffffffffff81111561176957600080fd5b611775878288016114f7565b9350506040611786878288016115e9565b9250506060611797878288016115e9565b91505092959194509250565b6000602082840312156117b557600080fd5b600061166c84846115de565b6000602082840312156117d357600080fd5b600061166c84846115e9565b6000602082840312156117f157600080fd5b600061166c84846115f4565b6000806040838503121561181057600080fd5b600061169385856115e9565b6000806040838503121561182f57600080fd5b600061183b85856115e9565b925050602083013567ffffffffffffffff81111561185857600080fd5b6116a4858286016115ff565b6000806000806080858703121561187a57600080fd5b600061188687876115e9565b9450506020611897878288016114ec565b93505060406118a8878288016115e9565b925050606085013567ffffffffffffffff8111156118c557600080fd5b611797878288016115ff565b60008060008060008060008060006101208a8c0312156118f057600080fd5b60006118fc8c8c6115e9565b995050602061190d8c828d016114ec565b985050604061191e8c828d016115e9565b97505060608a013567ffffffffffffffff81111561193b57600080fd5b6119478c828d016115ff565b96505060806119588c828d016115e9565b95505060a06119698c828d016115e9565b94505060c061197a8c828d016114ec565b93505060e061198b8c828d016115e9565b9250506101008a013567ffffffffffffffff8111156119a957600080fd5b6119b58c828d01611576565b9150509295985092959850929598565b60006119d18383611a64565b505060200190565b6119e2816121b5565b82525050565b6119e26119f48261219f565b6121fe565b6119e28161219f565b6000611a0d8261218d565b611a178185612191565b9350611a2283612187565b8060005b83811015611a50578151611a3a88826119c5565b9750611a4583612187565b925050600101611a26565b509495945050505050565b6119e2816121aa565b6119e28161076c565b6119e2611a798261076c565b61076c565b6000611a898261218d565b611a938185612191565b9350611aa38185602086016121d2565b611aac8161220f565b9093019392505050565b6000611ac18261218d565b611acb818561219a565b9350611adb8185602086016121d2565b9290920192915050565b6000611af2601483612191565b7f6661696c65642d746f2d696e697469616c697a65000000000000000000000000815260200192915050565b6000611b2b601c8361219a565b7f19457468657265756d205369676e6564204d6573736167653a0a3332000000008152601c0192915050565b6000611b64600d83612191565b7f6163636573732d64656e69656400000000000000000000000000000000000000815260200192915050565b6000611b9d601183612191565b7f7468726573686f6c642d746f6f2d6c6f77000000000000000000000000000000815260200192915050565b6000611bd6601183612191565b7f696e76616c69642d7369676e6174757265000000000000000000000000000000815260200192915050565b6000611c0f602583612191565b7f63616e6e6f742d72656d6f76652d637269746963616c2d6d616e6167656d656e8152600160d81b64742d6b657902602082015260400192915050565b6000611c59601383612191565b7f616c72656164792d696e697469616c697a656400000000000000000000000000815260200192915050565b6000611c92601283612191565b7f7472616e73616374696f6e2d7265706c61790000000000000000000000000000815260200192915050565b6000611ccb601b83612191565b7f696e76616c69642d7369676e6174757265732d6f72646572696e670000000000815260200192915050565b6000611d04602983612191565b7f6b65792d616e642d707572706f73652d61727261792d6d7573742d686176652d8152600160b81b6873616d652d73697a6502602082015260400192915050565b6000611d52601283612191565b7f7468726573686f6c642d746f6f2d686967680000000000000000000000000000815260200192915050565b6000611d8b601683612191565b7f696e76616c69642d6f7065726174696f6e2d7479706500000000000000000000815260200192915050565b6000611dc4600d83612191565b7f696e76616c69642d6e6f6e636500000000000000000000000000000000000000815260200192915050565b6000611dfd600f83612191565b7f6d697373696e672d7369676e6572730000000000000000000000000000000000815260200192915050565b6000611e36601a83612191565b7f6e6f742d656e6f7567682d6d616e6167656d656e742d6b657973000000000000815260200192915050565b6000611e6f601383612191565b7f696e76616c69642d6d61737465722d7575696400000000000000000000000000815260200192915050565b6119e2816121af565b6000611eb0828c6119e8565b601482019150611ec0828b611a6d565b602082019150611ed0828a6119e8565b601482019150611ee08289611a6d565b602082019150611ef08288611a6d565b602082019150611f008287611a6d565b602082019150611f108286611a6d565b602082019150611f2082856119e8565b601482019150611f308284611a6d565b506020019998505050505050505050565b6000611f4d8284611ab6565b9392505050565b6000611f5f82611b1e565b9150611f6b8284611a6d565b50602001919050565b6020810161060f82846119f9565b60408101611f9082856119d9565b611f4d6020830184611a64565b6020808252810161060c8184611a02565b6020810161060f8284611a5b565b6020810161060f8284611a64565b60808101611fd88287611a64565b611fe56020830186611e9b565b611ff26040830185611a64565b611fff6060830184611a64565b95945050505050565b6020808252810161060c8184611a7e565b6020808252810161060f81611ae5565b6020808252810161060f81611b57565b6020808252810161060f81611b90565b6020808252810161060f81611bc9565b6020808252810161060f81611c02565b6020808252810161060f81611c4c565b6020808252810161060f81611c85565b6020808252810161060f81611cbe565b6020808252810161060f81611cf7565b6020808252810161060f81611d45565b6020808252810161060f81611d7e565b6020808252810161060f81611db7565b6020808252810161060f81611df0565b6020808252810161060f81611e29565b6020808252810161060f81611e62565b60408101611f908285611a64565b60405181810167ffffffffffffffff8111828210171561213657600080fd5b604052919050565b600067ffffffffffffffff82111561215557600080fd5b5060209081020190565b600067ffffffffffffffff82111561217657600080fd5b506020601f91909101601f19160190565b60200190565b5190565b90815260200190565b919050565b600061060f82610830565b151590565b60ff1690565b600061060f82600061060f8261219f565b82818337506000910152565b60005b838110156121ed5781810151838201526020016121d5565b838111156107445750506000910152565b600061060f82600061060f82612219565b601f01601f191690565b60601b90565b6122288161219f565b811461143157600080fd5b612228816121aa565b6122288161076c56fea265627a7a7230582089a2ef1fc02b38d6aa07eda82e245e4bc6778952378f43c315fbc86a4b9339b76c6578706572696d656e74616cf50037",
      "opcodes": "PUSH1 0x80 PUSH1 0x40 MSTORE CALLVALUE DUP1 ISZERO PUSH2 0x10 JUMPI PUSH1 0x0 DUP1 REVERT JUMPDEST POP PUSH2 0x227F DUP1 PUSH2 0x20 PUSH1 0x0 CODECOPY PUSH1 0x0 RETURN INVALID PUSH1 0x80 PUSH1 0x40 MSTORE PUSH1 0x4 CALLDATASIZE LT PUSH2 0x1B7 JUMPI PUSH1 0x0 CALLDATALOAD PUSH1 0xE0 SHR DUP1 PUSH4 0x646E55DB GT PUSH2 0xEC JUMPI DUP1 PUSH4 0xAFFED0E0 GT PUSH2 0x8A JUMPI DUP1 PUSH4 0xDA84DDD1 GT PUSH2 0x64 JUMPI DUP1 PUSH4 0xDA84DDD1 EQ PUSH2 0x461 JUMPI DUP1 PUSH4 0xEA40DF3A EQ PUSH2 0x481 JUMPI DUP1 PUSH4 0xEE97F7F3 EQ PUSH2 0x496 JUMPI DUP1 PUSH4 0xF2725BBE EQ PUSH2 0x2FE JUMPI PUSH2 0x1B7 JUMP JUMPDEST DUP1 PUSH4 0xAFFED0E0 EQ PUSH2 0x42C JUMPI DUP1 PUSH4 0xB7B58D27 EQ PUSH2 0x441 JUMPI DUP1 PUSH4 0xD202158D EQ PUSH2 0x31E JUMPI PUSH2 0x1B7 JUMP JUMPDEST DUP1 PUSH4 0x8DA5CB5B GT PUSH2 0xC6 JUMPI DUP1 PUSH4 0x8DA5CB5B EQ PUSH2 0x3C0 JUMPI DUP1 PUSH4 0x8EFEE3B5 EQ PUSH2 0x3E2 JUMPI DUP1 PUSH4 0x93790F44 EQ PUSH2 0x3F7 JUMPI DUP1 PUSH4 0xAA4361B9 EQ PUSH2 0x417 JUMPI PUSH2 0x1B7 JUMP JUMPDEST DUP1 PUSH4 0x646E55DB EQ PUSH2 0x35E JUMPI DUP1 PUSH4 0x7F23690C EQ PUSH2 0x37E JUMPI DUP1 PUSH4 0x83D2DEB1 EQ PUSH2 0x39E JUMPI PUSH2 0x1B7 JUMP JUMPDEST DUP1 PUSH4 0x35D8DF48 GT PUSH2 0x159 JUMPI DUP1 PUSH4 0x54F6127F GT PUSH2 0x133 JUMPI DUP1 PUSH4 0x54F6127F EQ PUSH2 0x2D1 JUMPI DUP1 PUSH4 0x5E6261FA EQ PUSH2 0x2FE JUMPI DUP1 PUSH4 0x63EBC4DD EQ PUSH2 0x31E JUMPI DUP1 PUSH4 0x63F14C3C EQ PUSH2 0x33E JUMPI PUSH2 0x1B7 JUMP JUMPDEST DUP1 PUSH4 0x35D8DF48 EQ PUSH2 0x27C JUMPI DUP1 PUSH4 0x44C028FE EQ PUSH2 0x29C JUMPI DUP1 PUSH4 0x5122BB7C EQ PUSH2 0x2BC JUMPI PUSH2 0x1B7 JUMP JUMPDEST DUP1 PUSH4 0x12AAAC70 GT PUSH2 0x195 JUMPI DUP1 PUSH4 0x12AAAC70 EQ PUSH2 0x1F9 JUMPI DUP1 PUSH4 0x1626BA7E EQ PUSH2 0x22F JUMPI DUP1 PUSH4 0x19A39740 EQ PUSH2 0x25C JUMPI DUP1 PUSH4 0x1C5E56A0 EQ PUSH2 0x27C JUMPI PUSH2 0x1B7 JUMP JUMPDEST DUP1 PUSH4 0x3F778DE EQ PUSH2 0x1B9 JUMPI DUP1 PUSH4 0x7A00330 EQ PUSH2 0x1B9 JUMPI DUP1 PUSH4 0xEDA0979 EQ PUSH2 0x1D9 JUMPI JUMPDEST STOP JUMPDEST CALLVALUE DUP1 ISZERO PUSH2 0x1C5 JUMPI PUSH1 0x0 DUP1 REVERT JUMPDEST POP PUSH2 0x1B7 PUSH2 0x1D4 CALLDATASIZE PUSH1 0x4 PUSH2 0x17FD JUMP JUMPDEST PUSH2 0x4AB JUMP JUMPDEST CALLVALUE DUP1 ISZERO PUSH2 0x1E5 JUMPI PUSH1 0x0 DUP1 REVERT JUMPDEST POP PUSH2 0x1B7 PUSH2 0x1F4 CALLDATASIZE PUSH1 0x4 PUSH2 0x1713 JUMP JUMPDEST PUSH2 0x4FD JUMP JUMPDEST CALLVALUE DUP1 ISZERO PUSH2 0x205 JUMPI PUSH1 0x0 DUP1 REVERT JUMPDEST POP PUSH2 0x219 PUSH2 0x214 CALLDATASIZE PUSH1 0x4 PUSH2 0x17C1 JUMP JUMPDEST PUSH2 0x5DB JUMP JUMPDEST PUSH1 0x40 MLOAD PUSH2 0x226 SWAP2 SWAP1 PUSH2 0x1FBC JUMP JUMPDEST PUSH1 0x40 MLOAD DUP1 SWAP2 SUB SWAP1 RETURN JUMPDEST CALLVALUE DUP1 ISZERO PUSH2 0x23B JUMPI PUSH1 0x0 DUP1 REVERT JUMPDEST POP PUSH2 0x24F PUSH2 0x24A CALLDATASIZE PUSH1 0x4 PUSH2 0x181C JUMP JUMPDEST PUSH2 0x5ED JUMP JUMPDEST PUSH1 0x40 MLOAD PUSH2 0x226 SWAP2 SWAP1 PUSH2 0x1FAE JUMP JUMPDEST CALLVALUE DUP1 ISZERO PUSH2 0x268 JUMPI PUSH1 0x0 DUP1 REVERT JUMPDEST POP PUSH2 0x1B7 PUSH2 0x277 CALLDATASIZE PUSH1 0x4 PUSH2 0x17C1 JUMP JUMPDEST PUSH2 0x615 JUMP JUMPDEST CALLVALUE DUP1 ISZERO PUSH2 0x288 JUMPI PUSH1 0x0 DUP1 REVERT JUMPDEST POP PUSH2 0x1B7 PUSH2 0x297 CALLDATASIZE PUSH1 0x4 PUSH2 0x1674 JUMP JUMPDEST PUSH2 0x6B0 JUMP JUMPDEST CALLVALUE DUP1 ISZERO PUSH2 0x2A8 JUMPI PUSH1 0x0 DUP1 REVERT JUMPDEST POP PUSH2 0x1B7 PUSH2 0x2B7 CALLDATASIZE PUSH1 0x4 PUSH2 0x1864 JUMP JUMPDEST PUSH2 0x6FD JUMP JUMPDEST CALLVALUE DUP1 ISZERO PUSH2 0x2C8 JUMPI PUSH1 0x0 DUP1 REVERT JUMPDEST POP PUSH2 0x219 PUSH2 0x74A JUMP JUMPDEST CALLVALUE DUP1 ISZERO PUSH2 0x2DD JUMPI PUSH1 0x0 DUP1 REVERT JUMPDEST POP PUSH2 0x2F1 PUSH2 0x2EC CALLDATASIZE PUSH1 0x4 PUSH2 0x17C1 JUMP JUMPDEST PUSH2 0x76F JUMP JUMPDEST PUSH1 0x40 MLOAD PUSH2 0x226 SWAP2 SWAP1 PUSH2 0x2008 JUMP JUMPDEST CALLVALUE DUP1 ISZERO PUSH2 0x30A JUMPI PUSH1 0x0 DUP1 REVERT JUMPDEST POP PUSH2 0x24F PUSH2 0x319 CALLDATASIZE PUSH1 0x4 PUSH2 0x1674 JUMP JUMPDEST PUSH2 0x810 JUMP JUMPDEST CALLVALUE DUP1 ISZERO PUSH2 0x32A JUMPI PUSH1 0x0 DUP1 REVERT JUMPDEST POP PUSH2 0x24F PUSH2 0x339 CALLDATASIZE PUSH1 0x4 PUSH2 0x17FD JUMP JUMPDEST PUSH2 0x824 JUMP JUMPDEST CALLVALUE DUP1 ISZERO PUSH2 0x34A JUMPI PUSH1 0x0 DUP1 REVERT JUMPDEST POP PUSH2 0x219 PUSH2 0x359 CALLDATASIZE PUSH1 0x4 PUSH2 0x164E JUMP JUMPDEST PUSH2 0x830 JUMP JUMPDEST CALLVALUE DUP1 ISZERO PUSH2 0x36A JUMPI PUSH1 0x0 DUP1 REVERT JUMPDEST POP PUSH2 0x1B7 PUSH2 0x379 CALLDATASIZE PUSH1 0x4 PUSH2 0x16AE JUMP JUMPDEST PUSH2 0x83C JUMP JUMPDEST CALLVALUE DUP1 ISZERO PUSH2 0x38A JUMPI PUSH1 0x0 DUP1 REVERT JUMPDEST POP PUSH2 0x1B7 PUSH2 0x399 CALLDATASIZE PUSH1 0x4 PUSH2 0x181C JUMP JUMPDEST PUSH2 0x8EF JUMP JUMPDEST CALLVALUE DUP1 ISZERO PUSH2 0x3AA JUMPI PUSH1 0x0 DUP1 REVERT JUMPDEST POP PUSH2 0x3B3 PUSH2 0x986 JUMP JUMPDEST PUSH1 0x40 MLOAD PUSH2 0x226 SWAP2 SWAP1 PUSH2 0x1F9D JUMP JUMPDEST CALLVALUE DUP1 ISZERO PUSH2 0x3CC JUMPI PUSH1 0x0 DUP1 REVERT JUMPDEST POP PUSH2 0x3D5 PUSH2 0x9DE JUMP JUMPDEST PUSH1 0x40 MLOAD PUSH2 0x226 SWAP2 SWAP1 PUSH2 0x1F74 JUMP JUMPDEST CALLVALUE DUP1 ISZERO PUSH2 0x3EE JUMPI PUSH1 0x0 DUP1 REVERT JUMPDEST POP PUSH2 0x219 PUSH2 0x9E2 JUMP JUMPDEST CALLVALUE DUP1 ISZERO PUSH2 0x403 JUMPI PUSH1 0x0 DUP1 REVERT JUMPDEST POP PUSH2 0x219 PUSH2 0x412 CALLDATASIZE PUSH1 0x4 PUSH2 0x164E JUMP JUMPDEST PUSH2 0x9E8 JUMP JUMPDEST CALLVALUE DUP1 ISZERO PUSH2 0x423 JUMPI PUSH1 0x0 DUP1 REVERT JUMPDEST POP PUSH2 0x219 PUSH2 0xA0D JUMP JUMPDEST CALLVALUE DUP1 ISZERO PUSH2 0x438 JUMPI PUSH1 0x0 DUP1 REVERT JUMPDEST POP PUSH2 0x219 PUSH2 0xA13 JUMP JUMPDEST CALLVALUE DUP1 ISZERO PUSH2 0x44D JUMPI PUSH1 0x0 DUP1 REVERT JUMPDEST POP PUSH2 0x1B7 PUSH2 0x45C CALLDATASIZE PUSH1 0x4 PUSH2 0x18D1 JUMP JUMPDEST PUSH2 0xA19 JUMP JUMPDEST CALLVALUE DUP1 ISZERO PUSH2 0x46D JUMPI PUSH1 0x0 DUP1 REVERT JUMPDEST POP PUSH2 0x1B7 PUSH2 0x47C CALLDATASIZE PUSH1 0x4 PUSH2 0x17C1 JUMP JUMPDEST PUSH2 0xC64 JUMP JUMPDEST CALLVALUE DUP1 ISZERO PUSH2 0x48D JUMPI PUSH1 0x0 DUP1 REVERT JUMPDEST POP PUSH2 0x219 PUSH2 0xD24 JUMP JUMPDEST CALLVALUE DUP1 ISZERO PUSH2 0x4A2 JUMPI PUSH1 0x0 DUP1 REVERT JUMPDEST POP PUSH2 0x3D5 PUSH2 0xD2A JUMP JUMPDEST PUSH2 0x4B3 PUSH2 0x9DE JUMP JUMPDEST PUSH1 0x1 PUSH1 0x1 PUSH1 0xA0 SHL SUB AND CALLER PUSH1 0x1 PUSH1 0x1 PUSH1 0xA0 SHL SUB AND EQ PUSH2 0x4EF JUMPI PUSH1 0x40 MLOAD PUSH1 0x1 PUSH1 0xE5 SHL PUSH3 0x461BCD MUL DUP2 MSTORE PUSH1 0x4 ADD PUSH2 0x4E6 SWAP1 PUSH2 0x2029 JUMP JUMPDEST PUSH1 0x40 MLOAD DUP1 SWAP2 SUB SWAP1 REVERT JUMPDEST PUSH2 0x4F9 DUP3 DUP3 PUSH2 0xD39 JUMP JUMPDEST POP POP JUMP JUMPDEST PUSH1 0x0 SLOAD PUSH1 0x1 PUSH1 0xA0 SHL SWAP1 DIV PUSH1 0xFF AND ISZERO PUSH2 0x52A JUMPI PUSH1 0x40 MLOAD PUSH1 0x1 PUSH1 0xE5 SHL PUSH3 0x461BCD MUL DUP2 MSTORE PUSH1 0x4 ADD PUSH2 0x4E6 SWAP1 PUSH2 0x2069 JUMP JUMPDEST DUP3 MLOAD DUP5 MLOAD EQ PUSH2 0x54E JUMPI PUSH1 0x40 MLOAD PUSH1 0x1 PUSH1 0xE5 SHL PUSH3 0x461BCD MUL DUP2 MSTORE PUSH1 0x4 ADD PUSH2 0x4E6 SWAP1 PUSH2 0x2099 JUMP JUMPDEST PUSH1 0x0 JUMPDEST DUP5 MLOAD DUP2 LT ISZERO PUSH2 0x592 JUMPI PUSH2 0x58A DUP6 DUP3 DUP2 MLOAD DUP2 LT PUSH2 0x569 JUMPI INVALID JUMPDEST PUSH1 0x20 MUL PUSH1 0x20 ADD ADD MLOAD DUP6 DUP4 DUP2 MLOAD DUP2 LT PUSH2 0x57D JUMPI INVALID JUMPDEST PUSH1 0x20 MUL PUSH1 0x20 ADD ADD MLOAD PUSH2 0xD39 JUMP JUMPDEST PUSH1 0x1 ADD PUSH2 0x551 JUMP JUMPDEST POP DUP2 PUSH1 0x6 SLOAD LT ISZERO PUSH2 0x5B8 JUMPI PUSH1 0x40 MLOAD PUSH1 0x1 PUSH1 0xE5 SHL PUSH3 0x461BCD MUL DUP2 MSTORE PUSH1 0x4 ADD PUSH2 0x4E6 SWAP1 PUSH2 0x20E9 JUMP JUMPDEST PUSH1 0x7 SWAP2 SWAP1 SWAP2 SSTORE PUSH1 0x8 SSTORE POP POP PUSH1 0x0 DUP1 SLOAD PUSH1 0x1 PUSH1 0xA0 SHL PUSH1 0xFF MUL NOT AND PUSH1 0x1 PUSH1 0xA0 SHL OR SWAP1 SSTORE JUMP JUMPDEST PUSH1 0x0 SWAP1 DUP2 MSTORE PUSH1 0x4 PUSH1 0x20 MSTORE PUSH1 0x40 SWAP1 KECCAK256 SLOAD SWAP1 JUMP JUMPDEST PUSH1 0x0 PUSH2 0x60C PUSH2 0x605 PUSH2 0x359 DUP6 DUP6 PUSH4 0xFFFFFFFF PUSH2 0xEFA AND JUMP JUMPDEST PUSH1 0x4 PUSH2 0x824 JUMP JUMPDEST SWAP1 POP JUMPDEST SWAP3 SWAP2 POP POP JUMP JUMPDEST PUSH2 0x61D PUSH2 0x9DE JUMP JUMPDEST PUSH1 0x1 PUSH1 0x1 PUSH1 0xA0 SHL SUB AND CALLER PUSH1 0x1 PUSH1 0x1 PUSH1 0xA0 SHL SUB AND EQ PUSH2 0x650 JUMPI PUSH1 0x40 MLOAD PUSH1 0x1 PUSH1 0xE5 SHL PUSH3 0x461BCD MUL DUP2 MSTORE PUSH1 0x4 ADD PUSH2 0x4E6 SWAP1 PUSH2 0x2029 JUMP JUMPDEST DUP1 PUSH2 0x670 JUMPI PUSH1 0x40 MLOAD PUSH1 0x1 PUSH1 0xE5 SHL PUSH3 0x461BCD MUL DUP2 MSTORE PUSH1 0x4 ADD PUSH2 0x4E6 SWAP1 PUSH2 0x2039 JUMP JUMPDEST PUSH32 0xFD0B44227DEE5DE3FA844FF17983688ADE4471A8257D62ED2A48507168810D7A PUSH1 0x8 SLOAD DUP3 PUSH1 0x40 MLOAD PUSH2 0x6A3 SWAP3 SWAP2 SWAP1 PUSH2 0x2109 JUMP JUMPDEST PUSH1 0x40 MLOAD DUP1 SWAP2 SUB SWAP1 LOG1 PUSH1 0x8 SSTORE JUMP JUMPDEST PUSH2 0x6B8 PUSH2 0x9DE JUMP JUMPDEST PUSH1 0x1 PUSH1 0x1 PUSH1 0xA0 SHL SUB AND CALLER PUSH1 0x1 PUSH1 0x1 PUSH1 0xA0 SHL SUB AND EQ PUSH2 0x6EB JUMPI PUSH1 0x40 MLOAD PUSH1 0x1 PUSH1 0xE5 SHL PUSH3 0x461BCD MUL DUP2 MSTORE PUSH1 0x4 ADD PUSH2 0x4E6 SWAP1 PUSH2 0x2029 JUMP JUMPDEST PUSH2 0x4F9 PUSH2 0x6F7 DUP4 PUSH2 0x830 JUMP JUMPDEST DUP3 PUSH2 0xD39 JUMP JUMPDEST PUSH2 0x705 PUSH2 0x9DE JUMP JUMPDEST PUSH1 0x1 PUSH1 0x1 PUSH1 0xA0 SHL SUB AND CALLER PUSH1 0x1 PUSH1 0x1 PUSH1 0xA0 SHL SUB AND EQ PUSH2 0x738 JUMPI PUSH1 0x40 MLOAD PUSH1 0x1 PUSH1 0xE5 SHL PUSH3 0x461BCD MUL DUP2 MSTORE PUSH1 0x4 ADD PUSH2 0x4E6 SWAP1 PUSH2 0x2029 JUMP JUMPDEST PUSH2 0x744 DUP5 DUP5 DUP5 DUP5 PUSH2 0xFD6 JUMP JUMPDEST POP POP POP POP JUMP JUMPDEST PUSH32 0x1618FCEC65BCE0693E931D337FC12424EE920BF56C4A74BC8DDB1361328AF236 JUMPDEST SWAP1 JUMP JUMPDEST PUSH1 0x0 DUP2 DUP2 MSTORE PUSH1 0x3 PUSH1 0x20 SWAP1 DUP2 MSTORE PUSH1 0x40 SWAP2 DUP3 SWAP1 KECCAK256 DUP1 SLOAD DUP4 MLOAD PUSH1 0x1F PUSH1 0x2 PUSH1 0x0 NOT PUSH2 0x100 PUSH1 0x1 DUP7 AND ISZERO MUL ADD SWAP1 SWAP4 AND SWAP3 SWAP1 SWAP3 DIV SWAP2 DUP3 ADD DUP5 SWAP1 DIV DUP5 MUL DUP2 ADD DUP5 ADD SWAP1 SWAP5 MSTORE DUP1 DUP5 MSTORE PUSH1 0x60 SWAP4 SWAP3 DUP4 ADD DUP3 DUP3 DUP1 ISZERO PUSH2 0x804 JUMPI DUP1 PUSH1 0x1F LT PUSH2 0x7D9 JUMPI PUSH2 0x100 DUP1 DUP4 SLOAD DIV MUL DUP4 MSTORE SWAP2 PUSH1 0x20 ADD SWAP2 PUSH2 0x804 JUMP JUMPDEST DUP3 ADD SWAP2 SWAP1 PUSH1 0x0 MSTORE PUSH1 0x20 PUSH1 0x0 KECCAK256 SWAP1 JUMPDEST DUP2 SLOAD DUP2 MSTORE SWAP1 PUSH1 0x1 ADD SWAP1 PUSH1 0x20 ADD DUP1 DUP4 GT PUSH2 0x7E7 JUMPI DUP3 SWAP1 SUB PUSH1 0x1F AND DUP3 ADD SWAP2 JUMPDEST POP POP POP POP POP SWAP1 POP SWAP2 SWAP1 POP JUMP JUMPDEST PUSH1 0x0 PUSH2 0x60C PUSH2 0x81E DUP5 PUSH2 0x830 JUMP JUMPDEST DUP4 PUSH2 0x1134 JUMP JUMPDEST PUSH1 0x0 PUSH2 0x60C DUP4 DUP4 PUSH2 0x1134 JUMP JUMPDEST PUSH1 0x1 PUSH1 0x1 PUSH1 0xA0 SHL SUB AND SWAP1 JUMP JUMPDEST PUSH2 0x844 PUSH2 0x9DE JUMP JUMPDEST PUSH1 0x1 PUSH1 0x1 PUSH1 0xA0 SHL SUB AND CALLER PUSH1 0x1 PUSH1 0x1 PUSH1 0xA0 SHL SUB AND EQ PUSH2 0x877 JUMPI PUSH1 0x40 MLOAD PUSH1 0x1 PUSH1 0xE5 SHL PUSH3 0x461BCD MUL DUP2 MSTORE PUSH1 0x4 ADD PUSH2 0x4E6 SWAP1 PUSH2 0x2029 JUMP JUMPDEST DUP1 ISZERO PUSH2 0x8E0 JUMPI PUSH1 0x0 JUMPDEST PUSH1 0x5 SLOAD DUP2 LT ISZERO PUSH2 0x8C3 JUMPI PUSH1 0x4 PUSH1 0x0 PUSH1 0x5 DUP4 DUP2 SLOAD DUP2 LT PUSH2 0x89B JUMPI INVALID JUMPDEST SWAP1 PUSH1 0x0 MSTORE PUSH1 0x20 PUSH1 0x0 KECCAK256 ADD SLOAD DUP2 MSTORE PUSH1 0x20 ADD SWAP1 DUP2 MSTORE PUSH1 0x20 ADD PUSH1 0x0 KECCAK256 PUSH1 0x0 SWAP1 SSTORE DUP1 PUSH1 0x1 ADD SWAP1 POP PUSH2 0x880 JUMP JUMPDEST POP PUSH2 0x8D0 PUSH1 0x5 PUSH1 0x0 PUSH2 0x1413 JUMP JUMPDEST PUSH1 0x0 PUSH1 0x6 DUP2 SWAP1 SSTORE PUSH1 0x7 DUP2 SWAP1 SSTORE PUSH1 0x8 SSTORE JUMPDEST PUSH2 0x8EA DUP4 DUP4 PUSH2 0x114A JUMP JUMPDEST POP POP POP JUMP JUMPDEST PUSH2 0x8F7 PUSH2 0x9DE JUMP JUMPDEST PUSH1 0x1 PUSH1 0x1 PUSH1 0xA0 SHL SUB AND CALLER PUSH1 0x1 PUSH1 0x1 PUSH1 0xA0 SHL SUB AND EQ PUSH2 0x92A JUMPI PUSH1 0x40 MLOAD PUSH1 0x1 PUSH1 0xE5 SHL PUSH3 0x461BCD MUL DUP2 MSTORE PUSH1 0x4 ADD PUSH2 0x4E6 SWAP1 PUSH2 0x2029 JUMP JUMPDEST PUSH1 0x0 DUP3 DUP2 MSTORE PUSH1 0x3 PUSH1 0x20 SWAP1 DUP2 MSTORE PUSH1 0x40 SWAP1 SWAP2 KECCAK256 DUP3 MLOAD PUSH2 0x949 SWAP3 DUP5 ADD SWAP1 PUSH2 0x1434 JUMP JUMPDEST POP DUP2 PUSH32 0xECE574603820D07BC9B91F2A932BAADF4628AABCB8AFBA49776529C14A6104B2 DUP3 PUSH1 0x40 MLOAD PUSH2 0x97A SWAP2 SWAP1 PUSH2 0x2008 JUMP JUMPDEST PUSH1 0x40 MLOAD DUP1 SWAP2 SUB SWAP1 LOG2 POP POP JUMP JUMPDEST PUSH1 0x60 PUSH1 0x5 DUP1 SLOAD DUP1 PUSH1 0x20 MUL PUSH1 0x20 ADD PUSH1 0x40 MLOAD SWAP1 DUP2 ADD PUSH1 0x40 MSTORE DUP1 SWAP3 SWAP2 SWAP1 DUP2 DUP2 MSTORE PUSH1 0x20 ADD DUP3 DUP1 SLOAD DUP1 ISZERO PUSH2 0x9D4 JUMPI PUSH1 0x20 MUL DUP3 ADD SWAP2 SWAP1 PUSH1 0x0 MSTORE PUSH1 0x20 PUSH1 0x0 KECCAK256 SWAP1 JUMPDEST DUP2 SLOAD DUP2 MSTORE PUSH1 0x20 ADD SWAP1 PUSH1 0x1 ADD SWAP1 DUP1 DUP4 GT PUSH2 0x9C0 JUMPI JUMPDEST POP POP POP POP POP SWAP1 POP SWAP1 JUMP JUMPDEST ADDRESS SWAP1 JUMP JUMPDEST PUSH1 0x7 SLOAD SWAP1 JUMP JUMPDEST PUSH1 0x0 PUSH1 0x4 PUSH1 0x0 PUSH2 0x9F7 DUP5 PUSH2 0x830 JUMP JUMPDEST DUP2 MSTORE PUSH1 0x20 ADD SWAP1 DUP2 MSTORE PUSH1 0x20 ADD PUSH1 0x0 KECCAK256 SLOAD SWAP1 POP SWAP2 SWAP1 POP JUMP JUMPDEST PUSH1 0x6 SLOAD SWAP1 JUMP JUMPDEST PUSH1 0x1 SLOAD SWAP1 JUMP JUMPDEST PUSH1 0x0 GAS PUSH1 0x1 DUP1 SLOAD DUP2 ADD SWAP1 SSTORE SWAP1 POP DUP6 ISZERO DUP1 PUSH2 0xA34 JUMPI POP PUSH1 0x1 SLOAD DUP7 EQ JUMPDEST PUSH2 0xA53 JUMPI PUSH1 0x40 MLOAD PUSH1 0x1 PUSH1 0xE5 SHL PUSH3 0x461BCD MUL DUP2 MSTORE PUSH1 0x4 ADD PUSH2 0x4E6 SWAP1 PUSH2 0x20C9 JUMP JUMPDEST PUSH1 0x0 PUSH1 0x1 PUSH1 0x1 PUSH1 0xA0 SHL SUB DUP11 AND ADDRESS EQ ISZERO PUSH2 0xA94 JUMPI PUSH1 0x7 SLOAD DUP4 MLOAD LT ISZERO PUSH2 0xA8C JUMPI PUSH1 0x40 MLOAD PUSH1 0x1 PUSH1 0xE5 SHL PUSH3 0x461BCD MUL DUP2 MSTORE PUSH1 0x4 ADD PUSH2 0x4E6 SWAP1 PUSH2 0x20D9 JUMP JUMPDEST POP PUSH1 0x1 PUSH2 0xABE JUMP JUMPDEST PUSH1 0x8 SLOAD DUP4 MLOAD LT ISZERO PUSH2 0xABA JUMPI PUSH1 0x40 MLOAD PUSH1 0x1 PUSH1 0xE5 SHL PUSH3 0x461BCD MUL DUP2 MSTORE PUSH1 0x4 ADD PUSH2 0x4E6 SWAP1 PUSH2 0x20D9 JUMP JUMPDEST POP PUSH1 0x2 JUMPDEST PUSH1 0x0 PUSH2 0xB06 ADDRESS DUP14 DUP14 DUP14 DUP14 DUP1 MLOAD SWAP1 PUSH1 0x20 ADD KECCAK256 DUP14 DUP14 DUP14 DUP14 PUSH1 0x40 MLOAD PUSH1 0x20 ADD PUSH2 0xAEB SWAP10 SWAP9 SWAP8 SWAP7 SWAP6 SWAP5 SWAP4 SWAP3 SWAP2 SWAP1 PUSH2 0x1EA4 JUMP JUMPDEST PUSH1 0x40 MLOAD PUSH1 0x20 DUP2 DUP4 SUB SUB DUP2 MSTORE SWAP1 PUSH1 0x40 MSTORE DUP1 MLOAD SWAP1 PUSH1 0x20 ADD KECCAK256 PUSH2 0x12D1 JUMP JUMPDEST PUSH1 0x0 DUP2 DUP2 MSTORE PUSH1 0x2 PUSH1 0x20 MSTORE PUSH1 0x40 SWAP1 KECCAK256 SLOAD SWAP1 SWAP2 POP ISZERO PUSH2 0xB38 JUMPI PUSH1 0x40 MLOAD PUSH1 0x1 PUSH1 0xE5 SHL PUSH3 0x461BCD MUL DUP2 MSTORE PUSH1 0x4 ADD PUSH2 0x4E6 SWAP1 PUSH2 0x2079 JUMP JUMPDEST PUSH1 0x0 DUP2 DUP2 MSTORE PUSH1 0x2 PUSH1 0x20 MSTORE PUSH1 0x40 DUP2 KECCAK256 PUSH32 0xA50DAF8FFAD995556F094FB7BB26EC5C7AADC7F574C741D0237EA13300BC1DD7 SWAP1 SSTORE DUP1 JUMPDEST DUP6 MLOAD DUP2 LT ISZERO PUSH2 0xC0D JUMPI PUSH1 0x0 PUSH2 0xB9C DUP8 DUP4 DUP2 MLOAD DUP2 LT PUSH2 0xB85 JUMPI INVALID JUMPDEST PUSH1 0x20 MUL PUSH1 0x20 ADD ADD MLOAD DUP6 PUSH2 0xEFA SWAP1 SWAP2 SWAP1 PUSH4 0xFFFFFFFF AND JUMP JUMPDEST SWAP1 POP DUP3 PUSH1 0x1 PUSH1 0x1 PUSH1 0xA0 SHL SUB AND DUP2 PUSH1 0x1 PUSH1 0x1 PUSH1 0xA0 SHL SUB AND GT PUSH2 0xBD2 JUMPI PUSH1 0x40 MLOAD PUSH1 0x1 PUSH1 0xE5 SHL PUSH3 0x461BCD MUL DUP2 MSTORE PUSH1 0x4 ADD PUSH2 0x4E6 SWAP1 PUSH2 0x2089 JUMP JUMPDEST PUSH2 0xBE4 PUSH2 0xBDE DUP3 PUSH2 0x830 JUMP JUMPDEST DUP7 PUSH2 0x824 JUMP JUMPDEST PUSH2 0xC03 JUMPI PUSH1 0x40 MLOAD PUSH1 0x1 PUSH1 0xE5 SHL PUSH3 0x461BCD MUL DUP2 MSTORE PUSH1 0x4 ADD PUSH2 0x4E6 SWAP1 PUSH2 0x2049 JUMP JUMPDEST SWAP2 POP PUSH1 0x1 ADD PUSH2 0xB6B JUMP JUMPDEST POP PUSH2 0xC1A DUP14 DUP14 DUP14 DUP14 PUSH2 0xFD6 JUMP JUMPDEST PUSH2 0xC55 PUSH2 0xC4F DUP8 PUSH2 0xC43 GAS PUSH2 0xC37 PUSH2 0xAA50 DUP11 PUSH4 0xFFFFFFFF PUSH2 0x1301 AND JUMP JUMPDEST SWAP1 PUSH4 0xFFFFFFFF PUSH2 0x1313 AND JUMP JUMPDEST SWAP1 PUSH4 0xFFFFFFFF PUSH2 0x1328 AND JUMP JUMPDEST DUP9 PUSH2 0x134F JUMP JUMPDEST POP POP POP POP POP POP POP POP POP POP POP POP POP JUMP JUMPDEST PUSH2 0xC6C PUSH2 0x9DE JUMP JUMPDEST PUSH1 0x1 PUSH1 0x1 PUSH1 0xA0 SHL SUB AND CALLER PUSH1 0x1 PUSH1 0x1 PUSH1 0xA0 SHL SUB AND EQ PUSH2 0xC9F JUMPI PUSH1 0x40 MLOAD PUSH1 0x1 PUSH1 0xE5 SHL PUSH3 0x461BCD MUL DUP2 MSTORE PUSH1 0x4 ADD PUSH2 0x4E6 SWAP1 PUSH2 0x2029 JUMP JUMPDEST DUP1 PUSH2 0xCBF JUMPI PUSH1 0x40 MLOAD PUSH1 0x1 PUSH1 0xE5 SHL PUSH3 0x461BCD MUL DUP2 MSTORE PUSH1 0x4 ADD PUSH2 0x4E6 SWAP1 PUSH2 0x2039 JUMP JUMPDEST DUP1 PUSH1 0x6 SLOAD LT ISZERO PUSH2 0xCE4 JUMPI PUSH1 0x40 MLOAD PUSH1 0x1 PUSH1 0xE5 SHL PUSH3 0x461BCD MUL DUP2 MSTORE PUSH1 0x4 ADD PUSH2 0x4E6 SWAP1 PUSH2 0x20A9 JUMP JUMPDEST PUSH32 0x9B1FC5DDBAC8D6FAC2661A57E7515DEE9ABF241F420629999D85F031919F4B4D PUSH1 0x7 SLOAD DUP3 PUSH1 0x40 MLOAD PUSH2 0xD17 SWAP3 SWAP2 SWAP1 PUSH2 0x2109 JUMP JUMPDEST PUSH1 0x40 MLOAD DUP1 SWAP2 SUB SWAP1 LOG1 PUSH1 0x7 SSTORE JUMP JUMPDEST PUSH1 0x8 SLOAD SWAP1 JUMP JUMPDEST PUSH1 0x0 SLOAD PUSH1 0x1 PUSH1 0x1 PUSH1 0xA0 SHL SUB AND SWAP1 JUMP JUMPDEST PUSH1 0x0 DUP3 DUP2 MSTORE PUSH1 0x4 PUSH1 0x20 MSTORE PUSH1 0x40 SWAP1 KECCAK256 SLOAD NOT PUSH1 0x1 AND ISZERO DUP1 ISZERO PUSH2 0xD5A JUMPI POP PUSH1 0x1 DUP2 AND ISZERO JUMPDEST ISZERO PUSH2 0xD6A JUMPI PUSH1 0x6 DUP1 SLOAD PUSH1 0x0 NOT ADD SWAP1 SSTORE JUMPDEST PUSH1 0x0 DUP3 DUP2 MSTORE PUSH1 0x4 PUSH1 0x20 MSTORE PUSH1 0x40 SWAP1 KECCAK256 SLOAD PUSH1 0x1 AND ISZERO DUP1 ISZERO PUSH2 0xD8B JUMPI POP PUSH1 0x1 DUP2 NOT AND ISZERO JUMPDEST ISZERO PUSH2 0xD9A JUMPI PUSH1 0x6 DUP1 SLOAD PUSH1 0x1 ADD SWAP1 SSTORE JUMPDEST PUSH1 0x7 SLOAD PUSH1 0x6 SLOAD LT ISZERO PUSH2 0xDC1 JUMPI PUSH1 0x40 MLOAD PUSH1 0x1 PUSH1 0xE5 SHL PUSH3 0x461BCD MUL DUP2 MSTORE PUSH1 0x4 ADD PUSH2 0x4E6 SWAP1 PUSH2 0x2059 JUMP JUMPDEST PUSH1 0x0 DUP3 DUP2 MSTORE PUSH1 0x4 PUSH1 0x20 MSTORE PUSH1 0x40 SWAP1 KECCAK256 SLOAD PUSH2 0xE0A JUMPI PUSH1 0x5 DUP1 SLOAD PUSH1 0x1 DUP2 ADD DUP3 SSTORE PUSH1 0x0 SWAP2 SWAP1 SWAP2 MSTORE PUSH32 0x36B6384B5ECA791C62761152D0C79BB0604C104A5FB6F4EB0703F3154BB3DB0 ADD DUP3 SWAP1 SSTORE JUMPDEST PUSH1 0x0 DUP3 DUP2 MSTORE PUSH1 0x4 PUSH1 0x20 MSTORE PUSH1 0x40 DUP1 DUP3 KECCAK256 SLOAD SWAP1 MLOAD DUP4 SWAP3 DUP6 SWAP2 PUSH32 0x82F65B599219DC2719C1104B915B860B397DC476D20C4DF48810A72BB8AD1E5B SWAP2 SWAP1 LOG4 PUSH1 0x0 DUP3 DUP2 MSTORE PUSH1 0x4 PUSH1 0x20 MSTORE PUSH1 0x40 SWAP1 KECCAK256 DUP2 SWAP1 SSTORE DUP1 PUSH2 0x4F9 JUMPI PUSH1 0x0 JUMPDEST PUSH1 0x5 SLOAD DUP2 LT ISZERO PUSH2 0x8EA JUMPI DUP3 PUSH1 0x5 DUP3 DUP2 SLOAD DUP2 LT PUSH2 0xE75 JUMPI INVALID JUMPDEST SWAP1 PUSH1 0x0 MSTORE PUSH1 0x20 PUSH1 0x0 KECCAK256 ADD SLOAD EQ ISZERO PUSH2 0xEF2 JUMPI PUSH1 0x5 DUP1 SLOAD PUSH1 0x0 NOT DUP2 ADD SWAP1 DUP2 LT PUSH2 0xE98 JUMPI INVALID JUMPDEST SWAP1 PUSH1 0x0 MSTORE PUSH1 0x20 PUSH1 0x0 KECCAK256 ADD SLOAD PUSH1 0x5 DUP3 DUP2 SLOAD DUP2 LT PUSH2 0xEB0 JUMPI INVALID JUMPDEST PUSH1 0x0 SWAP2 DUP3 MSTORE PUSH1 0x20 SWAP1 SWAP2 KECCAK256 ADD SSTORE PUSH1 0x5 DUP1 SLOAD PUSH1 0x0 NOT DUP2 ADD SWAP1 DUP2 LT PUSH2 0xECE JUMPI INVALID JUMPDEST PUSH1 0x0 SWAP2 DUP3 MSTORE PUSH1 0x20 DUP3 KECCAK256 ADD SSTORE PUSH1 0x5 DUP1 SLOAD SWAP1 PUSH2 0xEEC SWAP1 PUSH1 0x0 NOT DUP4 ADD PUSH2 0x14B2 JUMP JUMPDEST POP PUSH2 0x8EA JUMP JUMPDEST PUSH1 0x1 ADD PUSH2 0xE5D JUMP JUMPDEST PUSH1 0x0 DUP2 MLOAD PUSH1 0x41 EQ PUSH2 0xF0D JUMPI POP PUSH1 0x0 PUSH2 0x60F JUMP JUMPDEST PUSH1 0x20 DUP3 ADD MLOAD PUSH1 0x40 DUP4 ADD MLOAD PUSH1 0x60 DUP5 ADD MLOAD PUSH1 0x0 BYTE PUSH32 0x7FFFFFFFFFFFFFFFFFFFFFFFFFFFFFFF5D576E7357A4501DDFE92F46681B20A0 DUP3 GT ISZERO PUSH2 0xF53 JUMPI PUSH1 0x0 SWAP4 POP POP POP POP PUSH2 0x60F JUMP JUMPDEST DUP1 PUSH1 0xFF AND PUSH1 0x1B EQ ISZERO DUP1 ISZERO PUSH2 0xF6B JUMPI POP DUP1 PUSH1 0xFF AND PUSH1 0x1C EQ ISZERO JUMPDEST ISZERO PUSH2 0xF7C JUMPI PUSH1 0x0 SWAP4 POP POP POP POP PUSH2 0x60F JUMP JUMPDEST PUSH1 0x1 DUP7 DUP3 DUP6 DUP6 PUSH1 0x40 MLOAD PUSH1 0x0 DUP2 MSTORE PUSH1 0x20 ADD PUSH1 0x40 MSTORE PUSH1 0x40 MLOAD PUSH2 0xF9F SWAP5 SWAP4 SWAP3 SWAP2 SWAP1 PUSH2 0x1FCA JUMP JUMPDEST PUSH1 0x20 PUSH1 0x40 MLOAD PUSH1 0x20 DUP2 SUB SWAP1 DUP1 DUP5 SUB SWAP1 DUP6 GAS STATICCALL ISZERO DUP1 ISZERO PUSH2 0xFC1 JUMPI RETURNDATASIZE PUSH1 0x0 DUP1 RETURNDATACOPY RETURNDATASIZE PUSH1 0x0 REVERT JUMPDEST POP POP PUSH1 0x40 MLOAD PUSH1 0x1F NOT ADD MLOAD SWAP8 SWAP7 POP POP POP POP POP POP POP JUMP JUMPDEST DUP4 PUSH2 0x10C8 JUMPI PUSH1 0x0 PUSH1 0x60 DUP5 PUSH1 0x1 PUSH1 0x1 PUSH1 0xA0 SHL SUB AND DUP5 DUP5 PUSH1 0x40 MLOAD PUSH2 0xFF8 SWAP2 SWAP1 PUSH2 0x1F41 JUMP JUMPDEST PUSH1 0x0 PUSH1 0x40 MLOAD DUP1 DUP4 SUB DUP2 DUP6 DUP8 GAS CALL SWAP3 POP POP POP RETURNDATASIZE DUP1 PUSH1 0x0 DUP2 EQ PUSH2 0x1035 JUMPI PUSH1 0x40 MLOAD SWAP2 POP PUSH1 0x1F NOT PUSH1 0x3F RETURNDATASIZE ADD AND DUP3 ADD PUSH1 0x40 MSTORE RETURNDATASIZE DUP3 MSTORE RETURNDATASIZE PUSH1 0x0 PUSH1 0x20 DUP5 ADD RETURNDATACOPY PUSH2 0x103A JUMP JUMPDEST PUSH1 0x60 SWAP2 POP JUMPDEST POP SWAP1 SWAP3 POP SWAP1 POP DUP2 ISZERO PUSH2 0x107F JUMPI PUSH1 0x40 MLOAD PUSH1 0x1 PUSH1 0x1 PUSH1 0xA0 SHL SUB DUP7 AND SWAP1 PUSH32 0x7C940052472FD1D616012DC780A92C777783E8F45CDB6802D1D48891CD33A508 SWAP1 PUSH1 0x0 SWAP1 LOG2 PUSH2 0x10C1 JUMP JUMPDEST DUP5 PUSH1 0x1 PUSH1 0x1 PUSH1 0xA0 SHL SUB AND PUSH32 0x4B0B4377CB27B4634A3573214783294886BC4E04F64FA75D3F5469FB26393462 DUP3 PUSH1 0x40 MLOAD PUSH2 0x10B8 SWAP2 SWAP1 PUSH2 0x2008 JUMP JUMPDEST PUSH1 0x40 MLOAD DUP1 SWAP2 SUB SWAP1 LOG2 JUMPDEST POP POP PUSH2 0x744 JUMP JUMPDEST PUSH1 0x1 DUP5 EQ ISZERO PUSH2 0x1119 JUMPI PUSH1 0x0 DUP2 MLOAD PUSH1 0x20 DUP4 ADD PUSH1 0x0 CREATE PUSH1 0x40 MLOAD SWAP1 SWAP2 POP PUSH1 0x1 PUSH1 0x1 PUSH1 0xA0 SHL SUB DUP3 AND SWAP1 PUSH32 0xCF78CF0D6F3D8371E1075C69C492AB4EC5D8CF23A1A239B6A51A1D00BE7CA312 SWAP1 PUSH1 0x0 SWAP1 LOG2 POP PUSH2 0x744 JUMP JUMPDEST PUSH1 0x40 MLOAD PUSH1 0x1 PUSH1 0xE5 SHL PUSH3 0x461BCD MUL DUP2 MSTORE PUSH1 0x4 ADD PUSH2 0x4E6 SWAP1 PUSH2 0x20B9 JUMP JUMPDEST PUSH1 0x0 SWAP2 DUP3 MSTORE PUSH1 0x4 PUSH1 0x20 MSTORE PUSH1 0x40 SWAP1 SWAP2 KECCAK256 SLOAD NOT AND ISZERO SWAP1 JUMP JUMPDEST PUSH32 0x1618FCEC65BCE0693E931D337FC12424EE920BF56C4A74BC8DDB1361328AF236 PUSH1 0x0 SHL DUP3 PUSH1 0x1 PUSH1 0x1 PUSH1 0xA0 SHL SUB AND PUSH4 0x5122BB7C PUSH1 0x40 MLOAD DUP2 PUSH4 0xFFFFFFFF AND PUSH1 0xE0 SHL DUP2 MSTORE PUSH1 0x4 ADD PUSH1 0x20 PUSH1 0x40 MLOAD DUP1 DUP4 SUB DUP2 DUP7 DUP1 EXTCODESIZE ISZERO DUP1 ISZERO PUSH2 0x11A7 JUMPI PUSH1 0x0 DUP1 REVERT JUMPDEST POP GAS STATICCALL ISZERO DUP1 ISZERO PUSH2 0x11BB JUMPI RETURNDATASIZE PUSH1 0x0 DUP1 RETURNDATACOPY RETURNDATASIZE PUSH1 0x0 REVERT JUMPDEST POP POP POP POP PUSH1 0x40 MLOAD RETURNDATASIZE PUSH1 0x1F NOT PUSH1 0x1F DUP3 ADD AND DUP3 ADD DUP1 PUSH1 0x40 MSTORE POP PUSH2 0x11DF SWAP2 SWAP1 DUP2 ADD SWAP1 PUSH2 0x17DF JUMP JUMPDEST EQ PUSH2 0x11FF JUMPI PUSH1 0x40 MLOAD PUSH1 0x1 PUSH1 0xE5 SHL PUSH3 0x461BCD MUL DUP2 MSTORE PUSH1 0x4 ADD PUSH2 0x4E6 SWAP1 PUSH2 0x20F9 JUMP JUMPDEST PUSH1 0x0 DUP1 SLOAD PUSH1 0x40 MLOAD PUSH1 0x1 PUSH1 0x1 PUSH1 0xA0 SHL SUB DUP1 DUP7 AND SWAP4 SWAP3 AND SWAP2 PUSH32 0xB177A4A05A82A0D82537F71956F554EE3D2D0F32A76C0B056E0490778BE10AB4 SWAP2 LOG3 PUSH1 0x0 DUP1 SLOAD PUSH1 0x1 PUSH1 0x1 PUSH1 0xA0 SHL SUB NOT AND PUSH1 0x1 PUSH1 0x1 PUSH1 0xA0 SHL SUB DUP5 AND SWAP1 DUP2 OR PUSH1 0x1 PUSH1 0xA0 SHL PUSH1 0xFF MUL NOT AND DUP3 SSTORE PUSH1 0x40 MLOAD PUSH2 0x126D SWAP1 DUP5 SWAP1 PUSH2 0x1F41 JUMP JUMPDEST PUSH1 0x0 PUSH1 0x40 MLOAD DUP1 DUP4 SUB DUP2 DUP6 GAS DELEGATECALL SWAP2 POP POP RETURNDATASIZE DUP1 PUSH1 0x0 DUP2 EQ PUSH2 0x12A8 JUMPI PUSH1 0x40 MLOAD SWAP2 POP PUSH1 0x1F NOT PUSH1 0x3F RETURNDATASIZE ADD AND DUP3 ADD PUSH1 0x40 MSTORE RETURNDATASIZE DUP3 MSTORE RETURNDATASIZE PUSH1 0x0 PUSH1 0x20 DUP5 ADD RETURNDATACOPY PUSH2 0x12AD JUMP JUMPDEST PUSH1 0x60 SWAP2 POP JUMPDEST POP POP SWAP1 POP DUP1 PUSH2 0x8EA JUMPI PUSH1 0x40 MLOAD PUSH1 0x1 PUSH1 0xE5 SHL PUSH3 0x461BCD MUL DUP2 MSTORE PUSH1 0x4 ADD PUSH2 0x4E6 SWAP1 PUSH2 0x2019 JUMP JUMPDEST PUSH1 0x0 DUP2 PUSH1 0x40 MLOAD PUSH1 0x20 ADD PUSH2 0x12E4 SWAP2 SWAP1 PUSH2 0x1F54 JUMP JUMPDEST PUSH1 0x40 MLOAD PUSH1 0x20 DUP2 DUP4 SUB SUB DUP2 MSTORE SWAP1 PUSH1 0x40 MSTORE DUP1 MLOAD SWAP1 PUSH1 0x20 ADD KECCAK256 SWAP1 POP SWAP2 SWAP1 POP JUMP JUMPDEST PUSH1 0x0 DUP3 DUP3 ADD DUP4 DUP2 LT ISZERO PUSH2 0x60C JUMPI PUSH1 0x0 DUP1 REVERT JUMPDEST PUSH1 0x0 DUP3 DUP3 GT ISZERO PUSH2 0x1322 JUMPI PUSH1 0x0 DUP1 REVERT JUMPDEST POP SWAP1 SUB SWAP1 JUMP JUMPDEST PUSH1 0x0 DUP3 PUSH2 0x1337 JUMPI POP PUSH1 0x0 PUSH2 0x60F JUMP JUMPDEST DUP3 DUP3 MUL DUP3 DUP5 DUP3 DUP2 PUSH2 0x1344 JUMPI INVALID JUMPDEST DIV EQ PUSH2 0x60C JUMPI PUSH1 0x0 DUP1 REVERT JUMPDEST PUSH1 0x1 PUSH1 0x1 PUSH1 0xA0 SHL SUB DUP2 AND PUSH2 0x1390 JUMPI PUSH1 0x40 MLOAD CALLER SWAP1 DUP4 ISZERO PUSH2 0x8FC MUL SWAP1 DUP5 SWAP1 PUSH1 0x0 DUP2 DUP2 DUP2 DUP6 DUP9 DUP9 CALL SWAP4 POP POP POP POP ISZERO DUP1 ISZERO PUSH2 0x138A JUMPI RETURNDATASIZE PUSH1 0x0 DUP1 RETURNDATACOPY RETURNDATASIZE PUSH1 0x0 REVERT JUMPDEST POP PUSH2 0x4F9 JUMP JUMPDEST PUSH1 0x40 MLOAD PUSH1 0x1 PUSH1 0xE0 SHL PUSH4 0xA9059CBB MUL DUP2 MSTORE PUSH1 0x1 PUSH1 0x1 PUSH1 0xA0 SHL SUB DUP3 AND SWAP1 PUSH4 0xA9059CBB SWAP1 PUSH2 0x13C1 SWAP1 CALLER SWAP1 DUP7 SWAP1 PUSH1 0x4 ADD PUSH2 0x1F82 JUMP JUMPDEST PUSH1 0x20 PUSH1 0x40 MLOAD DUP1 DUP4 SUB DUP2 PUSH1 0x0 DUP8 DUP1 EXTCODESIZE ISZERO DUP1 ISZERO PUSH2 0x13DB JUMPI PUSH1 0x0 DUP1 REVERT JUMPDEST POP GAS CALL ISZERO DUP1 ISZERO PUSH2 0x13EF JUMPI RETURNDATASIZE PUSH1 0x0 DUP1 RETURNDATACOPY RETURNDATASIZE PUSH1 0x0 REVERT JUMPDEST POP POP POP POP PUSH1 0x40 MLOAD RETURNDATASIZE PUSH1 0x1F NOT PUSH1 0x1F DUP3 ADD AND DUP3 ADD DUP1 PUSH1 0x40 MSTORE POP PUSH2 0x8EA SWAP2 SWAP1 DUP2 ADD SWAP1 PUSH2 0x17A3 JUMP JUMPDEST POP DUP1 SLOAD PUSH1 0x0 DUP3 SSTORE SWAP1 PUSH1 0x0 MSTORE PUSH1 0x20 PUSH1 0x0 KECCAK256 SWAP1 DUP2 ADD SWAP1 PUSH2 0x1431 SWAP2 SWAP1 PUSH2 0x14D2 JUMP JUMPDEST POP JUMP JUMPDEST DUP3 DUP1 SLOAD PUSH1 0x1 DUP2 PUSH1 0x1 AND ISZERO PUSH2 0x100 MUL SUB AND PUSH1 0x2 SWAP1 DIV SWAP1 PUSH1 0x0 MSTORE PUSH1 0x20 PUSH1 0x0 KECCAK256 SWAP1 PUSH1 0x1F ADD PUSH1 0x20 SWAP1 DIV DUP2 ADD SWAP3 DUP3 PUSH1 0x1F LT PUSH2 0x1475 JUMPI DUP1 MLOAD PUSH1 0xFF NOT AND DUP4 DUP1 ADD OR DUP6 SSTORE PUSH2 0x14A2 JUMP JUMPDEST DUP3 DUP1 ADD PUSH1 0x1 ADD DUP6 SSTORE DUP3 ISZERO PUSH2 0x14A2 JUMPI SWAP2 DUP3 ADD JUMPDEST DUP3 DUP2 GT ISZERO PUSH2 0x14A2 JUMPI DUP3 MLOAD DUP3 SSTORE SWAP2 PUSH1 0x20 ADD SWAP2 SWAP1 PUSH1 0x1 ADD SWAP1 PUSH2 0x1487 JUMP JUMPDEST POP PUSH2 0x14AE SWAP3 SWAP2 POP PUSH2 0x14D2 JUMP JUMPDEST POP SWAP1 JUMP JUMPDEST DUP2 SLOAD DUP2 DUP4 SSTORE DUP2 DUP2 GT ISZERO PUSH2 0x8EA JUMPI PUSH1 0x0 DUP4 DUP2 MSTORE PUSH1 0x20 SWAP1 KECCAK256 PUSH2 0x8EA SWAP2 DUP2 ADD SWAP1 DUP4 ADD JUMPDEST PUSH2 0x76C SWAP2 SWAP1 JUMPDEST DUP1 DUP3 GT ISZERO PUSH2 0x14AE JUMPI PUSH1 0x0 DUP2 SSTORE PUSH1 0x1 ADD PUSH2 0x14D8 JUMP JUMPDEST DUP1 CALLDATALOAD PUSH2 0x60F DUP2 PUSH2 0x221F JUMP JUMPDEST PUSH1 0x0 DUP3 PUSH1 0x1F DUP4 ADD SLT PUSH2 0x1508 JUMPI PUSH1 0x0 DUP1 REVERT JUMPDEST DUP2 CALLDATALOAD PUSH2 0x151B PUSH2 0x1516 DUP3 PUSH2 0x213E JUMP JUMPDEST PUSH2 0x2117 JUMP JUMPDEST SWAP2 POP DUP2 DUP2 DUP4 MSTORE PUSH1 0x20 DUP5 ADD SWAP4 POP PUSH1 0x20 DUP2 ADD SWAP1 POP DUP4 DUP6 PUSH1 0x20 DUP5 MUL DUP3 ADD GT ISZERO PUSH2 0x1540 JUMPI PUSH1 0x0 DUP1 REVERT JUMPDEST PUSH1 0x0 JUMPDEST DUP4 DUP2 LT ISZERO PUSH2 0x156C JUMPI DUP2 PUSH2 0x1556 DUP9 DUP3 PUSH2 0x15E9 JUMP JUMPDEST DUP5 MSTORE POP PUSH1 0x20 SWAP3 DUP4 ADD SWAP3 SWAP2 SWAP1 SWAP2 ADD SWAP1 PUSH1 0x1 ADD PUSH2 0x1543 JUMP JUMPDEST POP POP POP POP SWAP3 SWAP2 POP POP JUMP JUMPDEST PUSH1 0x0 DUP3 PUSH1 0x1F DUP4 ADD SLT PUSH2 0x1587 JUMPI PUSH1 0x0 DUP1 REVERT JUMPDEST DUP2 CALLDATALOAD PUSH2 0x1595 PUSH2 0x1516 DUP3 PUSH2 0x213E JUMP JUMPDEST DUP2 DUP2 MSTORE PUSH1 0x20 SWAP4 DUP5 ADD SWAP4 SWAP1 SWAP3 POP DUP3 ADD DUP4 PUSH1 0x0 JUMPDEST DUP4 DUP2 LT ISZERO PUSH2 0x156C JUMPI DUP2 CALLDATALOAD DUP7 ADD PUSH2 0x15BD DUP9 DUP3 PUSH2 0x15FF JUMP JUMPDEST DUP5 MSTORE POP PUSH1 0x20 SWAP3 DUP4 ADD SWAP3 SWAP2 SWAP1 SWAP2 ADD SWAP1 PUSH1 0x1 ADD PUSH2 0x15A7 JUMP JUMPDEST DUP1 CALLDATALOAD PUSH2 0x60F DUP2 PUSH2 0x2233 JUMP JUMPDEST DUP1 MLOAD PUSH2 0x60F DUP2 PUSH2 0x2233 JUMP JUMPDEST DUP1 CALLDATALOAD PUSH2 0x60F DUP2 PUSH2 0x223C JUMP JUMPDEST DUP1 MLOAD PUSH2 0x60F DUP2 PUSH2 0x223C JUMP JUMPDEST PUSH1 0x0 DUP3 PUSH1 0x1F DUP4 ADD SLT PUSH2 0x1610 JUMPI PUSH1 0x0 DUP1 REVERT JUMPDEST DUP2 CALLDATALOAD PUSH2 0x161E PUSH2 0x1516 DUP3 PUSH2 0x215F JUMP JUMPDEST SWAP2 POP DUP1 DUP3 MSTORE PUSH1 0x20 DUP4 ADD PUSH1 0x20 DUP4 ADD DUP6 DUP4 DUP4 ADD GT ISZERO PUSH2 0x163A JUMPI PUSH1 0x0 DUP1 REVERT JUMPDEST PUSH2 0x1645 DUP4 DUP3 DUP5 PUSH2 0x21C6 JUMP JUMPDEST POP POP POP SWAP3 SWAP2 POP POP JUMP JUMPDEST PUSH1 0x0 PUSH1 0x20 DUP3 DUP5 SUB SLT ISZERO PUSH2 0x1660 JUMPI PUSH1 0x0 DUP1 REVERT JUMPDEST PUSH1 0x0 PUSH2 0x166C DUP5 DUP5 PUSH2 0x14EC JUMP JUMPDEST SWAP5 SWAP4 POP POP POP POP JUMP JUMPDEST PUSH1 0x0 DUP1 PUSH1 0x40 DUP4 DUP6 SUB SLT ISZERO PUSH2 0x1687 JUMPI PUSH1 0x0 DUP1 REVERT JUMPDEST PUSH1 0x0 PUSH2 0x1693 DUP6 DUP6 PUSH2 0x14EC JUMP JUMPDEST SWAP3 POP POP PUSH1 0x20 PUSH2 0x16A4 DUP6 DUP3 DUP7 ADD PUSH2 0x15E9 JUMP JUMPDEST SWAP2 POP POP SWAP3 POP SWAP3 SWAP1 POP JUMP JUMPDEST PUSH1 0x0 DUP1 PUSH1 0x0 PUSH1 0x60 DUP5 DUP7 SUB SLT ISZERO PUSH2 0x16C3 JUMPI PUSH1 0x0 DUP1 REVERT JUMPDEST PUSH1 0x0 PUSH2 0x16CF DUP7 DUP7 PUSH2 0x14EC JUMP JUMPDEST SWAP4 POP POP PUSH1 0x20 DUP5 ADD CALLDATALOAD PUSH8 0xFFFFFFFFFFFFFFFF DUP2 GT ISZERO PUSH2 0x16EC JUMPI PUSH1 0x0 DUP1 REVERT JUMPDEST PUSH2 0x16F8 DUP7 DUP3 DUP8 ADD PUSH2 0x15FF JUMP JUMPDEST SWAP3 POP POP PUSH1 0x40 PUSH2 0x1709 DUP7 DUP3 DUP8 ADD PUSH2 0x15D3 JUMP JUMPDEST SWAP2 POP POP SWAP3 POP SWAP3 POP SWAP3 JUMP JUMPDEST PUSH1 0x0 DUP1 PUSH1 0x0 DUP1 PUSH1 0x80 DUP6 DUP8 SUB SLT ISZERO PUSH2 0x1729 JUMPI PUSH1 0x0 DUP1 REVERT JUMPDEST DUP5 CALLDATALOAD PUSH8 0xFFFFFFFFFFFFFFFF DUP2 GT ISZERO PUSH2 0x1740 JUMPI PUSH1 0x0 DUP1 REVERT JUMPDEST PUSH2 0x174C DUP8 DUP3 DUP9 ADD PUSH2 0x14F7 JUMP JUMPDEST SWAP5 POP POP PUSH1 0x20 DUP6 ADD CALLDATALOAD PUSH8 0xFFFFFFFFFFFFFFFF DUP2 GT ISZERO PUSH2 0x1769 JUMPI PUSH1 0x0 DUP1 REVERT JUMPDEST PUSH2 0x1775 DUP8 DUP3 DUP9 ADD PUSH2 0x14F7 JUMP JUMPDEST SWAP4 POP POP PUSH1 0x40 PUSH2 0x1786 DUP8 DUP3 DUP9 ADD PUSH2 0x15E9 JUMP JUMPDEST SWAP3 POP POP PUSH1 0x60 PUSH2 0x1797 DUP8 DUP3 DUP9 ADD PUSH2 0x15E9 JUMP JUMPDEST SWAP2 POP POP SWAP3 SWAP6 SWAP2 SWAP5 POP SWAP3 POP JUMP JUMPDEST PUSH1 0x0 PUSH1 0x20 DUP3 DUP5 SUB SLT ISZERO PUSH2 0x17B5 JUMPI PUSH1 0x0 DUP1 REVERT JUMPDEST PUSH1 0x0 PUSH2 0x166C DUP5 DUP5 PUSH2 0x15DE JUMP JUMPDEST PUSH1 0x0 PUSH1 0x20 DUP3 DUP5 SUB SLT ISZERO PUSH2 0x17D3 JUMPI PUSH1 0x0 DUP1 REVERT JUMPDEST PUSH1 0x0 PUSH2 0x166C DUP5 DUP5 PUSH2 0x15E9 JUMP JUMPDEST PUSH1 0x0 PUSH1 0x20 DUP3 DUP5 SUB SLT ISZERO PUSH2 0x17F1 JUMPI PUSH1 0x0 DUP1 REVERT JUMPDEST PUSH1 0x0 PUSH2 0x166C DUP5 DUP5 PUSH2 0x15F4 JUMP JUMPDEST PUSH1 0x0 DUP1 PUSH1 0x40 DUP4 DUP6 SUB SLT ISZERO PUSH2 0x1810 JUMPI PUSH1 0x0 DUP1 REVERT JUMPDEST PUSH1 0x0 PUSH2 0x1693 DUP6 DUP6 PUSH2 0x15E9 JUMP JUMPDEST PUSH1 0x0 DUP1 PUSH1 0x40 DUP4 DUP6 SUB SLT ISZERO PUSH2 0x182F JUMPI PUSH1 0x0 DUP1 REVERT JUMPDEST PUSH1 0x0 PUSH2 0x183B DUP6 DUP6 PUSH2 0x15E9 JUMP JUMPDEST SWAP3 POP POP PUSH1 0x20 DUP4 ADD CALLDATALOAD PUSH8 0xFFFFFFFFFFFFFFFF DUP2 GT ISZERO PUSH2 0x1858 JUMPI PUSH1 0x0 DUP1 REVERT JUMPDEST PUSH2 0x16A4 DUP6 DUP3 DUP7 ADD PUSH2 0x15FF JUMP JUMPDEST PUSH1 0x0 DUP1 PUSH1 0x0 DUP1 PUSH1 0x80 DUP6 DUP8 SUB SLT ISZERO PUSH2 0x187A JUMPI PUSH1 0x0 DUP1 REVERT JUMPDEST PUSH1 0x0 PUSH2 0x1886 DUP8 DUP8 PUSH2 0x15E9 JUMP JUMPDEST SWAP5 POP POP PUSH1 0x20 PUSH2 0x1897 DUP8 DUP3 DUP9 ADD PUSH2 0x14EC JUMP JUMPDEST SWAP4 POP POP PUSH1 0x40 PUSH2 0x18A8 DUP8 DUP3 DUP9 ADD PUSH2 0x15E9 JUMP JUMPDEST SWAP3 POP POP PUSH1 0x60 DUP6 ADD CALLDATALOAD PUSH8 0xFFFFFFFFFFFFFFFF DUP2 GT ISZERO PUSH2 0x18C5 JUMPI PUSH1 0x0 DUP1 REVERT JUMPDEST PUSH2 0x1797 DUP8 DUP3 DUP9 ADD PUSH2 0x15FF JUMP JUMPDEST PUSH1 0x0 DUP1 PUSH1 0x0 DUP1 PUSH1 0x0 DUP1 PUSH1 0x0 DUP1 PUSH1 0x0 PUSH2 0x120 DUP11 DUP13 SUB SLT ISZERO PUSH2 0x18F0 JUMPI PUSH1 0x0 DUP1 REVERT JUMPDEST PUSH1 0x0 PUSH2 0x18FC DUP13 DUP13 PUSH2 0x15E9 JUMP JUMPDEST SWAP10 POP POP PUSH1 0x20 PUSH2 0x190D DUP13 DUP3 DUP14 ADD PUSH2 0x14EC JUMP JUMPDEST SWAP9 POP POP PUSH1 0x40 PUSH2 0x191E DUP13 DUP3 DUP14 ADD PUSH2 0x15E9 JUMP JUMPDEST SWAP8 POP POP PUSH1 0x60 DUP11 ADD CALLDATALOAD PUSH8 0xFFFFFFFFFFFFFFFF DUP2 GT ISZERO PUSH2 0x193B JUMPI PUSH1 0x0 DUP1 REVERT JUMPDEST PUSH2 0x1947 DUP13 DUP3 DUP14 ADD PUSH2 0x15FF JUMP JUMPDEST SWAP7 POP POP PUSH1 0x80 PUSH2 0x1958 DUP13 DUP3 DUP14 ADD PUSH2 0x15E9 JUMP JUMPDEST SWAP6 POP POP PUSH1 0xA0 PUSH2 0x1969 DUP13 DUP3 DUP14 ADD PUSH2 0x15E9 JUMP JUMPDEST SWAP5 POP POP PUSH1 0xC0 PUSH2 0x197A DUP13 DUP3 DUP14 ADD PUSH2 0x14EC JUMP JUMPDEST SWAP4 POP POP PUSH1 0xE0 PUSH2 0x198B DUP13 DUP3 DUP14 ADD PUSH2 0x15E9 JUMP JUMPDEST SWAP3 POP POP PUSH2 0x100 DUP11 ADD CALLDATALOAD PUSH8 0xFFFFFFFFFFFFFFFF DUP2 GT ISZERO PUSH2 0x19A9 JUMPI PUSH1 0x0 DUP1 REVERT JUMPDEST PUSH2 0x19B5 DUP13 DUP3 DUP14 ADD PUSH2 0x1576 JUMP JUMPDEST SWAP2 POP POP SWAP3 SWAP6 SWAP9 POP SWAP3 SWAP6 SWAP9 POP SWAP3 SWAP6 SWAP9 JUMP JUMPDEST PUSH1 0x0 PUSH2 0x19D1 DUP4 DUP4 PUSH2 0x1A64 JUMP JUMPDEST POP POP PUSH1 0x20 ADD SWAP1 JUMP JUMPDEST PUSH2 0x19E2 DUP2 PUSH2 0x21B5 JUMP JUMPDEST DUP3 MSTORE POP POP JUMP JUMPDEST PUSH2 0x19E2 PUSH2 0x19F4 DUP3 PUSH2 0x219F JUMP JUMPDEST PUSH2 0x21FE JUMP JUMPDEST PUSH2 0x19E2 DUP2 PUSH2 0x219F JUMP JUMPDEST PUSH1 0x0 PUSH2 0x1A0D DUP3 PUSH2 0x218D JUMP JUMPDEST PUSH2 0x1A17 DUP2 DUP6 PUSH2 0x2191 JUMP JUMPDEST SWAP4 POP PUSH2 0x1A22 DUP4 PUSH2 0x2187 JUMP JUMPDEST DUP1 PUSH1 0x0 JUMPDEST DUP4 DUP2 LT ISZERO PUSH2 0x1A50 JUMPI DUP2 MLOAD PUSH2 0x1A3A DUP9 DUP3 PUSH2 0x19C5 JUMP JUMPDEST SWAP8 POP PUSH2 0x1A45 DUP4 PUSH2 0x2187 JUMP JUMPDEST SWAP3 POP POP PUSH1 0x1 ADD PUSH2 0x1A26 JUMP JUMPDEST POP SWAP5 SWAP6 SWAP5 POP POP POP POP POP JUMP JUMPDEST PUSH2 0x19E2 DUP2 PUSH2 0x21AA JUMP JUMPDEST PUSH2 0x19E2 DUP2 PUSH2 0x76C JUMP JUMPDEST PUSH2 0x19E2 PUSH2 0x1A79 DUP3 PUSH2 0x76C JUMP JUMPDEST PUSH2 0x76C JUMP JUMPDEST PUSH1 0x0 PUSH2 0x1A89 DUP3 PUSH2 0x218D JUMP JUMPDEST PUSH2 0x1A93 DUP2 DUP6 PUSH2 0x2191 JUMP JUMPDEST SWAP4 POP PUSH2 0x1AA3 DUP2 DUP6 PUSH1 0x20 DUP7 ADD PUSH2 0x21D2 JUMP JUMPDEST PUSH2 0x1AAC DUP2 PUSH2 0x220F JUMP JUMPDEST SWAP1 SWAP4 ADD SWAP4 SWAP3 POP POP POP JUMP JUMPDEST PUSH1 0x0 PUSH2 0x1AC1 DUP3 PUSH2 0x218D JUMP JUMPDEST PUSH2 0x1ACB DUP2 DUP6 PUSH2 0x219A JUMP JUMPDEST SWAP4 POP PUSH2 0x1ADB DUP2 DUP6 PUSH1 0x20 DUP7 ADD PUSH2 0x21D2 JUMP JUMPDEST SWAP3 SWAP1 SWAP3 ADD SWAP3 SWAP2 POP POP JUMP JUMPDEST PUSH1 0x0 PUSH2 0x1AF2 PUSH1 0x14 DUP4 PUSH2 0x2191 JUMP JUMPDEST PUSH32 0x6661696C65642D746F2D696E697469616C697A65000000000000000000000000 DUP2 MSTORE PUSH1 0x20 ADD SWAP3 SWAP2 POP POP JUMP JUMPDEST PUSH1 0x0 PUSH2 0x1B2B PUSH1 0x1C DUP4 PUSH2 0x219A JUMP JUMPDEST PUSH32 0x19457468657265756D205369676E6564204D6573736167653A0A333200000000 DUP2 MSTORE PUSH1 0x1C ADD SWAP3 SWAP2 POP POP JUMP JUMPDEST PUSH1 0x0 PUSH2 0x1B64 PUSH1 0xD DUP4 PUSH2 0x2191 JUMP JUMPDEST PUSH32 0x6163636573732D64656E69656400000000000000000000000000000000000000 DUP2 MSTORE PUSH1 0x20 ADD SWAP3 SWAP2 POP POP JUMP JUMPDEST PUSH1 0x0 PUSH2 0x1B9D PUSH1 0x11 DUP4 PUSH2 0x2191 JUMP JUMPDEST PUSH32 0x7468726573686F6C642D746F6F2D6C6F77000000000000000000000000000000 DUP2 MSTORE PUSH1 0x20 ADD SWAP3 SWAP2 POP POP JUMP JUMPDEST PUSH1 0x0 PUSH2 0x1BD6 PUSH1 0x11 DUP4 PUSH2 0x2191 JUMP JUMPDEST PUSH32 0x696E76616C69642D7369676E6174757265000000000000000000000000000000 DUP2 MSTORE PUSH1 0x20 ADD SWAP3 SWAP2 POP POP JUMP JUMPDEST PUSH1 0x0 PUSH2 0x1C0F PUSH1 0x25 DUP4 PUSH2 0x2191 JUMP JUMPDEST PUSH32 0x63616E6E6F742D72656D6F76652D637269746963616C2D6D616E6167656D656E DUP2 MSTORE PUSH1 0x1 PUSH1 0xD8 SHL PUSH5 0x742D6B6579 MUL PUSH1 0x20 DUP3 ADD MSTORE PUSH1 0x40 ADD SWAP3 SWAP2 POP POP JUMP JUMPDEST PUSH1 0x0 PUSH2 0x1C59 PUSH1 0x13 DUP4 PUSH2 0x2191 JUMP JUMPDEST PUSH32 0x616C72656164792D696E697469616C697A656400000000000000000000000000 DUP2 MSTORE PUSH1 0x20 ADD SWAP3 SWAP2 POP POP JUMP JUMPDEST PUSH1 0x0 PUSH2 0x1C92 PUSH1 0x12 DUP4 PUSH2 0x2191 JUMP JUMPDEST PUSH32 0x7472616E73616374696F6E2D7265706C61790000000000000000000000000000 DUP2 MSTORE PUSH1 0x20 ADD SWAP3 SWAP2 POP POP JUMP JUMPDEST PUSH1 0x0 PUSH2 0x1CCB PUSH1 0x1B DUP4 PUSH2 0x2191 JUMP JUMPDEST PUSH32 0x696E76616C69642D7369676E6174757265732D6F72646572696E670000000000 DUP2 MSTORE PUSH1 0x20 ADD SWAP3 SWAP2 POP POP JUMP JUMPDEST PUSH1 0x0 PUSH2 0x1D04 PUSH1 0x29 DUP4 PUSH2 0x2191 JUMP JUMPDEST PUSH32 0x6B65792D616E642D707572706F73652D61727261792D6D7573742D686176652D DUP2 MSTORE PUSH1 0x1 PUSH1 0xB8 SHL PUSH9 0x73616D652D73697A65 MUL PUSH1 0x20 DUP3 ADD MSTORE PUSH1 0x40 ADD SWAP3 SWAP2 POP POP JUMP JUMPDEST PUSH1 0x0 PUSH2 0x1D52 PUSH1 0x12 DUP4 PUSH2 0x2191 JUMP JUMPDEST PUSH32 0x7468726573686F6C642D746F6F2D686967680000000000000000000000000000 DUP2 MSTORE PUSH1 0x20 ADD SWAP3 SWAP2 POP POP JUMP JUMPDEST PUSH1 0x0 PUSH2 0x1D8B PUSH1 0x16 DUP4 PUSH2 0x2191 JUMP JUMPDEST PUSH32 0x696E76616C69642D6F7065726174696F6E2D7479706500000000000000000000 DUP2 MSTORE PUSH1 0x20 ADD SWAP3 SWAP2 POP POP JUMP JUMPDEST PUSH1 0x0 PUSH2 0x1DC4 PUSH1 0xD DUP4 PUSH2 0x2191 JUMP JUMPDEST PUSH32 0x696E76616C69642D6E6F6E636500000000000000000000000000000000000000 DUP2 MSTORE PUSH1 0x20 ADD SWAP3 SWAP2 POP POP JUMP JUMPDEST PUSH1 0x0 PUSH2 0x1DFD PUSH1 0xF DUP4 PUSH2 0x2191 JUMP JUMPDEST PUSH32 0x6D697373696E672D7369676E6572730000000000000000000000000000000000 DUP2 MSTORE PUSH1 0x20 ADD SWAP3 SWAP2 POP POP JUMP JUMPDEST PUSH1 0x0 PUSH2 0x1E36 PUSH1 0x1A DUP4 PUSH2 0x2191 JUMP JUMPDEST PUSH32 0x6E6F742D656E6F7567682D6D616E6167656D656E742D6B657973000000000000 DUP2 MSTORE PUSH1 0x20 ADD SWAP3 SWAP2 POP POP JUMP JUMPDEST PUSH1 0x0 PUSH2 0x1E6F PUSH1 0x13 DUP4 PUSH2 0x2191 JUMP JUMPDEST PUSH32 0x696E76616C69642D6D61737465722D7575696400000000000000000000000000 DUP2 MSTORE PUSH1 0x20 ADD SWAP3 SWAP2 POP POP JUMP JUMPDEST PUSH2 0x19E2 DUP2 PUSH2 0x21AF JUMP JUMPDEST PUSH1 0x0 PUSH2 0x1EB0 DUP3 DUP13 PUSH2 0x19E8 JUMP JUMPDEST PUSH1 0x14 DUP3 ADD SWAP2 POP PUSH2 0x1EC0 DUP3 DUP12 PUSH2 0x1A6D JUMP JUMPDEST PUSH1 0x20 DUP3 ADD SWAP2 POP PUSH2 0x1ED0 DUP3 DUP11 PUSH2 0x19E8 JUMP JUMPDEST PUSH1 0x14 DUP3 ADD SWAP2 POP PUSH2 0x1EE0 DUP3 DUP10 PUSH2 0x1A6D JUMP JUMPDEST PUSH1 0x20 DUP3 ADD SWAP2 POP PUSH2 0x1EF0 DUP3 DUP9 PUSH2 0x1A6D JUMP JUMPDEST PUSH1 0x20 DUP3 ADD SWAP2 POP PUSH2 0x1F00 DUP3 DUP8 PUSH2 0x1A6D JUMP JUMPDEST PUSH1 0x20 DUP3 ADD SWAP2 POP PUSH2 0x1F10 DUP3 DUP7 PUSH2 0x1A6D JUMP JUMPDEST PUSH1 0x20 DUP3 ADD SWAP2 POP PUSH2 0x1F20 DUP3 DUP6 PUSH2 0x19E8 JUMP JUMPDEST PUSH1 0x14 DUP3 ADD SWAP2 POP PUSH2 0x1F30 DUP3 DUP5 PUSH2 0x1A6D JUMP JUMPDEST POP PUSH1 0x20 ADD SWAP10 SWAP9 POP POP POP POP POP POP POP POP POP JUMP JUMPDEST PUSH1 0x0 PUSH2 0x1F4D DUP3 DUP5 PUSH2 0x1AB6 JUMP JUMPDEST SWAP4 SWAP3 POP POP POP JUMP JUMPDEST PUSH1 0x0 PUSH2 0x1F5F DUP3 PUSH2 0x1B1E JUMP JUMPDEST SWAP2 POP PUSH2 0x1F6B DUP3 DUP5 PUSH2 0x1A6D JUMP JUMPDEST POP PUSH1 0x20 ADD SWAP2 SWAP1 POP JUMP JUMPDEST PUSH1 0x20 DUP2 ADD PUSH2 0x60F DUP3 DUP5 PUSH2 0x19F9 JUMP JUMPDEST PUSH1 0x40 DUP2 ADD PUSH2 0x1F90 DUP3 DUP6 PUSH2 0x19D9 JUMP JUMPDEST PUSH2 0x1F4D PUSH1 0x20 DUP4 ADD DUP5 PUSH2 0x1A64 JUMP JUMPDEST PUSH1 0x20 DUP1 DUP3 MSTORE DUP2 ADD PUSH2 0x60C DUP2 DUP5 PUSH2 0x1A02 JUMP JUMPDEST PUSH1 0x20 DUP2 ADD PUSH2 0x60F DUP3 DUP5 PUSH2 0x1A5B JUMP JUMPDEST PUSH1 0x20 DUP2 ADD PUSH2 0x60F DUP3 DUP5 PUSH2 0x1A64 JUMP JUMPDEST PUSH1 0x80 DUP2 ADD PUSH2 0x1FD8 DUP3 DUP8 PUSH2 0x1A64 JUMP JUMPDEST PUSH2 0x1FE5 PUSH1 0x20 DUP4 ADD DUP7 PUSH2 0x1E9B JUMP JUMPDEST PUSH2 0x1FF2 PUSH1 0x40 DUP4 ADD DUP6 PUSH2 0x1A64 JUMP JUMPDEST PUSH2 0x1FFF PUSH1 0x60 DUP4 ADD DUP5 PUSH2 0x1A64 JUMP JUMPDEST SWAP6 SWAP5 POP POP POP POP POP JUMP JUMPDEST PUSH1 0x20 DUP1 DUP3 MSTORE DUP2 ADD PUSH2 0x60C DUP2 DUP5 PUSH2 0x1A7E JUMP JUMPDEST PUSH1 0x20 DUP1 DUP3 MSTORE DUP2 ADD PUSH2 0x60F DUP2 PUSH2 0x1AE5 JUMP JUMPDEST PUSH1 0x20 DUP1 DUP3 MSTORE DUP2 ADD PUSH2 0x60F DUP2 PUSH2 0x1B57 JUMP JUMPDEST PUSH1 0x20 DUP1 DUP3 MSTORE DUP2 ADD PUSH2 0x60F DUP2 PUSH2 0x1B90 JUMP JUMPDEST PUSH1 0x20 DUP1 DUP3 MSTORE DUP2 ADD PUSH2 0x60F DUP2 PUSH2 0x1BC9 JUMP JUMPDEST PUSH1 0x20 DUP1 DUP3 MSTORE DUP2 ADD PUSH2 0x60F DUP2 PUSH2 0x1C02 JUMP JUMPDEST PUSH1 0x20 DUP1 DUP3 MSTORE DUP2 ADD PUSH2 0x60F DUP2 PUSH2 0x1C4C JUMP JUMPDEST PUSH1 0x20 DUP1 DUP3 MSTORE DUP2 ADD PUSH2 0x60F DUP2 PUSH2 0x1C85 JUMP JUMPDEST PUSH1 0x20 DUP1 DUP3 MSTORE DUP2 ADD PUSH2 0x60F DUP2 PUSH2 0x1CBE JUMP JUMPDEST PUSH1 0x20 DUP1 DUP3 MSTORE DUP2 ADD PUSH2 0x60F DUP2 PUSH2 0x1CF7 JUMP JUMPDEST PUSH1 0x20 DUP1 DUP3 MSTORE DUP2 ADD PUSH2 0x60F DUP2 PUSH2 0x1D45 JUMP JUMPDEST PUSH1 0x20 DUP1 DUP3 MSTORE DUP2 ADD PUSH2 0x60F DUP2 PUSH2 0x1D7E JUMP JUMPDEST PUSH1 0x20 DUP1 DUP3 MSTORE DUP2 ADD PUSH2 0x60F DUP2 PUSH2 0x1DB7 JUMP JUMPDEST PUSH1 0x20 DUP1 DUP3 MSTORE DUP2 ADD PUSH2 0x60F DUP2 PUSH2 0x1DF0 JUMP JUMPDEST PUSH1 0x20 DUP1 DUP3 MSTORE DUP2 ADD PUSH2 0x60F DUP2 PUSH2 0x1E29 JUMP JUMPDEST PUSH1 0x20 DUP1 DUP3 MSTORE DUP2 ADD PUSH2 0x60F DUP2 PUSH2 0x1E62 JUMP JUMPDEST PUSH1 0x40 DUP2 ADD PUSH2 0x1F90 DUP3 DUP6 PUSH2 0x1A64 JUMP JUMPDEST PUSH1 0x40 MLOAD DUP2 DUP2 ADD PUSH8 0xFFFFFFFFFFFFFFFF DUP2 GT DUP3 DUP3 LT OR ISZERO PUSH2 0x2136 JUMPI PUSH1 0x0 DUP1 REVERT JUMPDEST PUSH1 0x40 MSTORE SWAP2 SWAP1 POP JUMP JUMPDEST PUSH1 0x0 PUSH8 0xFFFFFFFFFFFFFFFF DUP3 GT ISZERO PUSH2 0x2155 JUMPI PUSH1 0x0 DUP1 REVERT JUMPDEST POP PUSH1 0x20 SWAP1 DUP2 MUL ADD SWAP1 JUMP JUMPDEST PUSH1 0x0 PUSH8 0xFFFFFFFFFFFFFFFF DUP3 GT ISZERO PUSH2 0x2176 JUMPI PUSH1 0x0 DUP1 REVERT JUMPDEST POP PUSH1 0x20 PUSH1 0x1F SWAP2 SWAP1 SWAP2 ADD PUSH1 0x1F NOT AND ADD SWAP1 JUMP JUMPDEST PUSH1 0x20 ADD SWAP1 JUMP JUMPDEST MLOAD SWAP1 JUMP JUMPDEST SWAP1 DUP2 MSTORE PUSH1 0x20 ADD SWAP1 JUMP JUMPDEST SWAP2 SWAP1 POP JUMP JUMPDEST PUSH1 0x0 PUSH2 0x60F DUP3 PUSH2 0x830 JUMP JUMPDEST ISZERO ISZERO SWAP1 JUMP JUMPDEST PUSH1 0xFF AND SWAP1 JUMP JUMPDEST PUSH1 0x0 PUSH2 0x60F DUP3 PUSH1 0x0 PUSH2 0x60F DUP3 PUSH2 0x219F JUMP JUMPDEST DUP3 DUP2 DUP4 CALLDATACOPY POP PUSH1 0x0 SWAP2 ADD MSTORE JUMP JUMPDEST PUSH1 0x0 JUMPDEST DUP4 DUP2 LT ISZERO PUSH2 0x21ED JUMPI DUP2 DUP2 ADD MLOAD DUP4 DUP3 ADD MSTORE PUSH1 0x20 ADD PUSH2 0x21D5 JUMP JUMPDEST DUP4 DUP2 GT ISZERO PUSH2 0x744 JUMPI POP POP PUSH1 0x0 SWAP2 ADD MSTORE JUMP JUMPDEST PUSH1 0x0 PUSH2 0x60F DUP3 PUSH1 0x0 PUSH2 0x60F DUP3 PUSH2 0x2219 JUMP JUMPDEST PUSH1 0x1F ADD PUSH1 0x1F NOT AND SWAP1 JUMP JUMPDEST PUSH1 0x60 SHL SWAP1 JUMP JUMPDEST PUSH2 0x2228 DUP2 PUSH2 0x219F JUMP JUMPDEST DUP2 EQ PUSH2 0x1431 JUMPI PUSH1 0x0 DUP1 REVERT JUMPDEST PUSH2 0x2228 DUP2 PUSH2 0x21AA JUMP JUMPDEST PUSH2 0x2228 DUP2 PUSH2 0x76C JUMP INVALID LOG2 PUSH6 0x627A7A723058 KECCAK256 DUP10 LOG2 0xef 0x1f 0xc0 0x2b CODESIZE 0xd6 0xaa SMOD 0xed 0xa8 0x2e 0x24 0x5e 0x4b 0xc6 PUSH24 0x8952378F43C315FBC86A4B9339B76C6578706572696D656E PUSH21 0x616CF5003700000000000000000000000000000000 "
    }
  },
  "interface": [
    {
      "constant": false,
      "inputs": [
        {
          "name": "key",
          "type": "bytes32"
        },
        {
          "name": "purpose",
          "type": "uint256"
        }
      ],
      "name": "setKey",
      "outputs": [],
      "payable": false,
      "stateMutability": "nonpayable",
      "type": "function"
    },
    {
      "constant": false,
      "inputs": [
        {
          "name": "key",
          "type": "bytes32"
        },
        {
          "name": "purpose",
          "type": "bytes32"
        }
      ],
      "name": "setKey",
      "outputs": [],
      "payable": false,
      "stateMutability": "nonpayable",
      "type": "function"
    },
    {
      "constant": false,
      "inputs": [
        {
          "name": "keys",
          "type": "bytes32[]"
        },
        {
          "name": "purposes",
          "type": "bytes32[]"
        },
        {
          "name": "managementThreshold",
          "type": "uint256"
        },
        {
          "name": "actionThreshold",
          "type": "uint256"
        }
      ],
      "name": "initialize",
      "outputs": [],
      "payable": false,
      "stateMutability": "nonpayable",
      "type": "function"
    },
    {
      "constant": true,
      "inputs": [
        {
          "name": "key",
          "type": "bytes32"
        }
      ],
      "name": "getKey",
      "outputs": [
        {
          "name": "",
          "type": "bytes32"
        }
      ],
      "payable": false,
      "stateMutability": "view",
      "type": "function"
    },
    {
      "constant": true,
      "inputs": [
        {
          "name": "data",
          "type": "bytes32"
        },
        {
          "name": "signature",
          "type": "bytes"
        }
      ],
      "name": "isValidSignature",
      "outputs": [
        {
          "name": "",
          "type": "bool"
        }
      ],
      "payable": false,
      "stateMutability": "view",
      "type": "function"
    },
    {
      "constant": false,
      "inputs": [
        {
          "name": "actionThreshold",
          "type": "uint256"
        }
      ],
      "name": "setActionThreshold",
      "outputs": [],
      "payable": false,
      "stateMutability": "nonpayable",
      "type": "function"
    },
    {
      "constant": false,
      "inputs": [
        {
          "name": "key",
          "type": "address"
        },
        {
          "name": "purpose",
          "type": "uint256"
        }
      ],
      "name": "setKey",
      "outputs": [],
      "payable": false,
      "stateMutability": "nonpayable",
      "type": "function"
    },
    {
      "constant": false,
      "inputs": [
        {
          "name": "key",
          "type": "address"
        },
        {
          "name": "purpose",
          "type": "bytes32"
        }
      ],
      "name": "setKey",
      "outputs": [],
      "payable": false,
      "stateMutability": "nonpayable",
      "type": "function"
    },
    {
      "constant": false,
      "inputs": [
        {
          "name": "operationType",
          "type": "uint256"
        },
        {
          "name": "to",
          "type": "address"
        },
        {
          "name": "value",
          "type": "uint256"
        },
        {
          "name": "data",
          "type": "bytes"
        }
      ],
      "name": "execute",
      "outputs": [],
      "payable": false,
      "stateMutability": "nonpayable",
      "type": "function"
    },
    {
      "constant": true,
      "inputs": [],
      "name": "masterId",
      "outputs": [
        {
          "name": "",
          "type": "bytes32"
        }
      ],
      "payable": false,
      "stateMutability": "pure",
      "type": "function"
    },
    {
      "constant": true,
      "inputs": [
        {
          "name": "key",
          "type": "bytes32"
        }
      ],
      "name": "getData",
      "outputs": [
        {
          "name": "",
          "type": "bytes"
        }
      ],
      "payable": false,
      "stateMutability": "view",
      "type": "function"
    },
    {
      "constant": true,
      "inputs": [
        {
          "name": "key",
          "type": "address"
        },
        {
          "name": "purpose",
          "type": "uint256"
        }
      ],
      "name": "keyHasPurpose",
      "outputs": [
        {
          "name": "",
          "type": "bool"
        }
      ],
      "payable": false,
      "stateMutability": "view",
      "type": "function"
    },
    {
      "constant": true,
      "inputs": [
        {
          "name": "key",
          "type": "bytes32"
        },
        {
          "name": "purpose",
          "type": "bytes32"
        }
      ],
      "name": "keyHasPurpose",
      "outputs": [
        {
          "name": "",
          "type": "bool"
        }
      ],
      "payable": false,
      "stateMutability": "view",
      "type": "function"
    },
    {
      "constant": true,
      "inputs": [
        {
          "name": "addr",
          "type": "address"
        }
      ],
      "name": "addrToKey",
      "outputs": [
        {
          "name": "",
          "type": "bytes32"
        }
      ],
      "payable": false,
      "stateMutability": "pure",
      "type": "function"
    },
    {
      "constant": false,
      "inputs": [
        {
          "name": "newMaster",
          "type": "address"
        },
        {
          "name": "initData",
          "type": "bytes"
        },
        {
          "name": "reset",
          "type": "bool"
        }
      ],
      "name": "updateMaster",
      "outputs": [],
      "payable": false,
      "stateMutability": "nonpayable",
      "type": "function"
    },
    {
      "constant": false,
      "inputs": [
        {
          "name": "key",
          "type": "bytes32"
        },
        {
          "name": "value",
          "type": "bytes"
        }
      ],
      "name": "setData",
      "outputs": [],
      "payable": false,
      "stateMutability": "nonpayable",
      "type": "function"
    },
    {
      "constant": true,
      "inputs": [],
      "name": "getActiveKeys",
      "outputs": [
        {
          "name": "",
          "type": "bytes32[]"
        }
      ],
      "payable": false,
      "stateMutability": "view",
      "type": "function"
    },
    {
      "constant": true,
      "inputs": [],
      "name": "owner",
      "outputs": [
        {
          "name": "",
          "type": "address"
        }
      ],
      "payable": false,
      "stateMutability": "view",
      "type": "function"
    },
    {
      "constant": true,
      "inputs": [],
      "name": "getManagementThreshold",
      "outputs": [
        {
          "name": "",
          "type": "uint256"
        }
      ],
      "payable": false,
      "stateMutability": "view",
      "type": "function"
    },
    {
      "constant": true,
      "inputs": [
        {
          "name": "key",
          "type": "address"
        }
      ],
      "name": "getKey",
      "outputs": [
        {
          "name": "",
          "type": "bytes32"
        }
      ],
      "payable": false,
      "stateMutability": "view",
      "type": "function"
    },
    {
      "constant": true,
      "inputs": [],
      "name": "getManagementKeyCount",
      "outputs": [
        {
          "name": "",
          "type": "uint256"
        }
      ],
      "payable": false,
      "stateMutability": "view",
      "type": "function"
    },
    {
      "constant": true,
      "inputs": [],
      "name": "nonce",
      "outputs": [
        {
          "name": "",
          "type": "uint256"
        }
      ],
      "payable": false,
      "stateMutability": "view",
      "type": "function"
    },
    {
      "constant": false,
      "inputs": [
        {
          "name": "operationType",
          "type": "uint256"
        },
        {
          "name": "to",
          "type": "address"
        },
        {
          "name": "value",
          "type": "uint256"
        },
        {
          "name": "data",
          "type": "bytes"
        },
        {
          "name": "nonce",
          "type": "uint256"
        },
        {
          "name": "salt",
          "type": "bytes32"
        },
        {
          "name": "gasToken",
          "type": "address"
        },
        {
          "name": "gasPrice",
          "type": "uint256"
        },
        {
          "name": "sigs",
          "type": "bytes[]"
        }
      ],
      "name": "execute",
      "outputs": [],
      "payable": false,
      "stateMutability": "nonpayable",
      "type": "function"
    },
    {
      "constant": true,
      "inputs": [
        {
          "name": "key",
          "type": "bytes32"
        },
        {
          "name": "purpose",
          "type": "uint256"
        }
      ],
      "name": "keyHasPurpose",
      "outputs": [
        {
          "name": "",
          "type": "bool"
        }
      ],
      "payable": false,
      "stateMutability": "view",
      "type": "function"
    },
    {
      "constant": false,
      "inputs": [
        {
          "name": "managementThreshold",
          "type": "uint256"
        }
      ],
      "name": "setManagementThreshold",
      "outputs": [],
      "payable": false,
      "stateMutability": "nonpayable",
      "type": "function"
    },
    {
      "constant": true,
      "inputs": [],
      "name": "getActionThreshold",
      "outputs": [
        {
          "name": "",
          "type": "uint256"
        }
      ],
      "payable": false,
      "stateMutability": "view",
      "type": "function"
    },
    {
      "constant": true,
      "inputs": [],
      "name": "master",
      "outputs": [
        {
          "name": "",
          "type": "address"
        }
      ],
      "payable": false,
      "stateMutability": "view",
      "type": "function"
    },
    {
      "constant": true,
      "inputs": [
        {
          "name": "key",
          "type": "address"
        },
        {
          "name": "purpose",
          "type": "bytes32"
        }
      ],
      "name": "keyHasPurpose",
      "outputs": [
        {
          "name": "",
          "type": "bool"
        }
      ],
      "payable": false,
      "stateMutability": "view",
      "type": "function"
    },
    {
      "inputs": [],
      "payable": false,
      "stateMutability": "nonpayable",
      "type": "constructor"
    },
    {
      "payable": true,
      "stateMutability": "payable",
      "type": "fallback"
    },
    {
      "anonymous": false,
      "inputs": [
        {
          "indexed": true,
          "name": "key",
          "type": "bytes32"
        },
        {
          "indexed": true,
          "name": "previousPurpose",
          "type": "bytes32"
        },
        {
          "indexed": true,
          "name": "newPurpose",
          "type": "bytes32"
        }
      ],
      "name": "SetKey",
      "type": "event"
    },
    {
      "anonymous": false,
      "inputs": [
        {
          "indexed": false,
          "name": "previousThreshold",
          "type": "uint256"
        },
        {
          "indexed": false,
          "name": "newThreshold",
          "type": "uint256"
        }
      ],
      "name": "ManagementThresholdChange",
      "type": "event"
    },
    {
      "anonymous": false,
      "inputs": [
        {
          "indexed": false,
          "name": "previousThreshold",
          "type": "uint256"
        },
        {
          "indexed": false,
          "name": "newThreshold",
          "type": "uint256"
        }
      ],
      "name": "ActionThresholdChange",
      "type": "event"
    },
    {
      "anonymous": false,
      "inputs": [
        {
          "indexed": true,
          "name": "previousMaster",
          "type": "address"
        },
        {
          "indexed": true,
          "name": "newMaster",
          "type": "address"
        }
      ],
      "name": "MasterChange",
      "type": "event"
    },
    {
      "anonymous": false,
      "inputs": [
        {
          "indexed": true,
          "name": "key",
          "type": "bytes32"
        },
        {
          "indexed": false,
          "name": "value",
          "type": "bytes"
        }
      ],
      "name": "DataChanged",
      "type": "event"
    },
    {
      "anonymous": false,
      "inputs": [
        {
          "indexed": true,
          "name": "contractAddress",
          "type": "address"
        }
      ],
      "name": "ContractCreated",
      "type": "event"
    },
    {
      "anonymous": false,
      "inputs": [
        {
          "indexed": true,
          "name": "to",
          "type": "address"
        }
      ],
      "name": "CallSuccess",
      "type": "event"
    },
    {
      "anonymous": false,
      "inputs": [
        {
          "indexed": true,
          "name": "to",
          "type": "address"
        },
        {
          "indexed": false,
          "name": "returndata",
          "type": "bytes"
        }
      ],
      "name": "CallFailure",
      "type": "event"
    }
  ]
}