{
  "abi": [
    {
      "constant": false,
      "inputs": [
        {
          "name": "_key",
          "type": "bytes32"
        },
        {
          "name": "_purpose",
          "type": "uint256"
        }
      ],
      "name": "setKey",
      "outputs": [],
      "payable": false,
      "stateMutability": "nonpayable",
      "type": "function"
    },
    {
      "constant": false,
      "inputs": [
        {
          "name": "_key",
          "type": "bytes32"
        },
        {
          "name": "_purpose",
          "type": "bytes32"
        }
      ],
      "name": "setKey",
      "outputs": [],
      "payable": false,
      "stateMutability": "nonpayable",
      "type": "function"
    },
    {
      "constant": false,
      "inputs": [
        {
          "name": "_keys",
          "type": "bytes32[]"
        },
        {
          "name": "_purposes",
          "type": "bytes32[]"
        },
        {
          "name": "_managementThreshold",
          "type": "uint256"
        },
        {
          "name": "_actionThreshold",
          "type": "uint256"
        }
      ],
      "name": "initialize",
      "outputs": [],
      "payable": false,
      "stateMutability": "nonpayable",
      "type": "function"
    },
    {
      "constant": true,
      "inputs": [],
      "name": "managementKeyCount",
      "outputs": [
        {
          "name": "",
          "type": "uint256"
        }
      ],
      "payable": false,
      "stateMutability": "view",
      "type": "function"
    },
    {
      "constant": true,
      "inputs": [
        {
          "name": "_key",
          "type": "bytes32"
        }
      ],
      "name": "getKey",
      "outputs": [
        {
          "name": "",
          "type": "bytes32"
        }
      ],
      "payable": false,
      "stateMutability": "view",
      "type": "function"
    },
    {
      "constant": true,
      "inputs": [
        {
          "name": "_data",
          "type": "bytes32"
        },
        {
          "name": "_signature",
          "type": "bytes"
        }
      ],
      "name": "isValidSignature",
      "outputs": [
        {
          "name": "",
          "type": "bool"
        }
      ],
      "payable": false,
      "stateMutability": "view",
      "type": "function"
    },
    {
      "constant": false,
      "inputs": [
        {
          "name": "_actionThreshold",
          "type": "uint256"
        }
      ],
      "name": "setActionThreshold",
      "outputs": [],
      "payable": false,
      "stateMutability": "nonpayable",
      "type": "function"
    },
    {
      "constant": false,
      "inputs": [
        {
          "name": "_key",
          "type": "address"
        },
        {
          "name": "_purpose",
          "type": "uint256"
        }
      ],
      "name": "setKey",
      "outputs": [],
      "payable": false,
      "stateMutability": "nonpayable",
      "type": "function"
    },
    {
      "constant": false,
      "inputs": [
        {
          "name": "_key",
          "type": "address"
        },
        {
          "name": "_purpose",
          "type": "bytes32"
        }
      ],
      "name": "setKey",
      "outputs": [],
      "payable": false,
      "stateMutability": "nonpayable",
      "type": "function"
    },
    {
      "constant": false,
      "inputs": [
        {
          "name": "_operationType",
          "type": "uint256"
        },
        {
          "name": "_to",
          "type": "address"
        },
        {
          "name": "_value",
          "type": "uint256"
        },
        {
          "name": "_data",
          "type": "bytes"
        }
      ],
      "name": "execute",
      "outputs": [],
      "payable": false,
      "stateMutability": "nonpayable",
      "type": "function"
    },
    {
      "constant": true,
      "inputs": [],
      "name": "masterId",
      "outputs": [
        {
          "name": "",
          "type": "bytes32"
        }
      ],
      "payable": false,
      "stateMutability": "pure",
      "type": "function"
    },
    {
      "constant": true,
      "inputs": [
        {
          "name": "_key",
          "type": "bytes32"
        }
      ],
      "name": "getData",
      "outputs": [
        {
          "name": "",
          "type": "bytes"
        }
      ],
      "payable": false,
      "stateMutability": "view",
      "type": "function"
    },
    {
      "constant": true,
      "inputs": [
        {
          "name": "_key",
          "type": "address"
        },
        {
          "name": "_purpose",
          "type": "uint256"
        }
      ],
      "name": "keyHasPurpose",
      "outputs": [
        {
          "name": "",
          "type": "bool"
        }
      ],
      "payable": false,
      "stateMutability": "view",
      "type": "function"
    },
    {
      "constant": true,
      "inputs": [
        {
          "name": "_key",
          "type": "bytes32"
        },
        {
          "name": "_purpose",
          "type": "bytes32"
        }
      ],
      "name": "keyHasPurpose",
      "outputs": [
        {
          "name": "",
          "type": "bool"
        }
      ],
      "payable": false,
      "stateMutability": "view",
      "type": "function"
    },
    {
      "constant": true,
      "inputs": [
        {
          "name": "_addr",
          "type": "address"
        }
      ],
      "name": "addrToKey",
      "outputs": [
        {
          "name": "",
          "type": "bytes32"
        }
      ],
      "payable": false,
      "stateMutability": "pure",
      "type": "function"
    },
    {
      "constant": false,
      "inputs": [
        {
          "name": "_newMaster",
          "type": "address"
        },
        {
          "name": "_initData",
          "type": "bytes"
        },
        {
          "name": "_reset",
          "type": "bool"
        }
      ],
      "name": "updateMaster",
      "outputs": [],
      "payable": false,
      "stateMutability": "nonpayable",
      "type": "function"
    },
    {
      "constant": false,
      "inputs": [
        {
          "name": "_key",
          "type": "bytes32"
        },
        {
          "name": "_value",
          "type": "bytes"
        }
      ],
      "name": "setData",
      "outputs": [],
      "payable": false,
      "stateMutability": "nonpayable",
      "type": "function"
    },
    {
      "constant": true,
      "inputs": [],
      "name": "getActiveKeys",
      "outputs": [
        {
          "name": "",
          "type": "bytes32[]"
        }
      ],
      "payable": false,
      "stateMutability": "view",
      "type": "function"
    },
    {
      "constant": true,
      "inputs": [],
      "name": "owner",
      "outputs": [
        {
          "name": "",
          "type": "address"
        }
      ],
      "payable": false,
      "stateMutability": "view",
      "type": "function"
    },
    {
      "constant": true,
      "inputs": [],
      "name": "getManagementThreshold",
      "outputs": [
        {
          "name": "",
          "type": "uint256"
        }
      ],
      "payable": false,
      "stateMutability": "view",
      "type": "function"
    },
    {
      "constant": true,
      "inputs": [
        {
          "name": "_key",
          "type": "address"
        }
      ],
      "name": "getKey",
      "outputs": [
        {
          "name": "",
          "type": "bytes32"
        }
      ],
      "payable": false,
      "stateMutability": "view",
      "type": "function"
    },
    {
      "constant": true,
      "inputs": [],
      "name": "nonce",
      "outputs": [
        {
          "name": "",
          "type": "uint256"
        }
      ],
      "payable": false,
      "stateMutability": "view",
      "type": "function"
    },
    {
      "constant": false,
      "inputs": [
        {
          "name": "_operationType",
          "type": "uint256"
        },
        {
          "name": "_to",
          "type": "address"
        },
        {
          "name": "_value",
          "type": "uint256"
        },
        {
          "name": "_data",
          "type": "bytes"
        },
        {
          "name": "_nonce",
          "type": "uint256"
        },
        {
          "name": "_salt",
          "type": "bytes32"
        },
        {
          "name": "_gasToken",
          "type": "address"
        },
        {
          "name": "_gasPrice",
          "type": "uint256"
        },
        {
          "name": "_sigs",
          "type": "bytes[]"
        }
      ],
      "name": "execute",
      "outputs": [],
      "payable": false,
      "stateMutability": "nonpayable",
      "type": "function"
    },
    {
      "constant": true,
      "inputs": [
        {
          "name": "_key",
          "type": "bytes32"
        },
        {
          "name": "_purpose",
          "type": "uint256"
        }
      ],
      "name": "keyHasPurpose",
      "outputs": [
        {
          "name": "",
          "type": "bool"
        }
      ],
      "payable": false,
      "stateMutability": "view",
      "type": "function"
    },
    {
      "constant": false,
      "inputs": [
        {
          "name": "_managementThreshold",
          "type": "uint256"
        }
      ],
      "name": "setManagementThreshold",
      "outputs": [],
      "payable": false,
      "stateMutability": "nonpayable",
      "type": "function"
    },
    {
      "constant": true,
      "inputs": [],
      "name": "getActionThreshold",
      "outputs": [
        {
          "name": "",
          "type": "uint256"
        }
      ],
      "payable": false,
      "stateMutability": "view",
      "type": "function"
    },
    {
      "constant": true,
      "inputs": [],
      "name": "master",
      "outputs": [
        {
          "name": "",
          "type": "address"
        }
      ],
      "payable": false,
      "stateMutability": "view",
      "type": "function"
    },
    {
      "constant": true,
      "inputs": [
        {
          "name": "_key",
          "type": "address"
        },
        {
          "name": "_purpose",
          "type": "bytes32"
        }
      ],
      "name": "keyHasPurpose",
      "outputs": [
        {
          "name": "",
          "type": "bool"
        }
      ],
      "payable": false,
      "stateMutability": "view",
      "type": "function"
    },
    {
      "inputs": [],
      "payable": false,
      "stateMutability": "nonpayable",
      "type": "constructor"
    },
    {
      "payable": true,
      "stateMutability": "payable",
      "type": "fallback"
    },
    {
      "anonymous": false,
      "inputs": [
        {
          "indexed": true,
          "name": "key",
          "type": "bytes32"
        },
        {
          "indexed": true,
          "name": "previousPurpose",
          "type": "bytes32"
        },
        {
          "indexed": true,
          "name": "newPurpose",
          "type": "bytes32"
        }
      ],
      "name": "SetKey",
      "type": "event"
    },
    {
      "anonymous": false,
      "inputs": [
        {
          "indexed": false,
          "name": "previousThreshold",
          "type": "uint256"
        },
        {
          "indexed": false,
          "name": "newThreshold",
          "type": "uint256"
        }
      ],
      "name": "ManagementThresholdChange",
      "type": "event"
    },
    {
      "anonymous": false,
      "inputs": [
        {
          "indexed": false,
          "name": "previousThreshold",
          "type": "uint256"
        },
        {
          "indexed": false,
          "name": "newThreshold",
          "type": "uint256"
        }
      ],
      "name": "ActionThresholdChange",
      "type": "event"
    },
    {
      "anonymous": false,
      "inputs": [
        {
          "indexed": true,
          "name": "previousMaster",
          "type": "address"
        },
        {
          "indexed": true,
          "name": "newMaster",
          "type": "address"
        }
      ],
      "name": "MasterChange",
      "type": "event"
    },
    {
      "anonymous": false,
      "inputs": [
        {
          "indexed": true,
          "name": "key",
          "type": "bytes32"
        },
        {
          "indexed": false,
          "name": "value",
          "type": "bytes"
        }
      ],
      "name": "DataChanged",
      "type": "event"
    },
    {
      "anonymous": false,
      "inputs": [
        {
          "indexed": true,
          "name": "contractAddress",
          "type": "address"
        }
      ],
      "name": "ContractCreated",
      "type": "event"
    },
    {
      "anonymous": false,
      "inputs": [
        {
          "indexed": true,
          "name": "to",
          "type": "address"
        }
      ],
      "name": "CallSuccess",
      "type": "event"
    },
    {
      "anonymous": false,
      "inputs": [
        {
          "indexed": true,
          "name": "to",
          "type": "address"
        },
        {
          "indexed": false,
          "name": "returndata",
          "type": "bytes"
        }
      ],
      "name": "CallFailure",
      "type": "event"
    }
  ],
  "evm": {
    "bytecode": {
      "linkReferences": {},
      "object": "608060405234801561001057600080fd5b5061228d806100206000396000f3fe6080604052600436106101b75760003560e01c806363f14c3c116100ec578063affed0e01161008a578063da84ddd111610064578063da84ddd114610461578063ea40df3a14610481578063ee97f7f314610496578063f2725bbe14610313576101b7565b8063affed0e01461042c578063b7b58d2714610441578063d202158d14610333576101b7565b806383d2deb1116100c657806383d2deb1146103b35780638da5cb5b146103d55780638efee3b5146103f757806393790f441461040c576101b7565b806363f14c3c14610353578063646e55db146103735780637f23690c14610393576101b7565b80631c5e56a0116101595780635122bb7c116101335780635122bb7c146102d157806354f6127f146102e65780635e6261fa1461031357806363ebc4dd14610333576101b7565b80631c5e56a01461029157806335d8df481461029157806344c028fe146102b1576101b7565b806311fdf08a1161019557806311fdf08a146101f957806312aaac70146102245780631626ba7e1461024457806319a3974014610271576101b7565b806303f778de146101b957806307a00330146101b95780630eda0979146101d9575b005b3480156101c557600080fd5b506101b76101d43660046117c2565b6104ab565b3480156101e557600080fd5b506101b76101f43660046116d0565b6104e4565b34801561020557600080fd5b5061020e6105bf565b60405161021b9190611fba565b60405180910390f35b34801561023057600080fd5b5061020e61023f366004611786565b6105c6565b34801561025057600080fd5b5061026461025f3660046117e1565b6105d8565b60405161021b9190611fac565b34801561027d57600080fd5b506101b761028c366004611786565b610600565b34801561029d57600080fd5b506101b76102ac36600461162c565b610682565b3480156102bd57600080fd5b506101b76102cc366004611829565b6106b6565b3480156102dd57600080fd5b5061020e610703565b3480156102f257600080fd5b50610306610301366004611786565b610727565b60405161021b9190612006565b34801561031f57600080fd5b5061026461032e36600461162c565b6107c8565b34801561033f57600080fd5b5061026461034e3660046117c2565b6107dc565b34801561035f57600080fd5b5061020e61036e366004611606565b6107e8565b34801561037f57600080fd5b506101b761038e366004611666565b6107f4565b34801561039f57600080fd5b506101b76103ae3660046117e1565b6108bf565b3480156103bf57600080fd5b506103c861093d565b60405161021b9190611f9b565b3480156103e157600080fd5b506103ea610995565b60405161021b9190611f72565b34801561040357600080fd5b5061020e610999565b34801561041857600080fd5b5061020e610427366004611606565b61099f565b34801561043857600080fd5b5061020e6109c4565b34801561044d57600080fd5b506101b761045c366004611896565b6109ca565b34801561046d57600080fd5b506101b761047c366004611786565b610c15565b34801561048d57600080fd5b5061020e610cbc565b3480156104a257600080fd5b506103ea610cc2565b3330146104d657604051600160e51b62461bcd0281526004016104cd90612037565b60405180910390fd5b6104e08282610cd1565b5050565b600054600160a01b900460ff161561051157604051600160e51b62461bcd0281526004016104cd90612077565b84831461053357604051600160e51b62461bcd0281526004016104cd906120a7565b60005b858110156105745761056c87878381811061054d57fe5b9050602002013586868481811061056057fe5b90506020020135610cd1565b600101610536565b5081600654101561059a57604051600160e51b62461bcd0281526004016104cd906120f7565b600791909155600855505060008054600160a01b60ff021916600160a01b1790555050565b6006545b90565b60009081526004602052604090205490565b60006105f76105f061036e858563ffffffff610e9716565b60046107dc565b90505b92915050565b33301461062257604051600160e51b62461bcd0281526004016104cd90612037565b8061064257604051600160e51b62461bcd0281526004016104cd90612027565b7ffd0b44227dee5de3fa844ff17983688ade4471a8257d62ed2a48507168810d7a60085482604051610675929190612117565b60405180910390a1600855565b3330146106a457604051600160e51b62461bcd0281526004016104cd90612037565b6104e06106b0836107e8565b82610cd1565b6106be610995565b6001600160a01b0316336001600160a01b0316146106f157604051600160e51b62461bcd0281526004016104cd90612047565b6106fd84848484610f73565b50505050565b7f1618fcec65bce0693e931d337fc12424ee920bf56c4a74bc8ddb1361328af23690565b60008181526003602090815260409182902080548351601f60026000196101006001861615020190931692909204918201849004840281018401909452808452606093928301828280156107bc5780601f10610791576101008083540402835291602001916107bc565b820191906000526020600020905b81548152906001019060200180831161079f57829003601f168201915b50505050509050919050565b60006105f76107d6846107e8565b836110d1565b60006105f783836110d1565b6001600160a01b031690565b33301461081657604051600160e51b62461bcd0281526004016104cd90612037565b801561087f5760005b60055481101561086257600460006005838154811061083a57fe5b906000526020600020015481526020019081526020016000206000905580600101905061081f565b5061086f600560006113b0565b6000600681905560078190556008555b6106fd8484848080601f0160208091040260200160405190810160405280939291908181526020018383808284376000920191909152506110e792505050565b3330146108e157604051600160e51b62461bcd0281526004016104cd90612037565b60008281526003602090815260409091208251610900928401906113d1565b50817fece574603820d07bc9b91f2a932baadf4628aabcb8afba49776529c14a6104b2826040516109319190612006565b60405180910390a25050565b6060600580548060200260200160405190810160405280929190818152602001828054801561098b57602002820191906000526020600020905b815481526020019060010190808311610977575b5050505050905090565b3090565b60075490565b6000600460006109ae846107e8565b8152602001908152602001600020549050919050565b60015490565b60005a600180548101905590508515806109e5575060015486145b610a0457604051600160e51b62461bcd0281526004016104cd906120d7565b60006001600160a01b038a16301415610a455760075483511015610a3d57604051600160e51b62461bcd0281526004016104cd906120e7565b506001610a6f565b60085483511015610a6b57604051600160e51b62461bcd0281526004016104cd906120e7565b5060025b6000610ab7308d8d8d8d805190602001208d8d8d8d604051602001610a9c99989796959493929190611ea2565b6040516020818303038152906040528051906020012061126e565b60008181526002602052604090205490915015610ae957604051600160e51b62461bcd0281526004016104cd90612087565b60008181526002602052604081207fa50daf8ffad995556f094fb7bb26ec5c7aadc7f574c741d0237ea13300bc1dd79055805b8551811015610bbe576000610b4d878381518110610b3657fe5b602002602001015185610e9790919063ffffffff16565b9050826001600160a01b0316816001600160a01b031611610b8357604051600160e51b62461bcd0281526004016104cd90612097565b610b95610b8f826107e8565b866107dc565b610bb457604051600160e51b62461bcd0281526004016104cd90612057565b9150600101610b1c565b50610bcb8d8d8d8d610f73565b610c06610c0087610bf45a610be861aa508a63ffffffff61129e16565b9063ffffffff6112b016565b9063ffffffff6112c516565b886112ec565b50505050505050505050505050565b333014610c3757604051600160e51b62461bcd0281526004016104cd90612037565b80610c5757604051600160e51b62461bcd0281526004016104cd90612027565b806006541015610c7c57604051600160e51b62461bcd0281526004016104cd906120b7565b7f9b1fc5ddbac8d6fac2661a57e7515dee9abf241f420629999d85f031919f4b4d60075482604051610caf929190612117565b60405180910390a1600755565b60085490565b6000546001600160a01b031690565b60008281526004602052604090205419600116158015610cf2575060018116155b15610d0257600680546000190190555b600082815260046020526040902054600116158015610d2357506001811916155b15610d32576006805460010190555b6007546006541015610d5957604051600160e51b62461bcd0281526004016104cd90612067565b600082815260046020526040902054610da257600580546001810182556000919091527f036b6384b5eca791c62761152d0c79bb0604c104a5fb6f4eb0703f3154bb3db0018290555b600082815260046020526040808220549051839285917f82f65b599219dc2719c1104b915b860b397dc476d20c4df48810a72bb8ad1e5b9190a46000828152600460205260409020819055806104e05760005b600554811015610e92578260058281548110610e0d57fe5b90600052602060002001541415610e8a57600580546000198101908110610e3057fe5b906000526020600020015460058281548110610e4857fe5b600091825260209091200155600580546000198101908110610e6657fe5b60009182526020822001556005805490610e8490600019830161144f565b50610e92565b600101610df5565b505050565b60008151604114610eaa575060006105fa565b60208201516040830151606084015160001a7f7fffffffffffffffffffffffffffffff5d576e7357a4501ddfe92f46681b20a0821115610ef057600093505050506105fa565b8060ff16601b14158015610f0857508060ff16601c14155b15610f1957600093505050506105fa565b60018682858560405160008152602001604052604051610f3c9493929190611fc8565b6020604051602081039080840390855afa158015610f5e573d6000803e3d6000fd5b5050604051601f190151979650505050505050565b836110655760006060846001600160a01b03168484604051610f959190611f3f565b60006040518083038185875af1925050503d8060008114610fd2576040519150601f19603f3d011682016040523d82523d6000602084013e610fd7565b606091505b509092509050811561101c576040516001600160a01b038616907f7c940052472fd1d616012dc780a92c777783e8f45cdb6802d1d48891cd33a50890600090a261105e565b846001600160a01b03167f4b0b4377cb27b4634a3573214783294886bc4e04f64fa75d3f5469fb26393462826040516110559190612006565b60405180910390a25b50506106fd565b60018414156110b65760008151602083016000f06040519091506001600160a01b038216907fcf78cf0d6f3d8371e1075c69c492ab4ec5d8cf23a1a239b6a51a1d00be7ca31290600090a2506106fd565b604051600160e51b62461bcd0281526004016104cd906120c7565b6000918252600460205260409091205419161590565b7f1618fcec65bce0693e931d337fc12424ee920bf56c4a74bc8ddb1361328af23660001b826001600160a01b0316635122bb7c6040518163ffffffff1660e01b815260040160206040518083038186803b15801561114457600080fd5b505afa158015611158573d6000803e3d6000fd5b505050506040513d601f19601f8201168201806040525061117c91908101906117a4565b1461119c57604051600160e51b62461bcd0281526004016104cd90612107565b600080546040516001600160a01b03808616939216917fb177a4a05a82a0d82537f71956f554ee3d2d0f32a76c0b056e0490778be10ab491a3600080546001600160a01b0319166001600160a01b038416908117600160a01b60ff021916825560405161120a908490611f3f565b600060405180830381855af49150503d8060008114611245576040519150601f19603f3d011682016040523d82523d6000602084013e61124a565b606091505b5050905080610e9257604051600160e51b62461bcd0281526004016104cd90612017565b6000816040516020016112819190611f52565b604051602081830303815290604052805190602001209050919050565b6000828201838110156105f757600080fd5b6000828211156112bf57600080fd5b50900390565b6000826112d4575060006105fa565b828202828482816112e157fe5b04146105f757600080fd5b6001600160a01b03811661132d57604051339083156108fc029084906000818181858888f19350505050158015611327573d6000803e3d6000fd5b506104e0565b604051600160e01b63a9059cbb0281526001600160a01b0382169063a9059cbb9061135e9033908690600401611f80565b602060405180830381600087803b15801561137857600080fd5b505af115801561138c573d6000803e3d6000fd5b505050506040513d601f19601f82011682018060405250610e929190810190611768565b50805460008255906000526020600020908101906113ce919061146f565b50565b828054600181600116156101000203166002900490600052602060002090601f016020900481019282601f1061141257805160ff191683800117855561143f565b8280016001018555821561143f579182015b8281111561143f578251825591602001919060010190611424565b5061144b92915061146f565b5090565b815481835581811115610e9257600083815260209020610e929181019083015b6105c391905b8082111561144b5760008155600101611475565b80356105fa8161222d565b60008083601f8401126114a657600080fd5b50813567ffffffffffffffff8111156114be57600080fd5b6020830191508360208202830111156114d657600080fd5b9250929050565b600082601f8301126114ee57600080fd5b81356115016114fc8261214c565b612125565b81815260209384019390925082018360005b8381101561153f578135860161152988826115b7565b8452506020928301929190910190600101611513565b5050505092915050565b80356105fa81612241565b80516105fa81612241565b80356105fa8161224a565b80516105fa8161224a565b60008083601f84011261158757600080fd5b50813567ffffffffffffffff81111561159f57600080fd5b6020830191508360018202830111156114d657600080fd5b600082601f8301126115c857600080fd5b81356115d66114fc8261216d565b915080825260208301602083018583830111156115f257600080fd5b6115fd8382846121d4565b50505092915050565b60006020828403121561161857600080fd5b60006116248484611489565b949350505050565b6000806040838503121561163f57600080fd5b600061164b8585611489565b925050602061165c8582860161155f565b9150509250929050565b6000806000806060858703121561167c57600080fd5b60006116888787611489565b945050602085013567ffffffffffffffff8111156116a557600080fd5b6116b187828801611575565b935093505060406116c487828801611549565b91505092959194509250565b600080600080600080608087890312156116e957600080fd5b863567ffffffffffffffff81111561170057600080fd5b61170c89828a01611494565b9650965050602087013567ffffffffffffffff81111561172b57600080fd5b61173789828a01611494565b9450945050604061174a89828a0161155f565b925050606061175b89828a0161155f565b9150509295509295509295565b60006020828403121561177a57600080fd5b60006116248484611554565b60006020828403121561179857600080fd5b6000611624848461155f565b6000602082840312156117b657600080fd5b6000611624848461156a565b600080604083850312156117d557600080fd5b600061164b858561155f565b600080604083850312156117f457600080fd5b6000611800858561155f565b925050602083013567ffffffffffffffff81111561181d57600080fd5b61165c858286016115b7565b6000806000806080858703121561183f57600080fd5b600061184b878761155f565b945050602061185c87828801611489565b935050604061186d8782880161155f565b925050606085013567ffffffffffffffff81111561188a57600080fd5b6116c4878288016115b7565b60008060008060008060008060006101208a8c0312156118b557600080fd5b60006118c18c8c61155f565b99505060206118d28c828d01611489565b98505060406118e38c828d0161155f565b97505060608a013567ffffffffffffffff81111561190057600080fd5b61190c8c828d016115b7565b965050608061191d8c828d0161155f565b95505060a061192e8c828d0161155f565b94505060c061193f8c828d01611489565b93505060e06119508c828d0161155f565b9250506101008a013567ffffffffffffffff81111561196e57600080fd5b61197a8c828d016114dd565b9150509295985092959850929598565b60006119968383611a29565b505060200190565b6119a7816121c3565b82525050565b6119a76119b9826121ad565b61220c565b6119a7816121ad565b60006119d28261219b565b6119dc818561219f565b93506119e783612195565b8060005b83811015611a155781516119ff888261198a565b9750611a0a83612195565b9250506001016119eb565b509495945050505050565b6119a7816121b8565b6119a7816105c3565b6119a7611a3e826105c3565b6105c3565b6000611a4e8261219b565b611a58818561219f565b9350611a688185602086016121e0565b611a718161221d565b9093019392505050565b6000611a868261219b565b611a9081856121a8565b9350611aa08185602086016121e0565b9290920192915050565b6000611ab760148361219f565b7f6661696c65642d746f2d696e697469616c697a65000000000000000000000000815260200192915050565b6000611af0601c836121a8565b7f19457468657265756d205369676e6564204d6573736167653a0a3332000000008152601c0192915050565b6000611b2960118361219f565b7f7468726573686f6c642d746f6f2d6c6f77000000000000000000000000000000815260200192915050565b6000611b6260118361219f565b7f726573747269637465642d616363657373000000000000000000000000000000815260200192915050565b6000611b9b60108361219f565b7f6163636573732d666f7262696464656e00000000000000000000000000000000815260200192915050565b6000611bd460118361219f565b7f696e76616c69642d7369676e6174757265000000000000000000000000000000815260200192915050565b6000611c0d60258361219f565b7f63616e6e6f742d72656d6f76652d637269746963616c2d6d616e6167656d656e8152600160d81b64742d6b657902602082015260400192915050565b6000611c5760138361219f565b7f616c72656164792d696e697469616c697a656400000000000000000000000000815260200192915050565b6000611c9060128361219f565b7f7472616e73616374696f6e2d7265706c61790000000000000000000000000000815260200192915050565b6000611cc9601b8361219f565b7f696e76616c69642d7369676e6174757265732d6f72646572696e670000000000815260200192915050565b6000611d0260298361219f565b7f6b65792d616e642d707572706f73652d61727261792d6d7573742d686176652d8152600160b81b6873616d652d73697a6502602082015260400192915050565b6000611d5060128361219f565b7f7468726573686f6c642d746f6f2d686967680000000000000000000000000000815260200192915050565b6000611d8960168361219f565b7f696e76616c69642d6f7065726174696f6e2d7479706500000000000000000000815260200192915050565b6000611dc2600d8361219f565b7f696e76616c69642d6e6f6e636500000000000000000000000000000000000000815260200192915050565b6000611dfb600f8361219f565b7f6d697373696e672d7369676e6572730000000000000000000000000000000000815260200192915050565b6000611e34601a8361219f565b7f6e6f742d656e6f7567682d6d616e6167656d656e742d6b657973000000000000815260200192915050565b6000611e6d60138361219f565b7f696e76616c69642d6d61737465722d7575696400000000000000000000000000815260200192915050565b6119a7816121bd565b6000611eae828c6119ad565b601482019150611ebe828b611a32565b602082019150611ece828a6119ad565b601482019150611ede8289611a32565b602082019150611eee8288611a32565b602082019150611efe8287611a32565b602082019150611f0e8286611a32565b602082019150611f1e82856119ad565b601482019150611f2e8284611a32565b506020019998505050505050505050565b6000611f4b8284611a7b565b9392505050565b6000611f5d82611ae3565b9150611f698284611a32565b50602001919050565b602081016105fa82846119be565b60408101611f8e828561199e565b611f4b6020830184611a29565b602080825281016105f781846119c7565b602081016105fa8284611a20565b602081016105fa8284611a29565b60808101611fd68287611a29565b611fe36020830186611e99565b611ff06040830185611a29565b611ffd6060830184611a29565b95945050505050565b602080825281016105f78184611a43565b602080825281016105fa81611aaa565b602080825281016105fa81611b1c565b602080825281016105fa81611b55565b602080825281016105fa81611b8e565b602080825281016105fa81611bc7565b602080825281016105fa81611c00565b602080825281016105fa81611c4a565b602080825281016105fa81611c83565b602080825281016105fa81611cbc565b602080825281016105fa81611cf5565b602080825281016105fa81611d43565b602080825281016105fa81611d7c565b602080825281016105fa81611db5565b602080825281016105fa81611dee565b602080825281016105fa81611e27565b602080825281016105fa81611e60565b60408101611f8e8285611a29565b60405181810167ffffffffffffffff8111828210171561214457600080fd5b604052919050565b600067ffffffffffffffff82111561216357600080fd5b5060209081020190565b600067ffffffffffffffff82111561218457600080fd5b506020601f91909101601f19160190565b60200190565b5190565b90815260200190565b919050565b60006105fa826107e8565b151590565b60ff1690565b60006105fa8260006105fa826121ad565b82818337506000910152565b60005b838110156121fb5781810151838201526020016121e3565b838111156106fd5750506000910152565b60006105fa8260006105fa82612227565b601f01601f191690565b60601b90565b612236816121ad565b81146113ce57600080fd5b612236816121b8565b612236816105c356fea265627a7a72305820c9329e70f90353daf17d50626597600f57fde21ca89a3dcb13947412485c63cf6c6578706572696d656e74616cf50037",
      "opcodes": "PUSH1 0x80 PUSH1 0x40 MSTORE CALLVALUE DUP1 ISZERO PUSH2 0x10 JUMPI PUSH1 0x0 DUP1 REVERT JUMPDEST POP PUSH2 0x228D DUP1 PUSH2 0x20 PUSH1 0x0 CODECOPY PUSH1 0x0 RETURN INVALID PUSH1 0x80 PUSH1 0x40 MSTORE PUSH1 0x4 CALLDATASIZE LT PUSH2 0x1B7 JUMPI PUSH1 0x0 CALLDATALOAD PUSH1 0xE0 SHR DUP1 PUSH4 0x63F14C3C GT PUSH2 0xEC JUMPI DUP1 PUSH4 0xAFFED0E0 GT PUSH2 0x8A JUMPI DUP1 PUSH4 0xDA84DDD1 GT PUSH2 0x64 JUMPI DUP1 PUSH4 0xDA84DDD1 EQ PUSH2 0x461 JUMPI DUP1 PUSH4 0xEA40DF3A EQ PUSH2 0x481 JUMPI DUP1 PUSH4 0xEE97F7F3 EQ PUSH2 0x496 JUMPI DUP1 PUSH4 0xF2725BBE EQ PUSH2 0x313 JUMPI PUSH2 0x1B7 JUMP JUMPDEST DUP1 PUSH4 0xAFFED0E0 EQ PUSH2 0x42C JUMPI DUP1 PUSH4 0xB7B58D27 EQ PUSH2 0x441 JUMPI DUP1 PUSH4 0xD202158D EQ PUSH2 0x333 JUMPI PUSH2 0x1B7 JUMP JUMPDEST DUP1 PUSH4 0x83D2DEB1 GT PUSH2 0xC6 JUMPI DUP1 PUSH4 0x83D2DEB1 EQ PUSH2 0x3B3 JUMPI DUP1 PUSH4 0x8DA5CB5B EQ PUSH2 0x3D5 JUMPI DUP1 PUSH4 0x8EFEE3B5 EQ PUSH2 0x3F7 JUMPI DUP1 PUSH4 0x93790F44 EQ PUSH2 0x40C JUMPI PUSH2 0x1B7 JUMP JUMPDEST DUP1 PUSH4 0x63F14C3C EQ PUSH2 0x353 JUMPI DUP1 PUSH4 0x646E55DB EQ PUSH2 0x373 JUMPI DUP1 PUSH4 0x7F23690C EQ PUSH2 0x393 JUMPI PUSH2 0x1B7 JUMP JUMPDEST DUP1 PUSH4 0x1C5E56A0 GT PUSH2 0x159 JUMPI DUP1 PUSH4 0x5122BB7C GT PUSH2 0x133 JUMPI DUP1 PUSH4 0x5122BB7C EQ PUSH2 0x2D1 JUMPI DUP1 PUSH4 0x54F6127F EQ PUSH2 0x2E6 JUMPI DUP1 PUSH4 0x5E6261FA EQ PUSH2 0x313 JUMPI DUP1 PUSH4 0x63EBC4DD EQ PUSH2 0x333 JUMPI PUSH2 0x1B7 JUMP JUMPDEST DUP1 PUSH4 0x1C5E56A0 EQ PUSH2 0x291 JUMPI DUP1 PUSH4 0x35D8DF48 EQ PUSH2 0x291 JUMPI DUP1 PUSH4 0x44C028FE EQ PUSH2 0x2B1 JUMPI PUSH2 0x1B7 JUMP JUMPDEST DUP1 PUSH4 0x11FDF08A GT PUSH2 0x195 JUMPI DUP1 PUSH4 0x11FDF08A EQ PUSH2 0x1F9 JUMPI DUP1 PUSH4 0x12AAAC70 EQ PUSH2 0x224 JUMPI DUP1 PUSH4 0x1626BA7E EQ PUSH2 0x244 JUMPI DUP1 PUSH4 0x19A39740 EQ PUSH2 0x271 JUMPI PUSH2 0x1B7 JUMP JUMPDEST DUP1 PUSH4 0x3F778DE EQ PUSH2 0x1B9 JUMPI DUP1 PUSH4 0x7A00330 EQ PUSH2 0x1B9 JUMPI DUP1 PUSH4 0xEDA0979 EQ PUSH2 0x1D9 JUMPI JUMPDEST STOP JUMPDEST CALLVALUE DUP1 ISZERO PUSH2 0x1C5 JUMPI PUSH1 0x0 DUP1 REVERT JUMPDEST POP PUSH2 0x1B7 PUSH2 0x1D4 CALLDATASIZE PUSH1 0x4 PUSH2 0x17C2 JUMP JUMPDEST PUSH2 0x4AB JUMP JUMPDEST CALLVALUE DUP1 ISZERO PUSH2 0x1E5 JUMPI PUSH1 0x0 DUP1 REVERT JUMPDEST POP PUSH2 0x1B7 PUSH2 0x1F4 CALLDATASIZE PUSH1 0x4 PUSH2 0x16D0 JUMP JUMPDEST PUSH2 0x4E4 JUMP JUMPDEST CALLVALUE DUP1 ISZERO PUSH2 0x205 JUMPI PUSH1 0x0 DUP1 REVERT JUMPDEST POP PUSH2 0x20E PUSH2 0x5BF JUMP JUMPDEST PUSH1 0x40 MLOAD PUSH2 0x21B SWAP2 SWAP1 PUSH2 0x1FBA JUMP JUMPDEST PUSH1 0x40 MLOAD DUP1 SWAP2 SUB SWAP1 RETURN JUMPDEST CALLVALUE DUP1 ISZERO PUSH2 0x230 JUMPI PUSH1 0x0 DUP1 REVERT JUMPDEST POP PUSH2 0x20E PUSH2 0x23F CALLDATASIZE PUSH1 0x4 PUSH2 0x1786 JUMP JUMPDEST PUSH2 0x5C6 JUMP JUMPDEST CALLVALUE DUP1 ISZERO PUSH2 0x250 JUMPI PUSH1 0x0 DUP1 REVERT JUMPDEST POP PUSH2 0x264 PUSH2 0x25F CALLDATASIZE PUSH1 0x4 PUSH2 0x17E1 JUMP JUMPDEST PUSH2 0x5D8 JUMP JUMPDEST PUSH1 0x40 MLOAD PUSH2 0x21B SWAP2 SWAP1 PUSH2 0x1FAC JUMP JUMPDEST CALLVALUE DUP1 ISZERO PUSH2 0x27D JUMPI PUSH1 0x0 DUP1 REVERT JUMPDEST POP PUSH2 0x1B7 PUSH2 0x28C CALLDATASIZE PUSH1 0x4 PUSH2 0x1786 JUMP JUMPDEST PUSH2 0x600 JUMP JUMPDEST CALLVALUE DUP1 ISZERO PUSH2 0x29D JUMPI PUSH1 0x0 DUP1 REVERT JUMPDEST POP PUSH2 0x1B7 PUSH2 0x2AC CALLDATASIZE PUSH1 0x4 PUSH2 0x162C JUMP JUMPDEST PUSH2 0x682 JUMP JUMPDEST CALLVALUE DUP1 ISZERO PUSH2 0x2BD JUMPI PUSH1 0x0 DUP1 REVERT JUMPDEST POP PUSH2 0x1B7 PUSH2 0x2CC CALLDATASIZE PUSH1 0x4 PUSH2 0x1829 JUMP JUMPDEST PUSH2 0x6B6 JUMP JUMPDEST CALLVALUE DUP1 ISZERO PUSH2 0x2DD JUMPI PUSH1 0x0 DUP1 REVERT JUMPDEST POP PUSH2 0x20E PUSH2 0x703 JUMP JUMPDEST CALLVALUE DUP1 ISZERO PUSH2 0x2F2 JUMPI PUSH1 0x0 DUP1 REVERT JUMPDEST POP PUSH2 0x306 PUSH2 0x301 CALLDATASIZE PUSH1 0x4 PUSH2 0x1786 JUMP JUMPDEST PUSH2 0x727 JUMP JUMPDEST PUSH1 0x40 MLOAD PUSH2 0x21B SWAP2 SWAP1 PUSH2 0x2006 JUMP JUMPDEST CALLVALUE DUP1 ISZERO PUSH2 0x31F JUMPI PUSH1 0x0 DUP1 REVERT JUMPDEST POP PUSH2 0x264 PUSH2 0x32E CALLDATASIZE PUSH1 0x4 PUSH2 0x162C JUMP JUMPDEST PUSH2 0x7C8 JUMP JUMPDEST CALLVALUE DUP1 ISZERO PUSH2 0x33F JUMPI PUSH1 0x0 DUP1 REVERT JUMPDEST POP PUSH2 0x264 PUSH2 0x34E CALLDATASIZE PUSH1 0x4 PUSH2 0x17C2 JUMP JUMPDEST PUSH2 0x7DC JUMP JUMPDEST CALLVALUE DUP1 ISZERO PUSH2 0x35F JUMPI PUSH1 0x0 DUP1 REVERT JUMPDEST POP PUSH2 0x20E PUSH2 0x36E CALLDATASIZE PUSH1 0x4 PUSH2 0x1606 JUMP JUMPDEST PUSH2 0x7E8 JUMP JUMPDEST CALLVALUE DUP1 ISZERO PUSH2 0x37F JUMPI PUSH1 0x0 DUP1 REVERT JUMPDEST POP PUSH2 0x1B7 PUSH2 0x38E CALLDATASIZE PUSH1 0x4 PUSH2 0x1666 JUMP JUMPDEST PUSH2 0x7F4 JUMP JUMPDEST CALLVALUE DUP1 ISZERO PUSH2 0x39F JUMPI PUSH1 0x0 DUP1 REVERT JUMPDEST POP PUSH2 0x1B7 PUSH2 0x3AE CALLDATASIZE PUSH1 0x4 PUSH2 0x17E1 JUMP JUMPDEST PUSH2 0x8BF JUMP JUMPDEST CALLVALUE DUP1 ISZERO PUSH2 0x3BF JUMPI PUSH1 0x0 DUP1 REVERT JUMPDEST POP PUSH2 0x3C8 PUSH2 0x93D JUMP JUMPDEST PUSH1 0x40 MLOAD PUSH2 0x21B SWAP2 SWAP1 PUSH2 0x1F9B JUMP JUMPDEST CALLVALUE DUP1 ISZERO PUSH2 0x3E1 JUMPI PUSH1 0x0 DUP1 REVERT JUMPDEST POP PUSH2 0x3EA PUSH2 0x995 JUMP JUMPDEST PUSH1 0x40 MLOAD PUSH2 0x21B SWAP2 SWAP1 PUSH2 0x1F72 JUMP JUMPDEST CALLVALUE DUP1 ISZERO PUSH2 0x403 JUMPI PUSH1 0x0 DUP1 REVERT JUMPDEST POP PUSH2 0x20E PUSH2 0x999 JUMP JUMPDEST CALLVALUE DUP1 ISZERO PUSH2 0x418 JUMPI PUSH1 0x0 DUP1 REVERT JUMPDEST POP PUSH2 0x20E PUSH2 0x427 CALLDATASIZE PUSH1 0x4 PUSH2 0x1606 JUMP JUMPDEST PUSH2 0x99F JUMP JUMPDEST CALLVALUE DUP1 ISZERO PUSH2 0x438 JUMPI PUSH1 0x0 DUP1 REVERT JUMPDEST POP PUSH2 0x20E PUSH2 0x9C4 JUMP JUMPDEST CALLVALUE DUP1 ISZERO PUSH2 0x44D JUMPI PUSH1 0x0 DUP1 REVERT JUMPDEST POP PUSH2 0x1B7 PUSH2 0x45C CALLDATASIZE PUSH1 0x4 PUSH2 0x1896 JUMP JUMPDEST PUSH2 0x9CA JUMP JUMPDEST CALLVALUE DUP1 ISZERO PUSH2 0x46D JUMPI PUSH1 0x0 DUP1 REVERT JUMPDEST POP PUSH2 0x1B7 PUSH2 0x47C CALLDATASIZE PUSH1 0x4 PUSH2 0x1786 JUMP JUMPDEST PUSH2 0xC15 JUMP JUMPDEST CALLVALUE DUP1 ISZERO PUSH2 0x48D JUMPI PUSH1 0x0 DUP1 REVERT JUMPDEST POP PUSH2 0x20E PUSH2 0xCBC JUMP JUMPDEST CALLVALUE DUP1 ISZERO PUSH2 0x4A2 JUMPI PUSH1 0x0 DUP1 REVERT JUMPDEST POP PUSH2 0x3EA PUSH2 0xCC2 JUMP JUMPDEST CALLER ADDRESS EQ PUSH2 0x4D6 JUMPI PUSH1 0x40 MLOAD PUSH1 0x1 PUSH1 0xE5 SHL PUSH3 0x461BCD MUL DUP2 MSTORE PUSH1 0x4 ADD PUSH2 0x4CD SWAP1 PUSH2 0x2037 JUMP JUMPDEST PUSH1 0x40 MLOAD DUP1 SWAP2 SUB SWAP1 REVERT JUMPDEST PUSH2 0x4E0 DUP3 DUP3 PUSH2 0xCD1 JUMP JUMPDEST POP POP JUMP JUMPDEST PUSH1 0x0 SLOAD PUSH1 0x1 PUSH1 0xA0 SHL SWAP1 DIV PUSH1 0xFF AND ISZERO PUSH2 0x511 JUMPI PUSH1 0x40 MLOAD PUSH1 0x1 PUSH1 0xE5 SHL PUSH3 0x461BCD MUL DUP2 MSTORE PUSH1 0x4 ADD PUSH2 0x4CD SWAP1 PUSH2 0x2077 JUMP JUMPDEST DUP5 DUP4 EQ PUSH2 0x533 JUMPI PUSH1 0x40 MLOAD PUSH1 0x1 PUSH1 0xE5 SHL PUSH3 0x461BCD MUL DUP2 MSTORE PUSH1 0x4 ADD PUSH2 0x4CD SWAP1 PUSH2 0x20A7 JUMP JUMPDEST PUSH1 0x0 JUMPDEST DUP6 DUP2 LT ISZERO PUSH2 0x574 JUMPI PUSH2 0x56C DUP8 DUP8 DUP4 DUP2 DUP2 LT PUSH2 0x54D JUMPI INVALID JUMPDEST SWAP1 POP PUSH1 0x20 MUL ADD CALLDATALOAD DUP7 DUP7 DUP5 DUP2 DUP2 LT PUSH2 0x560 JUMPI INVALID JUMPDEST SWAP1 POP PUSH1 0x20 MUL ADD CALLDATALOAD PUSH2 0xCD1 JUMP JUMPDEST PUSH1 0x1 ADD PUSH2 0x536 JUMP JUMPDEST POP DUP2 PUSH1 0x6 SLOAD LT ISZERO PUSH2 0x59A JUMPI PUSH1 0x40 MLOAD PUSH1 0x1 PUSH1 0xE5 SHL PUSH3 0x461BCD MUL DUP2 MSTORE PUSH1 0x4 ADD PUSH2 0x4CD SWAP1 PUSH2 0x20F7 JUMP JUMPDEST PUSH1 0x7 SWAP2 SWAP1 SWAP2 SSTORE PUSH1 0x8 SSTORE POP POP PUSH1 0x0 DUP1 SLOAD PUSH1 0x1 PUSH1 0xA0 SHL PUSH1 0xFF MUL NOT AND PUSH1 0x1 PUSH1 0xA0 SHL OR SWAP1 SSTORE POP POP JUMP JUMPDEST PUSH1 0x6 SLOAD JUMPDEST SWAP1 JUMP JUMPDEST PUSH1 0x0 SWAP1 DUP2 MSTORE PUSH1 0x4 PUSH1 0x20 MSTORE PUSH1 0x40 SWAP1 KECCAK256 SLOAD SWAP1 JUMP JUMPDEST PUSH1 0x0 PUSH2 0x5F7 PUSH2 0x5F0 PUSH2 0x36E DUP6 DUP6 PUSH4 0xFFFFFFFF PUSH2 0xE97 AND JUMP JUMPDEST PUSH1 0x4 PUSH2 0x7DC JUMP JUMPDEST SWAP1 POP JUMPDEST SWAP3 SWAP2 POP POP JUMP JUMPDEST CALLER ADDRESS EQ PUSH2 0x622 JUMPI PUSH1 0x40 MLOAD PUSH1 0x1 PUSH1 0xE5 SHL PUSH3 0x461BCD MUL DUP2 MSTORE PUSH1 0x4 ADD PUSH2 0x4CD SWAP1 PUSH2 0x2037 JUMP JUMPDEST DUP1 PUSH2 0x642 JUMPI PUSH1 0x40 MLOAD PUSH1 0x1 PUSH1 0xE5 SHL PUSH3 0x461BCD MUL DUP2 MSTORE PUSH1 0x4 ADD PUSH2 0x4CD SWAP1 PUSH2 0x2027 JUMP JUMPDEST PUSH32 0xFD0B44227DEE5DE3FA844FF17983688ADE4471A8257D62ED2A48507168810D7A PUSH1 0x8 SLOAD DUP3 PUSH1 0x40 MLOAD PUSH2 0x675 SWAP3 SWAP2 SWAP1 PUSH2 0x2117 JUMP JUMPDEST PUSH1 0x40 MLOAD DUP1 SWAP2 SUB SWAP1 LOG1 PUSH1 0x8 SSTORE JUMP JUMPDEST CALLER ADDRESS EQ PUSH2 0x6A4 JUMPI PUSH1 0x40 MLOAD PUSH1 0x1 PUSH1 0xE5 SHL PUSH3 0x461BCD MUL DUP2 MSTORE PUSH1 0x4 ADD PUSH2 0x4CD SWAP1 PUSH2 0x2037 JUMP JUMPDEST PUSH2 0x4E0 PUSH2 0x6B0 DUP4 PUSH2 0x7E8 JUMP JUMPDEST DUP3 PUSH2 0xCD1 JUMP JUMPDEST PUSH2 0x6BE PUSH2 0x995 JUMP JUMPDEST PUSH1 0x1 PUSH1 0x1 PUSH1 0xA0 SHL SUB AND CALLER PUSH1 0x1 PUSH1 0x1 PUSH1 0xA0 SHL SUB AND EQ PUSH2 0x6F1 JUMPI PUSH1 0x40 MLOAD PUSH1 0x1 PUSH1 0xE5 SHL PUSH3 0x461BCD MUL DUP2 MSTORE PUSH1 0x4 ADD PUSH2 0x4CD SWAP1 PUSH2 0x2047 JUMP JUMPDEST PUSH2 0x6FD DUP5 DUP5 DUP5 DUP5 PUSH2 0xF73 JUMP JUMPDEST POP POP POP POP JUMP JUMPDEST PUSH32 0x1618FCEC65BCE0693E931D337FC12424EE920BF56C4A74BC8DDB1361328AF236 SWAP1 JUMP JUMPDEST PUSH1 0x0 DUP2 DUP2 MSTORE PUSH1 0x3 PUSH1 0x20 SWAP1 DUP2 MSTORE PUSH1 0x40 SWAP2 DUP3 SWAP1 KECCAK256 DUP1 SLOAD DUP4 MLOAD PUSH1 0x1F PUSH1 0x2 PUSH1 0x0 NOT PUSH2 0x100 PUSH1 0x1 DUP7 AND ISZERO MUL ADD SWAP1 SWAP4 AND SWAP3 SWAP1 SWAP3 DIV SWAP2 DUP3 ADD DUP5 SWAP1 DIV DUP5 MUL DUP2 ADD DUP5 ADD SWAP1 SWAP5 MSTORE DUP1 DUP5 MSTORE PUSH1 0x60 SWAP4 SWAP3 DUP4 ADD DUP3 DUP3 DUP1 ISZERO PUSH2 0x7BC JUMPI DUP1 PUSH1 0x1F LT PUSH2 0x791 JUMPI PUSH2 0x100 DUP1 DUP4 SLOAD DIV MUL DUP4 MSTORE SWAP2 PUSH1 0x20 ADD SWAP2 PUSH2 0x7BC JUMP JUMPDEST DUP3 ADD SWAP2 SWAP1 PUSH1 0x0 MSTORE PUSH1 0x20 PUSH1 0x0 KECCAK256 SWAP1 JUMPDEST DUP2 SLOAD DUP2 MSTORE SWAP1 PUSH1 0x1 ADD SWAP1 PUSH1 0x20 ADD DUP1 DUP4 GT PUSH2 0x79F JUMPI DUP3 SWAP1 SUB PUSH1 0x1F AND DUP3 ADD SWAP2 JUMPDEST POP POP POP POP POP SWAP1 POP SWAP2 SWAP1 POP JUMP JUMPDEST PUSH1 0x0 PUSH2 0x5F7 PUSH2 0x7D6 DUP5 PUSH2 0x7E8 JUMP JUMPDEST DUP4 PUSH2 0x10D1 JUMP JUMPDEST PUSH1 0x0 PUSH2 0x5F7 DUP4 DUP4 PUSH2 0x10D1 JUMP JUMPDEST PUSH1 0x1 PUSH1 0x1 PUSH1 0xA0 SHL SUB AND SWAP1 JUMP JUMPDEST CALLER ADDRESS EQ PUSH2 0x816 JUMPI PUSH1 0x40 MLOAD PUSH1 0x1 PUSH1 0xE5 SHL PUSH3 0x461BCD MUL DUP2 MSTORE PUSH1 0x4 ADD PUSH2 0x4CD SWAP1 PUSH2 0x2037 JUMP JUMPDEST DUP1 ISZERO PUSH2 0x87F JUMPI PUSH1 0x0 JUMPDEST PUSH1 0x5 SLOAD DUP2 LT ISZERO PUSH2 0x862 JUMPI PUSH1 0x4 PUSH1 0x0 PUSH1 0x5 DUP4 DUP2 SLOAD DUP2 LT PUSH2 0x83A JUMPI INVALID JUMPDEST SWAP1 PUSH1 0x0 MSTORE PUSH1 0x20 PUSH1 0x0 KECCAK256 ADD SLOAD DUP2 MSTORE PUSH1 0x20 ADD SWAP1 DUP2 MSTORE PUSH1 0x20 ADD PUSH1 0x0 KECCAK256 PUSH1 0x0 SWAP1 SSTORE DUP1 PUSH1 0x1 ADD SWAP1 POP PUSH2 0x81F JUMP JUMPDEST POP PUSH2 0x86F PUSH1 0x5 PUSH1 0x0 PUSH2 0x13B0 JUMP JUMPDEST PUSH1 0x0 PUSH1 0x6 DUP2 SWAP1 SSTORE PUSH1 0x7 DUP2 SWAP1 SSTORE PUSH1 0x8 SSTORE JUMPDEST PUSH2 0x6FD DUP5 DUP5 DUP5 DUP1 DUP1 PUSH1 0x1F ADD PUSH1 0x20 DUP1 SWAP2 DIV MUL PUSH1 0x20 ADD PUSH1 0x40 MLOAD SWAP1 DUP2 ADD PUSH1 0x40 MSTORE DUP1 SWAP4 SWAP3 SWAP2 SWAP1 DUP2 DUP2 MSTORE PUSH1 0x20 ADD DUP4 DUP4 DUP1 DUP3 DUP5 CALLDATACOPY PUSH1 0x0 SWAP3 ADD SWAP2 SWAP1 SWAP2 MSTORE POP PUSH2 0x10E7 SWAP3 POP POP POP JUMP JUMPDEST CALLER ADDRESS EQ PUSH2 0x8E1 JUMPI PUSH1 0x40 MLOAD PUSH1 0x1 PUSH1 0xE5 SHL PUSH3 0x461BCD MUL DUP2 MSTORE PUSH1 0x4 ADD PUSH2 0x4CD SWAP1 PUSH2 0x2037 JUMP JUMPDEST PUSH1 0x0 DUP3 DUP2 MSTORE PUSH1 0x3 PUSH1 0x20 SWAP1 DUP2 MSTORE PUSH1 0x40 SWAP1 SWAP2 KECCAK256 DUP3 MLOAD PUSH2 0x900 SWAP3 DUP5 ADD SWAP1 PUSH2 0x13D1 JUMP JUMPDEST POP DUP2 PUSH32 0xECE574603820D07BC9B91F2A932BAADF4628AABCB8AFBA49776529C14A6104B2 DUP3 PUSH1 0x40 MLOAD PUSH2 0x931 SWAP2 SWAP1 PUSH2 0x2006 JUMP JUMPDEST PUSH1 0x40 MLOAD DUP1 SWAP2 SUB SWAP1 LOG2 POP POP JUMP JUMPDEST PUSH1 0x60 PUSH1 0x5 DUP1 SLOAD DUP1 PUSH1 0x20 MUL PUSH1 0x20 ADD PUSH1 0x40 MLOAD SWAP1 DUP2 ADD PUSH1 0x40 MSTORE DUP1 SWAP3 SWAP2 SWAP1 DUP2 DUP2 MSTORE PUSH1 0x20 ADD DUP3 DUP1 SLOAD DUP1 ISZERO PUSH2 0x98B JUMPI PUSH1 0x20 MUL DUP3 ADD SWAP2 SWAP1 PUSH1 0x0 MSTORE PUSH1 0x20 PUSH1 0x0 KECCAK256 SWAP1 JUMPDEST DUP2 SLOAD DUP2 MSTORE PUSH1 0x20 ADD SWAP1 PUSH1 0x1 ADD SWAP1 DUP1 DUP4 GT PUSH2 0x977 JUMPI JUMPDEST POP POP POP POP POP SWAP1 POP SWAP1 JUMP JUMPDEST ADDRESS SWAP1 JUMP JUMPDEST PUSH1 0x7 SLOAD SWAP1 JUMP JUMPDEST PUSH1 0x0 PUSH1 0x4 PUSH1 0x0 PUSH2 0x9AE DUP5 PUSH2 0x7E8 JUMP JUMPDEST DUP2 MSTORE PUSH1 0x20 ADD SWAP1 DUP2 MSTORE PUSH1 0x20 ADD PUSH1 0x0 KECCAK256 SLOAD SWAP1 POP SWAP2 SWAP1 POP JUMP JUMPDEST PUSH1 0x1 SLOAD SWAP1 JUMP JUMPDEST PUSH1 0x0 GAS PUSH1 0x1 DUP1 SLOAD DUP2 ADD SWAP1 SSTORE SWAP1 POP DUP6 ISZERO DUP1 PUSH2 0x9E5 JUMPI POP PUSH1 0x1 SLOAD DUP7 EQ JUMPDEST PUSH2 0xA04 JUMPI PUSH1 0x40 MLOAD PUSH1 0x1 PUSH1 0xE5 SHL PUSH3 0x461BCD MUL DUP2 MSTORE PUSH1 0x4 ADD PUSH2 0x4CD SWAP1 PUSH2 0x20D7 JUMP JUMPDEST PUSH1 0x0 PUSH1 0x1 PUSH1 0x1 PUSH1 0xA0 SHL SUB DUP11 AND ADDRESS EQ ISZERO PUSH2 0xA45 JUMPI PUSH1 0x7 SLOAD DUP4 MLOAD LT ISZERO PUSH2 0xA3D JUMPI PUSH1 0x40 MLOAD PUSH1 0x1 PUSH1 0xE5 SHL PUSH3 0x461BCD MUL DUP2 MSTORE PUSH1 0x4 ADD PUSH2 0x4CD SWAP1 PUSH2 0x20E7 JUMP JUMPDEST POP PUSH1 0x1 PUSH2 0xA6F JUMP JUMPDEST PUSH1 0x8 SLOAD DUP4 MLOAD LT ISZERO PUSH2 0xA6B JUMPI PUSH1 0x40 MLOAD PUSH1 0x1 PUSH1 0xE5 SHL PUSH3 0x461BCD MUL DUP2 MSTORE PUSH1 0x4 ADD PUSH2 0x4CD SWAP1 PUSH2 0x20E7 JUMP JUMPDEST POP PUSH1 0x2 JUMPDEST PUSH1 0x0 PUSH2 0xAB7 ADDRESS DUP14 DUP14 DUP14 DUP14 DUP1 MLOAD SWAP1 PUSH1 0x20 ADD KECCAK256 DUP14 DUP14 DUP14 DUP14 PUSH1 0x40 MLOAD PUSH1 0x20 ADD PUSH2 0xA9C SWAP10 SWAP9 SWAP8 SWAP7 SWAP6 SWAP5 SWAP4 SWAP3 SWAP2 SWAP1 PUSH2 0x1EA2 JUMP JUMPDEST PUSH1 0x40 MLOAD PUSH1 0x20 DUP2 DUP4 SUB SUB DUP2 MSTORE SWAP1 PUSH1 0x40 MSTORE DUP1 MLOAD SWAP1 PUSH1 0x20 ADD KECCAK256 PUSH2 0x126E JUMP JUMPDEST PUSH1 0x0 DUP2 DUP2 MSTORE PUSH1 0x2 PUSH1 0x20 MSTORE PUSH1 0x40 SWAP1 KECCAK256 SLOAD SWAP1 SWAP2 POP ISZERO PUSH2 0xAE9 JUMPI PUSH1 0x40 MLOAD PUSH1 0x1 PUSH1 0xE5 SHL PUSH3 0x461BCD MUL DUP2 MSTORE PUSH1 0x4 ADD PUSH2 0x4CD SWAP1 PUSH2 0x2087 JUMP JUMPDEST PUSH1 0x0 DUP2 DUP2 MSTORE PUSH1 0x2 PUSH1 0x20 MSTORE PUSH1 0x40 DUP2 KECCAK256 PUSH32 0xA50DAF8FFAD995556F094FB7BB26EC5C7AADC7F574C741D0237EA13300BC1DD7 SWAP1 SSTORE DUP1 JUMPDEST DUP6 MLOAD DUP2 LT ISZERO PUSH2 0xBBE JUMPI PUSH1 0x0 PUSH2 0xB4D DUP8 DUP4 DUP2 MLOAD DUP2 LT PUSH2 0xB36 JUMPI INVALID JUMPDEST PUSH1 0x20 MUL PUSH1 0x20 ADD ADD MLOAD DUP6 PUSH2 0xE97 SWAP1 SWAP2 SWAP1 PUSH4 0xFFFFFFFF AND JUMP JUMPDEST SWAP1 POP DUP3 PUSH1 0x1 PUSH1 0x1 PUSH1 0xA0 SHL SUB AND DUP2 PUSH1 0x1 PUSH1 0x1 PUSH1 0xA0 SHL SUB AND GT PUSH2 0xB83 JUMPI PUSH1 0x40 MLOAD PUSH1 0x1 PUSH1 0xE5 SHL PUSH3 0x461BCD MUL DUP2 MSTORE PUSH1 0x4 ADD PUSH2 0x4CD SWAP1 PUSH2 0x2097 JUMP JUMPDEST PUSH2 0xB95 PUSH2 0xB8F DUP3 PUSH2 0x7E8 JUMP JUMPDEST DUP7 PUSH2 0x7DC JUMP JUMPDEST PUSH2 0xBB4 JUMPI PUSH1 0x40 MLOAD PUSH1 0x1 PUSH1 0xE5 SHL PUSH3 0x461BCD MUL DUP2 MSTORE PUSH1 0x4 ADD PUSH2 0x4CD SWAP1 PUSH2 0x2057 JUMP JUMPDEST SWAP2 POP PUSH1 0x1 ADD PUSH2 0xB1C JUMP JUMPDEST POP PUSH2 0xBCB DUP14 DUP14 DUP14 DUP14 PUSH2 0xF73 JUMP JUMPDEST PUSH2 0xC06 PUSH2 0xC00 DUP8 PUSH2 0xBF4 GAS PUSH2 0xBE8 PUSH2 0xAA50 DUP11 PUSH4 0xFFFFFFFF PUSH2 0x129E AND JUMP JUMPDEST SWAP1 PUSH4 0xFFFFFFFF PUSH2 0x12B0 AND JUMP JUMPDEST SWAP1 PUSH4 0xFFFFFFFF PUSH2 0x12C5 AND JUMP JUMPDEST DUP9 PUSH2 0x12EC JUMP JUMPDEST POP POP POP POP POP POP POP POP POP POP POP POP POP JUMP JUMPDEST CALLER ADDRESS EQ PUSH2 0xC37 JUMPI PUSH1 0x40 MLOAD PUSH1 0x1 PUSH1 0xE5 SHL PUSH3 0x461BCD MUL DUP2 MSTORE PUSH1 0x4 ADD PUSH2 0x4CD SWAP1 PUSH2 0x2037 JUMP JUMPDEST DUP1 PUSH2 0xC57 JUMPI PUSH1 0x40 MLOAD PUSH1 0x1 PUSH1 0xE5 SHL PUSH3 0x461BCD MUL DUP2 MSTORE PUSH1 0x4 ADD PUSH2 0x4CD SWAP1 PUSH2 0x2027 JUMP JUMPDEST DUP1 PUSH1 0x6 SLOAD LT ISZERO PUSH2 0xC7C JUMPI PUSH1 0x40 MLOAD PUSH1 0x1 PUSH1 0xE5 SHL PUSH3 0x461BCD MUL DUP2 MSTORE PUSH1 0x4 ADD PUSH2 0x4CD SWAP1 PUSH2 0x20B7 JUMP JUMPDEST PUSH32 0x9B1FC5DDBAC8D6FAC2661A57E7515DEE9ABF241F420629999D85F031919F4B4D PUSH1 0x7 SLOAD DUP3 PUSH1 0x40 MLOAD PUSH2 0xCAF SWAP3 SWAP2 SWAP1 PUSH2 0x2117 JUMP JUMPDEST PUSH1 0x40 MLOAD DUP1 SWAP2 SUB SWAP1 LOG1 PUSH1 0x7 SSTORE JUMP JUMPDEST PUSH1 0x8 SLOAD SWAP1 JUMP JUMPDEST PUSH1 0x0 SLOAD PUSH1 0x1 PUSH1 0x1 PUSH1 0xA0 SHL SUB AND SWAP1 JUMP JUMPDEST PUSH1 0x0 DUP3 DUP2 MSTORE PUSH1 0x4 PUSH1 0x20 MSTORE PUSH1 0x40 SWAP1 KECCAK256 SLOAD NOT PUSH1 0x1 AND ISZERO DUP1 ISZERO PUSH2 0xCF2 JUMPI POP PUSH1 0x1 DUP2 AND ISZERO JUMPDEST ISZERO PUSH2 0xD02 JUMPI PUSH1 0x6 DUP1 SLOAD PUSH1 0x0 NOT ADD SWAP1 SSTORE JUMPDEST PUSH1 0x0 DUP3 DUP2 MSTORE PUSH1 0x4 PUSH1 0x20 MSTORE PUSH1 0x40 SWAP1 KECCAK256 SLOAD PUSH1 0x1 AND ISZERO DUP1 ISZERO PUSH2 0xD23 JUMPI POP PUSH1 0x1 DUP2 NOT AND ISZERO JUMPDEST ISZERO PUSH2 0xD32 JUMPI PUSH1 0x6 DUP1 SLOAD PUSH1 0x1 ADD SWAP1 SSTORE JUMPDEST PUSH1 0x7 SLOAD PUSH1 0x6 SLOAD LT ISZERO PUSH2 0xD59 JUMPI PUSH1 0x40 MLOAD PUSH1 0x1 PUSH1 0xE5 SHL PUSH3 0x461BCD MUL DUP2 MSTORE PUSH1 0x4 ADD PUSH2 0x4CD SWAP1 PUSH2 0x2067 JUMP JUMPDEST PUSH1 0x0 DUP3 DUP2 MSTORE PUSH1 0x4 PUSH1 0x20 MSTORE PUSH1 0x40 SWAP1 KECCAK256 SLOAD PUSH2 0xDA2 JUMPI PUSH1 0x5 DUP1 SLOAD PUSH1 0x1 DUP2 ADD DUP3 SSTORE PUSH1 0x0 SWAP2 SWAP1 SWAP2 MSTORE PUSH32 0x36B6384B5ECA791C62761152D0C79BB0604C104A5FB6F4EB0703F3154BB3DB0 ADD DUP3 SWAP1 SSTORE JUMPDEST PUSH1 0x0 DUP3 DUP2 MSTORE PUSH1 0x4 PUSH1 0x20 MSTORE PUSH1 0x40 DUP1 DUP3 KECCAK256 SLOAD SWAP1 MLOAD DUP4 SWAP3 DUP6 SWAP2 PUSH32 0x82F65B599219DC2719C1104B915B860B397DC476D20C4DF48810A72BB8AD1E5B SWAP2 SWAP1 LOG4 PUSH1 0x0 DUP3 DUP2 MSTORE PUSH1 0x4 PUSH1 0x20 MSTORE PUSH1 0x40 SWAP1 KECCAK256 DUP2 SWAP1 SSTORE DUP1 PUSH2 0x4E0 JUMPI PUSH1 0x0 JUMPDEST PUSH1 0x5 SLOAD DUP2 LT ISZERO PUSH2 0xE92 JUMPI DUP3 PUSH1 0x5 DUP3 DUP2 SLOAD DUP2 LT PUSH2 0xE0D JUMPI INVALID JUMPDEST SWAP1 PUSH1 0x0 MSTORE PUSH1 0x20 PUSH1 0x0 KECCAK256 ADD SLOAD EQ ISZERO PUSH2 0xE8A JUMPI PUSH1 0x5 DUP1 SLOAD PUSH1 0x0 NOT DUP2 ADD SWAP1 DUP2 LT PUSH2 0xE30 JUMPI INVALID JUMPDEST SWAP1 PUSH1 0x0 MSTORE PUSH1 0x20 PUSH1 0x0 KECCAK256 ADD SLOAD PUSH1 0x5 DUP3 DUP2 SLOAD DUP2 LT PUSH2 0xE48 JUMPI INVALID JUMPDEST PUSH1 0x0 SWAP2 DUP3 MSTORE PUSH1 0x20 SWAP1 SWAP2 KECCAK256 ADD SSTORE PUSH1 0x5 DUP1 SLOAD PUSH1 0x0 NOT DUP2 ADD SWAP1 DUP2 LT PUSH2 0xE66 JUMPI INVALID JUMPDEST PUSH1 0x0 SWAP2 DUP3 MSTORE PUSH1 0x20 DUP3 KECCAK256 ADD SSTORE PUSH1 0x5 DUP1 SLOAD SWAP1 PUSH2 0xE84 SWAP1 PUSH1 0x0 NOT DUP4 ADD PUSH2 0x144F JUMP JUMPDEST POP PUSH2 0xE92 JUMP JUMPDEST PUSH1 0x1 ADD PUSH2 0xDF5 JUMP JUMPDEST POP POP POP JUMP JUMPDEST PUSH1 0x0 DUP2 MLOAD PUSH1 0x41 EQ PUSH2 0xEAA JUMPI POP PUSH1 0x0 PUSH2 0x5FA JUMP JUMPDEST PUSH1 0x20 DUP3 ADD MLOAD PUSH1 0x40 DUP4 ADD MLOAD PUSH1 0x60 DUP5 ADD MLOAD PUSH1 0x0 BYTE PUSH32 0x7FFFFFFFFFFFFFFFFFFFFFFFFFFFFFFF5D576E7357A4501DDFE92F46681B20A0 DUP3 GT ISZERO PUSH2 0xEF0 JUMPI PUSH1 0x0 SWAP4 POP POP POP POP PUSH2 0x5FA JUMP JUMPDEST DUP1 PUSH1 0xFF AND PUSH1 0x1B EQ ISZERO DUP1 ISZERO PUSH2 0xF08 JUMPI POP DUP1 PUSH1 0xFF AND PUSH1 0x1C EQ ISZERO JUMPDEST ISZERO PUSH2 0xF19 JUMPI PUSH1 0x0 SWAP4 POP POP POP POP PUSH2 0x5FA JUMP JUMPDEST PUSH1 0x1 DUP7 DUP3 DUP6 DUP6 PUSH1 0x40 MLOAD PUSH1 0x0 DUP2 MSTORE PUSH1 0x20 ADD PUSH1 0x40 MSTORE PUSH1 0x40 MLOAD PUSH2 0xF3C SWAP5 SWAP4 SWAP3 SWAP2 SWAP1 PUSH2 0x1FC8 JUMP JUMPDEST PUSH1 0x20 PUSH1 0x40 MLOAD PUSH1 0x20 DUP2 SUB SWAP1 DUP1 DUP5 SUB SWAP1 DUP6 GAS STATICCALL ISZERO DUP1 ISZERO PUSH2 0xF5E JUMPI RETURNDATASIZE PUSH1 0x0 DUP1 RETURNDATACOPY RETURNDATASIZE PUSH1 0x0 REVERT JUMPDEST POP POP PUSH1 0x40 MLOAD PUSH1 0x1F NOT ADD MLOAD SWAP8 SWAP7 POP POP POP POP POP POP POP JUMP JUMPDEST DUP4 PUSH2 0x1065 JUMPI PUSH1 0x0 PUSH1 0x60 DUP5 PUSH1 0x1 PUSH1 0x1 PUSH1 0xA0 SHL SUB AND DUP5 DUP5 PUSH1 0x40 MLOAD PUSH2 0xF95 SWAP2 SWAP1 PUSH2 0x1F3F JUMP JUMPDEST PUSH1 0x0 PUSH1 0x40 MLOAD DUP1 DUP4 SUB DUP2 DUP6 DUP8 GAS CALL SWAP3 POP POP POP RETURNDATASIZE DUP1 PUSH1 0x0 DUP2 EQ PUSH2 0xFD2 JUMPI PUSH1 0x40 MLOAD SWAP2 POP PUSH1 0x1F NOT PUSH1 0x3F RETURNDATASIZE ADD AND DUP3 ADD PUSH1 0x40 MSTORE RETURNDATASIZE DUP3 MSTORE RETURNDATASIZE PUSH1 0x0 PUSH1 0x20 DUP5 ADD RETURNDATACOPY PUSH2 0xFD7 JUMP JUMPDEST PUSH1 0x60 SWAP2 POP JUMPDEST POP SWAP1 SWAP3 POP SWAP1 POP DUP2 ISZERO PUSH2 0x101C JUMPI PUSH1 0x40 MLOAD PUSH1 0x1 PUSH1 0x1 PUSH1 0xA0 SHL SUB DUP7 AND SWAP1 PUSH32 0x7C940052472FD1D616012DC780A92C777783E8F45CDB6802D1D48891CD33A508 SWAP1 PUSH1 0x0 SWAP1 LOG2 PUSH2 0x105E JUMP JUMPDEST DUP5 PUSH1 0x1 PUSH1 0x1 PUSH1 0xA0 SHL SUB AND PUSH32 0x4B0B4377CB27B4634A3573214783294886BC4E04F64FA75D3F5469FB26393462 DUP3 PUSH1 0x40 MLOAD PUSH2 0x1055 SWAP2 SWAP1 PUSH2 0x2006 JUMP JUMPDEST PUSH1 0x40 MLOAD DUP1 SWAP2 SUB SWAP1 LOG2 JUMPDEST POP POP PUSH2 0x6FD JUMP JUMPDEST PUSH1 0x1 DUP5 EQ ISZERO PUSH2 0x10B6 JUMPI PUSH1 0x0 DUP2 MLOAD PUSH1 0x20 DUP4 ADD PUSH1 0x0 CREATE PUSH1 0x40 MLOAD SWAP1 SWAP2 POP PUSH1 0x1 PUSH1 0x1 PUSH1 0xA0 SHL SUB DUP3 AND SWAP1 PUSH32 0xCF78CF0D6F3D8371E1075C69C492AB4EC5D8CF23A1A239B6A51A1D00BE7CA312 SWAP1 PUSH1 0x0 SWAP1 LOG2 POP PUSH2 0x6FD JUMP JUMPDEST PUSH1 0x40 MLOAD PUSH1 0x1 PUSH1 0xE5 SHL PUSH3 0x461BCD MUL DUP2 MSTORE PUSH1 0x4 ADD PUSH2 0x4CD SWAP1 PUSH2 0x20C7 JUMP JUMPDEST PUSH1 0x0 SWAP2 DUP3 MSTORE PUSH1 0x4 PUSH1 0x20 MSTORE PUSH1 0x40 SWAP1 SWAP2 KECCAK256 SLOAD NOT AND ISZERO SWAP1 JUMP JUMPDEST PUSH32 0x1618FCEC65BCE0693E931D337FC12424EE920BF56C4A74BC8DDB1361328AF236 PUSH1 0x0 SHL DUP3 PUSH1 0x1 PUSH1 0x1 PUSH1 0xA0 SHL SUB AND PUSH4 0x5122BB7C PUSH1 0x40 MLOAD DUP2 PUSH4 0xFFFFFFFF AND PUSH1 0xE0 SHL DUP2 MSTORE PUSH1 0x4 ADD PUSH1 0x20 PUSH1 0x40 MLOAD DUP1 DUP4 SUB DUP2 DUP7 DUP1 EXTCODESIZE ISZERO DUP1 ISZERO PUSH2 0x1144 JUMPI PUSH1 0x0 DUP1 REVERT JUMPDEST POP GAS STATICCALL ISZERO DUP1 ISZERO PUSH2 0x1158 JUMPI RETURNDATASIZE PUSH1 0x0 DUP1 RETURNDATACOPY RETURNDATASIZE PUSH1 0x0 REVERT JUMPDEST POP POP POP POP PUSH1 0x40 MLOAD RETURNDATASIZE PUSH1 0x1F NOT PUSH1 0x1F DUP3 ADD AND DUP3 ADD DUP1 PUSH1 0x40 MSTORE POP PUSH2 0x117C SWAP2 SWAP1 DUP2 ADD SWAP1 PUSH2 0x17A4 JUMP JUMPDEST EQ PUSH2 0x119C JUMPI PUSH1 0x40 MLOAD PUSH1 0x1 PUSH1 0xE5 SHL PUSH3 0x461BCD MUL DUP2 MSTORE PUSH1 0x4 ADD PUSH2 0x4CD SWAP1 PUSH2 0x2107 JUMP JUMPDEST PUSH1 0x0 DUP1 SLOAD PUSH1 0x40 MLOAD PUSH1 0x1 PUSH1 0x1 PUSH1 0xA0 SHL SUB DUP1 DUP7 AND SWAP4 SWAP3 AND SWAP2 PUSH32 0xB177A4A05A82A0D82537F71956F554EE3D2D0F32A76C0B056E0490778BE10AB4 SWAP2 LOG3 PUSH1 0x0 DUP1 SLOAD PUSH1 0x1 PUSH1 0x1 PUSH1 0xA0 SHL SUB NOT AND PUSH1 0x1 PUSH1 0x1 PUSH1 0xA0 SHL SUB DUP5 AND SWAP1 DUP2 OR PUSH1 0x1 PUSH1 0xA0 SHL PUSH1 0xFF MUL NOT AND DUP3 SSTORE PUSH1 0x40 MLOAD PUSH2 0x120A SWAP1 DUP5 SWAP1 PUSH2 0x1F3F JUMP JUMPDEST PUSH1 0x0 PUSH1 0x40 MLOAD DUP1 DUP4 SUB DUP2 DUP6 GAS DELEGATECALL SWAP2 POP POP RETURNDATASIZE DUP1 PUSH1 0x0 DUP2 EQ PUSH2 0x1245 JUMPI PUSH1 0x40 MLOAD SWAP2 POP PUSH1 0x1F NOT PUSH1 0x3F RETURNDATASIZE ADD AND DUP3 ADD PUSH1 0x40 MSTORE RETURNDATASIZE DUP3 MSTORE RETURNDATASIZE PUSH1 0x0 PUSH1 0x20 DUP5 ADD RETURNDATACOPY PUSH2 0x124A JUMP JUMPDEST PUSH1 0x60 SWAP2 POP JUMPDEST POP POP SWAP1 POP DUP1 PUSH2 0xE92 JUMPI PUSH1 0x40 MLOAD PUSH1 0x1 PUSH1 0xE5 SHL PUSH3 0x461BCD MUL DUP2 MSTORE PUSH1 0x4 ADD PUSH2 0x4CD SWAP1 PUSH2 0x2017 JUMP JUMPDEST PUSH1 0x0 DUP2 PUSH1 0x40 MLOAD PUSH1 0x20 ADD PUSH2 0x1281 SWAP2 SWAP1 PUSH2 0x1F52 JUMP JUMPDEST PUSH1 0x40 MLOAD PUSH1 0x20 DUP2 DUP4 SUB SUB DUP2 MSTORE SWAP1 PUSH1 0x40 MSTORE DUP1 MLOAD SWAP1 PUSH1 0x20 ADD KECCAK256 SWAP1 POP SWAP2 SWAP1 POP JUMP JUMPDEST PUSH1 0x0 DUP3 DUP3 ADD DUP4 DUP2 LT ISZERO PUSH2 0x5F7 JUMPI PUSH1 0x0 DUP1 REVERT JUMPDEST PUSH1 0x0 DUP3 DUP3 GT ISZERO PUSH2 0x12BF JUMPI PUSH1 0x0 DUP1 REVERT JUMPDEST POP SWAP1 SUB SWAP1 JUMP JUMPDEST PUSH1 0x0 DUP3 PUSH2 0x12D4 JUMPI POP PUSH1 0x0 PUSH2 0x5FA JUMP JUMPDEST DUP3 DUP3 MUL DUP3 DUP5 DUP3 DUP2 PUSH2 0x12E1 JUMPI INVALID JUMPDEST DIV EQ PUSH2 0x5F7 JUMPI PUSH1 0x0 DUP1 REVERT JUMPDEST PUSH1 0x1 PUSH1 0x1 PUSH1 0xA0 SHL SUB DUP2 AND PUSH2 0x132D JUMPI PUSH1 0x40 MLOAD CALLER SWAP1 DUP4 ISZERO PUSH2 0x8FC MUL SWAP1 DUP5 SWAP1 PUSH1 0x0 DUP2 DUP2 DUP2 DUP6 DUP9 DUP9 CALL SWAP4 POP POP POP POP ISZERO DUP1 ISZERO PUSH2 0x1327 JUMPI RETURNDATASIZE PUSH1 0x0 DUP1 RETURNDATACOPY RETURNDATASIZE PUSH1 0x0 REVERT JUMPDEST POP PUSH2 0x4E0 JUMP JUMPDEST PUSH1 0x40 MLOAD PUSH1 0x1 PUSH1 0xE0 SHL PUSH4 0xA9059CBB MUL DUP2 MSTORE PUSH1 0x1 PUSH1 0x1 PUSH1 0xA0 SHL SUB DUP3 AND SWAP1 PUSH4 0xA9059CBB SWAP1 PUSH2 0x135E SWAP1 CALLER SWAP1 DUP7 SWAP1 PUSH1 0x4 ADD PUSH2 0x1F80 JUMP JUMPDEST PUSH1 0x20 PUSH1 0x40 MLOAD DUP1 DUP4 SUB DUP2 PUSH1 0x0 DUP8 DUP1 EXTCODESIZE ISZERO DUP1 ISZERO PUSH2 0x1378 JUMPI PUSH1 0x0 DUP1 REVERT JUMPDEST POP GAS CALL ISZERO DUP1 ISZERO PUSH2 0x138C JUMPI RETURNDATASIZE PUSH1 0x0 DUP1 RETURNDATACOPY RETURNDATASIZE PUSH1 0x0 REVERT JUMPDEST POP POP POP POP PUSH1 0x40 MLOAD RETURNDATASIZE PUSH1 0x1F NOT PUSH1 0x1F DUP3 ADD AND DUP3 ADD DUP1 PUSH1 0x40 MSTORE POP PUSH2 0xE92 SWAP2 SWAP1 DUP2 ADD SWAP1 PUSH2 0x1768 JUMP JUMPDEST POP DUP1 SLOAD PUSH1 0x0 DUP3 SSTORE SWAP1 PUSH1 0x0 MSTORE PUSH1 0x20 PUSH1 0x0 KECCAK256 SWAP1 DUP2 ADD SWAP1 PUSH2 0x13CE SWAP2 SWAP1 PUSH2 0x146F JUMP JUMPDEST POP JUMP JUMPDEST DUP3 DUP1 SLOAD PUSH1 0x1 DUP2 PUSH1 0x1 AND ISZERO PUSH2 0x100 MUL SUB AND PUSH1 0x2 SWAP1 DIV SWAP1 PUSH1 0x0 MSTORE PUSH1 0x20 PUSH1 0x0 KECCAK256 SWAP1 PUSH1 0x1F ADD PUSH1 0x20 SWAP1 DIV DUP2 ADD SWAP3 DUP3 PUSH1 0x1F LT PUSH2 0x1412 JUMPI DUP1 MLOAD PUSH1 0xFF NOT AND DUP4 DUP1 ADD OR DUP6 SSTORE PUSH2 0x143F JUMP JUMPDEST DUP3 DUP1 ADD PUSH1 0x1 ADD DUP6 SSTORE DUP3 ISZERO PUSH2 0x143F JUMPI SWAP2 DUP3 ADD JUMPDEST DUP3 DUP2 GT ISZERO PUSH2 0x143F JUMPI DUP3 MLOAD DUP3 SSTORE SWAP2 PUSH1 0x20 ADD SWAP2 SWAP1 PUSH1 0x1 ADD SWAP1 PUSH2 0x1424 JUMP JUMPDEST POP PUSH2 0x144B SWAP3 SWAP2 POP PUSH2 0x146F JUMP JUMPDEST POP SWAP1 JUMP JUMPDEST DUP2 SLOAD DUP2 DUP4 SSTORE DUP2 DUP2 GT ISZERO PUSH2 0xE92 JUMPI PUSH1 0x0 DUP4 DUP2 MSTORE PUSH1 0x20 SWAP1 KECCAK256 PUSH2 0xE92 SWAP2 DUP2 ADD SWAP1 DUP4 ADD JUMPDEST PUSH2 0x5C3 SWAP2 SWAP1 JUMPDEST DUP1 DUP3 GT ISZERO PUSH2 0x144B JUMPI PUSH1 0x0 DUP2 SSTORE PUSH1 0x1 ADD PUSH2 0x1475 JUMP JUMPDEST DUP1 CALLDATALOAD PUSH2 0x5FA DUP2 PUSH2 0x222D JUMP JUMPDEST PUSH1 0x0 DUP1 DUP4 PUSH1 0x1F DUP5 ADD SLT PUSH2 0x14A6 JUMPI PUSH1 0x0 DUP1 REVERT JUMPDEST POP DUP2 CALLDATALOAD PUSH8 0xFFFFFFFFFFFFFFFF DUP2 GT ISZERO PUSH2 0x14BE JUMPI PUSH1 0x0 DUP1 REVERT JUMPDEST PUSH1 0x20 DUP4 ADD SWAP2 POP DUP4 PUSH1 0x20 DUP3 MUL DUP4 ADD GT ISZERO PUSH2 0x14D6 JUMPI PUSH1 0x0 DUP1 REVERT JUMPDEST SWAP3 POP SWAP3 SWAP1 POP JUMP JUMPDEST PUSH1 0x0 DUP3 PUSH1 0x1F DUP4 ADD SLT PUSH2 0x14EE JUMPI PUSH1 0x0 DUP1 REVERT JUMPDEST DUP2 CALLDATALOAD PUSH2 0x1501 PUSH2 0x14FC DUP3 PUSH2 0x214C JUMP JUMPDEST PUSH2 0x2125 JUMP JUMPDEST DUP2 DUP2 MSTORE PUSH1 0x20 SWAP4 DUP5 ADD SWAP4 SWAP1 SWAP3 POP DUP3 ADD DUP4 PUSH1 0x0 JUMPDEST DUP4 DUP2 LT ISZERO PUSH2 0x153F JUMPI DUP2 CALLDATALOAD DUP7 ADD PUSH2 0x1529 DUP9 DUP3 PUSH2 0x15B7 JUMP JUMPDEST DUP5 MSTORE POP PUSH1 0x20 SWAP3 DUP4 ADD SWAP3 SWAP2 SWAP1 SWAP2 ADD SWAP1 PUSH1 0x1 ADD PUSH2 0x1513 JUMP JUMPDEST POP POP POP POP SWAP3 SWAP2 POP POP JUMP JUMPDEST DUP1 CALLDATALOAD PUSH2 0x5FA DUP2 PUSH2 0x2241 JUMP JUMPDEST DUP1 MLOAD PUSH2 0x5FA DUP2 PUSH2 0x2241 JUMP JUMPDEST DUP1 CALLDATALOAD PUSH2 0x5FA DUP2 PUSH2 0x224A JUMP JUMPDEST DUP1 MLOAD PUSH2 0x5FA DUP2 PUSH2 0x224A JUMP JUMPDEST PUSH1 0x0 DUP1 DUP4 PUSH1 0x1F DUP5 ADD SLT PUSH2 0x1587 JUMPI PUSH1 0x0 DUP1 REVERT JUMPDEST POP DUP2 CALLDATALOAD PUSH8 0xFFFFFFFFFFFFFFFF DUP2 GT ISZERO PUSH2 0x159F JUMPI PUSH1 0x0 DUP1 REVERT JUMPDEST PUSH1 0x20 DUP4 ADD SWAP2 POP DUP4 PUSH1 0x1 DUP3 MUL DUP4 ADD GT ISZERO PUSH2 0x14D6 JUMPI PUSH1 0x0 DUP1 REVERT JUMPDEST PUSH1 0x0 DUP3 PUSH1 0x1F DUP4 ADD SLT PUSH2 0x15C8 JUMPI PUSH1 0x0 DUP1 REVERT JUMPDEST DUP2 CALLDATALOAD PUSH2 0x15D6 PUSH2 0x14FC DUP3 PUSH2 0x216D JUMP JUMPDEST SWAP2 POP DUP1 DUP3 MSTORE PUSH1 0x20 DUP4 ADD PUSH1 0x20 DUP4 ADD DUP6 DUP4 DUP4 ADD GT ISZERO PUSH2 0x15F2 JUMPI PUSH1 0x0 DUP1 REVERT JUMPDEST PUSH2 0x15FD DUP4 DUP3 DUP5 PUSH2 0x21D4 JUMP JUMPDEST POP POP POP SWAP3 SWAP2 POP POP JUMP JUMPDEST PUSH1 0x0 PUSH1 0x20 DUP3 DUP5 SUB SLT ISZERO PUSH2 0x1618 JUMPI PUSH1 0x0 DUP1 REVERT JUMPDEST PUSH1 0x0 PUSH2 0x1624 DUP5 DUP5 PUSH2 0x1489 JUMP JUMPDEST SWAP5 SWAP4 POP POP POP POP JUMP JUMPDEST PUSH1 0x0 DUP1 PUSH1 0x40 DUP4 DUP6 SUB SLT ISZERO PUSH2 0x163F JUMPI PUSH1 0x0 DUP1 REVERT JUMPDEST PUSH1 0x0 PUSH2 0x164B DUP6 DUP6 PUSH2 0x1489 JUMP JUMPDEST SWAP3 POP POP PUSH1 0x20 PUSH2 0x165C DUP6 DUP3 DUP7 ADD PUSH2 0x155F JUMP JUMPDEST SWAP2 POP POP SWAP3 POP SWAP3 SWAP1 POP JUMP JUMPDEST PUSH1 0x0 DUP1 PUSH1 0x0 DUP1 PUSH1 0x60 DUP6 DUP8 SUB SLT ISZERO PUSH2 0x167C JUMPI PUSH1 0x0 DUP1 REVERT JUMPDEST PUSH1 0x0 PUSH2 0x1688 DUP8 DUP8 PUSH2 0x1489 JUMP JUMPDEST SWAP5 POP POP PUSH1 0x20 DUP6 ADD CALLDATALOAD PUSH8 0xFFFFFFFFFFFFFFFF DUP2 GT ISZERO PUSH2 0x16A5 JUMPI PUSH1 0x0 DUP1 REVERT JUMPDEST PUSH2 0x16B1 DUP8 DUP3 DUP9 ADD PUSH2 0x1575 JUMP JUMPDEST SWAP4 POP SWAP4 POP POP PUSH1 0x40 PUSH2 0x16C4 DUP8 DUP3 DUP9 ADD PUSH2 0x1549 JUMP JUMPDEST SWAP2 POP POP SWAP3 SWAP6 SWAP2 SWAP5 POP SWAP3 POP JUMP JUMPDEST PUSH1 0x0 DUP1 PUSH1 0x0 DUP1 PUSH1 0x0 DUP1 PUSH1 0x80 DUP8 DUP10 SUB SLT ISZERO PUSH2 0x16E9 JUMPI PUSH1 0x0 DUP1 REVERT JUMPDEST DUP7 CALLDATALOAD PUSH8 0xFFFFFFFFFFFFFFFF DUP2 GT ISZERO PUSH2 0x1700 JUMPI PUSH1 0x0 DUP1 REVERT JUMPDEST PUSH2 0x170C DUP10 DUP3 DUP11 ADD PUSH2 0x1494 JUMP JUMPDEST SWAP7 POP SWAP7 POP POP PUSH1 0x20 DUP8 ADD CALLDATALOAD PUSH8 0xFFFFFFFFFFFFFFFF DUP2 GT ISZERO PUSH2 0x172B JUMPI PUSH1 0x0 DUP1 REVERT JUMPDEST PUSH2 0x1737 DUP10 DUP3 DUP11 ADD PUSH2 0x1494 JUMP JUMPDEST SWAP5 POP SWAP5 POP POP PUSH1 0x40 PUSH2 0x174A DUP10 DUP3 DUP11 ADD PUSH2 0x155F JUMP JUMPDEST SWAP3 POP POP PUSH1 0x60 PUSH2 0x175B DUP10 DUP3 DUP11 ADD PUSH2 0x155F JUMP JUMPDEST SWAP2 POP POP SWAP3 SWAP6 POP SWAP3 SWAP6 POP SWAP3 SWAP6 JUMP JUMPDEST PUSH1 0x0 PUSH1 0x20 DUP3 DUP5 SUB SLT ISZERO PUSH2 0x177A JUMPI PUSH1 0x0 DUP1 REVERT JUMPDEST PUSH1 0x0 PUSH2 0x1624 DUP5 DUP5 PUSH2 0x1554 JUMP JUMPDEST PUSH1 0x0 PUSH1 0x20 DUP3 DUP5 SUB SLT ISZERO PUSH2 0x1798 JUMPI PUSH1 0x0 DUP1 REVERT JUMPDEST PUSH1 0x0 PUSH2 0x1624 DUP5 DUP5 PUSH2 0x155F JUMP JUMPDEST PUSH1 0x0 PUSH1 0x20 DUP3 DUP5 SUB SLT ISZERO PUSH2 0x17B6 JUMPI PUSH1 0x0 DUP1 REVERT JUMPDEST PUSH1 0x0 PUSH2 0x1624 DUP5 DUP5 PUSH2 0x156A JUMP JUMPDEST PUSH1 0x0 DUP1 PUSH1 0x40 DUP4 DUP6 SUB SLT ISZERO PUSH2 0x17D5 JUMPI PUSH1 0x0 DUP1 REVERT JUMPDEST PUSH1 0x0 PUSH2 0x164B DUP6 DUP6 PUSH2 0x155F JUMP JUMPDEST PUSH1 0x0 DUP1 PUSH1 0x40 DUP4 DUP6 SUB SLT ISZERO PUSH2 0x17F4 JUMPI PUSH1 0x0 DUP1 REVERT JUMPDEST PUSH1 0x0 PUSH2 0x1800 DUP6 DUP6 PUSH2 0x155F JUMP JUMPDEST SWAP3 POP POP PUSH1 0x20 DUP4 ADD CALLDATALOAD PUSH8 0xFFFFFFFFFFFFFFFF DUP2 GT ISZERO PUSH2 0x181D JUMPI PUSH1 0x0 DUP1 REVERT JUMPDEST PUSH2 0x165C DUP6 DUP3 DUP7 ADD PUSH2 0x15B7 JUMP JUMPDEST PUSH1 0x0 DUP1 PUSH1 0x0 DUP1 PUSH1 0x80 DUP6 DUP8 SUB SLT ISZERO PUSH2 0x183F JUMPI PUSH1 0x0 DUP1 REVERT JUMPDEST PUSH1 0x0 PUSH2 0x184B DUP8 DUP8 PUSH2 0x155F JUMP JUMPDEST SWAP5 POP POP PUSH1 0x20 PUSH2 0x185C DUP8 DUP3 DUP9 ADD PUSH2 0x1489 JUMP JUMPDEST SWAP4 POP POP PUSH1 0x40 PUSH2 0x186D DUP8 DUP3 DUP9 ADD PUSH2 0x155F JUMP JUMPDEST SWAP3 POP POP PUSH1 0x60 DUP6 ADD CALLDATALOAD PUSH8 0xFFFFFFFFFFFFFFFF DUP2 GT ISZERO PUSH2 0x188A JUMPI PUSH1 0x0 DUP1 REVERT JUMPDEST PUSH2 0x16C4 DUP8 DUP3 DUP9 ADD PUSH2 0x15B7 JUMP JUMPDEST PUSH1 0x0 DUP1 PUSH1 0x0 DUP1 PUSH1 0x0 DUP1 PUSH1 0x0 DUP1 PUSH1 0x0 PUSH2 0x120 DUP11 DUP13 SUB SLT ISZERO PUSH2 0x18B5 JUMPI PUSH1 0x0 DUP1 REVERT JUMPDEST PUSH1 0x0 PUSH2 0x18C1 DUP13 DUP13 PUSH2 0x155F JUMP JUMPDEST SWAP10 POP POP PUSH1 0x20 PUSH2 0x18D2 DUP13 DUP3 DUP14 ADD PUSH2 0x1489 JUMP JUMPDEST SWAP9 POP POP PUSH1 0x40 PUSH2 0x18E3 DUP13 DUP3 DUP14 ADD PUSH2 0x155F JUMP JUMPDEST SWAP8 POP POP PUSH1 0x60 DUP11 ADD CALLDATALOAD PUSH8 0xFFFFFFFFFFFFFFFF DUP2 GT ISZERO PUSH2 0x1900 JUMPI PUSH1 0x0 DUP1 REVERT JUMPDEST PUSH2 0x190C DUP13 DUP3 DUP14 ADD PUSH2 0x15B7 JUMP JUMPDEST SWAP7 POP POP PUSH1 0x80 PUSH2 0x191D DUP13 DUP3 DUP14 ADD PUSH2 0x155F JUMP JUMPDEST SWAP6 POP POP PUSH1 0xA0 PUSH2 0x192E DUP13 DUP3 DUP14 ADD PUSH2 0x155F JUMP JUMPDEST SWAP5 POP POP PUSH1 0xC0 PUSH2 0x193F DUP13 DUP3 DUP14 ADD PUSH2 0x1489 JUMP JUMPDEST SWAP4 POP POP PUSH1 0xE0 PUSH2 0x1950 DUP13 DUP3 DUP14 ADD PUSH2 0x155F JUMP JUMPDEST SWAP3 POP POP PUSH2 0x100 DUP11 ADD CALLDATALOAD PUSH8 0xFFFFFFFFFFFFFFFF DUP2 GT ISZERO PUSH2 0x196E JUMPI PUSH1 0x0 DUP1 REVERT JUMPDEST PUSH2 0x197A DUP13 DUP3 DUP14 ADD PUSH2 0x14DD JUMP JUMPDEST SWAP2 POP POP SWAP3 SWAP6 SWAP9 POP SWAP3 SWAP6 SWAP9 POP SWAP3 SWAP6 SWAP9 JUMP JUMPDEST PUSH1 0x0 PUSH2 0x1996 DUP4 DUP4 PUSH2 0x1A29 JUMP JUMPDEST POP POP PUSH1 0x20 ADD SWAP1 JUMP JUMPDEST PUSH2 0x19A7 DUP2 PUSH2 0x21C3 JUMP JUMPDEST DUP3 MSTORE POP POP JUMP JUMPDEST PUSH2 0x19A7 PUSH2 0x19B9 DUP3 PUSH2 0x21AD JUMP JUMPDEST PUSH2 0x220C JUMP JUMPDEST PUSH2 0x19A7 DUP2 PUSH2 0x21AD JUMP JUMPDEST PUSH1 0x0 PUSH2 0x19D2 DUP3 PUSH2 0x219B JUMP JUMPDEST PUSH2 0x19DC DUP2 DUP6 PUSH2 0x219F JUMP JUMPDEST SWAP4 POP PUSH2 0x19E7 DUP4 PUSH2 0x2195 JUMP JUMPDEST DUP1 PUSH1 0x0 JUMPDEST DUP4 DUP2 LT ISZERO PUSH2 0x1A15 JUMPI DUP2 MLOAD PUSH2 0x19FF DUP9 DUP3 PUSH2 0x198A JUMP JUMPDEST SWAP8 POP PUSH2 0x1A0A DUP4 PUSH2 0x2195 JUMP JUMPDEST SWAP3 POP POP PUSH1 0x1 ADD PUSH2 0x19EB JUMP JUMPDEST POP SWAP5 SWAP6 SWAP5 POP POP POP POP POP JUMP JUMPDEST PUSH2 0x19A7 DUP2 PUSH2 0x21B8 JUMP JUMPDEST PUSH2 0x19A7 DUP2 PUSH2 0x5C3 JUMP JUMPDEST PUSH2 0x19A7 PUSH2 0x1A3E DUP3 PUSH2 0x5C3 JUMP JUMPDEST PUSH2 0x5C3 JUMP JUMPDEST PUSH1 0x0 PUSH2 0x1A4E DUP3 PUSH2 0x219B JUMP JUMPDEST PUSH2 0x1A58 DUP2 DUP6 PUSH2 0x219F JUMP JUMPDEST SWAP4 POP PUSH2 0x1A68 DUP2 DUP6 PUSH1 0x20 DUP7 ADD PUSH2 0x21E0 JUMP JUMPDEST PUSH2 0x1A71 DUP2 PUSH2 0x221D JUMP JUMPDEST SWAP1 SWAP4 ADD SWAP4 SWAP3 POP POP POP JUMP JUMPDEST PUSH1 0x0 PUSH2 0x1A86 DUP3 PUSH2 0x219B JUMP JUMPDEST PUSH2 0x1A90 DUP2 DUP6 PUSH2 0x21A8 JUMP JUMPDEST SWAP4 POP PUSH2 0x1AA0 DUP2 DUP6 PUSH1 0x20 DUP7 ADD PUSH2 0x21E0 JUMP JUMPDEST SWAP3 SWAP1 SWAP3 ADD SWAP3 SWAP2 POP POP JUMP JUMPDEST PUSH1 0x0 PUSH2 0x1AB7 PUSH1 0x14 DUP4 PUSH2 0x219F JUMP JUMPDEST PUSH32 0x6661696C65642D746F2D696E697469616C697A65000000000000000000000000 DUP2 MSTORE PUSH1 0x20 ADD SWAP3 SWAP2 POP POP JUMP JUMPDEST PUSH1 0x0 PUSH2 0x1AF0 PUSH1 0x1C DUP4 PUSH2 0x21A8 JUMP JUMPDEST PUSH32 0x19457468657265756D205369676E6564204D6573736167653A0A333200000000 DUP2 MSTORE PUSH1 0x1C ADD SWAP3 SWAP2 POP POP JUMP JUMPDEST PUSH1 0x0 PUSH2 0x1B29 PUSH1 0x11 DUP4 PUSH2 0x219F JUMP JUMPDEST PUSH32 0x7468726573686F6C642D746F6F2D6C6F77000000000000000000000000000000 DUP2 MSTORE PUSH1 0x20 ADD SWAP3 SWAP2 POP POP JUMP JUMPDEST PUSH1 0x0 PUSH2 0x1B62 PUSH1 0x11 DUP4 PUSH2 0x219F JUMP JUMPDEST PUSH32 0x726573747269637465642D616363657373000000000000000000000000000000 DUP2 MSTORE PUSH1 0x20 ADD SWAP3 SWAP2 POP POP JUMP JUMPDEST PUSH1 0x0 PUSH2 0x1B9B PUSH1 0x10 DUP4 PUSH2 0x219F JUMP JUMPDEST PUSH32 0x6163636573732D666F7262696464656E00000000000000000000000000000000 DUP2 MSTORE PUSH1 0x20 ADD SWAP3 SWAP2 POP POP JUMP JUMPDEST PUSH1 0x0 PUSH2 0x1BD4 PUSH1 0x11 DUP4 PUSH2 0x219F JUMP JUMPDEST PUSH32 0x696E76616C69642D7369676E6174757265000000000000000000000000000000 DUP2 MSTORE PUSH1 0x20 ADD SWAP3 SWAP2 POP POP JUMP JUMPDEST PUSH1 0x0 PUSH2 0x1C0D PUSH1 0x25 DUP4 PUSH2 0x219F JUMP JUMPDEST PUSH32 0x63616E6E6F742D72656D6F76652D637269746963616C2D6D616E6167656D656E DUP2 MSTORE PUSH1 0x1 PUSH1 0xD8 SHL PUSH5 0x742D6B6579 MUL PUSH1 0x20 DUP3 ADD MSTORE PUSH1 0x40 ADD SWAP3 SWAP2 POP POP JUMP JUMPDEST PUSH1 0x0 PUSH2 0x1C57 PUSH1 0x13 DUP4 PUSH2 0x219F JUMP JUMPDEST PUSH32 0x616C72656164792D696E697469616C697A656400000000000000000000000000 DUP2 MSTORE PUSH1 0x20 ADD SWAP3 SWAP2 POP POP JUMP JUMPDEST PUSH1 0x0 PUSH2 0x1C90 PUSH1 0x12 DUP4 PUSH2 0x219F JUMP JUMPDEST PUSH32 0x7472616E73616374696F6E2D7265706C61790000000000000000000000000000 DUP2 MSTORE PUSH1 0x20 ADD SWAP3 SWAP2 POP POP JUMP JUMPDEST PUSH1 0x0 PUSH2 0x1CC9 PUSH1 0x1B DUP4 PUSH2 0x219F JUMP JUMPDEST PUSH32 0x696E76616C69642D7369676E6174757265732D6F72646572696E670000000000 DUP2 MSTORE PUSH1 0x20 ADD SWAP3 SWAP2 POP POP JUMP JUMPDEST PUSH1 0x0 PUSH2 0x1D02 PUSH1 0x29 DUP4 PUSH2 0x219F JUMP JUMPDEST PUSH32 0x6B65792D616E642D707572706F73652D61727261792D6D7573742D686176652D DUP2 MSTORE PUSH1 0x1 PUSH1 0xB8 SHL PUSH9 0x73616D652D73697A65 MUL PUSH1 0x20 DUP3 ADD MSTORE PUSH1 0x40 ADD SWAP3 SWAP2 POP POP JUMP JUMPDEST PUSH1 0x0 PUSH2 0x1D50 PUSH1 0x12 DUP4 PUSH2 0x219F JUMP JUMPDEST PUSH32 0x7468726573686F6C642D746F6F2D686967680000000000000000000000000000 DUP2 MSTORE PUSH1 0x20 ADD SWAP3 SWAP2 POP POP JUMP JUMPDEST PUSH1 0x0 PUSH2 0x1D89 PUSH1 0x16 DUP4 PUSH2 0x219F JUMP JUMPDEST PUSH32 0x696E76616C69642D6F7065726174696F6E2D7479706500000000000000000000 DUP2 MSTORE PUSH1 0x20 ADD SWAP3 SWAP2 POP POP JUMP JUMPDEST PUSH1 0x0 PUSH2 0x1DC2 PUSH1 0xD DUP4 PUSH2 0x219F JUMP JUMPDEST PUSH32 0x696E76616C69642D6E6F6E636500000000000000000000000000000000000000 DUP2 MSTORE PUSH1 0x20 ADD SWAP3 SWAP2 POP POP JUMP JUMPDEST PUSH1 0x0 PUSH2 0x1DFB PUSH1 0xF DUP4 PUSH2 0x219F JUMP JUMPDEST PUSH32 0x6D697373696E672D7369676E6572730000000000000000000000000000000000 DUP2 MSTORE PUSH1 0x20 ADD SWAP3 SWAP2 POP POP JUMP JUMPDEST PUSH1 0x0 PUSH2 0x1E34 PUSH1 0x1A DUP4 PUSH2 0x219F JUMP JUMPDEST PUSH32 0x6E6F742D656E6F7567682D6D616E6167656D656E742D6B657973000000000000 DUP2 MSTORE PUSH1 0x20 ADD SWAP3 SWAP2 POP POP JUMP JUMPDEST PUSH1 0x0 PUSH2 0x1E6D PUSH1 0x13 DUP4 PUSH2 0x219F JUMP JUMPDEST PUSH32 0x696E76616C69642D6D61737465722D7575696400000000000000000000000000 DUP2 MSTORE PUSH1 0x20 ADD SWAP3 SWAP2 POP POP JUMP JUMPDEST PUSH2 0x19A7 DUP2 PUSH2 0x21BD JUMP JUMPDEST PUSH1 0x0 PUSH2 0x1EAE DUP3 DUP13 PUSH2 0x19AD JUMP JUMPDEST PUSH1 0x14 DUP3 ADD SWAP2 POP PUSH2 0x1EBE DUP3 DUP12 PUSH2 0x1A32 JUMP JUMPDEST PUSH1 0x20 DUP3 ADD SWAP2 POP PUSH2 0x1ECE DUP3 DUP11 PUSH2 0x19AD JUMP JUMPDEST PUSH1 0x14 DUP3 ADD SWAP2 POP PUSH2 0x1EDE DUP3 DUP10 PUSH2 0x1A32 JUMP JUMPDEST PUSH1 0x20 DUP3 ADD SWAP2 POP PUSH2 0x1EEE DUP3 DUP9 PUSH2 0x1A32 JUMP JUMPDEST PUSH1 0x20 DUP3 ADD SWAP2 POP PUSH2 0x1EFE DUP3 DUP8 PUSH2 0x1A32 JUMP JUMPDEST PUSH1 0x20 DUP3 ADD SWAP2 POP PUSH2 0x1F0E DUP3 DUP7 PUSH2 0x1A32 JUMP JUMPDEST PUSH1 0x20 DUP3 ADD SWAP2 POP PUSH2 0x1F1E DUP3 DUP6 PUSH2 0x19AD JUMP JUMPDEST PUSH1 0x14 DUP3 ADD SWAP2 POP PUSH2 0x1F2E DUP3 DUP5 PUSH2 0x1A32 JUMP JUMPDEST POP PUSH1 0x20 ADD SWAP10 SWAP9 POP POP POP POP POP POP POP POP POP JUMP JUMPDEST PUSH1 0x0 PUSH2 0x1F4B DUP3 DUP5 PUSH2 0x1A7B JUMP JUMPDEST SWAP4 SWAP3 POP POP POP JUMP JUMPDEST PUSH1 0x0 PUSH2 0x1F5D DUP3 PUSH2 0x1AE3 JUMP JUMPDEST SWAP2 POP PUSH2 0x1F69 DUP3 DUP5 PUSH2 0x1A32 JUMP JUMPDEST POP PUSH1 0x20 ADD SWAP2 SWAP1 POP JUMP JUMPDEST PUSH1 0x20 DUP2 ADD PUSH2 0x5FA DUP3 DUP5 PUSH2 0x19BE JUMP JUMPDEST PUSH1 0x40 DUP2 ADD PUSH2 0x1F8E DUP3 DUP6 PUSH2 0x199E JUMP JUMPDEST PUSH2 0x1F4B PUSH1 0x20 DUP4 ADD DUP5 PUSH2 0x1A29 JUMP JUMPDEST PUSH1 0x20 DUP1 DUP3 MSTORE DUP2 ADD PUSH2 0x5F7 DUP2 DUP5 PUSH2 0x19C7 JUMP JUMPDEST PUSH1 0x20 DUP2 ADD PUSH2 0x5FA DUP3 DUP5 PUSH2 0x1A20 JUMP JUMPDEST PUSH1 0x20 DUP2 ADD PUSH2 0x5FA DUP3 DUP5 PUSH2 0x1A29 JUMP JUMPDEST PUSH1 0x80 DUP2 ADD PUSH2 0x1FD6 DUP3 DUP8 PUSH2 0x1A29 JUMP JUMPDEST PUSH2 0x1FE3 PUSH1 0x20 DUP4 ADD DUP7 PUSH2 0x1E99 JUMP JUMPDEST PUSH2 0x1FF0 PUSH1 0x40 DUP4 ADD DUP6 PUSH2 0x1A29 JUMP JUMPDEST PUSH2 0x1FFD PUSH1 0x60 DUP4 ADD DUP5 PUSH2 0x1A29 JUMP JUMPDEST SWAP6 SWAP5 POP POP POP POP POP JUMP JUMPDEST PUSH1 0x20 DUP1 DUP3 MSTORE DUP2 ADD PUSH2 0x5F7 DUP2 DUP5 PUSH2 0x1A43 JUMP JUMPDEST PUSH1 0x20 DUP1 DUP3 MSTORE DUP2 ADD PUSH2 0x5FA DUP2 PUSH2 0x1AAA JUMP JUMPDEST PUSH1 0x20 DUP1 DUP3 MSTORE DUP2 ADD PUSH2 0x5FA DUP2 PUSH2 0x1B1C JUMP JUMPDEST PUSH1 0x20 DUP1 DUP3 MSTORE DUP2 ADD PUSH2 0x5FA DUP2 PUSH2 0x1B55 JUMP JUMPDEST PUSH1 0x20 DUP1 DUP3 MSTORE DUP2 ADD PUSH2 0x5FA DUP2 PUSH2 0x1B8E JUMP JUMPDEST PUSH1 0x20 DUP1 DUP3 MSTORE DUP2 ADD PUSH2 0x5FA DUP2 PUSH2 0x1BC7 JUMP JUMPDEST PUSH1 0x20 DUP1 DUP3 MSTORE DUP2 ADD PUSH2 0x5FA DUP2 PUSH2 0x1C00 JUMP JUMPDEST PUSH1 0x20 DUP1 DUP3 MSTORE DUP2 ADD PUSH2 0x5FA DUP2 PUSH2 0x1C4A JUMP JUMPDEST PUSH1 0x20 DUP1 DUP3 MSTORE DUP2 ADD PUSH2 0x5FA DUP2 PUSH2 0x1C83 JUMP JUMPDEST PUSH1 0x20 DUP1 DUP3 MSTORE DUP2 ADD PUSH2 0x5FA DUP2 PUSH2 0x1CBC JUMP JUMPDEST PUSH1 0x20 DUP1 DUP3 MSTORE DUP2 ADD PUSH2 0x5FA DUP2 PUSH2 0x1CF5 JUMP JUMPDEST PUSH1 0x20 DUP1 DUP3 MSTORE DUP2 ADD PUSH2 0x5FA DUP2 PUSH2 0x1D43 JUMP JUMPDEST PUSH1 0x20 DUP1 DUP3 MSTORE DUP2 ADD PUSH2 0x5FA DUP2 PUSH2 0x1D7C JUMP JUMPDEST PUSH1 0x20 DUP1 DUP3 MSTORE DUP2 ADD PUSH2 0x5FA DUP2 PUSH2 0x1DB5 JUMP JUMPDEST PUSH1 0x20 DUP1 DUP3 MSTORE DUP2 ADD PUSH2 0x5FA DUP2 PUSH2 0x1DEE JUMP JUMPDEST PUSH1 0x20 DUP1 DUP3 MSTORE DUP2 ADD PUSH2 0x5FA DUP2 PUSH2 0x1E27 JUMP JUMPDEST PUSH1 0x20 DUP1 DUP3 MSTORE DUP2 ADD PUSH2 0x5FA DUP2 PUSH2 0x1E60 JUMP JUMPDEST PUSH1 0x40 DUP2 ADD PUSH2 0x1F8E DUP3 DUP6 PUSH2 0x1A29 JUMP JUMPDEST PUSH1 0x40 MLOAD DUP2 DUP2 ADD PUSH8 0xFFFFFFFFFFFFFFFF DUP2 GT DUP3 DUP3 LT OR ISZERO PUSH2 0x2144 JUMPI PUSH1 0x0 DUP1 REVERT JUMPDEST PUSH1 0x40 MSTORE SWAP2 SWAP1 POP JUMP JUMPDEST PUSH1 0x0 PUSH8 0xFFFFFFFFFFFFFFFF DUP3 GT ISZERO PUSH2 0x2163 JUMPI PUSH1 0x0 DUP1 REVERT JUMPDEST POP PUSH1 0x20 SWAP1 DUP2 MUL ADD SWAP1 JUMP JUMPDEST PUSH1 0x0 PUSH8 0xFFFFFFFFFFFFFFFF DUP3 GT ISZERO PUSH2 0x2184 JUMPI PUSH1 0x0 DUP1 REVERT JUMPDEST POP PUSH1 0x20 PUSH1 0x1F SWAP2 SWAP1 SWAP2 ADD PUSH1 0x1F NOT AND ADD SWAP1 JUMP JUMPDEST PUSH1 0x20 ADD SWAP1 JUMP JUMPDEST MLOAD SWAP1 JUMP JUMPDEST SWAP1 DUP2 MSTORE PUSH1 0x20 ADD SWAP1 JUMP JUMPDEST SWAP2 SWAP1 POP JUMP JUMPDEST PUSH1 0x0 PUSH2 0x5FA DUP3 PUSH2 0x7E8 JUMP JUMPDEST ISZERO ISZERO SWAP1 JUMP JUMPDEST PUSH1 0xFF AND SWAP1 JUMP JUMPDEST PUSH1 0x0 PUSH2 0x5FA DUP3 PUSH1 0x0 PUSH2 0x5FA DUP3 PUSH2 0x21AD JUMP JUMPDEST DUP3 DUP2 DUP4 CALLDATACOPY POP PUSH1 0x0 SWAP2 ADD MSTORE JUMP JUMPDEST PUSH1 0x0 JUMPDEST DUP4 DUP2 LT ISZERO PUSH2 0x21FB JUMPI DUP2 DUP2 ADD MLOAD DUP4 DUP3 ADD MSTORE PUSH1 0x20 ADD PUSH2 0x21E3 JUMP JUMPDEST DUP4 DUP2 GT ISZERO PUSH2 0x6FD JUMPI POP POP PUSH1 0x0 SWAP2 ADD MSTORE JUMP JUMPDEST PUSH1 0x0 PUSH2 0x5FA DUP3 PUSH1 0x0 PUSH2 0x5FA DUP3 PUSH2 0x2227 JUMP JUMPDEST PUSH1 0x1F ADD PUSH1 0x1F NOT AND SWAP1 JUMP JUMPDEST PUSH1 0x60 SHL SWAP1 JUMP JUMPDEST PUSH2 0x2236 DUP2 PUSH2 0x21AD JUMP JUMPDEST DUP2 EQ PUSH2 0x13CE JUMPI PUSH1 0x0 DUP1 REVERT JUMPDEST PUSH2 0x2236 DUP2 PUSH2 0x21B8 JUMP JUMPDEST PUSH2 0x2236 DUP2 PUSH2 0x5C3 JUMP INVALID LOG2 PUSH6 0x627A7A723058 KECCAK256 0xc9 ORIGIN SWAP15 PUSH17 0xF90353DAF17D50626597600F57FDE21CA8 SWAP11 RETURNDATASIZE 0xcb SGT SWAP5 PUSH21 0x12485C63CF6C6578706572696D656E74616CF50037 "
    }
  },
  "interface": [
    {
      "constant": false,
      "inputs": [
        {
          "name": "_key",
          "type": "bytes32"
        },
        {
          "name": "_purpose",
          "type": "uint256"
        }
      ],
      "name": "setKey",
      "outputs": [],
      "payable": false,
      "stateMutability": "nonpayable",
      "type": "function"
    },
    {
      "constant": false,
      "inputs": [
        {
          "name": "_key",
          "type": "bytes32"
        },
        {
          "name": "_purpose",
          "type": "bytes32"
        }
      ],
      "name": "setKey",
      "outputs": [],
      "payable": false,
      "stateMutability": "nonpayable",
      "type": "function"
    },
    {
      "constant": false,
      "inputs": [
        {
          "name": "_keys",
          "type": "bytes32[]"
        },
        {
          "name": "_purposes",
          "type": "bytes32[]"
        },
        {
          "name": "_managementThreshold",
          "type": "uint256"
        },
        {
          "name": "_actionThreshold",
          "type": "uint256"
        }
      ],
      "name": "initialize",
      "outputs": [],
      "payable": false,
      "stateMutability": "nonpayable",
      "type": "function"
    },
    {
      "constant": true,
      "inputs": [],
      "name": "managementKeyCount",
      "outputs": [
        {
          "name": "",
          "type": "uint256"
        }
      ],
      "payable": false,
      "stateMutability": "view",
      "type": "function"
    },
    {
      "constant": true,
      "inputs": [
        {
          "name": "_key",
          "type": "bytes32"
        }
      ],
      "name": "getKey",
      "outputs": [
        {
          "name": "",
          "type": "bytes32"
        }
      ],
      "payable": false,
      "stateMutability": "view",
      "type": "function"
    },
    {
      "constant": true,
      "inputs": [
        {
          "name": "_data",
          "type": "bytes32"
        },
        {
          "name": "_signature",
          "type": "bytes"
        }
      ],
      "name": "isValidSignature",
      "outputs": [
        {
          "name": "",
          "type": "bool"
        }
      ],
      "payable": false,
      "stateMutability": "view",
      "type": "function"
    },
    {
      "constant": false,
      "inputs": [
        {
          "name": "_actionThreshold",
          "type": "uint256"
        }
      ],
      "name": "setActionThreshold",
      "outputs": [],
      "payable": false,
      "stateMutability": "nonpayable",
      "type": "function"
    },
    {
      "constant": false,
      "inputs": [
        {
          "name": "_key",
          "type": "address"
        },
        {
          "name": "_purpose",
          "type": "uint256"
        }
      ],
      "name": "setKey",
      "outputs": [],
      "payable": false,
      "stateMutability": "nonpayable",
      "type": "function"
    },
    {
      "constant": false,
      "inputs": [
        {
          "name": "_key",
          "type": "address"
        },
        {
          "name": "_purpose",
          "type": "bytes32"
        }
      ],
      "name": "setKey",
      "outputs": [],
      "payable": false,
      "stateMutability": "nonpayable",
      "type": "function"
    },
    {
      "constant": false,
      "inputs": [
        {
          "name": "_operationType",
          "type": "uint256"
        },
        {
          "name": "_to",
          "type": "address"
        },
        {
          "name": "_value",
          "type": "uint256"
        },
        {
          "name": "_data",
          "type": "bytes"
        }
      ],
      "name": "execute",
      "outputs": [],
      "payable": false,
      "stateMutability": "nonpayable",
      "type": "function"
    },
    {
      "constant": true,
      "inputs": [],
      "name": "masterId",
      "outputs": [
        {
          "name": "",
          "type": "bytes32"
        }
      ],
      "payable": false,
      "stateMutability": "pure",
      "type": "function"
    },
    {
      "constant": true,
      "inputs": [
        {
          "name": "_key",
          "type": "bytes32"
        }
      ],
      "name": "getData",
      "outputs": [
        {
          "name": "",
          "type": "bytes"
        }
      ],
      "payable": false,
      "stateMutability": "view",
      "type": "function"
    },
    {
      "constant": true,
      "inputs": [
        {
          "name": "_key",
          "type": "address"
        },
        {
          "name": "_purpose",
          "type": "uint256"
        }
      ],
      "name": "keyHasPurpose",
      "outputs": [
        {
          "name": "",
          "type": "bool"
        }
      ],
      "payable": false,
      "stateMutability": "view",
      "type": "function"
    },
    {
      "constant": true,
      "inputs": [
        {
          "name": "_key",
          "type": "bytes32"
        },
        {
          "name": "_purpose",
          "type": "bytes32"
        }
      ],
      "name": "keyHasPurpose",
      "outputs": [
        {
          "name": "",
          "type": "bool"
        }
      ],
      "payable": false,
      "stateMutability": "view",
      "type": "function"
    },
    {
      "constant": true,
      "inputs": [
        {
          "name": "_addr",
          "type": "address"
        }
      ],
      "name": "addrToKey",
      "outputs": [
        {
          "name": "",
          "type": "bytes32"
        }
      ],
      "payable": false,
      "stateMutability": "pure",
      "type": "function"
    },
    {
      "constant": false,
      "inputs": [
        {
          "name": "_newMaster",
          "type": "address"
        },
        {
          "name": "_initData",
          "type": "bytes"
        },
        {
          "name": "_reset",
          "type": "bool"
        }
      ],
      "name": "updateMaster",
      "outputs": [],
      "payable": false,
      "stateMutability": "nonpayable",
      "type": "function"
    },
    {
      "constant": false,
      "inputs": [
        {
          "name": "_key",
          "type": "bytes32"
        },
        {
          "name": "_value",
          "type": "bytes"
        }
      ],
      "name": "setData",
      "outputs": [],
      "payable": false,
      "stateMutability": "nonpayable",
      "type": "function"
    },
    {
      "constant": true,
      "inputs": [],
      "name": "getActiveKeys",
      "outputs": [
        {
          "name": "",
          "type": "bytes32[]"
        }
      ],
      "payable": false,
      "stateMutability": "view",
      "type": "function"
    },
    {
      "constant": true,
      "inputs": [],
      "name": "owner",
      "outputs": [
        {
          "name": "",
          "type": "address"
        }
      ],
      "payable": false,
      "stateMutability": "view",
      "type": "function"
    },
    {
      "constant": true,
      "inputs": [],
      "name": "getManagementThreshold",
      "outputs": [
        {
          "name": "",
          "type": "uint256"
        }
      ],
      "payable": false,
      "stateMutability": "view",
      "type": "function"
    },
    {
      "constant": true,
      "inputs": [
        {
          "name": "_key",
          "type": "address"
        }
      ],
      "name": "getKey",
      "outputs": [
        {
          "name": "",
          "type": "bytes32"
        }
      ],
      "payable": false,
      "stateMutability": "view",
      "type": "function"
    },
    {
      "constant": true,
      "inputs": [],
      "name": "nonce",
      "outputs": [
        {
          "name": "",
          "type": "uint256"
        }
      ],
      "payable": false,
      "stateMutability": "view",
      "type": "function"
    },
    {
      "constant": false,
      "inputs": [
        {
          "name": "_operationType",
          "type": "uint256"
        },
        {
          "name": "_to",
          "type": "address"
        },
        {
          "name": "_value",
          "type": "uint256"
        },
        {
          "name": "_data",
          "type": "bytes"
        },
        {
          "name": "_nonce",
          "type": "uint256"
        },
        {
          "name": "_salt",
          "type": "bytes32"
        },
        {
          "name": "_gasToken",
          "type": "address"
        },
        {
          "name": "_gasPrice",
          "type": "uint256"
        },
        {
          "name": "_sigs",
          "type": "bytes[]"
        }
      ],
      "name": "execute",
      "outputs": [],
      "payable": false,
      "stateMutability": "nonpayable",
      "type": "function"
    },
    {
      "constant": true,
      "inputs": [
        {
          "name": "_key",
          "type": "bytes32"
        },
        {
          "name": "_purpose",
          "type": "uint256"
        }
      ],
      "name": "keyHasPurpose",
      "outputs": [
        {
          "name": "",
          "type": "bool"
        }
      ],
      "payable": false,
      "stateMutability": "view",
      "type": "function"
    },
    {
      "constant": false,
      "inputs": [
        {
          "name": "_managementThreshold",
          "type": "uint256"
        }
      ],
      "name": "setManagementThreshold",
      "outputs": [],
      "payable": false,
      "stateMutability": "nonpayable",
      "type": "function"
    },
    {
      "constant": true,
      "inputs": [],
      "name": "getActionThreshold",
      "outputs": [
        {
          "name": "",
          "type": "uint256"
        }
      ],
      "payable": false,
      "stateMutability": "view",
      "type": "function"
    },
    {
      "constant": true,
      "inputs": [],
      "name": "master",
      "outputs": [
        {
          "name": "",
          "type": "address"
        }
      ],
      "payable": false,
      "stateMutability": "view",
      "type": "function"
    },
    {
      "constant": true,
      "inputs": [
        {
          "name": "_key",
          "type": "address"
        },
        {
          "name": "_purpose",
          "type": "bytes32"
        }
      ],
      "name": "keyHasPurpose",
      "outputs": [
        {
          "name": "",
          "type": "bool"
        }
      ],
      "payable": false,
      "stateMutability": "view",
      "type": "function"
    },
    {
      "inputs": [],
      "payable": false,
      "stateMutability": "nonpayable",
      "type": "constructor"
    },
    {
      "payable": true,
      "stateMutability": "payable",
      "type": "fallback"
    },
    {
      "anonymous": false,
      "inputs": [
        {
          "indexed": true,
          "name": "key",
          "type": "bytes32"
        },
        {
          "indexed": true,
          "name": "previousPurpose",
          "type": "bytes32"
        },
        {
          "indexed": true,
          "name": "newPurpose",
          "type": "bytes32"
        }
      ],
      "name": "SetKey",
      "type": "event"
    },
    {
      "anonymous": false,
      "inputs": [
        {
          "indexed": false,
          "name": "previousThreshold",
          "type": "uint256"
        },
        {
          "indexed": false,
          "name": "newThreshold",
          "type": "uint256"
        }
      ],
      "name": "ManagementThresholdChange",
      "type": "event"
    },
    {
      "anonymous": false,
      "inputs": [
        {
          "indexed": false,
          "name": "previousThreshold",
          "type": "uint256"
        },
        {
          "indexed": false,
          "name": "newThreshold",
          "type": "uint256"
        }
      ],
      "name": "ActionThresholdChange",
      "type": "event"
    },
    {
      "anonymous": false,
      "inputs": [
        {
          "indexed": true,
          "name": "previousMaster",
          "type": "address"
        },
        {
          "indexed": true,
          "name": "newMaster",
          "type": "address"
        }
      ],
      "name": "MasterChange",
      "type": "event"
    },
    {
      "anonymous": false,
      "inputs": [
        {
          "indexed": true,
          "name": "key",
          "type": "bytes32"
        },
        {
          "indexed": false,
          "name": "value",
          "type": "bytes"
        }
      ],
      "name": "DataChanged",
      "type": "event"
    },
    {
      "anonymous": false,
      "inputs": [
        {
          "indexed": true,
          "name": "contractAddress",
          "type": "address"
        }
      ],
      "name": "ContractCreated",
      "type": "event"
    },
    {
      "anonymous": false,
      "inputs": [
        {
          "indexed": true,
          "name": "to",
          "type": "address"
        }
      ],
      "name": "CallSuccess",
      "type": "event"
    },
    {
      "anonymous": false,
      "inputs": [
        {
          "indexed": true,
          "name": "to",
          "type": "address"
        },
        {
          "indexed": false,
          "name": "returndata",
          "type": "bytes"
        }
      ],
      "name": "CallFailure",
      "type": "event"
    }
  ]
}